:100000000000042071030000590300005B0300009E
:100010005D0300005F0300006103000000000000BA
:10002000000000000000000000000000630300006A
:10003000650300000000000067030000736C00000F
:100040006B0300006B030000011C0000414900002D
:100050006B0300006B0300007D2800006B030000B1
:100060008D3B00006B0300006B0300006B0300007E
:100070006B0300006B0300006B0300006B030000C8
:100080006B0300006B0300006B0300006B030000B8
:100090006B0300006B0300006B0300006B030000A8
:1000A0006B0300006B0300006B0300006B03000098
:1000B0006B0300006B030000000000000000000064
:1000C0006B0300006B0300006B0300006B03000078
:1000D0006B030000413300006B0300006B03000062
:1000E0006B0300006B0300006B03000000000000C6
:1000F000000000006B030000000000006B03000024
:1001000000000000000000000000000000000000EF
:1001100000000000000000000000000000000000DF
:1001200000000000000000000000000000000000CF
:1001300000000000000000000000000000000000BF
:1001400000000000000000000000000000000000AF
:10015000000000000000000000000000000000009F
:10016000000000000000000000000000000000008F
:10017000000000000000000000000000000000007F
:10018000000000000000000000000000000000006F
:10019000000000000000000000000000000000005F
:1001A000000000000000000000000000000000004F
:1001B000000000000000000000000000000000003F
:1001C000000000000000000000000000000000002F
:1001D000000000000000000000000000000000001F
:1001E000000000000000000000000000000000000F
:1001F00000000000000000000000000000000000FF
:10020000344935480A1A02D0072291438D463349B2
:1002100033480A1A06D00722914381F30988022243
:1002200082F314882F483049304A00F041F83048B2
:100230003049314A00F03CF830483149314A00F049
:1002400037F831483149324A00F032F83148324902
:10025000324A00F02DF832483249334A00F028F88B
:1002600032483349334A00F023F8334833490022F7
:1002700000F029F832483349002200F024F83248CF
:100280003249091A06F05CFD314A90471F4820495F
:10029000884205D00268043003B4904703BCF7E7F6
:1002A00000208646EC46002000212A4A9047FEE7BF
:1002B000884207D0521A05D0037801300B70013103
:1002C000013AF9D17047884202D002700130FAE752
:1002D000704700000000042000E00320000004201C
:1002E0000000042018340D00000000200D00002044
:1002F000CC030000CC030000546D000018340D0046
:100300000000002000000020A86D0000A86D000083
:10031000A86D0000A86D0000A86D0000A86D000089
:10032000A86D0000A86D000018340D0028340D00E1
:10033000100000201000002010000020FC290020E8
:10034000FC290020FC290020FC290020FC49002079
:1003500099030000FD5F0000FEE7FEE7FEE7FEE711
:10036000FEE7FEE7FEE7FEE7FEE7FEE700F002B885
:10037000FFF7FCBF0F484FF00701884385460E4842
:1003800080470E48016841F470010160BFF34F8F50
:10039000BFF36F8FFFF734BF09480A490A4A884202
:1003A00007D0521A05D0037801300B700131013AA1
:1003B000F9D17047000004200D4D000088ED00E0E9
:0C03C000A86D00000000002000000020DC
:1003CC0000B583B001900091019B1B681B680099DC
:1003DC000198984700BF03B05DF804FB00B583B0EB
:1003EC000190019B1B685B680198984700BF03B0A4
:1003FC005DF804FB00B583B00190019B1B689B6802
:10040C000198984700BF03B05DF804FB82B00190DF
:10041C00019BDB6801225A7100BF02B0704782B0A9
:10042C000190019BDB685B79184602B070470000B5
:10043C00024A034BD31ADB0818467047946D000030
:10044C00546D000084B00190009100238DF80F30A2
:10045C00019B1B7803F00403DBB2002B24D0019B1F
:10046C001B78C3F30103DBB2012B02D0022B0CD09F
:10047C0017E0009B1B68019A1288C2F38312D2B258
:10048C0013449A1C009B1A600BE0009B1B68019A9A
:10049C005288C2F3891292B213449A1C009B1A60C0
:1004AC0000BF01238DF80F309DF80F30184604B0B3
:1004BC007047000000B58BB00023ADF826303E48E5
:1004CC0000F092FF3D4800F08FFF3D4B9B6804937A
:1004DC003C4B1B680693049A069B134002339B000B
:1004EC00374A13440433089304AB19460898FFF7B2
:1004FC00A9FF0346002B09D0049A069B1340023334
:10050C009B002F4A134404330893EDE700BF0023EC
:10051C00079311E0049B5A1C0492069A1340079A05
:10052C00920001A90A44264902339B000B445B68E4
:10053C001360079B01330793079B012BEAD99DF8A6
:10054C000430C3F30103DBB2012B10D0022B1CD1FE
:10055C00BDF80A30ADF82630BDF80630C3F3891368
:10056C009BB203339A08049B1344049313E0BDF825
:10057C000A30ADF82630BDF80430C3F38313DBB278
:10058C001A46049B1344049305E00F494FF4C270C0
:10059C0000F09DFE00BF094800F032FF0590059B5E
:1005AC00002B02D0049B064A9360BDF826301846F7
:1005BC000BB05DF804FB00BFF8040020F40400202D
:1005CC00E000002000000020AC6D000000B585B0FC
:1005DC000021074800F091FE0390039B0293029BBD
:1005EC0083F310030193019B184605B05DF804FBDF
:1005FC00FC04002000B589B0039002910192009395
:10060C00039B1B0C0793FFF7E1FF0690FFF710FF0E
:10061C000246079B934204D3214940F2A91000F0F3
:10062C0056FE069B1904009B5A1C0A9B1340079A02
:10063C000A431C4902339B000B445A60009A0A9BE4
:10064C00134002339B00174A134404330593039B56
:10065C0003F00703D9B2059A137861F3C50313703D
:10066C00019B03F00F03D9B2059A138861F3891328
:10067C001380029BC3F31501059A136861F39F2342
:10068C001360059A1378012161F301031370059A25
:10069C0013786FF38203137000BF09B05DF804FB8D
:1006AC00AC6D0000E000002000BF704700B58BB0BF
:1006BC000390029113468DF80730039B0233089385
:1006CC0001238DF81F30002000F0BAFD3E4B5A6814
:1006DC00029B1A603D4B1A683B4B99683A4B5B681E
:1006EC00CB1A13440133099314E00121384800F06C
:1006FC004BFEFFF7DFFE05900599354800F044FEF0
:10070C00324B1A68304B99682F4B5B68CB1A1344E9
:10071C0001330993089A099B9A42E6D89DF81F3039
:10072C00002B48D0002304939DF80730002B17D0E2
:10073C009DF81030012262F301038DF810309DF802
:10074C00103043F004038DF81030039B03F00F03BB
:10075C00DAB2BDF8103062F38913ADF8103016E040
:10076C009DF81030022262F301038DF810309DF8D1
:10077C00103043F004038DF81030039BC3F30903CE
:10078C009AB2BDF8123062F38F13ADF812300E4BE3
:10079C005A680E4B1B68134002339B000A4A1344E1
:1007AC0004330693049A069B1A60074B5A68089BFD
:1007BC001344054A5360002000F056FD9DF81F308D
:1007CC0018460BB05DF804FBE00000200000002090
:1007DC00FC04002000B58BB00590049103920293A9
:1007EC00204B1B68079306AB012219460298FFF7B2
:1007FC005DFF0346002B24D0069B02330993002394
:10080C00089311E0089B9B00039A1A44099B591CFE
:10081C00099107990B401268134902339B000B4452
:10082C005A60089B01330893089A029B9A42E9D3B9
:10083C00069A079B00931346029A04990598FFF7B2
:10084C00D9FE094B1B78002B05D000BF00F06AF8CD
:10085C000346002BFAD1FFF727FF00BF0BB05DF862
:10086C0004FB00BF00000020E000002000B583B0B6
:10087C00019000910023002200990198FFF7AAFF34
:10088C0000BF03B05DF804FB00B587B00390029184
:10089C000192019B059305AA012302990398FFF786
:1008AC0099FF00BF07B05DF804FB00B587B003905B
:1008BC00029101920093019B0493009B059304AA5F
:1008CC00022302990398FFF785FF00BF07B05DF87C
:1008DC0004FB00B58BB00390029101920093019B35
:1008EC000593009B06930C9B07930D9B08930E9B03
:1008FC00099305AA052302990398FFF76BFF00BF24
:10090C000BB05DF804FB0000054B9A68044B5B6868
:10091C009A420CBF01230023DBB21846704700BF7C
:10092C00E000002000B599B0FFF7EEFF0346002B66
:10093C0001D00023B9E19B4B0022C3F81824BFF36C
:10094C004F8F00BF974B9B680493974B1B6810937A
:10095C00049A109B134002339B00924A13440433B5
:10096C001193002317930023169300230F9304ABCA
:10097C0019461198FFF766FD0346002B19D0894BD9
:10098C00D3F81834002B14D1864B5A68049B9A4226
:10099C0005D8844B5B68834A9360002385E1049AF5
:1009AC00109B134002339B007E4A13440433119373
:1009BC00DDE70023159311E0049B5A1C0492109A56
:1009CC001340159A920001A90A44764902339B0000
:1009DC000B445B681360159B01331593159B012B1E
:1009EC00EAD99DF8043003F00303DBB2022B40F08C
:1009FC009C80BDF80630C3F389139BB20D93BDF8F0
:100A0C000630C3F389139BB2502B28BF50239BB2E3
:100A1C000C930C9BC3F309039AB2BDF8063062F336
:100A2C008F13ADF806300C9B08330B939DF80430F4
:100A3C00C3F3C203DBB20F930B995C4800F090FD3B
:100A4C001790179B002B00F0D380179800F019FE1D
:100A5C0001A9169B0822179800F0CEFE169B0833AE
:100A6C001693049BDA43109B134001339B000A93AB
:100A7C000C9A0A9B9A4242D90A9B002B08D0049AE2
:100A8C00109B134002339B00464A1344043300E08E
:100A9C00474B08930A9B002B02D00A9BDBB201E068
:100AAC000C9BDBB28DF81F300A9B002B01D0404B06
:100ABC0000E0002306930A9B002B06D00C9BDAB2B5
:100ACC000A9BDBB2D31ADBB200E000238DF817309F
:100ADC009DF81F20169B0899179800F08DFE9DF825
:100AEC001F30169A13441693069B002B16D09DF8B4
:100AFC001720169B0699179800F07EFE0EE0049ABC
:100B0C00109B134002339B00264A13440433099371
:100B1C00169B0C9A0999179800F06EFE0D9B0333E7
:100B2C009A08049B1344049362E09DF8043003F08C
:100B3C000303DBB2012B5BD1BDF80430C3F3831389
:100B4C00DBB2062B28BF0623DAB2BDF8043062F301
:100B5C008913ADF80430BDF80430C3F38313DBB252
:100B6C0002330E939DF80430C3F3C203DBB20F9330
:100B7C000E9B9B0019460D4800F0F2FC1790179B3A
:100B8C00002B35D0179800F07CFD01A9169B08228C
:100B9C00179800F031FE169B08331693002315931B
:100BAC001DE000BFE000002000000020946D00005C
:100BBC00EC000020049B5A1C0492109A1340023340
:100BCC009B003C4A1344191D169B0422179800F0F5
:100BDC0013FE169B04331693159B01331593BDF826
:100BEC000430C3F38313DBB21A46159B9342E1D353
:100BFC00179B002B39D02F4BD3F8103414932D4B5B
:100C0C00D3F81834002B1BD0179800F049FD46E0A0
:100C1C0000238DF84F301498FFF701FC0346002B8E
:100C2C0002D001238DF84F309DF84F30002B03D0AC
:100C3C0017991498FFF7C4FB149BDB681B6814937B
:100C4C00149B002BE4D1179800F02AFD002000F033
:100C5C00F7FA184BD3F81834002B02D1049B154A21
:100C6C009360002000F000FB19E0124BD3F8103415
:100C7C00129306E01298FFF7BDFB129BDB681B6812
:100C8C001293129B002BF5D10B4A0C4BD31ADB0899
:100C9C001B0443F002030A491846FFF7E7FDFFF770
:100CAC0033FE034683F00103DBB2184619B05DF83E
:100CBC0004FB00BFE00000208C6D0000546D0000B0
:100CCC00046E000000B583B00C4BD3F810340193C4
:100CDC000A4B01221A7009E00198FFF797FB019863
:100CEC00FFF77CFB019BDB681B680193019B002BCE
:100CFC00F2D100BF00BF03B05DF804FBE0000020A0
:100D0C0000B583B00190019B1B68184600F0E5F814
:100D1C000346002B04D10B494FF4F67000F0D7FAC0
:100D2C00019B1B681F2B02D84FF0A04306E0019BD0
:100D3C001B6803F01F02019B1A60034B184603B09B
:100D4C005DF804FB186E00000003005000B585B080
:100D5C000190084611461A4603468DF803300B469F
:100D6C008DF8023013468DF8013001AB1846FFF7B1
:100D7C00C7FF03909DF803209DF802305B001A43D7
:100D8C009DF801309B001A439DF818301B0242EA73
:100D9C0003019DF81C301B04019A1943039B02F5B7
:100DAC00E07243F8221000BF05B05DF804FB00B5FB
:100DBC0085B00390002301930023009300230122AC
:100DCC0001210398FFF7C2FF00BF05B05DF804FBDB
:100DDC0000B585B003900B468DF80B309DF80B30A9
:100DEC000022019200220092002200210398FFF7BA
:100DFC00ADFF00BF05B05DF804FB00B585B00190F8
:100E0C0001AB1846FFF77CFF0390019B012202FA0D
:100E1C0003F31946039800F04CF800BF05B05DF8D9
:100E2C0004FB00B585B0019001AB1846FFF768FFD5
:100E3C000390019B012202FA03F31946039800F078
:100E4C0042F800BF05B05DF804FB00B585B0019019
:100E5C0001AB1846FFF754FF0390039BD3F80435FE
:100E6C000293029BDA43019B012101FA03F31A401E
:100E7C00039BC3F80825019B01229A40029B1A4050
:100E8C00039BC3F80C2500BF05B05DF804FB00B54F
:100E9C0083B001900091009B002B03D10198FFF7C8
:100EAC00C0FF02E00198FFF7A8FF00BF03B05DF898
:100EBC0004FB82B001900091019B009AC3F80825B5
:100ECC0000BF02B0704782B001900091019B009A64
:100EDC00C3F80C2500BF02B0704784B00190019B91
:100EEC005B09029300230393029B002B03D0029B0C
:100EFC00012B04D007E04FF0FF33039303E04FF6D0
:100F0C00FF73039300BF019B03F01F030193039A2C
:100F1C00019B22FA03F303F00103002B14BF0123FE
:100F2C000023DBB2184604B07047000000B583B054
:100F3C000190019B032B03D90749472000F0C7F907
:100F4C00064A019B13441B7801211846FFF79FFFAB
:100F5C0000BF03B05DF804FB486E0000886E000013
:100F6C0000B583B00023019305E00198FFF7DEFF85
:100F7C00019B01330193019B032BF6D900BF00BFEA
:100F8C0003B05DF804FB000000B583B00190019B39
:100F9C00032B03D907495F2000F099F9064A019BFE
:100FAC0013441B781846FFF750FF00BF03B05DF8E1
:100FBC0004FB00BF486E0000886E000000B583B0D3
:100FCC000023019309E0094A019B13441B7818463E
:100FDC00FFF7EDFE019B01330193019B032BF2D92B
:100FEC00FFF7BEFF00BF03B05DF804FB886E000086
:100FFC0000B583B0002301930AE0094A019B134416
:10100C001B7803211846FFF7E3FE019B0133019384
:10101C00019B032BF1D900BF00BF03B05DF804FBAB
:10102C008C6E000000B583B00190019B03F00103AE
:10103C00002B01D0FFF7C2FF019B03F00203002B32
:10104C0001D0FFF7D5FF00BF03B05DF804FB000033
:10105C0086B003900291019201238DF817309DF810
:10106C001730204A039B13601E4A029B53601D4A93
:10107C00019B9360039B44F20102934212D0039BA9
:10108C0044F20202934220D1019B164AD360154BC5
:10109C00DB681B68134A9361124BDB685B68114A6F
:1010AC00D36112E0019B0F4A13610E4B1B699B68C5
:1010BC000C4A53610B4B1B691B680A4A9361094B21
:1010CC001B695B68074AD36100BF72B600BF00BFE3
:1010DC009DF81730DBB2002BFAD162B600BF00BF0F
:1010EC0006B070470005002000B583B00290009157
:1010FC00019244F2010071466A4600F003F803B015
:10110C0000BD00BF30B58BB007900691059272B64A
:10111C0000BFFFF7D7FD00BFFFF704FC0346002B11
:10112C00FAD1079B44F20102934216D0079B44F27A
:10113C00020293423ED1059B09932C4A2C4BD31AA5
:10114C00DB081B0443F00100099B5B681A46099BF2
:10115C001B682849FFF7A9FB39E0059B0893234A34
:10116C00234BD31ADB081B0443F00104089B9D6836
:10117C00089B9B68184600F05DFB03461846089BCD
:10118C005B681946089B1B68069A029201930091B2
:10119C0003462A4618492046FFF79BFB134A144B7B
:1011AC00D31ADB081B0443F0010314491846FFF75C
:1011BC005DFB0CE00D4A0E4BD31ADB081B0443F00D
:1011CC000103069A0E491846FFF75EFB00BF0D4B54
:1011DC001B6803F00103002B00D000BE059A069992
:1011EC000798FFF735FF00BF0BB030BD8C6D0000CA
:1011FC00546D0000906E0000AC6E0000D46E0000C8
:10120C00E86E0000F0ED00E072B600BF034B1B6807
:10121C000133024A136000BF704700BF2005002055
:10122C00064B1B68013B054A1360044B1B68002BE3
:10123C0001D162B600BF00BF704700BF200500207F
:10124C0000B583B0019000F025F80346012B03D0C4
:10125C000449432000F03BF8FFF7D6FF00BF03B072
:10126C005DF804FB006F000000B583B003468DF8F9
:10127C00073000F00FF80346012B03D0044951202E
:10128C0000F025F8FFF7CCFF00BF03B05DF804FBBE
:10129C00006F000084B0EFF305830193019BC3F34F
:1012AC0008030393039B002B0DD1EFF314830093DE
:1012BC00009B0293029B03F00103002B0CBF012344
:1012CC000023DBB200E00123184604B0704700B5E0
:1012DC0085B003460091ADF80630BDF80630029398
:1012EC00009B039302AB1A46002144F20200FFF765
:1012FC0009FF00BF05B05DF804FB10B487B0019086
:10130C000091019B009A53E8004F104643E80001FE
:10131C0091F0000FF7D1059404900391059B1846AA
:10132C0007B05DF8044B704710B487B00190009182
:10133C00019B009A53E8004F44EA020043E8000185
:10134C0091F0000FF6D1059404900391049B18467C
:10135C0007B05DF8044B704710B487B00190009152
:10136C00019B009A53E8004F04EA020043E8000195
:10137C0091F0000FF6D1059404900391059B18464B
:10138C0007B05DF8044B704710B487B00190009122
:10139C00019B009A53E8004F04EB020043E8000164
:1013AC0091F0000FF6D1059404900391049B18461C
:1013BC0007B05DF8044B704710B487B001900091F2
:1013CC00019B009A53E8004FA4EB020043E8000194
:1013DC0091F0000FF6D1059404900391049B1846EC
:1013EC0007B05DF8044B704700B583B00190012144
:1013FC000198FFF799FF0346184603B05DF804FB0C
:10140C0000B583B0019000210198FFF7A5FF0346BA
:10141C00184603B05DF804FB00B583B001900B4691
:10142C008DF80330019B002B03D10849E820FFF70E
:10143C004EFF019BDA689DF803300199098A01FB84
:10144C0003F31344184603B05DF804FB546F00001B
:10145C0000B583B001900091019B002B03D108498A
:10146C00F520FFF734FF009B019AD2689B1A019A72
:10147C00128AB3FBF2F3DBB2184603B05DF804FB3F
:10148C00546F000000B585B00190019B002B04D176
:10149C001C494FF49270FFF71AFF002303930020AE
:1014AC00FFF7CEFE019B1B681A68019B5B689A4292
:1014BC001FD9019B1B681A68013A1A601B681B78BC
:1014CC0019460198FFF7A8FF0390019B9A68019BAE
:1014DC001B681B68D31A8DF80B30019B1B681B799A
:1014EC009DF80B209A4204D9019B1B689DF80B2098
:1014FC001A710020FFF7B8FE039B184605B05DF883
:10150C0004FB00BF546F000010B584B00190009133
:10151C00019B002B04D1114940F24710FFF7D7FE75
:10152C00009B002B04D10D494FF4A470FFF7CFFEA4
:10153C00009B03930020FFF783FE019B1B681C6834
:10154C00621C1A6003990198FFF782FF034623700F
:10155C000020FFF789FE00BF04B010BD546F0000DF
:10156C0000B58BB001900091019B1B8A043B079343
:10157C00009A079B1344DA1C079BB2FBF3F38DF81C
:10158C001B300198FFF77EFF0590059B002B01D1C6
:10159C00002338E0059B00221A71059B01225A7129
:1015AC00079B9AB2059BDA80059B09939DF81B302B
:1015BC00013B0493099B019A1A60002308931DE0D8
:1015CC000198FFF75FFF0390039B002B0ED0059B48
:1015DC005B790133DAB2059B5A71099B039A1A6045
:1015EC00039B019A1A60039B099304E0059800F091
:1015FC000EF8002307E0089B01330893089A049B1C
:10160C009A42DDD3059B18460BB05DF804FB00B580
:10161C008BB00190019B0793079B5B798DF81B3076
:10162C00019B08939DF81B30013B05930023099304
:10163C0005E0089B1B680893099B01330993099AE1
:10164C00059B9A42F5D3089B1B680493019B089356
:10165C00002309930BE0089B1B68039308990498DB
:10166C00FFF752FF039B0893099B013309939DF8E5
:10167C001B30099A9A42EED300BF00BF0BB05DF845
:10168C0004FB00B585B00190019B0393039B0433CD
:10169C0001211846FFF778FE00BF05B05DF804FB8A
:1016AC0000B587B00190019B0593059B0433012184
:1016BC001846FFF781FE0346039303AB0493049B88
:1016CC001B78002B02D10198FFF7A1FF00BF07B0D8
:1016DC005DF804FB00B591B0039002910192009368
:1016EC00039B002B03D14349B620FFF7F0FD039B6E
:1016FC000993039B0F93099BDB881A46099B5B7923
:10170C0002FB03F3043B0893009A089B9A4203D311
:10171C003849C420FFF7DBFD099BDB880793009B4E
:10172C001A1D079BB2FBF3F30E93009B0433079A2D
:10173C00B3FBF2F2079901FB02F29B1A0D93019B8A
:10174C001A68009B1344089A9A4203D2089A009B89
:10175C00D31A01E0019B1B680C93019B0C9A1A6035
:10176C0005E00F9B1B680F930E9B013B0E930E9B8A
:10177C00002BF6D100230B93079A0D9BD31A0A93D7
:10178C000A9A0C9B934228BF13460A932AE0029AAA
:10179C000B9B134406930F9A0D9B13440433059330
:1017AC009DF84830002B05D00A9A0599069805F04B
:1017BC0065FA04E00A9A0699059805F05FFA002389
:1017CC000D930F9B1B680F930C9A0A9BD31A0C93C7
:1017DC000B9A0A9B13440B93079A0C9B934228BFBA
:1017EC0013460A930C9B002BD1D100BF00BF11B044
:1017FC005DF804FBA46F000000B589B0059004915E
:10180C0003920293039B079307AA00230093029B66
:10181C0004990598FFF75EFF079B039A9A4203D041
:10182C000349F620FFF753FD00BF09B05DF804FB38
:10183C00A46F000000B585B00190019800F00EF87F
:10184C000390039B002B01D0039B00E0024B184636
:10185C0005B05DF804FB00BFF46F000086B001908A
:10186C00164B0593164B04931FE0049A059BD31A51
:10187C00DB10DA0F13445B10DB00059A134403935F
:10188C00039B1B680293029A019B9A4202D9039B09
:10189C0004930AE0029A019B9A4203D2039B0833F9
:1018AC00059302E0039B5B6804E0059A049B9A4253
:1018BC00DBD30023184606B0704700BFC873000086
:1018CC00E074000000B585B00190019B002B0AD09C
:1018DC00074B43F001030393019B9B010293039B72
:1018EC000298984700E000BF05B05DF804FB00BF0C
:1018FC001075000000B583B00190019B1B68184661
:10190C0000F077F80346002B04D10B494FF4F67026
:10191C00FFF7DDFC019B1B681F2B02D84FF0A04387
:10192C0006E0019B1B6803F01F02019B1A60034B2E
:10193C00184603B05DF804FBE0740000000300508F
:10194C0000B585B0019001AB1846FFF7D3FF0390AB
:10195C00019B012202FA03F31946039800F035F8B3
:10196C0000BF05B05DF804FB00B585B0019001AB7C
:10197C001846FFF7BFFF0390019B012202FA03F305
:10198C001946039800F02BF800BF05B05DF804FB76
:10199C0000B585B0019001AB1846FFF7ABFF039083
:1019AC00039800F00AF80246019B22FA03F303F0B5
:1019BC000103184605B05DF804FB82B00190019B51
:1019CC00D3F81035184602B0704782B001900091E0
:1019DC00019B009AC3F8082500BF02B0704782B083
:1019EC0001900091019B009AC3F80C2500BF02B036
:1019FC00704784B00190019B5B0902930023039311
:101A0C00029B002B03D0029B012B04D007E04FF06C
:101A1C00FF33039303E04FF6FF73039300BF019B67
:101A2C0003F01F030193039A019B22FA03F303F0C3
:101A3C000103002B14BF01230023DBB2184604B0B2
:101A4C00704700B585B001904FF0A042019B1B6818
:101A5C0003F5E07340F20C6142F823104FF0A04202
:101A6C00019B5B6803F5E07340F20C6142F82310B4
:101A7C00019B1B681846FFF763FF019B5B681846C8
:101A8C00FFF75EFF4FF0A042019B1B6803F5E0736C
:101A9C0040F20D6142F823104FF0A042019B5B68AD
:101AAC0003F5E07340F20D6142F823100420FFF7B8
:101ABC0009FF002303931EE0019B5B681846FFF7A8
:101ACC0067FF0346002B03D0039B002B17D124E0A8
:101ADC00019B1B681846FFF747FF0420FFF7F2FE37
:101AEC00019B1B681846FFF72BFF0420FFF7EAFE4B
:101AFC00039B01330393039B082BDDDD00E000BF48
:101B0C00019B5B681846FFF72FFF0420FFF7DAFEF6
:101B1C00019B5B681846FFF713FF05B05DF804FBEB
:101B2C0000B589B001900091009B0793019B1B7835
:101B3C008DF80C30019B1B798DF81030019B5B7973
:101B4C008DF81130019B9B68DBB28DF81230019B34
:101B5C00DB68DBB28DF81330019B1B690593019B8D
:101B6C005B690693074A079B52F823300649079A8C
:101B7C0051F8221003AA1046984700BF09B05DF82F
:101B8C0004FB00BF240500202C05002000B587B005
:101B9C000390029101920093039B1B7805931249C9
:101BAC00059B019A41F823201049059B009A41F8A6
:101BBC002320029B5B7B002B02D00298FFF741FF96
:101BCC0000230493039B181D019B002B01D0084A92
:101BDC0000E00022059B029902F0BCF90490049BE2
:101BEC00184607B05DF804FB240500202C050020E6
:101BFC002D1B000008B5064B1B68002B03D10549B3
:101C0C005120FFF764FB024B1B68984700BF08BDCF
:101C1C00340500201C75000082B00190019B044A21
:101C2C00934201D1034B00E00023184602B07047E9
:101C3C00002000403405002000B587B001900091D1
:101C4C00019B002B03D118497720FFF740FB01982B
:101C5C00FFF7E2FF0590059B002B1ED000238DF8AB
:101C6C0013300020FFF7ECFA059B1B79002B03D0F7
:101C7C0001238DF8133005E0059B009A1A60059B33
:101C8C0001221A710020FFF7EFFA9DF81330002B98
:101C9C0003D011230393039B02E000230393039BC4
:101CAC00184607B05DF804FB1C75000082B00346B3
:101CBC008DF807309DF90730002B0CDB9DF80730B1
:101CCC0003F01F0205499DF907305B09012000FA5A
:101CDC0002F241F8232000BF02B0704700E100E09F
:101CEC0082B0034600918DF807309DF90730002B28
:101CFC000ADB009BDAB20C499DF907305201D2B2D3
:101D0C000B4483F800230BE0009BDAB207499DF8E3
:101D1C00073003F00F03043B5201D2B20B441A7686
:101D2C0000BF02B0704700BF00E100E000ED00E032
:101D3C0082B00190019B1B0B5BB2184602B070473E
:101D4C0000B583B003460A468DF8073013468DF86C
:101D5C0006309DF80630072B03D908496B20FFF796
:101D6C00B6FA9DF806209DF9073011461846FFF784
:101D7C00B7FF00BF03B05DF804FB00BF6C7500003B
:101D8C0000B583B003468DF807309DF9073018462F
:101D9C00FFF78CFF00BF03B05DF804FB00B583B008
:101DAC000346ADF80630BDF80630184600F026F8AC
:101DBC0003461B68012B0CBF01230023DBB2184622
:101DCC0003B05DF804FB00B585B00346ADF80630F2
:101DDC00BDF80630184600F011F803461A460023E9
:101DEC001360BDF80630184600F008F803461B686F
:101DFC000393039B00BF05B05DF804FB82B0034660
:101E0C00ADF80630BDF8063003F1804303F5C0434E
:101E1C00184602B07047000082B00190034A019B43
:101E2C00C2F8043300BF02B0704700BF006000402E
:101E3C0082B00190034BD3F80423019B1340184646
:101E4C0002B070470060004082B00190084A019BCC
:101E5C0003F5A27352F82330054943F00102019BAC
:101E6C0003F5A27341F8232000BF02B0704700BFF6
:101E7C000060004084B00390029113468DF8073047
:101E8C00144A039B03F5A27352F82330114923F42F
:101E9C004F3323F44073039A02F5A27241F82230B7
:101EAC000C4A039B03F5A27352F82320029B1B02DE
:101EBC0003F47C519DF807301B0403F440330B43AF
:101ECC0004491A43039B03F5A27341F8232000BF76
:101EDC0004B070470060004082B00190054A019B3D
:101EEC0003F5A27352F823301B0A03F03F03184684
:101EFC0002B070470060004082B00190064A019B1E
:101F0C0003F5A27352F823301B0C03F00303DBB26E
:101F1C00184602B0704700BF0060004000B583B0A7
:101F2C000190019B1B68184600F02AF90346002B10
:101F3C0004D10B494FF4F670FFF7C9F9019B1B68EC
:101F4C001F2B02D84FF0A04306E0019B1B6803F047
:101F5C001F02019B1A60034B184603B05DF804FB8B
:101F6C009C7500000003005000B585B00190084638
:101F7C0011461A4603468DF803300B468DF8023095
:101F8C0013468DF8013001AB1846FFF7C7FF0390DD
:101F9C009DF803209DF802305B001A439DF8013038
:101FAC009B001A439DF818301B0242EA03019DF86E
:101FBC001C301B04019A1943039B02F5E07243F891
:101FCC00221000BF05B05DF804FB00B585B003908E
:101FDC000B468DF80B309DF80B300022019200223D
:101FEC000092002200210398FFF7BEFF00BF05B04E
:101FFC005DF804FB00B585B0019001AB1846FFF706
:10200C008DFF0390019A039B02F5E07253F8223086
:10201C0023F002030293019A039B02F5E0720299EA
:10202C0043F8221000BF05B05DF804FB00B585B085
:10203C0001900B468DF8033001AB1846FFF76EFF8D
:10204C000390019A039B02F5E07253F82230019A37
:10205C0023F44031039B02F5E07243F82210019AFD
:10206C00039B02F5E07253F822309DF80320120412
:10207C001146019A1943039B02F5E07243F82210B2
:10208C0000BF05B05DF804FB00B585B0019001AB55
:10209C001846FFF743FF0390039800F020F8024620
:1020AC00019B22FA03F303F00103184605B05DF817
:1020BC0004FB00B585B0019001AB1846FFF72EFF6D
:1020CC000390019A039B02F5E07253F822301B0C2B
:1020DC0003F00303DBB2184605B05DF804FB82B0D5
:1020EC000190019BD3F81035184602B070470000E0
:1020FC0088B0039002910192164A05AB92E8030056
:10210C0083E80300039B079319E0079B9B00203394
:10211C006B4453F80C3CD3F82025019B1A60079BA9
:10212C009B0020336B4453F80C3C019A1268C3F8A3
:10213C002025019B04330193079B01330793039ADA
:10214C00029B1344079A9A42DFD300BF00BF08B02A
:10215C00704700BFCC75000000B585B0019001AB95
:10216C001846FFF7DBFE0390019B012202FA03F3F2
:10217C001A46039BC3F8202500BF05B05DF804FB8D
:10218C0084B00190019B5B09029300230393029B93
:10219C00002B03D0029B012B04D007E04FF0FF3340
:1021AC00039303E04FF6FF73039300BF019B03F00F
:1021BC001F030193039A019B22FA03F303F001031B
:1021CC00002B14BF01230023DBB2184604B0704768
:1021DC0084B001900091009B0393019BDB08029358
:1021EC00019B03F0070301930122019B02FA03F305
:1021FC000399029A0A4412781340184604B07047A7
:10220C0084B001900091009B0393019BDB08029327
:10221C00019B03F007030193039A029B13441B7861
:10222C005AB20121019B01FA03F35BB2134359B279
:10223C00039A029B1344CAB21A7000BF04B07047D1
:10224C0082B001900C4A019B1344303393F9003057
:10225C00002B09DB084A019B1344303393F90030FF
:10226C00072B01DC012300E0002303F00103DBB2A8
:10227C00184602B0704700BF3C05002082B00190A8
:10228C00064A019B1344303393F90030072BCCBF23
:10229C0001230023DBB2184602B070473C05002036
:1022AC0082B00190064A019B1344303393F90030FD
:1022BC00DB43DBB2DB09DBB2184602B0704700BF70
:1022CC003C05002084B00390029101928DF80330FC
:1022DC00029B59B20E4A039B134430330A461A70C0
:1022EC000B49029B019A41F823209DF8033083F09F
:1022FC000103DBB2002B08D0029B083B039A51B2BE
:10230C00034A13440A4683F8602000BF04B07047A8
:10231C003C05002082B00190044A019B13443033E9
:10232C00FF221A7000BF02B0704700BF3C050020AE
:10233C0000B583B0019004490198FFF761FF00BF1D
:10234C0003B05DF804FB00BFA005002082B0019033
:10235C00044A019B1344303393F90030184602B001
:10236C00704700BF3C05002082B00190034A019BDE
:10237C0052F82330184602B0704700BF3C050020CD
:10238C0084B00190074A019B1344603393F90030E9
:10239C008DF80F309DF80F3023F0C003184604B0B1
:1023AC00704700BF3C05002084B00190074A019B98
:1023BC001344603393F900308DF80F309DF80F30D3
:1023CC009B09DBB2184604B0704700BF3C050020E7
:1023DC0000B589B00390029113468DF80730FF23A6
:1023EC008DF81F309DF80730002B01D0002300E042
:1023FC00082305939DF80730002B01D0082300E03B
:10240C000C230493059B069314E00F4A069B52F889
:10241C002330B3F1FF3F0AD19DF80730029A069999
:10242C000398FFF74FFF069B8DF81F3006E0069BC5
:10243C0001330693069A049B9A42E6D39DF91F300A
:10244C00184609B05DF804FB3C05002082B0034639
:10245C008DF807309DF80730094A4FF0FF3142F8EC
:10246C0023109DF80730072B07D99DF80730083B40
:10247C00034A1344FF2283F8602000BF02B0704768
:10248C003C05002000B583B02D4B93F86A30002B2F
:10249C0003D008230093009B4EE000238DF80730F7
:1024AC0011E09DF807301846FFF76AFE0346002B33
:1024BC0004D09DF807301846FFF72CFF9DF8073025
:1024CC0001338DF807309DF807302F2BE9D9002305
:1024DC008DF8073009E09DF807301846FFF7B6FF76
:1024EC009DF8073001338DF807309DF807300B2B22
:1024FC00F1D906220021134804F0EAFB1248FFF739
:10250C0017FC034606211846FFF71AFC0E48FFF786
:10251C000FFC03461846FFF733FC4FF4BE70FFF771
:10252C0052FC4FF00040FFF777FC054B012283F87B
:10253C006A2000230093009B184603B05DF804FB4F
:10254C003C050020A00500200060004000B587B0CD
:10255C000390029101920398FFF712FE0346002BA1
:10256C0004D136494FF40C70FEF7B1FE00230593ED
:10257C000398FFF795FE0346002B02D00823059322
:10258C0057E0029B9B78C3F34003DBB21A460199D8
:10259C000398FFF71DFF03468DF813309DF9133098
:1025AC00B3F1FF3F43D0029B9B78C3F38003DBB2B4
:1025BC0083F00103DBB2002B13D0029B9B7803F05A
:1025CC000103DBB2002B03D00398FFF713FD05E0EA
:1025DC00029B5B7819460398FFF7F7FC0398FFF70B
:1025EC00A7FE029B9B7803F00203DBB2002B08D002
:1025FC009DF91300029B1B781A460399FFF73AFCCE
:10260C0017E09DF91330083B0D4A134493F9601001
:10261C00029B1B789B015AB29DF91330083B0A436D
:10262C0051B2074A13440A4683F8602001E00423A0
:10263C000593059B184607B05DF804FBDC7500009C
:10264C003C05002000B589B001900B468DF8033095
:10265C000198FFF795FD0346002B04D13A494FF43E
:10266C001870FEF734FE0198FFF71AFE0346002B94
:10267C0004D1354940F26120FEF729FE0198FFF79D
:10268C00FDFD0346002B2AD00198FFF75FFE0346A1
:10269C00083B1846FFF788FE03468DF80F309DF86F
:1026AC000F30032B0BD10198FFF7EEFC0346002BE8
:1026BC0001D0032300E002238DF81F3008E09DF8C1
:1026CC000F30012B01D1022300E003238DF81F30C2
:1026DC009DF81F3019460198FFF7A8FC30E00198CF
:1026EC00FFF7AEFD0346002B2AD00198FFF72EFE14
:1026FC0003460693069B9BB240339BB29B00ADF8FE
:10270C001630069B1846FFF79FFBBDF8163018468F
:10271C00FFF759FB9DF80330002B11D00198FFF700
:10272C0015FE03461846FFF71FFE0490049B002B72
:10273C0006D00122069B02FA03F31846FFF76CFB46
:10274C0000BF09B05DF804FBDC75000000B585B076
:10275C000190019A02210020FFF7CAFC0023039389
:10276C000BE0039B9B00019A13441B68002B01D0C8
:10277C00012306E0039B01330393039B012BF0D948
:10278C000023184605B05DF804FB000000B587B0C7
:10279C000190002305935BE0344A059B134460339E
:1027AC0093F90030B3F1FF3F4ED00598FFF7E8FDE9
:1027BC00049001990498FFF70BFD0346002B44D0BD
:1027CC000598FFF7F1FD03468DF80F300498FFF7DD
:1027DC0070FC03468DF80E309DF80E30022B01D1A3
:1027EC00032300E002238DF80D309DF80D301946BF
:1027FC000498FFF71BFC0498FFF7AEFC0498FFF756
:10280C00A5FD03461846FFF7AFFD0290029B002B77
:10281C001BD09DF80F30032B0FD09DF80E30022BE0
:10282C0003D19DF80F30012B07D09DF80E30032BF0
:10283C000BD19DF80F30022B07D19DF80F20029B76
:10284C0011460498984700E000BF059B013305939F
:10285C00059B032BA0D90198FFF778FF0346002BAB
:10286C0097D100BF00BF07B05DF804FB3C0500200A
:10287C0000B58BB00023089301AB00221A605A609C
:10288C004FF48073ADF81A3001230993002307939A
:10289C0021E0BDF81A301846FFF780FA0346002BEA
:1028AC000ED00998FFF7C4FA0346002B08D0BDF8E8
:1028BC001A301846FFF787FA089A099B13430893B6
:1028CC00099B5B000993BDF81A300433ADF81A303C
:1028DC00079B01330793079B072BDAD94FF4BE7084
:1028EC00FFF75CFA0346002B0DD04FF4BE70FFF7D8
:1028FC006AFA089B43F00043089301AB1A46022185
:10290C000020FFF7F5FB089BDBB2002B29D001233D
:10291C0009930023079321E0099A089B1340002B8D
:10292C0016D00798FFF7D8FA05900798FFF7E4FA46
:10293C0003468DF813300798FFF716FD0390039BA1
:10294C00002B05D09DF81320039B11460598984742
:10295C00099B5B000993079B01330793079B072B8C
:10296C00DAD9089B002B03DA01AB1846FFF70EFFF0
:10297C0000BF0BB05DF804FB82B003468DF8073046
:10298C009DF90730002B0CDB9DF8073003F01F027C
:10299C0005499DF907305B09012000FA02F241F864
:1029AC00232000BF02B0704700E100E082B0034674
:1029BC0000918DF807309DF90730002B0ADB009B46
:1029CC00DAB20C499DF907305201D2B20B4483F8AC
:1029DC0000230BE0009BDAB207499DF8073003F0A7
:1029EC000F03043B5201D2B20B441A7600BF02B063
:1029FC00704700BF00E100E000ED00E082B0019004
:102A0C00019B03F06043B3F1005F0CBF0123002373
:102A1C00DBB2184602B0704782B00190019B03F004
:102A2C000303002B0CBF01230023DBB2184602B0BA
:102A3C007047000000B583B003460A468DF8073096
:102A4C0013468DF806309DF80630072B03D908493C
:102A5C006B20FEF73CFC9DF806209DF907301146D3
:102A6C001846FFF7A3FF00BF03B05DF804FB00BFDF
:102A7C002876000000B583B003468DF807309DF929
:102A8C0007301846FFF778FF00BF03B05DF804FB72
:102A9C0082B001900B468DF803309DF80330019AFB
:102AAC00134401221A6000BF02B0704784B0019039
:102ABC000B46ADF80230BDF80230019A13440022E7
:102ACC001A60BDF80230019A13441B680393039BF0
:102ADC0000BF04B0704782B001900B46ADF80230D5
:102AEC00BDF80230019A13441B68002B14BF01235C
:102AFC000023DBB2184602B0704782B001900091FF
:102B0C00019B009AC3F8042300BF02B0704782B047
:102B1C0001900091019B009AC3F8082300BF02B0FA
:102B2C00704782B00190019B0122C3F8002500BFC1
:102B3C0002B0704782B00190019B0022C3F80025BF
:102B4C0000BF02B0704784B00390029101920093D1
:102B5C00039B029AC3F86425039B019AC3F868256A
:102B6C00039B009AC3F86025039B049AC3F8702555
:102B7C00039B059AC3F86C2500BF04B0704782B064
:102B8C000190084611461A4603468DF803300B4651
:102B9C008DF8023013468DF801309DF80330002B70
:102BAC0021D19DF80830012B03D19DF81430012B55
:102BBC0017D09DF80830022B15D19DF81430002B3E
:102BCC000FD09DF81430022B0BD09DF81430042B31
:102BDC0007D09DF81430062B03D09DF81430082B29
:102BEC0001D100232EE09DF80320019BC3F804259E
:102BFC009DF80220019BC3F824259DF80120019B20
:102C0C00C3F820259DF80820019BC3F81C259DF8CE
:102C1C000C20019BC3F828259DF81420019BC3F8B8
:102C2C001825049B002B04D1019B0022C3F810250E
:102C3C0007E0019B049AC3F81425019B0122C3F8F9
:102C4C0010250123184602B0704700B585B00390DB
:102C5C00019200930B46ADF80A30BDF80A20039B95
:102C6C00C3F850250199039800F01CF8019B002B28
:102C7C0014BF01230023DBB21A46039BC3F80825BB
:102C8C000099039800F018F8009B002B14BF012347
:102C9C000023DBB21A46039BC3F80C2500BF05B01A
:102CAC005DF804FB82B001900091009A019BC3F87F
:102CBC00382500BF02B0704782B001900091009A95
:102CCC00019BC3F8402500BF02B0704700B583B02C
:102CDC000190019B1B68184600F075F80346002B09
:102CEC0004D10B494FF4F670FEF7F1FA019B1B6807
:102CFC001F2B02D84FF0A04306E0019B1B6803F08A
:102D0C001F02019B1A60034B184603B05DF804FBCD
:102D1C00587600000003005000B585B001900846BD
:102D2C0011461A4603468DF803300B468DF80230D7
:102D3C0013468DF8013001AB1846FFF7C7FF03901F
:102D4C009DF803209DF802305B001A439DF801307A
:102D5C009B001A439DF818301B0242EA03019DF8B0
:102D6C001C301B04019A1943039B02F5E07243F8D3
:102D7C00221000BF05B05DF804FB00B585B00390D0
:102D8C0000230193002300930023012201210398C7
:102D9C00FFF7C2FF00BF05B05DF804FB00B585B0BE
:102DAC0003900B468DF80B309DF80B3000220192EE
:102DBC0000220092002200210398FFF7ADFF00BF14
:102DCC0005B05DF804FB84B00190019B5B09029394
:102DDC0000230393029B002B03D0029B012B04D0F6
:102DEC0007E04FF0FF33039303E04FF6FF730393B9
:102DFC0000BF019B03F01F030193039A019B22FA6E
:102E0C0003F303F00103002B14BF01230023DBB2F7
:102E1C00184604B07047000000B589B00390039BBE
:102E2C009B79002B0AD1039B1B781846FFF7A5FF53
:102E3C00039B5B781846FFF7A0FF0BE0039B1B7806
:102E4C0000211846FFF7AAFF039B5B780021184668
:102E5C00FFF7A4FF039B9B78FF2B06D0039B9B786B
:102E6C0007930798FFF789FF02E04FF0FF330793B2
:102E7C00039BDB78FF2B06D0039BDB78069306982D
:102E8C00FFF77BFF02E04FF0FF330693039B1B79A8
:102E9C00FF2B07D0039B1B79059300210598FFF7A7
:102EAC007DFF02E04FF0FF330593039B1B7819461F
:102EBC00039B5B781A46059B0193069B0093079B2B
:102ECC000348FFF740FE00BF09B05DF804FB00BFEC
:102EDC000050024070B588B005900491059B002B02
:102EEC0003D125499620FEF7F2F9049B002B03D160
:102EFC0021499720FEF7EBF9204B1B79002B03D0CF
:102F0C0008230793079B34E0059B9C79059BDD798F
:102F1C00059B1E7A059B5B7A059A927A0599C9687E
:102F2C000598007C039002910192009333462A4647
:102F3C0021461348FFF723FE034683F00103DBB25F
:102F4C00002B03D007230793079B12E00598FFF78C
:102F5C0063FF0A4A049B1360059B5B791946252085
:102F6C00FFF768FD2520FFF785FD044B01221A7140
:102F7C000023184608B070BD8C760000A805002010
:102F8C000050024000B585B001900B46ADF8023000
:102F9C0013468DF80130019B002B03D17049D920C9
:102FAC00FEF795F9019B1B68002B07D1019B5B6811
:102FBC00002B03D16A49DA20FEF789F9019B1B68C3
:102FCC00002B13D0019B1B681846FFF717FD034617
:102FDC00002B07D0019B1B681846FFF71DFD03460D
:102FEC00002B03D15E49DC20FEF771F9019B5B6875
:102FFC00002B13D0019B5B681846FFF7FFFC0346C0
:10300C00002B07D0019B5B681846FFF705FD0346B4
:10301C00002B03D15249DF20FEF759F9BDF80230DD
:10302C00002B03D14E49E220FEF751F94D4B1B7991
:10303C00012B03D008230393039B8DE0019B1B689A
:10304C00002B0AD0019B1B681846FFF7D7FC0346E0
:10305C0083F00103DBB2002B0ED1019B5B68002BCC
:10306C000ED0019B5B681846FFF7C8FC034683F043
:10307C000103DBB2002B03D010230393039B6BE003
:10308C00019B1B68002B14BF01230023D9B2354AC6
:10309C00537961F300035371019B5B68002B14BFE0
:1030AC0001230023D9B22F4A537961F341035371A1
:1030BC002C4A53796FF3820353712A4A53796FF375
:1030CC00C3035371274A53796FF304135371254A81
:1030DC00BDF80230D380234B019A083392E80300E9
:1030EC0083E803001F4B00221A611E4B00225A6119
:1030FC001C4BD9881B4B9A681A4BDB681A48FFF794
:10310C00A4FD1948FFF70DFD164B02221A714FF45E
:10311C0082711548FFF7CAFC4FF48A711248FFF709
:10312C00C5FC4FF484711048FFF7C0FC0D4B5B7964
:10313C005B0003F002020B4B5B791B0103F02003D5
:10314C00134343F0040319460748FFF7D6FC00214C
:10315C000548FFF79DFC0023184605B05DF804FBFD
:10316C008C760000A80500200050024000B585B008
:10317C000190584B1B79022B04D0574940F2231075
:10318C00FEF7A5F8019B002B04D153494FF4927024
:10319C00FEF79DF8019B1B68002B14D0019B1B684C
:1031AC001846FFF72BFC0346002B07D0019B1B682E
:1031BC001846FFF731FC0346002B04D1464940F278
:1031CC002510FEF784F8019B5B68002B14D0019B43
:1031DC005B681846FFF712FC0346002B07D0019BD7
:1031EC005B681846FFF718FC0346002B04D13A49DC
:1031FC004FF49470FEF76BF8364B5B79C3F3001306
:10320C00DBB283F00103DBB2002B03D00823039362
:10321C00039B5AE0019B1B68002B0AD0019B1B6887
:10322C001846FFF7EBFB034683F00103DBB2002BE0
:10323C000ED1019B5B68002B0ED0019B5B6818467E
:10324C00FFF7DCFB034683F00103DBB2002B03D05A
:10325C0010230393039B38E01E4B5B7903F00203AE
:10326C00DBB2002B0ED0019B5B68002B04D11A49FA
:10327C004FF4A370FEF72BF8019B5B6819461748B7
:10328C00FFF71AFD134B5B7903F00103DBB2002B44
:10329C000ED0019B1B68002B04D10F4940F24B1040
:1032AC00FEF715F8019B1B6819460C48FFF7FAFC52
:1032BC00084B019A083392E8030083E80300054A9F
:1032CC0053796FF3041353710023184605B05DF85E
:1032DC0004FB00BFA80500208C76000000500240C3
:1032EC0008B50F4B1B79002B04D10E494FF4AC7071
:1032FC00FDF7EDFF0A4A53796FF304135371222142
:10330C000948FFF704FC04210748FFF7C1FB074BF2
:10331C0001221A60064B01221A6000BF08BD00BFD3
:10332C00A80500208C760000005002403850024066
:10333C003C50024000B583B04FF48A717648FFF7D9
:10334C00CAFB0346002B1CD04FF48A717248FFF75E
:10335C00ADFB724A537943F0080353716F4B5B79A1
:10336C0003F00203DBB2002B0BD06C4B5B7903F048
:10337C001003DBB2002B04D0684A537943F02003CE
:10338C0053714FF482716448FFF7A5FB0346002B81
:10339C001CD04FF482716048FFF788FB5F4A537969
:1033AC0043F0040353715D4B5B7903F00103DBB213
:1033BC00002B0BD0594B5B7903F01003DBB2002BC5
:1033CC0004D0564A537943F0200353714FF484715F
:1033DC005148FFF780FB0346002B19D04FF4847142
:1033EC004D48FFF763FB04214B48FFF790FB4A481D
:1033FC00FFF7A0FB494B1B68002149489847474BF6
:10340C001B68002147489847444B01221A717EE003
:10341C00424B5B7903F00203DBB2002B14D03F4B21
:10342C005B7903F00103DBB2002B0DD03B4B5B79D6
:10343C0003F00803DBB2002B06D0384B5B7903F0AA
:10344C000403DBB2002B21D1344B5B79C3F30003B3
:10345C00DBB283F00103DBB2002B06D02F4B5B7980
:10346C0003F00803DBB2002B10D12C4B5B79C3F3B8
:10347C004003DBB283F00103DBB2002B47D0274BB8
:10348C005B7903F00403DBB2002B40D0234A537961
:10349C006FF3C3035371214A53796FF38203537152
:1034AC001E4B5B7903F02003DBB2002B0FD01B4AC1
:1034BC0053796FF345135371184A537943F0100342
:1034CC005371164B1B680121002098471FE0134ACB
:1034DC006B46103292E8030083E803000F4B0F4A4F
:1034EC001033083292E8030083E803000B4B0022F0
:1034FC009A600A4B0022DA60084A537943F01003B1
:10350C005371064B1B686A4601211046984700BF51
:10351C0003B05DF804FB00BF00500240A80500207A
:10352C00B8050020B005002082B003468DF80730A6
:10353C009DF90730002B0CDB9DF8073003F01F02C0
:10354C0005499DF907305B09012000FA02F241F8A8
:10355C00232000BF02B0704700E100E082B00346B8
:10356C0000918DF807309DF90730002B0ADB009B8A
:10357C00DAB20C499DF907305201D2B20B4483F8F0
:10358C0000230BE0009BDAB207499DF8073003F0EB
:10359C000F03043B5201D2B20B441A7600BF02B0A7
:1035AC00704700BF00E100E000ED00E082B0019048
:1035BC00019B1B0B5BB2184602B0704700B583B081
:1035CC0003460A468DF8073013468DF806309DF8F1
:1035DC000630072B03D908496B20FDF778FE9DF8C0
:1035EC0006209DF9073011461846FFF7B7FF00BFBC
:1035FC0003B05DF804FB00BFD876000000B583B0C3
:10360C0003468DF807309DF907301846FFF78CFFFD
:10361C0000BF03B05DF804FB82B001900B468DF83F
:10362C0003309DF80330019A134401221A6000BF45
:10363C0002B0704784B001900B46ADF80230BDF873
:10364C000230019A134400221A60BDF80230019A2C
:10365C0013441B680393039B00BF04B0704782B0F4
:10366C0001900B46ADF80230BDF80230019A1344BC
:10367C001B68002B14BF01230023DBB2184602B0D9
:10368C00704782B001900091019BD3F80022009BFF
:10369C001A43019BC3F8002200BF02B0704782B0EE
:1036AC0001900091019BD3F80022009BDB431A4050
:1036BC00019BC3F8002200BF02B0704782B001909A
:1036CC000091019B009AC3F8042300BF02B070471D
:1036DC0082B001900091019B009AC3F8082300BFAF
:1036EC0002B0704782B001900091019BD3F8042383
:1036FC00009B1340002B14BF01230023DBB21846A0
:10370C0002B0704782B001900B468DF80330019BDC
:10371C00D3F8043523F003029DF8033003F00303C0
:10372C001A43019BC3F8042500BF02B0704782B056
:10373C0001900B468DF80330019BD3F8083523F02C
:10374C0003029DF8033003F003031A43019BC3F8F3
:10375C00082500BF02B0704782B001900B468DF86F
:10376C000330019BD3F8103523F00F029DF8033082
:10377C0003F00F031A43019BC3F8102500BF02B0DE
:10378C00704784B003900B4601928DF80B309DF876
:10379C000B20039B02F5A872019943F8221000BF7D
:1037AC0004B0704782B00190019B9B0003F5A0739D
:1037BC009BB2184602B0704782B001904FF4803231
:1037CC00019B02FA03F3184602B0704710B588B09B
:1037DC00039002910192039B1B791A4613465B00DE
:1037EC0013449B00704A13440793029B002B03D194
:1037FC006E494A20FDF76BFD019B002B03D16B49F1
:10380C004B20FDF764FD079B1B7A002B03D008238C
:10381C000593059BC4E0039B1B68654A93420FD13B
:10382C00029B9B78012B64D0029B9B78002B60D071
:10383C00029B9B78022B5CD0029B9B78032B58D06D
:10384C00039B1B685B4A93420FD1029B9B78012B15
:10385C004FD0029B9B78002B4BD0029B9B78022B6A
:10386C0047D0029B9B78032B43D0039B1B68524A87
:10387C0093420FD1029B9B78012B3AD0029B9B78F1
:10388C00002B36D0029B9B78022B32D0029B9B786C
:10389C00032B2ED0039B1B68484A93420FD1029BEB
:1038AC009B78012B25D0029B9B78002B21D0029B6F
:1038BC009B78022B1DD0029B9B78032B19D0039B6A
:1038CC001B683F4A93420FD1029B9B78012B10D06F
:1038DC00029B9B78002B0CD0029B9B78022B08D070
:1038EC00029B9B78032B04D030495F20FDF7EFFC43
:1038FC0000E000BF079B019A1A60029B5A68079B65
:10390C005A6000238DF81B3010E0039B1C689DF857
:10391C001B301846FFF746FF034619462046FFF7B3
:10392C0089FE9DF81B3001338DF81B30039B5B79AE
:10393C009DF81B209A42E8D3039B1B681846FFF79F
:10394C0035FE03461A46029BDB7819461046FFF7F4
:10395C0035FE039B1B681846FFF728FE03461846E6
:10396C00FFF74CFE039B1A68029B5B7819461046C6
:10397C00FFF7C8FE039B1A68029B9B7819461046FA
:10398C00FFF7D5FE039B1A68029B1B78194610465D
:10399C00FFF7E2FE079B01221A7200230593059B99
:1039AC00184608B010BD00BFC005002010770000FD
:1039BC00008000400090004000A0004000A00140AA
:1039CC0000B0014000B583B00190019B1B791946F2
:1039DC00114A0B465B000B449B00134408331B78C5
:1039EC00012B03D00D498F20FDF771FC019B1B6847
:1039FC0000211846FFF710FE019B1B791946064A59
:103A0C000B465B000B449B001344083302221A70D4
:103A1C0000BF03B05DF804FBC00500201077000068
:103A2C0010B586B0039001921A460B468DF80B30F8
:103A3C0013468DF80A309DF80B301846FFF7BCFE84
:103A4C0005909DF80A30002B12D0039B1C689DF842
:103A5C000B301846FFF7A6FE034619462046FFF723
:103A6C00E9FD039B1B6805991846FFF727FE05E047
:103A7C00039B1B6805991846FFF72AFE039B1B68DE
:103A8C009DF80B10019A1846FFF77BFE00BF06B09D
:103A9C0010BD00B585B0039001921A460B468DF807
:103AAC000B301346ADF80830039B18689DF80B30AB
:103ABC004FF480729A409DF80B30012101FA03F308
:103ACC0013431946FFF7EBFD039B1B68BDF8082059
:103ADC0011461846FFF7D5FD9DF818309DF80B10D0
:103AEC00019A0398FFF79CFF00BF05B05DF804FB3B
:103AFC0000B587B00390029113468DF80730002370
:103B0C008DF8173030E09DF817301846FFF74AFE55
:103B1C000346ADF814309DF817301846FFF74CFEED
:103B2C000490BDF8143019460398FFF798FD03462E
:103B3C00002B14D004990398FFF7D4FD0346002BF7
:103B4C000DD0BDF8143019460398FFF773FD029B96
:103B5C001B68029A5168BDF81420104698479DF8CE
:103B6C00173001338DF817309DF817209DF807306A
:103B7C009A42C8D300BF00BF07B05DF804FB000039
:103B8C0008B5042202490348FFF7B2FF00BF08BD85
:103B9C00C00500200080004082B003468DF807303D
:103BAC009DF90730002B0CDB9DF8073003F01F024A
:103BBC0005499DF907305B09012000FA02F241F832
:103BCC00232000BF02B0704700E100E082B0034642
:103BDC0000918DF807309DF90730002B0ADB009B14
:103BEC00DAB20C499DF907305201D2B20B4483F87A
:103BFC0000230BE0009BDAB207499DF8073003F075
:103C0C000F03043B5201D2B20B441A7600BF02B030
:103C1C00704700BF00E100E000ED00E082B00190D1
:103C2C00019B1B0B5BB2184602B0704700B583B00A
:103C3C0003460A468DF8073013468DF806309DF87A
:103C4C000630072B03D908496B20FDF740FB9DF884
:103C5C0006209DF9073011461846FFF7B7FF00BF45
:103C6C0003B05DF804FB00BF5C77000000B583B0C7
:103C7C0003468DF807309DF907301846FFF78CFF87
:103C8C0000BF03B05DF804FB82B001900B468DF8C9
:103C9C0003309DF80330019A134401221A6000BFCF
:103CAC0002B0704784B001900B46ADF80230BDF8FD
:103CBC000230019A134400221A60BDF80230019AB6
:103CCC0013441B680393039B00BF04B0704782B07E
:103CDC0001900B46ADF80230BDF80230019A134446
:103CEC001B68002B14BF01230023DBB2184602B063
:103CFC00704782B001900091019B009AC3F8042395
:103D0C0000BF02B0704782B001900091019B009AF5
:103D1C00C3F8082300BF02B0704782B00190019B2A
:103D2C000522C3F8002500BF02B0704782B0019095
:103D3C00019B0022C3F8002500BF02B0704784B07D
:103D4C00039002910192039B029AC3F80825039BEE
:103D5C00019AC3F80C2500BF04B0704782B00190E3
:103D6C000091019B009AC3F8242500BF02B0704754
:103D7C0084B00190019BD3F8C4340393019B039A44
:103D8C00C3F8C424039B184604B0704782B001905A
:103D9C000B468DF803309DF80320019BC3F8882552
:103DAC0000BF02B0704782B00190019BD3F8183568
:103DBC00DBB2184602B0704782B001900B468DF80A
:103DCC0003309DF80320019BC3F81C2500BF02B0F3
:103DDC00704782B001900091019B009AC3F80022B9
:103DEC0000BF02B07047000000B583B00190019B8A
:103DFC001B68184600F04FF80346002B04D10B4902
:103E0C004FF4F670FDF763FA019B1B681F2B02D869
:103E1C004FF0A04306E0019B1B6803F01F02019BBF
:103E2C001A60034B184603B05DF804FB8C77000056
:103E3C000003005000B585B00190084611461A46A3
:103E4C0003468DF803300B468DF8023013468DF87F
:103E5C00013001AB1846FFF7C7FF03909DF8032014
:103E6C009DF802305B001A439DF801309B001A4309
:103E7C009DF818301B0242EA03019DF81C301B040C
:103E8C00019A1943039B02F5E07243F8221000BF1C
:103E9C0005B05DF804FB84B00190019B5B090293B3
:103EAC0000230393029B002B03D0029B012B04D015
:103EBC0007E04FF0FF33039303E04FF6FF730393D8
:103ECC0000BF019B03F01F030193039A019B22FA8D
:103EDC0003F303F00103002B14BF01230023DBB217
:103EEC00184604B0704784B0019003230393019BE0
:103EFC0003F00103002B02D04FF402430393019B08
:103F0C0003F00203002B02D048F201230393019B20
:103F1C0003F00403002B02D048F202230393039B0B
:103F2C00184604B0704700B583B001900091009B17
:103F3C005A6B009B9B6A9A4207D00198FFF7F6FEDA
:103F4C000198FFF7EAFE002300E00123184603B0B6
:103F5C005DF804FB00B58BB00590049103920293BD
:103F6C00049B002B03D14D49AA20FDF7B0F9049B0B
:103F7C001A68049B5B689A4203D14849AB20FDF751
:103F8C00A6F9059B1B791A4613461B019B1A9B002D
:103F9C00434A13440893089B93F82E30002B03D00C
:103FAC0008230793079B74E0059B1A68059B1B79F4
:103FBC0019463C4B53F8213019461046FDF73CFE90
:103FCC000346002B03D011230793079B61E0089B4A
:103FDC00039A1A60089B029A5A60089B00229A6006
:103FEC00089B002283F82D20089B002283F83120A7
:103FFC00089B002283F83020049B5A7B089B83F893
:10400C003820049B18680023019306230093032394
:10401C0000220021FFF70EFF049B58680023019338
:10402C0006230093032300220021FFF703FF059BC7
:10403C001B680993049B1968049B5B681A460998D2
:10404C00FFF77DFE049B9B6819460998FFF786FED7
:10405C00089B1B68002B15D0059B1B681846FFF7A7
:10406C00DDFD03461A46049B1B7B19461046FFF7E1
:10407C00DDFD059B1B681846FFF7D0FD034618466F
:10408C00FFF7F4FD089B012283F82E2000230793F1
:10409C00079B18460BB05DF804FB00BFC07700000F
:1040AC00CC0500200C78000000B585B00190019B78
:1040BC001B791A4613461B019B1A9B000D4A13448D
:1040CC000393039B93F82E30012B04D00A494FF431
:1040DC008570FDF7FCF8019B1B6802930298FFF7B3
:1040EC001CFE039B022283F82E2000BF05B05DF856
:1040FC0004FB00BFCC050020C077000000B583B0E6
:10410C0001900091009B5A6B009B9B6A9A420AD2C9
:10411C00009B5A6A009B5B6B13441B7819460198F1
:10412C00FFF74AFE1EE0009B93F82C30002B05D0C5
:10413C001C210198FFF7A8FD002314E0009B1B6ACB
:10414C0003F04003002B09D01C210198FFF79CFDC4
:10415C00009B012283F82D20002304E014210198F8
:10416C00FFF792FD0123184603B05DF804FB10B570
:10417C0082B001900091009B5A6B009B9B6A9A4203
:10418C0044D2009B5A6A009B5B6BD4180198FFF7D2
:10419C000AFE03462370009B5B6B5A1C009B5A6300
:1041AC00009B5A6B009B9B6A013B9A420AD1009B75
:1041BC001B6A03F04003002B04D102210198FFF786
:1041CC0008FE1FE0009B5A6B009B9B6A9A4207D12A
:1041DC00009B1B6A03F04003002B01D1012316E066
:1041EC00009B5A6B009B9B6A9A420BD1009B1B6AEB
:1041FC0003F04003002B05D0009B022283F82D20F6
:10420C00002304E020210198FFF73EFD012318460E
:10421C0002B010BD00B585B00190009100238DF85F
:10422C000F304FF482710198FFF751FD0346002BBC
:10423C0007D04FF482710198FFF734FD01238DF8FC
:10424C000F30009B93F82F30002B0FD04FF492714E
:10425C000198FFF727FD4FF48E710198FFF722FDAF
:10426C004FF484710198FFF71DFD78E04FF49271C3
:10427C000198FFF72CFD0346002B0DD04FF49271E3
:10428C000198FFF70FFD14210198FFF7FDFC009B2F
:10429C00012283F82F2062E04FF48E710198FFF712
:1042AC0016FD0346002B2BD04FF48E710198FFF7AF
:1042BC00F9FC009B5B6B5A1C009B5A634FF4927188
:1042CC000198FFF704FD0346002B0DD04FF49271BB
:1042DC000198FFF7E7FC14210198FFF7D5FC009B30
:1042EC00012283F82F203AE000990198FFF706FF8E
:1042FC00034683F00103DBB2002B30D0002354E0E3
:10430C004FF484710198FFF7E2FC0346002B26D092
:10431C004FF484710198FFF7C5FC4FF4927101982A
:10432C00FFF7D5FC0346002B0DD04FF4927101988A
:10433C00FFF7B8FC14210198FFF7A6FC009B0122A3
:10434C0083F82F200BE000990198FFF710FF03462C
:10435C0083F00103DBB2002B01D0002325E09DF894
:10436C000F30002B20D0009B002283F82D20009BC7
:10437C0093F82F3083F00103DBB2002B12D000999D
:10438C000198FFF7D0FD0346002B14BF0123002337
:10439C00DBB283F00103DBB203F00103DAB2009B62
:1043AC0083F82F20002300E00123184605B05DF8A8
:1043BC0004FB000000B587B0019000910023059329
:1043CC00384B03934FF482710198FFF76BFC4FF459
:1043DC0092710198FFF766FC4FF48E710198FFF70C
:1043EC0061FC4FF484710198FFF75CFC002101988B
:1043FC00FFF7EFFC009B00225A63009B002283F81E
:10440C002F2020210198FFF73FFC009B93F82D30C3
:10441C00012B03D008210198FFF736FC0099019875
:10442C00FFF76CFE009B1B68002B0DD0009B40F22D
:10443C0086229A60009B9B6819460198FFF759FCED
:10444C002AE0039B013B0393039B002B06DD0099A1
:10445C000198FFF7DFFE0346002BF2D1009B93F887
:10446C002F30002B0DD00198FFF782FC0490049B99
:10447C00002B04D00498FFF736FD059001E00323D0
:10448C000593039B002B07DC0198FFF74FFC019869
:10449C00FFF743FC03230593059B184607B05DF813
:1044AC0004FB00BFA086010000B587B0019000910D
:1044BC00002305933D4B03934FF482710198FFF752
:1044CC00F1FB4FF492710198FFF7ECFB4FF48E71F6
:1044DC000198FFF7E7FB4FF484710198FFF7E2FBBB
:1044EC00009B00225A63009B002283F82F20009B24
:1044FC009B6A012B0AD1009B1B6A03F04003002B23
:10450C0004D102210198FFF764FC03E0012101981A
:10451C00FFF75FFC20210198FFF7B6FB009B93F897
:10452C002D30022B03D000210198FFF7ADFB009B2F
:10453C001B68002B0DD0009B40F286229A60009BDA
:10454C009B6819460198FFF7D4FB2AE0039B013BBB
:10455C000393039B002B06DD00990198FFF75AFE8D
:10456C000346002BF2D1009B93F82F30002B0DD07B
:10457C000198FFF7FDFB0490049B002B04D00498DA
:10458C00FFF7B1FC059001E003230593039B002B7F
:10459C0007DC0198FFF7CAFB0198FFF7BEFB03236A
:1045AC000593059B184607B05DF804FBA086010037
:1045BC0030B587B0039002910192009300230593CC
:1045CC00029B93F82D30012B05D1019B1B78012BFD
:1045DC0001D108236DE0029B93F82D30022B05D1FD
:1045EC00019B1B78012B01D0082362E03249039810
:1045FC00FFF789FB029B93F83030DBB2002B09D01C
:10460C00029B9B6819460398FFF773FB11230593D4
:10461C00059B4EE0009B03F00403002B0CBF012311
:10462C000023DAB2029B83F83020029B009A1A62B4
:10463C00029B019A03F10C0415460FCD0FC42B6895
:10464C002360019B5A68029B9A62019BDA68029B69
:10465C005A62019B5B7819460398FFF797FB019B05
:10466C001B78012B17D0019B1B78002B04D1009BCE
:10467C0003F02003002B01D0012300E0002303F002
:10468C000103DAB2029B83F82C2002990398FFF7FE
:10469C0091FE059004E002990398FFF705FF059041
:1046AC00029B1B68002B03D1029B002283F8302055
:1046BC00059B184607B030BD8642040084B00190BB
:1046CC00019B1B791A4613461B019B1A9B00054A3A
:1046DC0013440393039B93F83030DBB2184604B0B9
:1046EC00704700BFCC05002000B587B00390029145
:1046FC00019200230593039B1B791A4613461B0159
:10470C009B1A9B00144A13440493049B1B68002BB4
:10471C0008D1029B1B78022B04D1104940F2862051
:10472C00FCF7D5FD049B1B68002B08D1029B1B7862
:10473C00032B04D1094940F28720FCF7C8FD039BE9
:10474C001868019B029A0499FFF732FF0590059BAC
:10475C00184607B05DF804FBCC050020C0770000BC
:10476C0000B58BB00390019200930B468DF80B3083
:10477C0000238DF814309DF80B308DF81530009B0C
:10478C00069300230793019B0893002309939DF83C
:10479C003030002B01D0202200E0002205AB19465E
:1047AC000398FFF7A1FF034618460BB05DF804FB16
:1047BC0000B58BB00390019200930B468DF80B3033
:1047CC0001238DF814309DF80B308DF81530009BBB
:1047DC00069300230793019B08930023099305ABD1
:1047EC00002219460398FFF77FFF034618460BB0CB
:1047FC005DF804FB30B58BB001900091009B1B68F9
:10480C00002B04D14A4940F2BA20FCF760FD009914
:10481C000198FFF7FFFC0346002B40F08680009BBD
:10482C0093F82F3083F00103DBB2002B33D0009BC5
:10483C001B7B022B03D0009B1B7B032B2BD1009BE0
:10484C005A6A009B9B699A4225D1009BDA69009BAE
:10485C005A62009B5A69009B9A62009B1B6A03F088
:10486C002003002B14BF01230023DAB2009B83F832
:10487C002C20009B002283F82D20009B1B7B032BFC
:10488C0004D100990198FFF795FD4FE0009901982C
:10489C00FFF70AFE4AE0009B04AC03F10C050FCDB8
:1048AC000FC42B682360009B93F82F30002B22D071
:1048BC000198FFF75DFA0990099B03F00203002BA6
:1048CC0003D001238DF80C3018E0099B03F004038E
:1048DC00002B03D002238DF80C300FE0099B03F062
:1048EC000103002B03D003238DF80C3006E00423C6
:1048FC008DF80C3002E000238DF80C30009B002268
:10490C0083F83020009B1B6A03F00403002B04D0B7
:10491C00009B93F82F30002B08D0009B1B68009A4B
:10492C00516803AA1046984700E000BF0BB030BD99
:10493C00C077000008B503490348FFF75BFF00BFD1
:10494C0008BD00BFCC05002000300040BFF34F8FE6
:10495C0000BF064BDB6803F4E0620449044B1343CD
:10496C00CB60BFF34F8F00BF00BFFDE700ED00E051
:10497C000400FA0582B0164B1B680193154B1B689B
:10498C000093019B082B1FD1009B052B1AD801A269
:10499C0052F823F0B9490000BD490000C14900009C
:1049AC00C5490000C9490000CD49000001230CE0B5
:1049BC0001230AE0012308E0012306E0012304E0BF
:1049CC00012302E0012300E00023184602B07047E7
:1049DC00300100103401001082B0164B1B6801939B
:1049EC00154B1B680093019B082B1FD1009B052BBB
:1049FC001AD801A252F823F01D4A0000214A0000E7
:104A0C00254A0000294A00002D4A0000314A0000C6
:104A1C0001230CE001230AE0012308E0012306E056
:104A2C00012304E0012302E0012300E000231846E7
:104A3C0002B07047300100103401001082B0164BE8
:104A4C001B680193154B1B680093019B082B1FD10E
:104A5C00009B052B1AD801A252F823F0814A0000C2
:104A6C00854A0000894A00008D4A0000914A0000E6
:104A7C00954A000001230CE000230AE0002308E023
:104A8C00002306E0002304E0002302E0002300E002
:104A9C000023184602B0704730010010340100109A
:104AAC0082B0164B1B680193154B1B680093019B3E
:104ABC00082B1FD1009B052B1AD801A252F823F00A
:104ACC00E54A0000E94A0000ED4A0000F14A000006
:104ADC00F54A0000F94A000001230CE000230AE02B
:104AEC00002308E0002306E0002304E0002302E09A
:104AFC00002300E00023184602B07047300100107C
:104B0C003401001082B0164B1B680193154B1B68C7
:104B1C000093019B082B1FD1009B052B1AD801A2D7
:104B2C0052F823F0494B00004D4B0000514B000054
:104B3C00554B0000594B00005D4B000001230CE06D
:104B4C0000230AE0002308E0002306E0002304E031
:104B5C00002302E0002300E00023184602B0704757
:104B6C00300100103401001082B0164B1B68019309
:104B7C00154B1B680093019B082B1FD1009B052B29
:104B8C001AD801A252F823F0AD4B0000B14B000033
:104B9C00B54B0000B94B0000BD4B0000C14B0000F1
:104BAC0001230CE000230AE0002308E0002306E0C8
:104BBC00002304E0002302E0002300E00023184659
:104BCC0002B07047300100103401001082B0164B57
:104BDC001B680193154B1B680093019B082B1FD17D
:104BEC00009B052B1AD801A252F823F0114C00009F
:104BFC00154C0000194C00001D4C0000214C00000D
:104C0C00254C000001230CE001230AE0012308E0FD
:104C1C00012306E0012304E0012302E0012300E06C
:104C2C000023184602B07047300100103401001008
:104C3C0082B0164B1B680193154B1B680093019BAC
:104C4C00082B1FD1009B052B1AD801A252F823F078
:104C5C00754C0000794C00007D4C0000814C00002C
:104C6C00854C0000894C000000230CE000230AE076
:104C7C00002308E0002306E0012304E0012302E006
:104C8C00012300E00023184602B0704730010010E9
:104C9C003401001008B5FFF7CBFF0346002B07D0FB
:104CAC004FF010234FF08042D3F80832C2F8583539
:104CBC0000BF08BD00BF044BD3F80034002BFAD062
:104CCC0000BF00BF704700BF00E0014000B583B0DB
:104CDC000190054A019BC2F80435FFF7EBFF00BFBA
:104CEC0003B05DF804FB00BF00E00140024B034A37
:104CFC001A6000BF704700BF040000200090D00372
:104D0C0008B5FFF737FE0346002B0ED04FF080435B
:104D1C000022C3F80C214FF080430022C3F810216D
:104D2C004FF080430022C3F83825FFF755FE0346A9
:104D3C00002B76D04FF08053734AD3F80434C2F86A
:104D4C0020354FF08053704AD3F80834C2F824351C
:104D5C004FF080536C4AD3F80C34C2F828354FF01E
:104D6C008053694AD3F81034C2F82C354FF0805375
:104D7C00654AD3F81434C2F830354FF08053624A88
:104D8C00D3F81834C2F834354FF080535E4AD3F858
:104D9C001C34C2F840354FF080535B4AD3F82034B2
:104DAC00C2F844354FF08053574AD3F82434C2F834
:104DBC0048354FF08053544AD3F82834C2F84C3558
:104DCC004FF08053504AD3F82C34C2F850354FF082
:104DDC0080534D4AD3F83034C2F854354FF08053D9
:104DEC00494AD3F83434C2F860354FF08053464A00
:104DFC00D3F83834C2F864354FF08053424AD3F8B4
:104E0C003C34C2F868354FF080533F4AD3F84034F5
:104E1C00C2F86C354FF080533B4AD3F84434C2F897
:104E2C007035FFF70BFE0346002B02D0374B384A88
:104E3C001A60FFF735FE0346002B03D0354BFB22DF
:104E4C00C3F81825FFF75EFE0346002B0AD0324B41
:104E5C001B6823F00F02314B1B6803F00F032E4924
:104E6C0013430B60FFF780FE0346002B03D02C4B43
:104E7C004FF400721A60FFF7A9FE0346002B0DD009
:104E8C004FF08043D3F8003403F00103002B05D01E
:104E9C004FF080436FF00102C3F80024214BD3F88C
:104EAC008830204A43F47003C2F88830BFF34F8F28
:104EBC0000BFBFF36F8F00BFFFF7ECFE4FF0102366
:104ECC00D3F80032002B05DB4FF01023D3F804325B
:104EDC00002B15DA0120FFF7F9FE4FF010231222F8
:104EEC00C3F80022FFF7E6FE4FF010231222C3F89E
:104EFC000422FFF7DFFE0020FFF7E8FEFFF726FD98
:104F0C00FFF7F4FE00BF08BD00C000408C56004007
:104F1C004881030000F00040E40E004058020010ED
:104F2C004096024000ED00E082B001900091019BA0
:104F3C00002B0ED0019BDB68002B0AD0009B002BB2
:104F4C0007D0019BDB68D968019BDB68009A0A4497
:104F5C00DA6000BF02B07047034BDB681B0A03F03A
:104F6C0007031846704700BF00ED00E082B003460F
:104F7C0000918DF807309DF90730002B0ADB009B60
:104F8C00DAB20C499DF907305201D2B20B4483F8C6
:104F9C0000230BE0009BDAB207499DF8073003F0C1
:104FAC000F03043B5201D2B20B441A7600BF02B07D
:104FBC00704700BF00E100E000ED00E088B0039016
:104FCC0002910192039B03F007030793079BC3F124
:104FDC000703032B28BF03230693079B0333062BDE
:104FEC0002D9079B043B00E0002305930122069B9A
:104FFC0002FA03F35A1E029B1A40059B9A400121A8
:10500C00059B01FA03F3591E019B0B4013431846F1
:10501C0008B0704700B583B00190019B013BB3F120
:10502C00807F01D301230FE0094A019B013B5360B0
:10503C0007214FF0FF30FFF799FF054B00229A60D4
:10504C00034B07221A600023184603B05DF804FBDB
:10505C0010E000E000B587B00346029101928DF894
:10506C000F3000230593FFF777FF0590019A029903
:10507C000598FFF7A3FF02469DF90F30114618461D
:10508C00FFF774FF00BF07B05DF804FB00B583B0F9
:10509C0001900198FFF7BEFF0346184603B05DF878
:1050AC0004FB000000B583B001900F4B1B680F4A46
:1050BC00A2FB03239B091846FFF7E8FF0346002BCE
:1050CC0001D000230BE0019B072B07D8002201998C
:1050DC004FF0FF30FFF7BEFF012300E0002318461E
:1050EC0003B05DF804FB00BF04000020D34D621038
:1050FC00034B1B680133024A136000BF704700BFAB
:10510C000806002082B003468DF807309DF8072072
:10511C0041491346DB0013449B000B44203300220F
:10512C001A609DF807203C491346DB0013449B0092
:10513C000B441C3300221A609DF807203649134695
:10514C00DB0013449B000B44183300221A609DF8BB
:10515C00072031491346DB0013449B000B441433E6
:10516C0000221A609DF807202B491346DB001344DC
:10517C009B000B44103300221A609DF8072026492F
:10518C001346DB0013449B000B440C3300221A60C3
:10519C009DF8072020491346DB0013449B000B4469
:1051AC00093300221A709DF807201B491346DB00B7
:1051BC0013449B000B44083300221A709DF80720FF
:1051CC0015491346DB0013449B000B4404330022A7
:1051DC001A609DF8072010491346DB0013449B000E
:1051EC000B441B78052B0AD19DF807200A4913465E
:1051FC00DB0013449B000B4406221A7009E09DF857
:10520C00072005491346DB0013449B000B44002286
:10521C001A7000BF02B070471006002000B583B0B2
:10522C0003468DF807309DF8072049491346DB00EB
:10523C0013449B000B441C331B68002B15D09DF8AA
:10524C00072043491346DB0013449B000B441C33DB
:10525C0019689DF807203E481346DB0013449B0059
:10526C00034420331B68184688479DF807203849AB
:10527C001346DB0013449B000B4409331B78002BB3
:10528C001ED19DF807109DF8072031480B46DB0016
:10529C000B449B000344143319682D481346DB0060
:1052AC0013449B000344183319609DF807202849C8
:1052BC001346DB0013449B000B4402221A7042E09D
:1052CC009DF8072022491346DB0013449B000B4436
:1052DC000C331B68012B31D99DF807109DF8072062
:1052EC001B480B46DB000B449B000344143319682A
:1052FC0017481346DB0013449B0003441833196012
:10530C009DF8072012491346DB0013449B000B4405
:10531C0002221A709DF807200D491346DB00134436
:10532C009B000B440C331B68591E09481346DB00C9
:10533C0013449B0003440C33196004E09DF80730C0
:10534C001846FFF7DFFE00BF03B05DF804FB00BF9B
:10535C0010060020084B1B680133074A1360064BEC
:10536C001B68002B04D1044B1B680133024A1360E9
:10537C00014B1B68184670470C06002000B583B023
:10538C00FFF7E8FF019000238DF8033036E000238F
:10539C008DF8023000238DF802302BE09DF80220AE
:1053AC001C491346DB0013449B000B441B78002B59
:1053BC0018D09DF8022017491346DB0013449B00BC
:1053CC000B4404331A68144B1B689A4206D1FFF73E
:1053DC00C1FF019000238DF803300FE001238DF8FD
:1053EC00033002E001238DF803309DF802300133C5
:1053FC008DF802309DF80230182BCFD99DF8033070
:10540C0083F00103DBB2002BC1D1019B184603B022
:10541C005DF804FB100600200C06002000BF70474E
:10542C0000BF704710B586B00390029101928DF8C1
:10543C00033000238DF8173000238DF8173097E0D8
:10544C009DF817204F491346DB0013449B000B4477
:10545C001B78002B40F087809DF817204949134694
:10546C00DB0013449B000B4401221A709DF817209B
:10547C0044491346DB0013449B000B442033099A28
:10548C001A609DF817203F491346DB0013449B001C
:10549C000B441C33089A1A609DF81720394913469F
:1054AC00DB0013449B000B441833019A1A609DF8DF
:1054BC00172034491346DB0013449B000B44143370
:1054CC00019A1A609DF817202E491346DB001344ED
:1054DC009B000B441033029A1A609DF8172029493F
:1054EC001346DB0013449B000B440C33039A1A60E5
:1054FC009DF81720039BD8B222491346DB001344B6
:10550C009B000B44093302461A709DF817201D4965
:10551C001346DB0013449B000B4408339DF8032017
:10552C001A709DF81740FFF729FF024615492346CC
:10553C00DB0023449B000B4404331A609DF81720B6
:10554C0010491346DB0013449B000B4402221A70D3
:10555C009DF817200B491346DB0013449B000B44AA
:10556C0004331B680AE09DF8173001338DF81730AF
:10557C009DF81730182B7FF663AF0023184606B042
:10558C0010BD00BF1006002000B587B00590049137
:10559C00029313468DF80F309DF80F20089B019352
:1055AC00029B00931346049A00210598FFF73AFFDB
:1055BC000346184607B05DF804FB000000B585B043
:1055CC000190FFF72BFF00238DF80F3000238DF88F
:1055DC000F30A2E09DF80F2055491346DB00134411
:1055EC009B000B441B78022B0BD09DF80F205049CD
:1055FC001346DB0013449B000B441B78052B40F037
:10560C0087809DF80F204A491346DB0013449B000A
:10561C000B4410331B68019A9A4216D29DF80F2046
:10562C0043491346DB0013449B000B4410331968A9
:10563C009DF80F20019BC91A3D481346DB0013440B
:10564C009B0003441033196062E09DF80F20384929
:10565C001346DB0013449B000B4410331B68002BD8
:10566C000BD09DF80F2032491346DB0013449B00EE
:10567C000B44103300221A604AE09DF80F202C498D
:10568C001346DB0013449B000B4418331B68019A30
:10569C009A4216D29DF80F2025491346DB0013447D
:1056AC009B000B44183319689DF80F20019BC91AF5
:1056BC001F481346DB0013449B0003441833196046
:1056CC0026E09DF80F201A491346DB0013449B007B
:1056DC000B44183300221A609DF80F20144913460E
:1056EC00DB0013449B000B4408331B78002B05D1C3
:1056FC009DF80F301846FFF791FD09E09DF80F203B
:10570C000B491346DB0013449B000B4404221A7014
:10571C009DF80F3001338DF80F309DF80F30182B9A
:10572C007FF658AFFFF77CFE00BF05B05DF804FBB9
:10573C001006002000B585B003468DF807309DF8A3
:10574C000730002B2FD000238DF80F3000238DF85D
:10575C000F3024E09DF80F2015491346DB0013444D
:10576C009B000B441B78042B13D19DF80F20104980
:10577C001346DB0013449B000B4408331B789DF845
:10578C0007209A4206D19DF80F301846FFF746FDC8
:10579C0000E000BF9DF80F3001338DF80F309DF8FD
:1057AC000F30182BD6D900BF05B05DF804FB00BF35
:1057BC001006002000B585B001900B468DF8033023
:1057CC0013468DF80230019B9B68002B0ED09DF880
:1057DC0003308DF80C309DF802308DF80D30019BA4
:1057EC009B68019A107803A902229847019B1B69B8
:1057FC00002B04D0019B1B694FF4FA70984700BF33
:10580C0005B05DF804FB00B585B0039001921A4613
:10581C000B468DF80B3013468DF80A30039B9B68B2
:10582C00002B07D0039B9B68039A10780DF10B019A
:10583C0001229847039B1B69002B03D0039B1B6918
:10584C0032209847039BDB68002B07D0039BDB6857
:10585C00039A10789DF80A2001999847039B1B69BD
:10586C00002B03D0039B1B693220984700BF05B067
:10587C005DF804FB82B001900091019B002B0ED0CF
:10588C00019BDB69002B0AD0009B002B07D0019BEE
:10589C00DB69D968019BDB69009A0A44DA6000BFB6
:1058AC0002B0704782B00190019B002B0AD0019B83
:1058BC00DB69002B06D0019BDB691B78062B01D121
:1058CC00012300E00023184602B0704782B001901B
:1058DC000B468DF80330019B002B08D0019BDB6934
:1058EC00002B04D0019BDB699DF803205A7000BF8C
:1058FC0002B0704700B585B00190019B002B21D000
:10590C00019BDB69002B1DD0019BDB695B78002BB5
:10591C0018D100238DF80F300DF10F02012308214F
:10592C000198FFF770FF9DF90F3007EE903AF8EEF3
:10593C00E77AB6EE007A67EE877AB3EE077A77EEFF
:10594C00877A01E0DFED037AB0EE670A05B05DF807
:10595C0004FB00BF0000000000B587B00190019B64
:10596C00002B40D0019BDB69002B3CD0019BDB69F9
:10597C005B78002B37D100238DF80F300DF10F021F
:10598C0001230C210198FFF73EFF9DF80F3003F027
:10599C003003302B03D102238DF8103016E09DF824
:1059AC000F3003F02003002B03D001238DF81030AF
:1059BC000CE09DF80F3003F01003002B03D00023F4
:1059CC008DF8103002E003238DF810309DF80F3065
:1059DC0003F04003002B03D000238DF8113002E0BC
:1059EC0001238DF81130BDF81030ADF814300023C0
:1059FC009DF8142062F307039DF8152062F30F2322
:105A0C00184607B05DF804FB00B585B001900B4655
:105A1C008DF803304FF000030393019B002B57D0FC
:105A2C00019BDB69002B53D0019BDB695B78002B5E
:105A3C004ED1019B002B4BD0019BDB69002B47D037
:105A4C000023ADF8083000238DF80B309DF803309F
:105A5C00022B0ED0022B10DC002B02D0012B04D019
:105A6C000BE002238DF80B3007E004238DF80B308C
:105A7C0003E006238DF80B3000BF02AA9DF80B1033
:105A8C0002230198FFF7BFFEBDF908309B101BB233
:105A9C00ADF80830BDF9083007EE903AB8EEE77A69
:105AAC00019B5B780E4ADB0013440433D3ED006A90
:105ABC009FED0C6AC6EE867A67EE277ACDED037AF7
:105ACC00DDED037A9FED087A67EE877ACDED037AE8
