:100000000000042071030000590300005B0300009E
:100010005D0300005F0300006103000000000000BA
:10002000000000000000000000000000630300006A
:10003000650300000000000067030000F5390000C0
:100040006B0300006B030000011C0000512C00003A
:100050006B0300006B0300006B0300006B030000E8
:100060006B0300006B0300006B0300006B030000D8
:100070006B0300006B0300006B0300006B030000C8
:100080006B0300006B0300006B0300006B030000B8
:100090006B0300006B0300006B0300006B030000A8
:1000A0006B0300006B0300006B0300006B03000098
:1000B0006B0300006B030000000000000000000064
:1000C0006B0300006B0300006B0300006B03000078
:1000D0006B0300006B0300006B0300006B03000068
:1000E0006B0300006B0300006B03000000000000C6
:1000F000000000006B030000000000006B03000024
:1001000000000000000000000000000000000000EF
:1001100000000000000000000000000000000000DF
:1001200000000000000000000000000000000000CF
:1001300000000000000000000000000000000000BF
:1001400000000000000000000000000000000000AF
:10015000000000000000000000000000000000009F
:10016000000000000000000000000000000000008F
:10017000000000000000000000000000000000007F
:10018000000000000000000000000000000000006F
:10019000000000000000000000000000000000005F
:1001A000000000000000000000000000000000004F
:1001B000000000000000000000000000000000003F
:1001C000000000000000000000000000000000002F
:1001D000000000000000000000000000000000001F
:1001E000000000000000000000000000000000000F
:1001F00000000000000000000000000000000000FF
:10020000344935480A1A02D0072291438D463349B2
:1002100033480A1A06D00722914381F30988022243
:1002200082F314882F483049304A00F041F83048B2
:100230003049314A00F03CF830483149314A00F049
:1002400037F831483149324A00F032F83148324902
:10025000324A00F02DF832483249334A00F028F88B
:1002600032483349334A00F023F8334833490022F7
:1002700000F029F832483349002200F024F83248CF
:100280003249091A03F0E4FB314A90471F482049DC
:10029000884205D00268043003B4904703BCF7E7F6
:1002A00000208646EC46002000212A4A9047FEE7BF
:1002B000884207D0521A05D0037801300B70013103
:1002C000013AF9D17047884202D002700130FAE752
:1002D000704700000000042000E00320000004201C
:1002E0000000042014450000000000201100002040
:1002F000CC030000CC030000643A00001445000069
:100300000000002000000020A03A0000A03A0000F9
:10031000A03A0000A03A0000A03A0000A03A000075
:10032000A03A0000A03A0000144500002845000053
:100330001400002014000020140000209805002064
:100340009805002098050020980500209825002099
:100350009903000051370000FEE7FEE7FEE7FEE7E5
:10036000FEE7FEE7FEE7FEE7FEE7FEE700F002B885
:10037000FFF7FCBF0F484FF00701884385460E4842
:1003800080470E48016841F470010160BFF34F8F50
:10039000BFF36F8FFFF734BF09480A490A4A884202
:1003A00007D0521A05D0037801300B700131013AA1
:1003B000F9D17047000004201D30000088ED00E0F6
:0C03C000A03A0000000000200000002017
:1003CC0000B583B001900091019B1B681B680099DC
:1003DC000198984700BF03B05DF804FB00B583B0EB
:1003EC000190019B1B685B680198984700BF03B0A4
:1003FC005DF804FB00B583B00190019B1B689B6802
:10040C000198984700BF03B05DF804FB82B00190DF
:10041C00019BDB6801225A7100BF02B0704782B0A9
:10042C000190019BDB685B79184602B070470000B5
:10043C00024A034BD31ADB08184670478C3A00006B
:10044C00643A000084B00190009100238DF80F30C5
:10045C00019B1B7803F00403DBB2002B24D0019B1F
:10046C001B78C3F30103DBB2012B02D0022B0CD09F
:10047C0017E0009B1B68019A1288C2F38312D2B258
:10048C0013449A1C009B1A600BE0009B1B68019A9A
:10049C005288C2F3891292B213449A1C009B1A60C0
:1004AC0000BF01238DF80F309DF80F30184604B0B3
:1004BC007047000000B58BB00023ADF826303E48E5
:1004CC0000F092FF3D4800F08FFF3D4B9B6804937A
:1004DC003C4B1B680693049A069B134002339B000B
:1004EC00374A13440433089304AB19460898FFF7B2
:1004FC00A9FF0346002B09D0049A069B1340023334
:10050C009B002F4A134404330893EDE700BF0023EC
:10051C00079311E0049B5A1C0492069A1340079A05
:10052C00920001A90A44264902339B000B445B68E4
:10053C001360079B01330793079B012BEAD99DF8A6
:10054C000430C3F30103DBB2012B10D0022B1CD1FE
:10055C00BDF80A30ADF82630BDF80630C3F3891368
:10056C009BB203339A08049B1344049313E0BDF825
:10057C000A30ADF82630BDF80430C3F38313DBB278
:10058C001A46049B1344049305E00F494FF4C270C0
:10059C0000F09DFE00BF094800F032FF0590059B5E
:1005AC00002B02D0049B064A9360BDF826301846F7
:1005BC000BB05DF804FB00BFFC040020F804002025
:1005CC00E400002000000020A43A000000B585B033
:1005DC000021074800F091FE0390039B0293029BBD
:1005EC0083F310030193019B184605B05DF804FBDF
:1005FC000005002000B589B0039002910192009390
:10060C00039B1B0C0793FFF7E1FF0690FFF710FF0E
:10061C000246079B934204D3214940F2A91000F0F3
:10062C0056FE069B1904009B5A1C0A9B1340079A02
:10063C000A431C4902339B000B445A60009A0A9BE4
:10064C00134002339B00174A134404330593039B56
:10065C0003F00703D9B2059A137861F3C50313703D
:10066C00019B03F00F03D9B2059A138861F3891328
:10067C001380029BC3F31501059A136861F39F2342
:10068C001360059A1378012161F301031370059A25
:10069C0013786FF38203137000BF09B05DF804FB8D
:1006AC00A43A0000E400002000BF704700B58BB0F6
:1006BC000390029113468DF80730039B0233089385
:1006CC0001238DF81F30002000F0BAFD3E4B5A6814
:1006DC00029B1A603D4B1A683B4B99683A4B5B681E
:1006EC00CB1A13440133099314E00121384800F06C
:1006FC004BFEFFF7DFFE05900599354800F044FEF0
:10070C00324B1A68304B99682F4B5B68CB1A1344E9
:10071C0001330993089A099B9A42E6D89DF81F3039
:10072C00002B48D0002304939DF80730002B17D0E2
:10073C009DF81030012262F301038DF810309DF802
:10074C00103043F004038DF81030039B03F00F03BB
:10075C00DAB2BDF8103062F38913ADF8103016E040
:10076C009DF81030022262F301038DF810309DF8D1
:10077C00103043F004038DF81030039BC3F30903CE
:10078C009AB2BDF8123062F38F13ADF812300E4BE3
:10079C005A680E4B1B68134002339B000A4A1344E1
:1007AC0004330693049A069B1A60074B5A68089BFD
:1007BC001344054A5360002000F056FD9DF81F308D
:1007CC0018460BB05DF804FBE4000020000000208C
:1007DC000005002000B58BB00590049103920293A4
:1007EC00204B1B68079306AB012219460298FFF7B2
:1007FC005DFF0346002B24D0069B02330993002394
:10080C00089311E0089B9B00039A1A44099B591CFE
:10081C00099107990B401268134902339B000B4452
:10082C005A60089B01330893089A029B9A42E9D3B9
:10083C00069A079B00931346029A04990598FFF7B2
:10084C00D9FE094B1B78002B05D000BF00F06AF8CD
:10085C000346002BFAD1FFF727FF00BF0BB05DF862
:10086C0004FB00BF00000020E400002000B583B0B2
:10087C00019000910023002200990198FFF7AAFF34
:10088C0000BF03B05DF804FB00B587B00390029184
:10089C000192019B059305AA012302990398FFF786
:1008AC0099FF00BF07B05DF804FB00B587B003905B
:1008BC00029101920093019B0493009B059304AA5F
:1008CC00022302990398FFF785FF00BF07B05DF87C
:1008DC0004FB00B58BB00390029101920093019B35
:1008EC000593009B06930C9B07930D9B08930E9B03
:1008FC00099305AA052302990398FFF76BFF00BF24
:10090C000BB05DF804FB0000054B9A68044B5B6868
:10091C009A420CBF01230023DBB21846704700BF7C
:10092C00E400002000B599B0FFF7EEFF0346002B62
:10093C0001D00023B9E19B4B0022C3F81824BFF36C
:10094C004F8F00BF974B9B680493974B1B6810937A
:10095C00049A109B134002339B00924A13440433B5
:10096C001193002317930023169300230F9304ABCA
:10097C0019461198FFF766FD0346002B19D0894BD9
:10098C00D3F81834002B14D1864B5A68049B9A4226
:10099C0005D8844B5B68834A9360002385E1049AF5
:1009AC00109B134002339B007E4A13440433119373
:1009BC00DDE70023159311E0049B5A1C0492109A56
:1009CC001340159A920001A90A44764902339B0000
:1009DC000B445B681360159B01331593159B012B1E
:1009EC00EAD99DF8043003F00303DBB2022B40F08C
:1009FC009C80BDF80630C3F389139BB20D93BDF8F0
:100A0C000630C3F389139BB2502B28BF50239BB2E3
:100A1C000C930C9BC3F309039AB2BDF8063062F336
:100A2C008F13ADF806300C9B08330B939DF80430F4
:100A3C00C3F3C203DBB20F930B995C4800F090FD3B
:100A4C001790179B002B00F0D380179800F019FE1D
:100A5C0001A9169B0822179800F0CEFE169B0833AE
:100A6C001693049BDA43109B134001339B000A93AB
:100A7C000C9A0A9B9A4242D90A9B002B08D0049AE2
:100A8C00109B134002339B00464A1344043300E08E
:100A9C00474B08930A9B002B02D00A9BDBB201E068
:100AAC000C9BDBB28DF81F300A9B002B01D0404B06
:100ABC0000E0002306930A9B002B06D00C9BDAB2B5
:100ACC000A9BDBB2D31ADBB200E000238DF817309F
:100ADC009DF81F20169B0899179800F08DFE9DF825
:100AEC001F30169A13441693069B002B16D09DF8B4
:100AFC001720169B0699179800F07EFE0EE0049ABC
:100B0C00109B134002339B00264A13440433099371
:100B1C00169B0C9A0999179800F06EFE0D9B0333E7
:100B2C009A08049B1344049362E09DF8043003F08C
:100B3C000303DBB2012B5BD1BDF80430C3F3831389
:100B4C00DBB2062B28BF0623DAB2BDF8043062F301
:100B5C008913ADF80430BDF80430C3F38313DBB252
:100B6C0002330E939DF80430C3F3C203DBB20F9330
:100B7C000E9B9B0019460D4800F0F2FC1790179B3A
:100B8C00002B35D0179800F07CFD01A9169B08228C
:100B9C00179800F031FE169B08331693002315931B
:100BAC001DE000BFE4000020000000208C3A000093
:100BBC00F0000020049B5A1C0492109A134002333C
:100BCC009B003C4A1344191D169B0422179800F0F5
:100BDC0013FE169B04331693159B01331593BDF826
:100BEC000430C3F38313DBB21A46159B9342E1D353
:100BFC00179B002B39D02F4BD3F8103414932D4B5B
:100C0C00D3F81834002B1BD0179800F049FD46E0A0
:100C1C0000238DF84F301498FFF701FC0346002B8E
:100C2C0002D001238DF84F309DF84F30002B03D0AC
:100C3C0017991498FFF7C4FB149BDB681B6814937B
:100C4C00149B002BE4D1179800F02AFD002000F033
:100C5C00F7FA184BD3F81834002B02D1049B154A21
:100C6C009360002000F000FB19E0124BD3F8103415
:100C7C00129306E01298FFF7BDFB129BDB681B6812
:100C8C001293129B002BF5D10B4A0C4BD31ADB0899
:100C9C001B0443F002030A491846FFF7E7FDFFF770
:100CAC0033FE034683F00103DBB2184619B05DF83E
:100CBC0004FB00BFE4000020843A0000643A00000A
:100CCC00FC3A000000B583B00C4BD3F81034019300
:100CDC000A4B01221A7009E00198FFF797FB019863
:100CEC00FFF77CFB019BDB681B680193019B002BCE
:100CFC00F2D100BF00BF03B05DF804FBE40000209C
:100D0C0000B583B00190019B1B68184600F0E5F814
:100D1C000346002B04D10B494FF4F67000F0D7FAC0
:100D2C00019B1B681F2B02D84FF0A04306E0019BD0
:100D3C001B6803F01F02019B1A60034B184603B09B
:100D4C005DF804FB103B00000003005000B585B0BB
:100D5C000190084611461A4603468DF803300B469F
:100D6C008DF8023013468DF8013001AB1846FFF7B1
:100D7C00C7FF03909DF803209DF802305B001A43D7
:100D8C009DF801309B001A439DF818301B0242EA73
:100D9C0003019DF81C301B04019A1943039B02F5B7
:100DAC00E07243F8221000BF05B05DF804FB00B5FB
:100DBC0085B00390002301930023009300230122AC
:100DCC0001210398FFF7C2FF00BF05B05DF804FBDB
:100DDC0000B585B003900B468DF80B309DF80B30A9
:100DEC000022019200220092002200210398FFF7BA
:100DFC00ADFF00BF05B05DF804FB00B585B00190F8
:100E0C0001AB1846FFF77CFF0390019B012202FA0D
:100E1C0003F31946039800F04CF800BF05B05DF8D9
:100E2C0004FB00B585B0019001AB1846FFF768FFD5
:100E3C000390019B012202FA03F31946039800F078
:100E4C0042F800BF05B05DF804FB00B585B0019019
:100E5C0001AB1846FFF754FF0390039BD3F80435FE
:100E6C000293029BDA43019B012101FA03F31A401E
:100E7C00039BC3F80825019B01229A40029B1A4050
:100E8C00039BC3F80C2500BF05B05DF804FB00B54F
:100E9C0083B001900091009B002B03D10198FFF7C8
:100EAC00C0FF02E00198FFF7A8FF00BF03B05DF898
:100EBC0004FB82B001900091019B009AC3F80825B5
:100ECC0000BF02B0704782B001900091019B009A64
:100EDC00C3F80C2500BF02B0704784B00190019B91
:100EEC005B09029300230393029B002B03D0029B0C
:100EFC00012B04D007E04FF0FF33039303E04FF6D0
:100F0C00FF73039300BF019B03F01F030193039A2C
:100F1C00019B22FA03F303F00103002B14BF0123FE
:100F2C000023DBB2184604B07047000000B583B054
:100F3C000190019B032B03D90749472000F0C7F907
:100F4C00064A019B13441B7801211846FFF79FFFAB
:100F5C0000BF03B05DF804FB403B0000803B000089
:100F6C0000B583B00023019305E00198FFF7DEFF85
:100F7C00019B01330193019B032BF6D900BF00BFEA
:100F8C0003B05DF804FB000000B583B00190019B39
:100F9C00032B03D907495F2000F099F9064A019BFE
:100FAC0013441B781846FFF750FF00BF03B05DF8E1
:100FBC0004FB00BF403B0000803B000000B583B049
:100FCC000023019309E0094A019B13441B7818463E
:100FDC00FFF7EDFE019B01330193019B032BF2D92B
:100FEC00FFF7BEFF00BF03B05DF804FB803B0000C1
:100FFC0000B583B0002301930AE0094A019B134416
:10100C001B7803211846FFF7E3FE019B0133019384
:10101C00019B032BF1D900BF00BF03B05DF804FBAB
:10102C00843B000000B583B00190019B03F00103E9
:10103C00002B01D0FFF7C2FF019B03F00203002B32
:10104C0001D0FFF7D5FF00BF03B05DF804FB000033
:10105C0086B003900291019201238DF817309DF810
:10106C001730204A039B13601E4A029B53601D4A93
:10107C00019B9360039B44F20102934212D0039BA9
:10108C0044F20202934220D1019B164AD360154BC5
:10109C00DB681B68134A9361124BDB685B68114A6F
:1010AC00D36112E0019B0F4A13610E4B1B699B68C5
:1010BC000C4A53610B4B1B691B680A4A9361094B21
:1010CC001B695B68074AD36100BF72B600BF00BFE3
:1010DC009DF81730DBB2002BFAD162B600BF00BF0F
:1010EC0006B070470405002000B583B00290009153
:1010FC00019244F2010071466A4600F003F803B015
:10110C0000BD00BF30B58BB007900691059272B64A
:10111C0000BFFFF7D7FD00BFFFF704FC0346002B11
:10112C00FAD1079B44F20102934216D0079B44F27A
:10113C00020293423ED1059B09932C4A2C4BD31AA5
:10114C00DB081B0443F00100099B5B681A46099BF2
:10115C001B682849FFF7A9FB39E0059B0893234A34
:10116C00234BD31ADB081B0443F00104089B9D6836
:10117C00089B9B68184600F05DFB03461846089BCD
:10118C005B681946089B1B68069A029201930091B2
:10119C0003462A4618492046FFF79BFB134A144B7B
:1011AC00D31ADB081B0443F0010314491846FFF75C
:1011BC005DFB0CE00D4A0E4BD31ADB081B0443F00D
:1011CC000103069A0E491846FFF75EFB00BF0D4B54
:1011DC001B6803F00103002B00D000BE059A069992
:1011EC000798FFF735FF00BF0BB030BD843A000005
:1011FC00643A0000883B0000A43B0000CC3B00009C
:10120C00E03B0000F0ED00E072B600BF034B1B6842
:10121C000133024A136000BF704700BF2405002051
:10122C00064B1B68013B054A1360044B1B68002BE3
:10123C0001D162B600BF00BF704700BF240500207B
:10124C0000B583B0019000F025F80346012B03D0C4
:10125C000449432000F03BF8FFF7D6FF00BF03B072
:10126C005DF804FBF83B000000B583B003468DF835
:10127C00073000F00FF80346012B03D0044951202E
:10128C0000F025F8FFF7CCFF00BF03B05DF804FBBE
:10129C00F83B000084B0EFF305830193019BC3F38B
:1012AC0008030393039B002B0DD1EFF314830093DE
:1012BC00009B0293029B03F00103002B0CBF012344
:1012CC000023DBB200E00123184604B0704700B5E0
:1012DC0085B003460091ADF80630BDF80630029398
:1012EC00009B039302AB1A46002144F20200FFF765
:1012FC0009FF00BF05B05DF804FB10B487B0019086
:10130C000091019B009A53E8004F104643E80001FE
:10131C0091F0000FF7D1059404900391059B1846AA
:10132C0007B05DF8044B704710B487B00190009182
:10133C00019B009A53E8004F44EA020043E8000185
:10134C0091F0000FF6D1059404900391049B18467C
:10135C0007B05DF8044B704710B487B00190009152
:10136C00019B009A53E8004F04EA020043E8000195
:10137C0091F0000FF6D1059404900391059B18464B
:10138C0007B05DF8044B704710B487B00190009122
:10139C00019B009A53E8004F04EB020043E8000164
:1013AC0091F0000FF6D1059404900391049B18461C
:1013BC0007B05DF8044B704710B487B001900091F2
:1013CC00019B009A53E8004FA4EB020043E8000194
:1013DC0091F0000FF6D1059404900391049B1846EC
:1013EC0007B05DF8044B704700B583B00190012144
:1013FC000198FFF799FF0346184603B05DF804FB0C
:10140C0000B583B0019000210198FFF7A5FF0346BA
:10141C00184603B05DF804FB00B583B001900B4691
:10142C008DF80330019B002B03D10849E820FFF70E
:10143C004EFF019BDA689DF803300199098A01FB84
:10144C0003F31344184603B05DF804FB4C3C000056
:10145C0000B583B001900091019B002B03D108498A
:10146C00F520FFF734FF009B019AD2689B1A019A72
:10147C00128AB3FBF2F3DBB2184603B05DF804FB3F
:10148C004C3C000000B585B00190019B002B04D1B1
:10149C001C494FF49270FFF71AFF002303930020AE
:1014AC00FFF7CEFE019B1B681A68019B5B689A4292
:1014BC001FD9019B1B681A68013A1A601B681B78BC
:1014CC0019460198FFF7A8FF0390019B9A68019BAE
:1014DC001B681B68D31A8DF80B30019B1B681B799A
:1014EC009DF80B209A4204D9019B1B689DF80B2098
:1014FC001A710020FFF7B8FE039B184605B05DF883
:10150C0004FB00BF4C3C000010B584B0019000916E
:10151C00019B002B04D1114940F24710FFF7D7FE75
:10152C00009B002B04D10D494FF4A470FFF7CFFEA4
:10153C00009B03930020FFF783FE019B1B681C6834
:10154C00621C1A6003990198FFF782FF034623700F
:10155C000020FFF789FE00BF04B010BD4C3C00001A
:10156C0000B58BB001900091019B1B8A043B079343
:10157C00009A079B1344DA1C079BB2FBF3F38DF81C
:10158C001B300198FFF77EFF0590059B002B01D1C6
:10159C00002338E0059B00221A71059B01225A7129
:1015AC00079B9AB2059BDA80059B09939DF81B302B
:1015BC00013B0493099B019A1A60002308931DE0D8
:1015CC000198FFF75FFF0390039B002B0ED0059B48
:1015DC005B790133DAB2059B5A71099B039A1A6045
:1015EC00039B019A1A60039B099304E0059800F091
:1015FC000EF8002307E0089B01330893089A049B1C
:10160C009A42DDD3059B18460BB05DF804FB00B580
:10161C008BB00190019B0793079B5B798DF81B3076
:10162C00019B08939DF81B30013B05930023099304
:10163C0005E0089B1B680893099B01330993099AE1
:10164C00059B9A42F5D3089B1B680493019B089356
:10165C00002309930BE0089B1B68039308990498DB
:10166C00FFF752FF039B0893099B013309939DF8E5
:10167C001B30099A9A42EED300BF00BF0BB05DF845
:10168C0004FB00B585B00190019B0393039B0433CD
:10169C0001211846FFF778FE00BF05B05DF804FB8A
:1016AC0000B587B00190019B0593059B0433012184
:1016BC001846FFF781FE0346039303AB0493049B88
:1016CC001B78002B02D10198FFF7A1FF00BF07B0D8
:1016DC005DF804FB00B591B0039002910192009368
:1016EC00039B002B03D14349B620FFF7F0FD039B6E
:1016FC000993039B0F93099BDB881A46099B5B7923
:10170C0002FB03F3043B0893009A089B9A4203D311
:10171C003849C420FFF7DBFD099BDB880793009B4E
:10172C001A1D079BB2FBF3F30E93009B0433079A2D
:10173C00B3FBF2F2079901FB02F29B1A0D93019B8A
:10174C001A68009B1344089A9A4203D2089A009B89
:10175C00D31A01E0019B1B680C93019B0C9A1A6035
:10176C0005E00F9B1B680F930E9B013B0E930E9B8A
:10177C00002BF6D100230B93079A0D9BD31A0A93D7
:10178C000A9A0C9B934228BF13460A932AE0029AAA
:10179C000B9B134406930F9A0D9B13440433059330
:1017AC009DF84830002B05D00A9A0599069802F04E
:1017BC0023F904E00A9A0699059802F01DF9002312
:1017CC000D930F9B1B680F930C9A0A9BD31A0C93C7
:1017DC000B9A0A9B13440B93079A0C9B934228BFBA
:1017EC0013460A930C9B002BD1D100BF00BF11B044
:1017FC005DF804FB9C3C000000B589B00590049199
:10180C0003920293039B079307AA00230093029B66
:10181C0004990598FFF75EFF079B039A9A4203D041
:10182C000349F620FFF753FD00BF09B05DF804FB38
:10183C009C3C000000B585B00190019800F00EF8BA
:10184C000390039B002B01D0039B00E0024B184636
:10185C0005B05DF804FB00BFEC3C000086B00190C5
:10186C00164B0593164B04931FE0049A059BD31A51
:10187C00DB10DA0F13445B10DB00059A134403935F
:10188C00039B1B680293029A019B9A4202D9039B09
:10189C0004930AE0029A019B9A4203D2039B0833F9
:1018AC00059302E0039B5B6804E0059A049B9A4253
:1018BC00DBD30023184606B0704700BFC0400000C1
:1018CC00D841000000B585B00190019B002B0AD0D7
:1018DC00074B43F001030393019B9B010293039B72
:1018EC000298984700E000BF05B05DF804FB00BF0C
:1018FC001042000000B583B00190019B1B68184694
:10190C0000F077F80346002B04D10B494FF4F67026
:10191C00FFF7DDFC019B1B681F2B02D84FF0A04387
:10192C0006E0019B1B6803F01F02019B1A60034B2E
:10193C00184603B05DF804FBD841000000030050CA
:10194C0000B585B0019001AB1846FFF7D3FF0390AB
:10195C00019B012202FA03F31946039800F035F8B3
:10196C0000BF05B05DF804FB00B585B0019001AB7C
:10197C001846FFF7BFFF0390019B012202FA03F305
:10198C001946039800F02BF800BF05B05DF804FB76
:10199C0000B585B0019001AB1846FFF7ABFF039083
:1019AC00039800F00AF80246019B22FA03F303F0B5
:1019BC000103184605B05DF804FB82B00190019B51
:1019CC00D3F81035184602B0704782B001900091E0
:1019DC00019B009AC3F8082500BF02B0704782B083
:1019EC0001900091019B009AC3F80C2500BF02B036
:1019FC00704784B00190019B5B0902930023039311
:101A0C00029B002B03D0029B012B04D007E04FF06C
:101A1C00FF33039303E04FF6FF73039300BF019B67
:101A2C0003F01F030193039A019B22FA03F303F0C3
:101A3C000103002B14BF01230023DBB2184604B0B2
:101A4C00704700B585B001904FF0A042019B1B6818
:101A5C0003F5E07340F20C6142F823104FF0A04202
:101A6C00019B5B6803F5E07340F20C6142F82310B4
:101A7C00019B1B681846FFF763FF019B5B681846C8
:101A8C00FFF75EFF4FF0A042019B1B6803F5E0736C
:101A9C0040F20D6142F823104FF0A042019B5B68AD
:101AAC0003F5E07340F20D6142F823100420FFF7B8
:101ABC0009FF002303931EE0019B5B681846FFF7A8
:101ACC0067FF0346002B03D0039B002B17D124E0A8
:101ADC00019B1B681846FFF747FF0420FFF7F2FE37
:101AEC00019B1B681846FFF72BFF0420FFF7EAFE4B
:101AFC00039B01330393039B082BDDDD00E000BF48
:101B0C00019B5B681846FFF72FFF0420FFF7DAFEF6
:101B1C00019B5B681846FFF713FF05B05DF804FBEB
:101B2C0000B589B001900091009B0793019B1B7835
:101B3C008DF80C30019B1B798DF81030019B5B7973
:101B4C008DF81130019B9B68DBB28DF81230019B34
:101B5C00DB68DBB28DF81330019B1B690593019B8D
:101B6C005B690693074A079B52F823300649079A8C
:101B7C0051F8221003AA1046984700BF09B05DF82F
:101B8C0004FB00BF280500203005002000B587B0FD
:101B9C000390029101920093039B1B7805931249C9
:101BAC00059B019A41F823201049059B009A41F8A6
:101BBC002320029B5B7B002B02D00298FFF741FF96
:101BCC0000230493039B181D019B002B01D0084A92
:101BDC0000E00022059B029900F02AFB0490049B74
:101BEC00184607B05DF804FB2805002030050020DE
:101BFC002D1B000008B5064B1B68002B03D10549B3
:101C0C005120FFF764FB024B1B68984700BF08BDCF
:101C1C00380500201C42000082B00190019B044A50
:101C2C00934201D1034B00E00023184602B07047E9
:101C3C00002000403805002000B587B001900091CD
:101C4C00019B002B03D118497720FFF740FB01982B
:101C5C00FFF7E2FF0590059B002B1ED000238DF8AB
:101C6C0013300020FFF7ECFA059B1B79002B03D0F7
:101C7C0001238DF8133005E0059B009A1A60059B33
:101C8C0001221A710020FFF7EFFA9DF81330002B98
:101C9C0003D011230393039B02E000230393039BC4
:101CAC00184607B05DF804FB1C42000082B00346E6
:101CBC008DF807309DF90730002B0CDB9DF80730B1
:101CCC0003F01F0205499DF907305B09012000FA5A
:101CDC0002F241F8232000BF02B0704700E100E09F
:101CEC0082B003468DF807309DF90730002B0DDBD1
:101CFC009DF8073003F01F0206499DF907305B0978
:101D0C00012000FA02F2603341F8232000BF02B038
:101D1C00704700BF00E100E082B0034600918DF8EF
:101D2C0007309DF90730002B0ADB009BDAB20C4917
:101D3C009DF907305201D2B20B4483F800230BE01B
:101D4C00009BDAB207499DF8073003F00F03043B00
:101D5C005201D2B20B441A7600BF02B0704700BFDA
:101D6C0000E100E000ED00E082B00190019B03F087
:101D7C006043B3F1005F0CBF01230023DBB21846B4
:101D8C0002B0704782B00190019B1B0B5BB21846EE
:101D9C0002B0704700B583B003460A468DF8073091
:101DAC0013468DF806309DF80630072B03D90849E9
:101DBC006B20FFF78CFA9DF806209DF90730114631
:101DCC001846FFF7A9FF00BF03B05DF804FB00BF86
:101DDC006C42000000B583B003468DF807309DF9C6
:101DEC0007301846FFF762FF00BF03B05DF804FB35
:101DFC0000B583B003468DF807309DF907301846BF
:101E0C00FFF76EFF00BF03B05DF804FB82B00190DA
:101E1C000B468DF803309DF80330019A13440122D0
:101E2C001A6000BF02B0704784B001900B46ADF849
:101E3C000230BDF80230019A134400221A60BDF83A
:101E4C000230019A13441B680393039B00BF04B038
:101E5C00704782B001900B46ADF80230BDF80230ED
:101E6C00019A13441B68002B14BF01230023DBB21F
:101E7C00184602B0704782B001900091019B009A05
:101E8C00C3F8042300BF02B0704782B001900091E8
:101E9C00019B009AC3F8082300BF02B0704782B0C0
:101EAC000190019B0622C3F8002500BF02B07047C9
:101EBC0082B00190019B0022C3F8002500BF02B044
:101ECC00704784B0039002910192039B029AC3F86D
:101EDC000825039B019AC3F80C2500BF04B070477A
:101EEC0082B001900091019B009AC3F8242500BF99
:101EFC0002B0704784B00190019BD3F8C4340393B3
:101F0C00019B039AC3F8C424039B184604B0704782
:101F1C0082B001900B468DF803309DF80320019B95
:101F2C00C3F8882500BF02B0704784B003900291BB
:101F3C000192029A039BC3F84425039B019AC3F8B0
:101F4C00482500BF04B0704784B003900291019201
:101F5C00029A039BC3F83425039B019AC3F83825D6
:101F6C0000BF04B0704782B001900091019B009AB1
:101F7C00C3F8002200BF02B0704782B00190019BF1
:101F8C00D3F84C35184602B0704782B00190019BD3
:101F9C00D3F80032184602B0704782B00190019B12
:101FAC00D3F83C35184602B0704782B00190019BC3
:101FBC000122C3F8502500BF02B0704782B00190D7
:101FCC00019B0022C3F8502500BF02B0704782B0BD
:101FDC000190019B0122C3F8402500BF02B070475D
:101FEC0082B00190019B0022C3F8402500BF02B0D3
:101FFC007047000000B583B00190019B1B68184628
:10200C0000F04FF80346002B04D10B494FF4F67047
:10201C00FFF75DF9019B1B681F2B02D84FF0A04303
:10202C0006E0019B1B6803F01F02019B1A60034B27
:10203C00184603B05DF804FB9C42000000030050FE
:10204C0000B585B00190084611461A4603468DF836
:10205C0003300B468DF8023013468DF8013001AB7E
:10206C001846FFF7C7FF03909DF803209DF8023038
:10207C005B001A439DF801309B001A439DF8183001
:10208C001B0242EA03019DF81C301B04019A194300
:10209C00039B02F5E07243F8221000BF05B05DF817
:1020AC0004FB84B00190019B5B0902930023039312
:1020BC00029B002B03D0029B012B04D007E04FF0B6
:1020CC00FF33039303E04FF6FF73039300BF019BB1
:1020DC0003F01F030193039A019B22FA03F303F00D
:1020EC000103002B14BF01230023DBB2184604B0FC
:1020FC00704784B0019003230393019B03F0010309
:10210C00002B02D04FF402430393019B03F0020314
:10211C00002B02D048F201230393019B03F004032C
:10212C00002B02D048F202230393039B184604B001
:10213C007047000000B585B00190009101238DF827
:10214C000F30009B1B7B032B56D801A252F823F0B7
:10215C00D5210000ED210000AD2100006D21000013
:10216C00009B9B6803F48023002B07D00198FFF79A
:10217C0004FF0246009B1B699A420DD1009B9B6891
:10218C0003F48023002B39D10198FFF7F6FE0246A9
:10219C00009B5B699A4231D000238DF80F302DE003
:1021AC000198FFF7EAFE0246009B1B699A4207D191
:1021BC000198FFF7F2FE0246009B5B699A421FD022
:1021CC0000238DF80F301BE00198FFF7D6FE024676
:1021DC00009B1B699A4215D000238DF80F3011E03B
:1021EC000198FFF7DAFE0246009B1B699A420BD05E
:1021FC0000238DF80F3007E000BF06E000BF04E0BD
:10220C0000BF02E000BF00E000BF9DF80F3083F07C
:10221C000103DBB2002B05D00198FFF749FE0198B2
:10222C00FFF73DFE9DF80F30184605B05DF804FB36
:10223C0000B58BB00590049103920293049B002B84
:10224C0003D14A49E720FFF742F8049B1A68049B24
:10225C005B689A4203D14549E820FFF738F8059BA3
:10226C001B791A46342302FB03F3414A13440893A7
:10227C00089B93F82D30002B03D008230793079B62
:10228C0070E0059B1A68059B1B791946394B53F86E
:10229C00213019461046FFF7CFFC0346002B03D024
:1022AC0011230793079B5DE0089B039A1A60089B18
:1022BC00029A5A60089B00229A60089B002283F8BD
:1022CC003020089B002283F82F20049B5A7B089B0C
:1022DC0083F83220049B1868002301930623009393
:1022EC00032300220021FFF7ABFE049B5868002358
:1022FC00019306230093032300220021FFF7A0FE85
:10230C00059B1B680993049B1968049B5B681A4620
:10231C000998FFF7D6FD049B9B6819460998FFF7AF
:10232C00DFFD089B1B68002B15D0059B1B6818460E
:10233C00FFF728FD03461A46049B1B7B19461046E3
:10234C00FFF728FD059B1B681846FFF71BFD03468E
:10235C001846FFF73FFD089B012283F82D20002330
:10236C000793079B18460BB05DF804FBD4420000A2
:10237C00400500202043000000B585B00190019B72
:10238C001B791A46342302FB03F30D4A13440393BF
:10239C00039B93F82D30012B04D00A4940F24F10C7
:1023AC00FEF795FF019B1B681846FFF778FD039B12
:1023BC00022283F82D2000BF05B05DF804FB00BF9E
:1023CC0040050020D442000084B00190019B1B7991
:1023DC001A46342302FB03F3044A13440393039B6E
:1023EC0093F82F30DBB2184604B07047400500203C
:1023FC0000B583B001900091009B03F00103002B0A
:10240C0003D00198FFF7D1FD02E00198FFF7D6FD4C
:10241C00009B03F00203002B03D00198FFF7D7FDBC
:10242C0002E00198FFF7DCFD00BF03B05DF804FB90
:10243C0030B589B003900291019200930023079369
:10244C0008238DF81B30039B002283F82E20019B60
:10245C00DB681846FFF788FC034683F00103DBB208
:10246C00002B03D010230793079BFDE19D49029895
:10247C00FFF70BFD039B93F82F30DBB2002B09D039
:10248C00039B9B6819460298FFF7F5FC11230793F1
:10249C00079BE9E1009B03F00403002B06D1009B92
:1024AC0003F01003002B01D1012300E0002303F003
:1024BC000103DAB2039B83F82F20039B019A03F1EB
:1024CC000C0415460FCD0FC42B682360009B1B0911
:1024DC0003F00103002B14BF01230023DAB2039B8A
:1024EC0083F83020039B009A1A62019B5B78194693
:1024FC000298FFF70DFD4FF482710298FFF794FCE0
:10250C004FF492710298FFF78FFC4FF4B071029860
:10251C00FFF78AFC4FF4A4710298FFF785FC009931
:10252C000298FFF765FF019B1B78032B00F2DE80FE
:10253C0001A252F823F000BF77260000BF2600004E
:10254C001F26000055250000009B03F01003002BF4
:10255C0004D065494FF4D970FEF7B9FE009B03F027
:10256C000803002B04D0604940F2B310FEF7AFFE15
:10257C00009B03F00403002B04D05B494FF4DA708A
:10258C00FEF7A5FE019B1B691846FFF7EDFB034602
:10259C0083F00103DBB2002B03D010230793079BBE
:1025AC0062E14FF480710298FFF7DDFC019BD96862
:1025BC00019B5B681A460298FFF7B7FC4FF4A871B1
:1025CC000298FFF731FC20210298FFF71FFC08212D
:1025DC000298FFF71BFC00BF4FF4A8710298FFF79D
:1025EC0038FC034683F00103DBB2002BF4D14FF42B
:1025FC00A8710298FFF718FC019B1969019B9B6855
:10260C001A460298FFF791FC039B4FF480229A60C4
:10261C006FE0019BD968019B5B681A460298FFF733
:10262C0084FC019B1B691846FFF79EFB034683F055
:10263C000103DBB2002B03D010230793079B13E19C
:10264C00019B1969019B9B681A460298FFF77CFC59
:10265C004FF484510298FFF786FC039B02229A6088
:10266C0020210298FFF7D2FB43E0019BD968019B24
:10267C005B681A460298FFF758FC009B03F0200396
:10268C00002B09D04FF480710298FFF76CFC039B70
:10269C004FF480229A6007E04FF400710298FFF724
:1026AC0062FC039B02229A6020210298FFF7AEFB8A
:1026BC001FE0019BD968019B5B681A460298FFF7E3
:1026CC0043FC4FF480510298FFF74DFC039B022210
:1026DC009A6000238DF81B3020210298FFF796FB9F
:1026EC0007E000BF02029C01D442000007230793BD
:1026FC0000BF009B03F00803002B09D1019B1B7842
:10270C00032B05D09DF81B3019460298FFF77EFB72
:10271C00039B1B68002B1FD0009B03F00403002BB2
:10272C0002D0039B00229A60009B03F04003002B15
:10273C0005D1039B9B6843F00202039B9A60039BA9
:10274C009B6843F40072039B9A60039B9B68194639
:10275C000298FFF790FB86E000238DF81A304FF4B7
:10276C00A4710298FFF775FB0346002B02D00123DE
:10277C008DF81A304FF482710298FFF76AFB03460A
:10278C00002B07D04FF482710298FFF74DFB012309
:10279C008DF81A304FF492710298FFF75AFB0346EA
:1027AC00002B38D04FF492710298FFF73DFB4FF499
:1027BC00B0710298FFF74DFB03468DF81930029863
:1027CC00FFF7E3FB05909DF8193083F00103DBB2B2
:1027DC00002B04D1059B03F40073002B0AD120219C
:1027EC000298FFF713FB14210298FFF70FFB00234D
:1027FC008DF81A309DF81930002B0CD0059B03F482
:10280C008073002B07D04FF4A4710298FFF70CFBD8
:10281C0000238DF81A309DF81A3083F00103DBB2D7
:10282C00002B9CD10298FFF765FB0490039B0022C0
:10283C0083F82F20049B002B04D00498FFF759FC3D
:10284C00079010E0009B03F04003002B0BD1039981
:10285C000298FFF76FFC034683F00103DBB2002BF9
:10286C0001D003230793079B184609B030BD00BF66
:10287C0000B587B0039002910192039B1B79002B4A
:10288C0009D1029B5B68B3F5803F04D2029B9B6825
:10289C00B3F5803F04D31B4940F26A20FEF717FDC5
:1028AC0000230593039B1B791A46342302FB03F385
:1028BC00154A13440493049B1B68002B08D1029BFC
:1028CC001B78022B04D10F4940F27220FEF7FFFC5B
:1028DC00049B1B68002B08D1029B1B78032B04D193
:1028EC00084940F27320FEF7F2FC039B1968019B28
:1028FC00029A0498FFF79CFD0590059B184607B0BB
:10290C005DF804FBD44200004005002000B58BB0FC
:10291C000390019200930B468DF80B3000238DF839
:10292C0014309DF80B308DF81530009B0693002366
:10293C000793019B0893002309939DF83030002BDB
:10294C0001D0202200E0002205AB19460398FFF7C6
:10295C008FFF034618460BB05DF804FB00B58BB037
:10296C000390019200930B468DF80B3001238DF8E8
:10297C0014309DF80B308DF81530009B0693002316
:10298C000793019B08930023099305AB002219467A
:10299C000398FFF76DFF034618460BB05DF804FB78
:1029AC0030B58BB001900091009B1B68002B04D1BB
:1029BC00A24940F2C120FEF78AFC4FF492710198B3
:1029CC00FFF747FA0346002B3ED04FF49271019863
:1029DC00FFF72AFA4FF482710198FFF73AFA03468F
:1029EC0083F00103DBB2002B2ED0009B9B681946B1
:1029FC000198FFF74AFA009B02229A60009B9B68A1
:102A0C0019460198FFF737FA4FF4B0710198FFF7A8
:102A1C0020FA034683F00103DBB2002B07D10198A7
:102A2C00FFF7B3FA034603F40073002B07D1202100
:102A3C000198FFF7EBF914210198FFF7E7F9009BD8
:102A4C00012283F82E20F6E04FF482710198FFF7F3
:102A5C0000FA0346002B5DD04FF482710198FFF70A
:102A6C00E3F9009B1B6A03F04003002B1AD1009B77
:102A7C0093F82E3083F00103DBB2002B12D00099B7
:102A8C000198FFF757FB0346002B14BF01230023CB
:102A9C00DBB283F00103DBB203F00103DAB2009B7B
:102AAC0083F82E20009B1B6A03F00403002B79D1C2
:102ABC00009B04AC03F10C050FCD0FC42B682360F5
:102ACC004FF4B0710198FFF7AFF94FF4AE71019864
:102ADC00FFF7AAF9009B93F8303083F00103DBB2C7
:102AEC00002B04D1009B93F82E30002B5AD00021E0
:102AFC000198FFF738FA009B00229A605049019820
:102B0C00FFF7C3F90198FFF73DF903461846FFF7A5
:102B1C006FF947E04FF4A4710198FFF785F9009B1A
:102B2C001B7B002B22D1009B04AC03F10C050FCDB9
:102B3C000FC42B682360009B93F8303083F00103A3
:102B4C00DBB2002B2ED000210198FFF70CFA009B72
:102B5C0000229A603A490198FFF797F90198FFF71C
:102B6C0011F903461846FFF743F91BE04FF40071C7
:102B7C000198FFF7F8F9009B40F202229A60304965
:102B8C000198FFF782F9009B9B6819460198FFF7A3
:102B9C0072F908210198FFF739F920210198FFF704
:102BAC0035F948E00198FFF7A5F90990099B03F066
:102BBC000203002B03D001238DF80C301DE0099B80
:102BCC0003F00403002B03D002238DF80C3014E027
:102BDC00099B03F00103002B03D003238DF80C3069
:102BEC000BE0009B93F82E30002B03D004238DF8C0
:102BFC000C3002E000238DF80C30009B93F8303041
:102C0C0083F00103DBB2002B03D0009B002283F87E
:102C1C002F20009B1B6A03F00403002B04D0009BA5
:102C2C0093F82E30002B06D0009B1B68009A51683D
:102C3C0003AA104698470BB030BD00BFD442000029
:102C4C0002029C0108B503490348FFF7A9FE00BF27
:102C5C0008BD00BF4005002000300040BFF34F8F7F
:102C6C0000BF064BDB6803F4E0620449044B1343DA
:102C7C00CB60BFF34F8F00BF00BFFDE700ED00E05E
:102C8C000400FA0582B0164B1B680193154B1B68A8
:102C9C000093019B082B1FD1009B052B1AD801A276
:102CAC0052F823F0C92C0000CD2C0000D12C0000D0
:102CBC00D52C0000D92C0000DD2C000001230CE0E9
:102CCC0001230AE0012308E0012306E0012304E0CC
:102CDC00012302E0012300E00023184602B07047F4
:102CEC00300100103401001082B0164B1B680193A8
:102CFC00154B1B680093019B082B1FD1009B052BC8
:102D0C001AD801A252F823F02D2D0000312D00000D
:102D1C00352D0000392D00003D2D0000412D000007
:102D2C0001230CE001230AE0012308E0012306E063
:102D3C00012304E0012302E0012300E000231846F4
:102D4C0002B07047300100103401001082B0164BF5
:102D5C001B680193154B1B680093019B082B1FD11B
:102D6C00009B052B1AD801A252F823F0912D0000DC
:102D7C00952D0000992D00009D2D0000A12D000027
:102D8C00A52D000001230CE000230AE0002308E03D
:102D9C00002306E0002304E0002302E0002300E00F
:102DAC000023184602B070473001001034010010A7
:102DBC0082B0164B1B680193154B1B680093019B4B
:102DCC00082B1FD1009B052B1AD801A252F823F017
:102DDC00F52D0000F92D0000FD2D0000012E000046
:102DEC00052E0000092E000001230CE000230AE050
:102DFC00002308E0002306E0002304E0002302E0A7
:102E0C00002300E00023184602B070473001001088
:102E1C003401001082B0164B1B680193154B1B68D4
:102E2C000093019B082B1FD1009B052B1AD801A2E4
:102E3C0052F823F0592E00005D2E0000612E000088
:102E4C00652E0000692E00006D2E000001230CE0A1
:102E5C0000230AE0002308E0002306E0002304E03E
:102E6C00002302E0002300E00023184602B0704764
:102E7C00300100103401001082B0164B1B68019316
:102E8C00154B1B680093019B082B1FD1009B052B36
:102E9C001AD801A252F823F0BD2E0000C12E00005A
:102EAC00C52E0000C92E0000CD2E0000D12E000032
:102EBC0001230CE000230AE0002308E0002306E0D5
:102ECC00002304E0002302E0002300E00023184666
:102EDC0002B07047300100103401001082B0164B64
:102EEC001B680193154B1B680093019B082B1FD18A
:102EFC00009B052B1AD801A252F823F0212F0000B9
:102F0C00252F0000292F00002D2F0000312F00004D
:102F1C00352F000001230CE001230AE0012308E017
:102F2C00012306E0012304E0012302E0012300E079
:102F3C000023184602B07047300100103401001015
:102F4C0082B0164B1B680193154B1B680093019BB9
:102F5C00082B1FD1009B052B1AD801A252F823F085
:102F6C00852F0000892F00008D2F0000912F00006D
:102F7C00952F0000992F000000230CE000230AE09D
:102F8C00002308E0002306E0012304E0012302E013
:102F9C00012300E00023184602B0704730010010F6
:102FAC003401001008B5FFF7CBFF0346002B07D008
:102FBC004FF010234FF08042D3F80832C2F8583546
:102FCC0000BF08BD00BF044BD3F80034002BFAD06F
:102FDC0000BF00BF704700BF00E0014000B583B0E8
:102FEC000190054A019BC2F80435FFF7EBFF00BFC7
:102FFC0003B05DF804FB00BF00E00140024B034A44
:10300C001A6000BF704700BF040000200090D0037E
:10301C0008B5FFF737FE0346002B0ED04FF0804368
:10302C000022C3F80C214FF080430022C3F810217A
:10303C004FF080430022C3F83825FFF755FE0346B6
:10304C00002B76D04FF08053734AD3F80434C2F877
:10305C0020354FF08053704AD3F80834C2F8243529
:10306C004FF080536C4AD3F80C34C2F828354FF02B
:10307C008053694AD3F81034C2F82C354FF0805382
:10308C00654AD3F81434C2F830354FF08053624A95
:10309C00D3F81834C2F834354FF080535E4AD3F865
:1030AC001C34C2F840354FF080535B4AD3F82034BF
:1030BC00C2F844354FF08053574AD3F82434C2F841
:1030CC0048354FF08053544AD3F82834C2F84C3565
:1030DC004FF08053504AD3F82C34C2F850354FF08F
:1030EC0080534D4AD3F83034C2F854354FF08053E6
:1030FC00494AD3F83434C2F860354FF08053464A0D
:10310C00D3F83834C2F864354FF08053424AD3F8C0
:10311C003C34C2F868354FF080533F4AD3F8403402
:10312C00C2F86C354FF080533B4AD3F84434C2F8A4
:10313C007035FFF70BFE0346002B02D0374B384A95
:10314C001A60FFF735FE0346002B03D0354BFB22EC
:10315C00C3F81825FFF75EFE0346002B0AD0324B4E
:10316C001B6823F00F02314B1B6803F00F032E4931
:10317C0013430B60FFF780FE0346002B03D02C4B50
:10318C004FF400721A60FFF7A9FE0346002B0DD016
:10319C004FF08043D3F8003403F00103002B05D02B
:1031AC004FF080436FF00102C3F80024214BD3F899
:1031BC008830204A43F47003C2F88830BFF34F8F35
:1031CC0000BFBFF36F8F00BFFFF7ECFE4FF0102373
:1031DC00D3F80032002B05DB4FF01023D3F8043268
:1031EC00002B15DA0120FFF7F9FE4FF01023122205
:1031FC00C3F80022FFF7E6FE4FF010231222C3F8AB
:10320C000422FFF7DFFE0020FFF7E8FEFFF726FDA4
:10321C00FFF7F4FE00BF08BD00C000408C56004014
:10322C004881030000F00040E40E004058020010FA
:10323C004096024000ED00E082B001900091019BAD
:10324C00002B0ED0019B9B68002B0AD0009B002BFF
:10325C0007D0019B9B68D968019B9B68009A0A4424
:10326C00DA6000BF02B0704782B001900B468DF857
:10327C000330019B002B08D0019B9B68002B04D0D2
:10328C00019B9B689DF803205A7000BF02B07047E9
:10329C0082B001900091009B502B04D9019B9B683C
:1032AC00009A5A6003E0019B9B6850225A6000BF51
:1032BC0002B0704700B587B001900091019B002BC4
:1032CC0000F01381019B9B68002B00F00E81009B8A
:1032DC00002B00F00A81019B1B68002B00F005817C
:1032EC00019B5B68002B00F00081019B9B681B78A5
:1032FC00032B00F2038101A252F823F019330000D2
:10330C00533300009933000005340000019B9B6887
:10331C001B7A002B0ED0019B9B68DB68182B40F2AC
:10332C00E680019B9B6800221A72019B9B6801221C
:10333C001A70DCE0019B9B680022DA60019B9B68A1
:10334C0001221A72D3E0019B9B681B7A002B0ED0D2
:10335C00019B9B68DB68182B40F2CB80019B9B6820
:10336C0000221A72019B9B6802221A70C1E0019B19
:10337C001B680122634938209847019B9B680022F7
:10338C00DA60019B9B6801221A72B2E0019B9B6878
:10339C001B7A002B21D0019B9B68DB68182B40F219
:1033AC00AA80019B9B6800221A72019B9B685B7828
:1033BC00012B0DD1019B1B680322534938209847E0
:1033CC00019B9B680022DA60019B9B6801221A72A8
:1033DC00019B9B6803221A708DE0019B1B680322E2
:1033EC004A4938209847019B9B680022DA60019B70
:1033FC009B6801221A727EE0019B9B681B7A002B52
:10340C0057D0019B9B68DB684F2B76D90023039325
:10341C000023ADF81030019B5B6803A9062238200D
:10342C0098479DF80C305BB2002B3DDB9DF80F30BC
:10343C001B0403F470229DF810301B0213439DF8FB
:10344C00112013430593059B07EE903AF8EE677A2B
:10345C009FED2F7A27EE877ADFED2E6AC7EE267A5C
:10346C009FED2D7A77EEC77A009BC3ED007A9DF81D
:10347C000D301A039DF80E301B0113439DF80F20DD
:10348C001209D2B213430593059B07EE903AF8EE5E
:10349C00677A9FED227A27EE877ADFED1E6AC7EEF8
:1034AC00267A009BC3ED017A019B9B6800221A725D
:1034BC0023E0019B9B685B78012B1ED1019B9B68D1
:1034CC00DA68019B9B685B689A4216D3019B1B6868
:1034DC0003220D4938209847019B9B680022DA6033
:1034EC00019B9B6801221A7207E000BF06E000BF37
:1034FC0004E000BF02E000BF00E000BF00BF07B067
:10350C005DF804FB100000200C00002008000020D7
:10351C000000484300008049000048420000C842B7
:10352C00034BDB681B0A03F007031846704700BF08
:10353C0000ED00E082B0034600918DF807309DF954
:10354C000730002B0ADB009BDAB20C499DF90730DF
:10355C005201D2B20B4483F800230BE0009BDAB289
:10356C0007499DF8073003F00F03043B5201D2B218
:10357C000B441A7600BF02B0704700BF00E100E0B8
:10358C0000ED00E088B0039002910192039B03F0E0
:10359C0007030793079BC3F10703032B28BF0323E0
:1035AC000693079B0333062B02D9079B043B00E0D1
:1035BC00002305930122069B02FA03F35A1E029B79
:1035CC001A40059B9A400121059B01FA03F3591EF1
:1035DC00019B0B401343184608B0704700B583B0ED
:1035EC000190019B013BB3F1807F01D301230FE0DC
:1035FC00094A019B013B536007214FF0FF30FFF755
:10360C0099FF054B00229A60034B07221A60002396
:10361C00184603B05DF804FB10E000E000B587B07D
:10362C000346029101928DF80F3000230593FFF7AA
:10363C0077FF0590019A02990598FFF7A3FF0246C0
:10364C009DF90F3011461846FFF774FF00BF07B005
:10365C005DF804FB00B583B001900198FFF7BEFF45
:10366C000346184603B05DF804FB000000B583B0B8
:10367C0001900F4B1B680F4AA2FB03239B091846B2
:10368C00FFF7E8FF0346002B01D000230BE0019B62
:10369C00072B07D8002201994FF0FF30FFF7BEFF30
:1036AC00012300E00023184603B05DF804FB00BFC3
:1036BC0004000020D34D6210034B1B680133024AF7
:1036CC00136000BF704700BF74050020014B1B68DE
:1036DC00184670477405002000B583B00190009126
:1036EC00019B1B7883F00103DBB2002B0BD0FFF79F
:1036FC00EDFF0246019B5A60019B009A9A60019B68
:10370C0001221A700CE0FFF7E1FF0246019B5B6897
:10371C00D21A019B9B689A4202D9019B00221A7013
:10372C00019B1B78002B14BF01230023DBB283F019
:10373C000103DBB203F00103DBB2184603B05DF802
:10374C0004FB000000B585B00120FFF78FFF0120BE
:10375C00FDF768FC00F01CF901AB7D211846FFF762
:10376C00BBFF0346002B11D00A4B1B781846FDF704
:10377C000BFC084B1B780133DAB2064B1A70054B65
:10378C001B78042B02D1034B00221A7000F020F995
:10379C00E2E700BF7805002000B583B00190019BE3
:1037AC0004331846FEF7E8FD00BF03B05DF804FBD8
:1037BC0000B589B0059003921A460B468DF813306C
:1037CC0013468DF8123000230793059B181D9DF8A6
:1037DC0012209DF813109DF8283000931346039A7D
:1037EC00FFF794F80790079B184609B05DF804FBA7
:1037FC0000B587B0039001921A460B468DF80B303A
:10380C0013468DF80A3000230593039B181D9DF871
:10381C000A309DF80B10019AFFF7A0F80590059B54
:10382C00184607B05DF804FB00B585B00190002385
:10383C008DF80F30019B04331846FEF7C5FD034687
:10384C008DF80F309DF80F30184605B05DF804FB6D
:10385C0082B001900091019B1B78002B03D1044B8B
:10386C0001221A7000E000BF00BF02B0704700BF19
:10387C007905002000B583B000230A4A0A490B4899
:10388C00FEF784F90190019B0093009B002B04D060
:10389C00074A37210098FDF727FC00BF03B05DF8FD
:1038AC0004FB00BF5D3800009C4400008C44000009
:1038BC00AC44000008B50248FFF76EFF00BF08BD1E
:1038CC008C44000000B587B0034602918DF80F3090
:1038DC0013468DF80E30124B00221A709DF80E30E4
:1038EC009DF80F1000220092029A0E48FFF760FF1D
:1038FC000590059B0493049B002B04D00A4A4E218F
:10390C000498FDF7F1FB00BF0648FFF78DFF034657
:10391C00002BF9D100BF184607B05DF804FB00BFBF
:10392C00790500208C440000AC44000000B585B043
:10393C00034600918DF8073013468DF80630114B75
:10394C0000221A709DF806309DF80710009A0E4858
:10395C00FFF74EFF0390039B0293029B002B04D0B6
:10396C000A4A5A210298FDF7BFFB00BF0648FFF731
:10397C005BFF0346002BF9D100BF184605B05DF87C
:10398C0004FB00BF790500208C440000AC4400000F
:10399C0008B5FFF76FFFFFF78DFF01210448FFF714
:1039AC0063FC4FF4FA710248FFF772FC00BF08BDCC
:1039BC000845000000B583B0019001990348FFF75A
:1039CC003BFC00BF03B05DF804FB00BF08450000E2
:1039DC0008B503490348FFF76DFC00BF08BD00BFE5
:1039EC007C0500200845000008B5FFF765FE0120A6
:1039FC00FFF7E0FF00BF08BD844640EA010313F067
:103A0C00030F16D18446202A0AD32DE9F007B1E81A
:103A1C00F807A0E8F807203A202AF8D2BDE8F0070A
:103A2C00042A06D351F8043B40F8043B043A042A18
:103A3C00F8D22AB111F8013B00F8013B013AF9D157
:103A4C0060467047072904D90023024AC0E90031B7
:083A5C00106070479405002082
:103A64001842000000000000CC42000000000000EA
:103A740084430000000000003844000000000000FF
:083A8400A03A0000000003035A
:103A8C00DC000020140000201C0000201C00002082
:043A9C00180000000E
:103AA00061707000453A5C446576656C6F706D6559
:103AB0006E745C44726F69645C4E6F726469635CBF
:103AC00053444B5C6E5246355C636F6D706F6E6530
:103AD0006E74735C6C69627261726965735C6C6F41
:103AE000675C7372635C6E72665F6C6F675F667251
:103AF0006F6E74656E642E63000000004261636B3C
:103B0000656E647320666C75736865640000000000
:103B10002E2E2F2E2E2F2E2E2F53444B2F6E5246ED
:103B2000352F6D6F64756C65732F6E7266782F68B4
:103B3000616C2F6E72665F6770696F2E680000009F
:103B4000453A5C446576656C6F706D656E745C4477
:103B5000726F69645C4E6F726469635C53444B5C62
:103B60006E5246355C636F6D706F6E656E74735C1C
:103B7000626F617264735C626F617264732E630062
:103B80000D0E0F100B0C1819415353455254494F49
:103B90004E204641494C45442061742025733A2506
:103BA000750000004552524F52202575205B257349
:103BB0005D2061742025733A25750D0A50432061FC
:103BC000743A20307825303878000000456E642043
:103BD0006F66206572726F72207265706F7274000A
:103BE000554E4B4E4F574E204641554C5420617414
:103BF0002030782530385800453A5C446576656C4D
:103C00006F706D656E745C44726F69645C4E6F7248
:103C10006469635C53444B5C6E5246355C636F6D04
:103C2000706F6E656E74735C6C69627261726965E7
:103C3000735C7574696C5C6170705F7574696C5FDE
:103C4000706C6174666F726D2E630000453A5C445F
:103C50006576656C6F706D656E745C44726F6964D7
:103C60005C4E6F726469635C53444B5C6E524635C4
:103C70005C636F6D706F6E656E74735C6C6962729D
:103C800061726965735C62616C6C6F635C6E7266B5
:103C90005F62616C6C6F632E63000000453A5C44A8
:103CA0006576656C6F706D656E745C44726F696487
:103CB0005C4E6F726469635C53444B5C6E52463574
:103CC0005C636F6D706F6E656E74735C6C6962724D
:103CD00061726965735C6D656D6F626A5C6E726658
:103CE0005F6D656D6F626A2E63000000556E6B6ECE
:103CF0006F776E206572726F7220636F646500006B
:103D00004E52465F53554343455353004E52465F10
:103D10004552524F525F5356435F48414E444C45C3
:103D2000525F4D495353494E470000004E52465F83
:103D30004552524F525F534F4654444556494345AE
:103D40005F4E4F545F454E41424C454400000000D9
:103D50004E52465F4552524F525F494E5445524E65
:103D6000414C00004E52465F4552524F525F4E4FFB
:103D70005F4D454D000000004E52465F4552524F88
:103D8000525F4E4F545F464F554E44004E52465F71
:103D90004552524F525F4E4F545F535550504F5201
:103DA000544544004E52465F4552524F525F494E71
:103DB00056414C49445F504152414D004E52465F7E
:103DC0004552524F525F494E56414C49445F5354FD
:103DD000415445004E52465F4552524F525F494E44
:103DE00056414C49445F4C454E4754480000000042
:103DF0004E52465F4552524F525F494E56414C49D2
:103E0000445F464C414753004E52465F4552524F25
:103E1000525F494E56414C49445F44415441000071
:103E20004E52465F4552524F525F444154415F5398
:103E3000495A45004E52465F4552524F525F5449CF
:103E40004D454F55540000004E52465F4552524F6B
:103E5000525F4E554C4C00004E52465F4552524FF9
:103E6000525F464F5242494444454E004E52465FCF
:103E70004552524F525F494E56414C49445F41446E
:103E8000445200004E52465F4552524F525F4255D7
:103E9000535900004E52465F4552524F525F4D4FAC
:103EA00044554C455F4E4F545F494E495449414C2F
:103EB000495A4544000000004E52465F4552524F59
:103EC000525F4D555445585F494E49545F464149EC
:103ED0004C4544004E52465F4552524F525F4D553D
:103EE0005445585F4C4F434B5F4641494C45440055
:103EF0004E52465F4552524F525F4D555445585FA2
:103F0000554E4C4F434B5F4641494C4544000000E1
:103F10004E52465F4552524F525F4D555445585F81
:103F2000434F4E445F494E49545F4641494C4544D6
:103F3000000000004E52465F4552524F525F4D4FB7
:103F400044554C455F414C52454144595F494E49A7
:103F50005449414C495A4544000000004E52465FC6
:103F60004552524F525F53544F524147455F465559
:103F70004C4C00004E52465F4552524F525F4150EA
:103F8000495F4E4F545F494D504C454D454E544549
:103F9000440000004E52465F4552524F525F464524
:103FA00041545552455F4E4F545F454E41424C453A
:103FB000440000004E52465F4552524F525F494FF7
:103FC0005F50454E44494E47000000004E52465F48
:103FD0004552524F525F4452565F5457495F4552C3
:103FE000525F4F56455252554E0000004E52465FAA
:103FF0004552524F525F4452565F5457495F4552A3
:10400000525F414E41434B004E52465F4552524F24
:10401000525F4452565F5457495F4552525F444E77
:1040200041434B004E52465F4552524F525F424C05
:10403000455F495053505F52585F504B545F545244
:10404000554E4341544544004E52465F4552524FEF
:10405000525F424C455F495053505F4348414E4E7A
:10406000454C5F414C52454144595F455849535472
:10407000530000004E52465F4552524F525F424C31
:10408000455F495053505F4C494E4B5F4449534341
:104090004F4E4E4543544544000000004E52465F8B
:1040A0004552524F525F424C455F495053505F500A
:1040B0004545525F52454A4543544544000000007F
:1040C00000000000003D0000010000000C3D000069
:1040D000020000002C3D000003000000503D0000E5
:1040E00004000000643D000005000000783D000071
:1040F000060000008C3D000007000000A43D000009
:1041000008000000BC3D000009000000D43D000094
:104110000A000000F03D00000B000000083E000017
:104120000C000000203E00000D000000343E0000A6
:104130000E000000483E00000F000000583E000046
:10414000100000006C3E000011000000843E0000E2
:1041500080000000943E000081000000B83E000096
:1041600082000000D43E000083000000F03E00000A
:1041700084000000103F000085000000343F000074
:10418000860000005C3F000090000000743F0000CB
:1041900091000000943F000092000000B43F000036
:1041A00000820000CC3F000001820000EC3F0000D4
:1041B000028200000840000000840000244000004B
:1041C00001840000484000000284000074400000A8
:1041D000038400009C4000002E2E2F2E2E2F2E2E0A
:1041E0002F53444B2F6E5246352F6D6F64756C659F
:1041F000732F6E7266782F68616C2F6E72665F67C0
:1042000070696F2E680000000000000000000000D0
:104210000338FDD87047000050525300453A5C44C3
:104220006576656C6F706D656E745C44726F696401
:104230005C4E6F726469635C53444B5C6E524635EE
:104240005C6D6F64756C65735C6E7266785C6472CD
:1042500069766572735C7372635C7072735C6E72A4
:1042600066785F7072732E63000000002E2E2F2E72
:104270002E2F2E2E2F53444B2F6E5246352F696E04
:10428000746567726174696F6E2F6E7266782F6ED7
:104290007266785F676C75652E6800002E2E2F2E73
:1042A0002E2F2E2E2F53444B2F6E5246352F6D6FCF
:1042B00064756C65732F6E7266782F68616C2F6EF3
:1042C00072665F6770696F2E680000005457494D31
:1042D00000000000453A5C446576656C6F706D6562
:1042E0006E745C44726F69645C4E6F726469635C87
:1042F00053444B5C6E5246355C6D6F64756C6573F0
:104300005C6E7266785C647269766572735C7372F7
:10431000635C6E7266785F7477696D2E630000006F
:10432000512C00002E2E2F2E2E2F2E2E2F53444B8D
:104330002F6E5246352F696E746567726174696FAE
:104340006E2F6E7266782F6E7266785F676C756519
:104350002E6800002E2E2F2E2E2F2E2E2F53444B44
:104360002F6E5246352F6D6F64756C65732F6E72AC
:1043700066782F68616C2F6E72665F6770696F2E4A
:10438000680000005541525400000000453A5C446A
:104390006576656C6F706D656E745C44726F696490
:1043A0005C4E6F726469635C53444B5C6E5246357D
:1043B0005C6D6F64756C65735C6E7266785C64725C
:1043C00069766572735C7372635C6E7266785F7532
:1043D0006172742E630000002E2E2F2E2E2F2E2E93
:1043E0002F53444B2F6E5246352F696E746567729A
:1043F0006174696F6E2F6E7266782F6E7266785F69
:10440000676C75652E6800002E2E2F2E2E2F2E2EF7
:104410002F53444B2F6E5246352F6D6F64756C656C
:10442000732F6E7266782F68616C2F6E72665F678D
:1044300070696F2E6800000055415254450000001D
:10444000453A5C446576656C6F706D656E745C446E
:10445000726F69645C4E6F726469635C53444B5C59
:104460006E5246355C6D6F64756C65735C6E72661A
:10447000785C647269766572735C7372635C6E7289
:1044800066785F75617274652E630000000000003D
:104490000030004000000000010000001B00000090
:1044A0001A0000000000980102000000453A5C4438
:1044B0006576656C6F706D656E745C44726F69646F
:1044C0005C4E6F726469635C50726F6A656374738B
:1044D0005C6E5246355C546573745461736B5C5307
:1044E0006F75726365735C4170706C696361746948
:1044F0006F6E5C496E74657266616365735C696654
:104500005F747769302E6300D138000039390000BC
:0445100084050020FE
:10451400FF0000000090D003E1080000AC3300006D
:01452400BADC
:040000030000037185
:00000001FF
