:020000022000DC
:107000000000042071730200597302005B730200D8
:107010005D7302005F7302006173020000000000F4
:107020000000000000000000000000006373020088
:107030006573020000000000677302000D21030069
:10704000A99E02006B730200F5AB020045CD020061
:107050006B7302006B730200EDAA02006B730200F7
:1070600061BF020079BF02006B7302006B73020004
:107070006B7302006B7302006B7302006B73020090
:107080006B73020071DD02006B7302006B73020010
:107090006B7302006B730200FDD002006B73020081
:1070A0006B7302006B7302006B7302006B73020060
:1070B0006B7302006B730200000000000000000010
:1070C0006B7302006B7302006B7302006B73020040
:1070D0006B73020091B602006B7302006B730200C7
:1070E0006B7302006B7302006B7302000000000000
:1070F000000000006B730200000000006B730200D0
:10710000000000000000000000000000000000007F
:10711000000000000000000000000000000000006F
:10712000000000000000000000000000000000005F
:10713000000000000000000000000000000000004F
:10714000000000000000000000000000000000003F
:10715000000000000000000000000000000000002F
:10716000000000000000000000000000000000001F
:10717000000000000000000000000000000000000F
:1071800000000000000000000000000000000000FF
:1071900000000000000000000000000000000000EF
:1071A00000000000000000000000000000000000DF
:1071B00000000000000000000000000000000000CF
:1071C00000000000000000000000000000000000BF
:1071D00000000000000000000000000000000000AF
:1071E000000000000000000000000000000000009F
:1071F000000000000000000000000000000000008F
:10720000344935480A1A02D0072291438D46334942
:1072100033480A1A06D00722914381F309880222D3
:1072200082F314882F483049304A00F041F8304842
:107230003049314A00F03CF830483149314A00F0D9
:1072400037F831483149324A00F032F83148324992
:10725000324A00F02DF832483249334A00F028F81B
:1072600032483349334A00F023F833483349002287
:1072700000F029F832483349002200F024F832485F
:107280003249091A0AF0AAFF314A90471F4820499B
:10729000884205D00268043003B4904703BCF7E786
:1072A00000208646EC46002000212A4A9047FEE74F
:1072B000884207D0521A05D0037801300B70013193
:1072C000013AF9D17047884202D002700130FAE7E2
:1072D000704700000000042000E0032000000420AC
:1072E00000000420042F0D00002300204C23002068
:1072F000CC730200CC730200F0210300042F0D00B8
:10730000002300200023002038220300382203003D
:1073100038220300382203003822030038220300F9
:107320003822030038220300042F0D00502F0D00D7
:107330004C2300204C2300204C230020BC4A00207A
:10734000BC4A0020BC4A0020BC4A0020BC6A002085
:1073500099730200B5040300FEE7FEE7FEE7FEE7CF
:10736000FEE7FEE7FEE7FEE7FEE7FEE700F002B815
:10737000FFF7FCBF0F484FF00701884385460E48D2
:1073800080470E48016841F470010160BFF34F8FE0
:10739000BFF36F8FFFF734BF09480A490A4A884292
:1073A00007D0521A05D0037801300B700131013A31
:1073B000F9D1704700000420E1EF020088ED00E001
:0C73C000382203000023002000230020DE
:1073CC0000B583B00190019B1B68184600F0E5F8EE
:1073DC000346002B04D10B494FF4F67006F0D0FC99
:1073EC00019B1B681F2B02D84FF0A04306E0019BAA
:1073FC001B6803F01F02019B1A60034B184603B075
:10740C005DF804FB382203000003005000B585B082
:10741C000190084611461A4603468DF803300B4678
:10742C008DF8023013468DF8013001AB1846FFF78A
:10743C00C7FF03909DF803209DF802305B001A43B0
:10744C009DF801309B001A439DF818301B0242EA4C
:10745C0003019DF81C301B04019A1943039B02F590
:10746C00E07243F8221000BF05B05DF804FB00B5D4
:10747C0085B0039000230193002300930023012285
:10748C0001210398FFF7C2FF00BF05B05DF804FBB4
:10749C0000B585B003900B468DF80B309DF80B3082
:1074AC000022019200220092002200210398FFF793
:1074BC00ADFF00BF05B05DF804FB00B585B00190D1
:1074CC0001AB1846FFF77CFF0390019B012202FAE7
:1074DC0003F31946039800F04CF800BF05B05DF8B3
:1074EC0004FB00B585B0019001AB1846FFF768FFAF
:1074FC000390019B012202FA03F31946039800F052
:10750C0042F800BF05B05DF804FB00B585B00190F2
:10751C0001AB1846FFF754FF0390039BD3F80435D7
:10752C000293029BDA43019B012101FA03F31A40F7
:10753C00039BC3F80825019B01229A40029B1A4029
:10754C00039BC3F80C2500BF05B05DF804FB00B528
:10755C0083B001900091009B002B03D10198FFF7A1
:10756C00C0FF02E00198FFF7A8FF00BF03B05DF871
:10757C0004FB82B001900091019B009AC3F808258E
:10758C0000BF02B0704782B001900091019B009A3D
:10759C00C3F80C2500BF02B0704784B00190019B6A
:1075AC005B09029300230393029B002B03D0029BE5
:1075BC00012B04D007E04FF0FF33039303E04FF6A9
:1075CC00FF73039300BF019B03F01F030193039A06
:1075DC00019B22FA03F303F00103002B14BF0123D8
:1075EC000023DBB2184604B07047000000B583B02E
:1075FC000190019B032B03D90749412006F0C0FBE6
:10760C00064A019B13441B7800211846FFF79FFF85
:10761C0000BF03B05DF804FB68220300A82203003E
:10762C0000B583B00190019B032B03D90749472078
:10763C0006F0A6FB064A019B13441B780121184651
:10764C00FFF785FF00BF03B05DF804FB6822030061
:10765C00A822030000B583B00023019305E0019834
:10766C00FFF7DEFF019B01330193019B032BF6D93E
:10767C0000BF00BF03B05DF804FB000000B583B091
:10768C000190019B032B03D907495F2006F078FB7F
:10769C00064A019B13441B781846FFF736FF00BFC0
:1076AC0003B05DF804FB00BF68220300A8220300AE
:1076BC0000B583B00023019309E0094A019B1344F0
:1076CC001B781846FFF7D3FE019B01330193019BF6
:1076DC00032BF2D9FFF7BEFF00BF03B05DF804FB2C
:1076EC00A822030000B583B0002301930AE0094AE5
:1076FC00019B13441B7803211846FFF7C9FE019B1D
:10770C0001330193019B032BF1D900BF00BF03B0E0
:10771C005DF804FBAC22030000B583B00190019B23
:10772C0003F00103002B01D0FFF7C2FF019B03F014
:10773C000203002B01D0FFF7D5FF00BF03B05DF8AB
:10774C0004FB6DDF704700BF184679DF704700BF40
:10775C0018467DDF704700BF184664DF704700BFD6
:10776C00184682B003460091ADF80630BDF80630DD
:10777C00DAB2009B1A70BDF806301B0A9AB2009B55
:10778C000133D2B21A700223184602B0704700B50A
:10779C0089B0039002911346ADF80630029B1B880A
:1077AC0003F10902BDF806309A4201D90C2353E0CB
:1077BC0004AB1846FFF7C5FF0790079B0693069B83
:1077CC00002B01D0069B47E0029B1B881A46039BAB
:1077DC00134408221A70029B1B8801339AB2029B35
:1077EC001A80029B1B881A46039B13441B221A7097
:1077FC00029B1B8801339AB2029B1A80029B1B8846
:10780C001A46039B981804AB0133062219460AF05A
:10781C0083FC029B1B8806339AB2029B1A809DF84C
:10782C00103023F00103DBB2002B07D1029B1B8825
:10783C001A46039B134400221A7006E0029B1B8815
:10784C001A46039B134401221A70029B1B880133B6
:10785C009AB2029B1A800023184609B05DF804FB0B
:10786C0000B589B0039002910192ADF80230039BF0
:10787C001B78012B05D1039B5B78002B01D10723CF
:10788C0092E0019B1B889A1CBDF802309A420ED8DC
:10789C00039B1B78012B0CD1019B1B881A46039B65
:1078AC005B7813449A1CBDF802309A4201D90C2320
:1078BC007AE0019B1B88BDF80220D31A9BB2023BD5
:1078CC00ADF81C30BDF81C30ADF81230019B1B8894
:1078DC000233029A13440DF1120211461846FFF7B7
:1078EC0038FF0690069B0593059B002B01D0059B4A
:1078FC005AE0039B1B78022B06D0039B5B789AB251
:10790C00BDF812309A4209D3BDF81230BDF81C20D4
:10791C009A4203D309238DF81F3017E008238DF802
:10792C001F30039B1B78012B0CD1039B5B789BB204
:10793C00BDF81C209A4205D3039B5B789BB2ADF833
:10794C00123003E0BDF81C30ADF81230BDF8123027
:10795C00FE2B01D90C2327E0BDF81230DAB2019BC3
:10796C001B881946029B0B440132D2B21A70019B40
:10797C001B8801339AB2019B1A80019B1B881A4603
:10798C00029B13449DF81F201A70019B1B88013326
:10799C009AB2019B1A80019B1A88BDF812301344CD
:1079AC009AB2019B1A800023184609B05DF804FBBB
:1079BC0000B589B0039002911346ADF80630029BD6
:1079CC001B881A1DBDF806309A4201D90C233BE0E6
:1079DC000DF116031846FFF7B8FE0790079B0693A8
:1079EC00069B002B01D0069B2EE0029B1B881A469F
:1079FC00039B134403221A70029B1B8801339AB217
:107A0C00029B1A80029B1B881A46039B1344192263
:107A1C001A70029B1B8801339AB2029B1A80BDF824
:107A2C001620029B1B881946039B0B4419461046D3
:107A3C00FFF797FE03461946029B1A888BB2134434
:107A4C009AB2029B1A800023184609B05DF804FB19
:107A5C0084B0029101921A4603468DF80F301346FA
:107A6C00ADF80C30019B1B88DA1CBDF80C309A4227
:107A7C0001D90C2328E0019B1B881A46029B134456
:107A8C0002221A70019B1B8801339AB2019B1A8047
:107A9C00019B1B881A46029B134401221A70019BFE
:107AAC001B8801339AB2019B1A80019B1B881A46D2
:107ABC00029B13449DF80F201A70019B1B88013305
:107ACC009AB2019B1A800023184604B0704784B008
:107ADC00029101921A4603468DF80F301346ADF809
:107AEC000C30019B1B88DA1CBDF80C309A4201D972
:107AFC000C2328E0019B1B881A46029B134402228C
:107B0C001A70019B1B8801339AB2019B1A80019B4E
:107B1C001B881A46029B13440A221A70019B1B886D
:107B2C0001339AB2019B1A80019B1B881A46029B57
:107B3C0013449DF80F201A70019B1B8801339AB2D5
:107B4C00019B1A800023184604B0704700B58FB013
:107B5C00039001930B468DF80B3013468DF80A30C9
:107B6C0000238DF83330109B1B88ADF83030002388
:107B7C000D9371E0039B5A680D9B9B001A4405AB57
:107B8C00106818600DF11B0105AB00221846FFF7B9
:107B9C00E4FD0A900A9B0993099B002B01D0099BD9
:107BAC007CE09DF81B309DF80A209A4251D19DF83B
:107BBC003330002B01D0002300E002238DF823305A
:107BCC00109B1B881A469DF81B301A449DF82330D5
:107BDC001A44BDF844309A4201DD0C235EE09DF856
:107BEC00333083F00103DBB2002B16D0109B1B88C3
:107BFC0001339AB2109B1A80109B1B881A46019B6A
:107C0C0013449DF80B201A70109B1B8801339AB2F9
:107C1C00109B1A8001238DF83330109B1B881A4659
:107C2C00019B1A440DF11B0105AB1846FFF795FD9E
:107C3C000A900A9B0793079B002B01D0079B2DE012
:107C4C00109B1A889DF81B309BB213449AB2109B60
:107C5C001A800D9B01330D93039B1B881A460D9BB9
:107C6C00934287DB9DF83330002B16D0109B1A887B
:107C7C00BDF83030D31A9BB2013BADF82E30BDF8B5
:107C8C002E30FF2B01D90C2308E0BDF83030019ABF
:107C9C001344BDF82E20D2B21A70002318460FB030
:107CAC005DF804FB00B58BB0059003930B468DF883
:107CBC00133013468DF812309DF81310BDF8343084
:107CCC0001930C9B0093039B02220598FFF73EFF48
:107CDC000990099B0893089B002B01D0089B14E08A
:107CEC009DF81210BDF8343001930C9B0093039B4C
:107CFC0010220598FFF72AFF0990099B0793079B11
:107D0C00002B01D0079B00E0002318460BB05DF858
:107D1C0004FB82B00190019B1B88052B0AD9019BA7
:107D2C001B88B3F5486F07D9019B1B884FF6FF7270
:107D3C00934201D0072325E0019B5B88052B0AD9D0
:107D4C00019B5B88B3F5486F07D9019B5B884FF6A5
:107D5C00FF72934201D0072314E0019B1B884FF65E
:107D6C00FF7293420DD0019B5B884FF6FF729342DA
:107D7C0007D0019B1A88019B5B889A4201D9072383
:107D8C0000E00023184602B0704700B587B003909E
:107D9C0002910192ADF80230019B1B889A1DBDF82F
:107DAC0002309A4201D90C234DE00398FFF7B1FF42
:107DBC000590059B0493049B002B01D0049B42E08F
:107DCC00019B1B881A46029B134405221A70019BC7
:107DDC001B8801339AB2019B1A80019B1B881A469F
:107DEC00029B134412221A70019B1B8801339AB216
:107DFC00019B1A80039B1A88019B1B881946029BC6
:107E0C000B4419461046FFF7ACFC03461946019B80
:107E1C001A888BB213449AB2019B1A80039B5A881E
:107E2C00019B1B881946029B0B4419461046FFF711
:107E3C0098FC03461946019B1A888BB213449AB2DC
:107E4C00019B1A800023184607B05DF804FB00B5AF
:107E5C0087B0039002910192ADF80230039B9B888E
:107E6C0002330593019B1B881A46059B13449A1CED
:107E7C00BDF802309A4201D90C2354E0059BFE2B2D
:107E8C0001D90C234FE0059BDAB2019B1B881946E4
:107E9C00029B0B440132D2B21A70019B1B88013336
:107EAC009AB2019B1A80019B1B881A46029B1344B1
:107EBC00FF221A70019B1B8801339AB2019B1A8016
:107ECC00039B1A88019B1B881946029B0B4419467D
:107EDC001046FFF746FC03461946019B1A888BB2E5
:107EEC0013449AB2019B1A80039B9B88002B19D0D8
:107EFC00039B9B68002B01D1072314E0019B1B887B
:107F0C001A46029B9818039B9968039B9B881A46F8
:107F1C000AF002F9019B1A88039B9B8813449AB2BE
:107F2C00019B1A800023184607B05DF804FB00B5CE
:107F3C0089B0039002910192ADF80230039B9B6AC9
:107F4C00002B01D1072372E000238DF81F3066E06F
:107F5C00039B996A9DF81F2013465B0013449B00FA
:107F6C000B440693069B9B8802330593059BFE2BC3
:107F7C0001D90C235BE0059BDAB2019B1B881946E7
:107F8C00029B0B440132D2B21A70019B1B88013345
:107F9C009AB2019B1A80019B1B881A46029B1344C0
:107FAC0016221A70019B1B8801339AB2019B1A800E
:107FBC00069B1A88019B1B881946029B0B44194689
:107FCC001046FFF7CEFB03461946019B1A888BB26D
:107FDC0013449AB2019B1A80069B9B88002B19D0E4
:107FEC00069B9B68002B01D1072320E0019B1B887B
:107FFC001A46029B9818069B9968069B9B881A4602
:10800C000AF08AF8019B1A88069B9B8813449AB243
:10801C00019B1A809DF81F3001338DF81F30039B94
:10802C0093F82C309DF81F209A4291D300231846C8
:10803C0009B05DF804FB00B595B00590049103926E
:10804C0000231393039B1B88ADF84A30039B00223B
:10805C001A80059B93F82D30002B0ED0BDF84A30BA
:10806C001A4603990498FFF792FB1390139B1193F4
:10807C00119B002B01D0119BD8E0059B9B78002B0A
:10808C000ED0BDF84A301A4603990498FFF790FCBD
:10809C001390139B1093109B002B01D0109BC5E0E9
:1080AC00059BDB78002B10D0059BDB7858B2BDF814
:1080BC004A30039A0499FFF7CBFC1390139B0F9350
:1080CC000F9B002B01D00F9BB0E0059B5B68002B36
:1080DC0011D0059B5B6893F90000BDF84A30039AF8
:1080EC000499FFF7F4FC1390139B0E930E9B002B3B
:1080FC0001D00E9B9AE0059B1B89002B14D0059B8D
:10810C0003F10800BDF84A300193039B0093049BD4
:10811C0006220221FFF7C6FD1390139B0D930D9BB6
:10812C00002B01D00D9B81E0059B1B8A002B14D0EA
:10813C00059B03F11000BDF84A300193039B00939B
:10814C00049B07220321FFF7ADFD1390139B0C93A7
:10815C000C9B002B01D00C9B68E0059B1B8B002B10
:10816C0014D0059B03F11800BDF84A300193039B12
:10817C000093049B15221421FFF794FD1390139B7D
:10818C000B930B9B002B01D00B9B4FE0059B1B6AA9
:10819C00002B0FD0059B186ABDF84A30039A04993E
:1081AC00FFF7F3FD1390139B0A930A9B002B01D04E
:1081BC000A9B3BE0059B5B6A002B0FD0059B586A22
:1081CC00BDF84A30039A0499FFF741FE1390139BB4
:1081DC000993099B002B01D0099B27E0059B93F881
:1081EC002C30002B0ED0BDF84A30039A0499059818
:1081FC00FFF79DFE1390139B0893089B002B01D057
:10820C00089B13E0059B1B78002B0ED0BDF84A3061
:10821C00039A04990598FFF723FB1390139B07937C
:10822C00079B002B01D0079B00E0139B184615B051
:10823C005DF804FB75DF704700BF184676DF7047AA
:10824C0000BF18467ADF704700BF18467BDF7047C7
:10825C0000BF184684B00346ADF8063000230393E4
:10826C0016E00F49039A13469B0013449B000B44E2
:10827C001B88BDF806209A4207D1039A13469B002F
:10828C0013449B00064A134406E0039B01330393FB
:10829C00039B002BE5D00023184604B0704700BFA9
:1082AC007023002082B001900B46ADF80230019B88
:1082BC00BDF802201A80019B00221A72019B05490D
:1082CC0003F10A020B4603CB1060516000BF02B0F1
:1082DC00704700BFA023002082B00190019B4FF695
:1082EC00FF721A8000BF02B0704788B003900291F1
:1082FC0011461A460B46ADF806301346ADF804305D
:10830C00039B9B881A46BDF8063013440793039BC6
:10831C009B881946039B9B88BDF80620934228BF77
:10832C0013469BB2CB1A0693039BDB881A46BDF807
:10833C00043013440593039BDB881946039BDB88AD
:10834C00BDF80420934228BF13469BB2CB1A04936A
:10835C00029B5A88039B1B889A4205D3029B5A881E
:10836C00039B5B889A4201D900231CE0029B9B88EB
:10837C001A46069B934205D8029B9B881A46079B7C
:10838C00934201D200230EE0029BDB881A46049B29
:10839C00934205D8029BDB881A46059B934201D277
:1083AC00002300E00123184608B0704700B583B0E5
:1083BC000190064B9B69002B03D0044B9B690198E1
:1083CC00984700BF03B05DF804FB00BF8423002076
:1083DC0000B585B003460091ADF80630BDF8063007
:1083EC0000991846FFF726FF0390039B002B05D03E
:1083FC00039B112B02D00398FFF7D8FF039B002B94
:10840C000CBF01230023DBB2184605B05DF804FB5A
:10841C0000B589B00190019B0793079B9BB218464E
:10842C00FFF718FF0690069B002B42D0069B1A7A8A
:10843C00224B1B7B9A4215D2079B9AB2069B0A339E
:10844C0019461046FFF7C4FF03468DF813309DF80C
:10845C001330002B2DD0069B1B7A0133DAB2069B0E
:10846C001A7226E0069B00221A72144B1B7C002BFE
:10847C000FD0079B9BB23B211846FFF7DFFE059000
:10848C00059B002B05D0059B082B02D00598FFF708
:10849C008DFF0A4B5B69002B0BD000238DF80C3041
:1084AC00079B9BB2ADF80E30044B5B6903AA1046D8
:1084BC00984700BF09B05DF804FB00BF842300207F
:1084CC0030B587B00190019B002B01D10E2353E0F6
:1084DC002B4A019B14461D460FCD0FC495E807008F
:1084EC0084E80700264B274A1A60019B1B68002B67
:1084FC0011D0019B1B681846FFF7A4FE0490049B47
:10850C00002B01D0049B37E0019B1A681D4B1068AF
:10851C00516803C308E01B48FFF798FE0490049BC6
:10852C00002B01D0049B27E00023059320E0059A43
:10853C0013469B0013449B00134A13440393039864
:10854C00FFF7CAFE059B5B01104A1A44039B5A6055
:10855C00039B04330E4A0021184606F073FA04906C
:10856C00049B002B01D0032306E0059B01330593EC
:10857C00059B002BDBD00023184607B030BD00BF95
:10858C0084230020A02300207023002050230020EF
:10859C001D84020000B587B003460091ADF806308B
:1085AC00009B5B7A002B1AD1009B1B7A002B03D10A
:1085BC00164B5B68059302E0144B9B680593009B7C
:1085CC005B68BDF806200599184606F075FA04900C
:1085DC00049B002B16D00498FFF7E8FE12E0009BDA
:1085EC0000221A72094B5B69002B0BD001238DF80A
:1085FC000C30BDF80630ADF80E30044B5B6903AAA5
:10860C001046984700BF07B05DF804FB8423002098
:10861C0000B585B00190019BDB7B8DF80F30019B81
:10862C009B88ADF80C309DF80F30012B2CD14FF6F8
:10863C00FF70FFF70FFE0290029B002B03D104206A
:10864C00FFF7B4FE21E0BDF80C3019460298FFF795
:10865C0029FE029B03F10A00019B03F110014FF666
:10866C00FF7340F2F312FFF740FE03461A46029BDB
:10867C005A72074BDB89002B07D1BDF80C300299DD
:10868C001846FFF787FF00E000BF05B05DF804FB5C
:10869C008423002000B587B00190019B9B88ADF826
:1086AC001630BDF816301846FFF7D4FD0490049B25
:1086BC00002B0ED0049B5B68184606F055FA03900D
:1086CC00039B002B02D00398FFF770FE0498FFF772
:1086DC0003FE00BF07B05DF804FB000000B587B0D7
:1086EC000190019B06330593059B1A88194BDB8976
:1086FC009A422BD1059B5B89022B27D1019B9B882E
:10870C00ADF81230BDF812301846FFF7A3FD0390F8
:10871C00039B002B1AD0059B0C33184600F0FEF976
:10872C000346002B06D0BDF8123003991846FFF70C
:10873C0031FF0BE0039B5B68184606F015FA0290BC
:10874C00029B002B02D00298FFF730FE00BF07B04F
:10875C005DF804FB8423002000B585B00190019BDB
:10876C009B88ADF80E30BDF80E301846FFF772FD41
:10877C000290029B002B15D0029B03F10A00019B77
:10878C0003F108014FF6FF7340F2F312FFF7ADFD52
:10879C0003461A46029B5A72BDF80E3002991846CF
:1087AC00FFF7F8FE00BF05B05DF804FB00B583B021
:1087BC0001900091019B1B88502B12D0502B18DC80
:1087CC00122B12D0122B14DC102B02D0112B04D034
:1087DC000FE00198FFF71CFF0CE00198FFF75AFF20
:1087EC0008E00198FFF77AFF04E00198FFF7B4FF67
:1087FC0000E000BF00BF03B05DF804FB30B58FB0E4
:10880C000190009100230293009B002B1AD00023AF
:10881C000D9314E06B460D99184605F0FAFB0346D0
:10882C00002B09D0029B5A1C02920D9A92B25B004B
:10883C0038336B4423F82C2C0D9B01330D930D9B7B
:10884C00132BE7D9019B1D4602AC0FCC0FC50FCCE7
:10885C000FC594E8070085E8070001980FB030BDFC
:10886C0000B583B00346ADF80630BDF80630132BC7
:10887C0001D900230CE0BDF806301946064805F076
:10888C0097FBBDF806301946044805F091FB01230F
:10889C00184603B05DF804FBB0230020AC23002085
:1088AC0000B585B00346ADF80630002303930DE008
:1088BC00039B9B00094A13440433BDF80620114660
:1088CC00184605F08DFB039B01330393039B1D2B73
:1088DC00EED900BF00BF05B05DF804FBA823002053
:1088EC0000B583B00346ADF80630BDF80630194626
:1088FC00034805F075FB00BF03B05DF804FB00BF37
:10890C00B023002030B59BB0184B9B68DB43189309
:10891C00164B5A6818AB1146184605F0AAFB189A64
:10892C006B4611461846FFF769FF0DAC6D460FCD2F
:10893C000FC40FCD0FC495E8070084E8070000238F
:10894C0019930BE0199B5B0068336B4433F8303C94
:10895C001846FFF7A5FF199B013319930D9B199A24
:10896C009A42EFD300BF00BF1BB030BDA82300203C
:10897C0000B583B001900B46ADF8023013468DF86C
:10898C0001309DF80130002B06D0BDF8023019469D
:10899C00019805F00DFB05E0BDF802301946019871
:1089AC0005F01EFB00BF03B05DF804FB00B585B0FD
:1089BC0001900091019B9B88ADF80E30019B1B88A8
:1089CC00103B0A2B00F2888001A252F823F000BF62
:1089DC00098A0200458A0200E58A0200E58A020043
:1089EC00E58A0200E58A0200E58A0200E58A0200B7
:1089FC00E58A0200AF8A0200518A0200FFF782FF6B
:108A0C00BDF80E301846FFF72BFF034683F0010329
:108A1C00DBB2002B05D0324AF021042004F0D0FC4C
:108A2C0057E0019BDB7B022B53D1BDF80E3019466E
:108A3C002C4805F0BDFA4CE0BDF80E301846FFF797
:108A4C004FFF49E0019B1B7AC3F30313DBB28DF894
:108A5C000D309DF80D30032B8CBF01230023DAB2AF
:108A6C00BDF80E3019462048FFF782FF9DF80D30F7
:108A7C00022B8CBF01230023DAB2BDF80E3019464D
:108A8C001A48FFF775FF9DF80D30012B8CBF0123A1
:108A9C000023DAB2BDF80E3019461548FFF768FF0F
:108AAC001AE0019B1B7A002B15D1019B5B7AC3F357
:108ABC00C003DBB2002B14BF012300238DF80C3054
:108ACC009DF80C20BDF80E3019460748FFF750FFF3
:108ADC0001E000BF00E000BF00BF05B05DF804FB83
:108AEC00B0220300B4230020C0230020BC230020AC
:108AFC00B823002082B00190019B1B781AB2019B15
:108B0C0001331B781B021BB213431BB29BB21846DA
:108B1C0002B07047AADF704700BF184600B585B099
:108B2C0001900198FFF7E6FF0346ADF80E30BDF853
:108B3C000E3003F00103002B14BF01230023DBB222
:108B4C00184605B05DF804FB82B0034600918DF821
:108B5C000730009A13786FF303031370009A13789D
:108B6C006FF3071313709DF80730052B5BD801A228
:108B7C0052F823F0998B0200AF8B0200C98B0200D4
:108B8C00E38B0200FD8B0200178C0200009A137815
:108B9C006FF303031370009A13786FF307131370BA
:108BAC0040E0009A1378012161F303031370009ADB
:108BBC001378012161F30713137033E0009A1378D3
:108BCC00012161F303031370009A1378022161F3FE
:108BDC000713137026E0009A1378012161F3030345
:108BEC001370009A1378032161F30713137019E0C3
:108BFC00009A1378022161F303031370009A13781F
:108C0C00012161F3071313700CE0009A1378022111
:108C1C0061F303031370009A1378022161F30713B5
:108C2C00137000BF00BF00BF02B0704700B595B015
:108C3C00034602910192ADF80E30029B9B78002BFB
:108C4C0003D101238DF81E3003E0029B9B788DF835
:108C5C001E30029B1B88ADF81C3006AB0322002192
:108C6C00184609F083FA029B5B7C06AA114618464B
:108C7C00FFF76AFF029B9A7C06AB0133194610463C
:108C8C00FFF762FF029BDA7B9DF81A3062F3C30395
:108C9C008DF81A30029B1A7C9DF81A3062F304137B
:108CAC008DF81A30029B1A7B9DF81A3062F3000380
:108CBC008DF81A30029B1B7D002B01D0022200E0A4
:108CCC0001229DF81A3062F342038DF81A300DAB75
:108CDC001C220021184609F049FA029B5B7B03F029
:108CEC001003DBB2002B06D1029B5B7B03F020034D
:108CFC00DBB2002B24D004AB03220021184609F070
:108D0C0035FA029BDA7C04AB013319461046FFF7A7
:108D1C001BFF9DF81030012262F303038DF8103015
:108D2C009DF81030012262F307138DF810309DF876
:108D3C001230012262F342038DF8123004AB12930D
:108D4C00029B5B7B8DF83430029B9B7B8DF835301E
:108D5C0008AB14220021184609F008FA07AB089357
:108D6C0006AB0993029B9B88ADF82C30029B9B6849
:108D7C00002B06D0029BDB88ADF82830029B9B6849
:108D8C000C93029B9B69002B4FD005AB0322002157
:108D9C00184609F0EBF9029B9B691B88ADF83C3037
:108DAC00029B9B695B88ADF83E30029B9B695B68BC
:108DBC000E9305AB1193029B9B691B7B05AA114675
:108DCC001846FFF7C1FE029B9B695A7B05AB01332A
:108DDC0019461046FFF7B8FE029B9B699A7A9DF8DC
:108DEC00163062F3C3038DF81630029B9B69DA7A56
:108DFC009DF8163062F304138DF81630029B9B69B4
:108E0C001A7A9DF8163062F300038DF81630029B27
:108E1C009B699B7B002B01D0022200E001229DF874
:108E2C00163062F342038DF81630029BDB69002B7F
:108E3C0002D0029BDB69109308AA0DA9BDF80E00A5
:108E4C00019BFFF767FE0346184615B05DF804FB5F
:108E5C0090DF704700BF1846A5DF704700BF18466B
:108E6C00B5DF704700BF184682B00190019B1722F6
:108E7C001A80019B17225A80019B00221A71019BB8
:108E8C0000225A71019B1B229A71019B1B22DA71E1
:108E9C0000BF02B0704700B589B003460A46ADF872
:108EAC0006301346ADF80430BDF80430ADF814307C
:108EBC00BDF80430ADF816300023ADF8183000239F
:108ECC00ADF81A3003AB00221A609A8003AA05A9E8
:108EDC00BDF806301846FFF7BBFF0790079B002B29
:108EEC0002D0BDF80C30002B079B184609B05DF87A
:108EFC0004FB00B587B001900091009B9B88ADF8F6
:108F0C001630BDF81630DB00019A13440633049377
:108F1C00019B1A79049B9A71009BDB7B012B02D07D
:108F2C00022B05D009E0019B1A88049B1A8004E0EF
:108F3C00019B5A88049B1A8000BF049B1A88049BCF
:108F4C005B889A4215D9049B1A88BDF816301146D5
:108F5C001846FFF781FF0390039B002B03D1049B62
:108F6C0001225A7105E0039B112B02D1049B0122B3
:108F7C001A71049B9A79049BDB799A4208D9049B59
:108F8C009B799AB2BDF8163011461846FFF783FF4D
:108F9C0000BF07B05DF804FB00B583B001900091F1
:108FAC00009B9B88DB00019A134406331846FFF79D
:108FBC005BFF00BF03B05DF804FB00B587B0019008
:108FCC000091009B9B88ADF81630009B5B89ADF837
:108FDC001430BDF81630DB00019A134406330493A9
:108FEC00049B1B88BDF81420934228BF13469AB2E9
:108FFC00049B5A80049B5B88172B38BF17239AB2AB
:10900C00049B5A80019B1B69002B15D0049B5B7938
:10901C00002B11D040F67723ADF80830BDF8163090
:10902C00ADF80A30049B5B88ADF80C30019B1B69D2
:10903C0002AA114601989847049B00225A71049B7E
:10904C0000221A7100BF07B05DF804FB00B589B0AF
:10905C0001900091009B9B88ADF81E30009BDB8833
:10906C00ADF81C30BDF81E30DB00019A13440633FA
:10907C000693BDF81C30172B38BF1723ADF81C30E6
:10908C00069B1B88BDF81C20934228BF13469AB23E
:10909C00069B5A80069B00221A71069B1A88BDF803
:1090AC001E3011461846FFF7DBFE0590069B5B79D8
:1090BC00002B16D1019B1B69002B13D040F6772394
:1090CC00ADF80C30BDF81E30ADF80E30069B5B8849
:1090DC00ADF81030019B1B6903AA11460198984703
:1090EC0000E000BF09B05DF804FB30B591B0019011
:1090FC000091009B04AC1D1D0FCD0FC40FCD0FC4F0
:10910C0095E8070084E80700BDF81030ADF83E3054
:10911C00BDF81420BDF83E30D1B2019ADB001344E7
:10912C000A465A73019B1B69002B19D002AB002213
:10913C001A609A804DF67A23ADF80830BDF83E30AF
:10914C00ADF80A30BDF83E30019ADB0013445B7B6E
:10915C008DF80C30019B1B6902AA114601989847A7
:10916C0000BF11B030BD00B587B001900091009BDD
:10917C0004330593059B1B88DB00019A13440633CB
:10918C000493059B9B888DF80F30049B9B799DF86D
:10919C000F20934228BF13468DF80E30059B1B8879
:1091AC009DF80E2092B211461846FFF774FE00BFD0
:1091BC0007B05DF804FB00B585B001900091019BF0
:1091CC00002B01D10E231DE0019B009A1A61019B1B
:1091DC0017221A80019B17225A80019B1B221A719D
:1091EC00002303930AE0039BDB00019A134406332C
:1091FC001846FFF739FE039B01330393039B002BA7
:10920C00F1D00023184605B05DF804FB00B587B01B
:10921C0001900091009B0593019B9B88ADF8123047
:10922C00BDF81230002B40F08480019B1B88552B1D
:10923C0048D0552B55DC242B32DC102B51DB103B4A
:10924C00142B4ED801A252F823F000BFB3920200A7
:10925C00BD920200EF920200EF920200EF92020028
:10926C00EF920200EF920200EF920200EF920200E6
:10927C00EF920200EF920200EF920200EF920200D6
:10928C00EF920200EF920200EF920200EF920200C6
:10929C00EF920200EF920200E5920200DB920200D4
:1092AC003A2B0AD01DE001990598FFF722FE19E030
:1092BC0001990598FFF770FE14E001990598FFF7E6
:1092CC007CFE0FE001990598FFF7C0FE0AE00199BA
:1092DC000598FFF70AFF05E001990598FFF743FF92
:1092EC0000E000BFBDF81230059ADB0013449B7AF6
:1092FC00002B1FD0BDF81230059ADB001344DA881E
:10930C00BDF8123011461846FFF7A6FD0390039BDB
:10931C00002B0FD1BDF81230059ADB00134400224C
:10932C009A72BDF81230059ADB0013440122DA72EE
:10933C0000E000BF07B05DF804FB00BFB0DF704772
:10934C0000BF184666DF704700BF184682B0019018
:10935C000091019B002B01D10E2316E0009B002BEA
:10936C0001D10E2311E0019B1B78DE2B01D10823C8
:10937C000BE0009B1A68019B5A60019BDE221A705D
:10938C00019B4FF6FF725A800023184602B07047BB
:10939C0082B001900B46ADF80230019B002B01D13D
:1093AC000E230AE0019B1B78DE2B01D0082304E07E
:1093BC00019BBDF802205A800023184602B070476A
:1093CC0000B585B00190019B1B7A002B18D0019B36
:1093DC005B8800211846FFF7B5FF0390039B002B19
:1093EC0003D1019B00221A720AE0039B112B03D1BB
:1093FC00019B01221A7203E0019B5B68039898475A
:10940C0000BF05B05DF804FB00B583B0019000917E
:10941C00009B1B79012B0BD1009B1A88019B5B884D
:10942C009A4205D1019B01221A720198FFF7C8FFDD
:10943C0000BF03B05DF804FB82B00190009100BF47
:10944C0002B0704700B589B001900091009B1A885A
:10945C00019B5B889A4236D1009B02330793079B92
:10946C001B78022B31D1079B1B7A042B07D0079B4F
:10947C001B7A062B03D0079B1B7A052B27D102AB3B
:10948C0000221A605A609A60DA6002238DF8083064
:10949C004FF4C073ADF80C30079B1B7A052B02D12F
:1094AC000023ADF80C30009B1B8802AA114618460D
:1094BC00FFF744FF0690069B002B09D0019B5B68CD
:1094CC000698984704E000BF02E000BF00E000BF30
:1094DC0009B05DF804FB00B585B001900091009BCC
:1094EC00002B40D0019B002B3FD0009B0393039B90
:1094FC001B78DE2B3BD1019B9A88039B5B889A429D
:10950C0002D10398FFF75CFF019B1B88512B18D0ED
:10951C00512B2EDC112B1BD0112B2ADC012B02D052
:10952C00022B07D025E0019B043319460398FFF763
:10953C006BFF21E0019B043319460398FFF77CFF76
:10954C001AE0019B043319460398FFF77BFF13E0E5
:10955C00019B9A88039B5B889A420CD1039B4FF624
:10956C00FF725A8007E000BF06E000BF04E000BFB6
:10957C0002E000BF00E000BF05B05DF804FB000096
:10958C0082B003468DF807309DF90730002B13DBB2
:10959C009DF8073003F01F0209499DF907305B095C
:1095AC00012000FA02F2203341F82320BFF34F8F41
:1095BC0000BFBFF36F8F00BF00BF02B0704700BF8A
:1095CC0000E100E0044BD3F80034002B14BF01235E
:1095DC000023DBB2184670470000014008B503F0C9
:1095EC0059FD034683F00103DBB2002B03D109497B
:1095FC007B2004F0C5FBFFF7E5FF034683F0010376
:10960C00DBB2002B04D000F029FC034B00229A7033
:10961C0000BF08BDFC2203002424002000B583B049
:10962C0000230193184B1B78002B02D08523019348
:10963C001CE0154B00229A60134B00225A60124B0F
:10964C0000221A61104B0022DA60104800F0CCFBAB
:10965C00019003F01FFD034683F00103DBB2002BE6
:10966C0001D000F0E7FB084B01221A70FFF7AAFFAC
:10967C000346002B02D0044B01229A70019B184622
:10968C0003B05DF804FB00BF242400207197020096
:10969C0084B00190019B1B680393039B002B03D0A8
:1096AC00039B1A68019B1A60039B184604B0704711
:1096BC0000B583B0164B1B78002B04D1154940F232
:1096CC00171004F05DFB124BDB68002B04D1114921
:1096DC004FF48C7004F054FB00238DF807300DF11F
:1096EC000703184603F030FF094BDB68013B084ABF
:1096FC00D360074BDB68002B01D1FFF76FFF9DF8A0
:10970C000730184603F036FF00BF03B05DF804FBCA
:10971C0024240020FC22030000B585B003468DF8FC
:10972C0007309DF80730002B02D10C4B039301E05E
:10973C000B4B03930398FFF7ABFF0290029B002B9C
:10974C0006D0029B5B689DF8072010469847F1E70E
:10975C0000BF00BF05B05DF804FB00BF2C24002047
:10976C003424002000B583B003468DF807309DF8F3
:10977C000730002B05D10A4B01225A700020FFF74D
:10978C00CBFF9DF80730012B05D1054B01229A70B8
:10979C000120FFF7C1FF00BF03B05DF804FB00BF61
:1097AC002424002000B583B001900091019B002B74
:1097BC0005D1054B01225A700020FFF7ADFF00BF09
:1097CC0003B05DF804FB00BF2424002000B585B075
:1097DC00034600918DF807309DF80730032B29D0F4
:1097EC00032B35DC002B02D0012B04D030E0002001
:1097FC00FFF7C6FE2DE000238DF80F300DF10F039F
:10980C00184603F0A1FE154B1B7883F00103DBB265
:10981C00002B01D0FFF702FF104BDB6801330F4A1E
:10982C00D3600E4B01229A709DF80F30184603F04E
:10983C00A1FE0EE0094B1B78002B04D1084940F225
:10984C00522004F09DFA00F0F5FAFFF731FF00E02A
:10985C0000BF00BF05B05DF804FB00BF242400204E
:10986C00FC22030000B585B00190019B002B0AD0AF
:10987C00074B43F001030393019B9B010293039B52
:10988C000298984700E000BF05B05DF804FB00BFEC
:10989C008023030000B583B00190019B1B68184620
:1098AC0000F077F80346002B04D10B494FF4F67007
:1098BC0004F066FA019B1B681F2B02D84FF0A043E3
:1098CC0006E0019B1B6803F01F02019B1A60034B0F
:1098DC00184603B05DF804FB4C2303000003005052
:1098EC0000B585B0019001AB1846FFF7D3FF03908C
:1098FC00019B012202FA03F31946039800F035F894
:10990C0000BF05B05DF804FB00B585B0019001AB5C
:10991C001846FFF7BFFF0390019B012202FA03F3E5
:10992C001946039800F02BF800BF05B05DF804FB56
:10993C0000B585B0019001AB1846FFF7ABFF039063
:10994C00039800F00AF80246019B22FA03F303F095
:10995C000103184605B05DF804FB82B00190019B31
:10996C00D3F81035184602B0704782B001900091C0
:10997C00019B009AC3F8082500BF02B0704782B063
:10998C0001900091019B009AC3F80C2500BF02B016
:10999C00704784B00190019B5B09029300230393F1
:1099AC00029B002B03D0029B012B04D007E04FF04D
:1099BC00FF33039303E04FF6FF73039300BF019B48
:1099CC0003F01F030193039A019B22FA03F303F0A4
:1099DC000103002B14BF01230023DBB2184604B093
:1099EC00704700B585B001904FF0A042019B1B68F9
:1099FC0003F5E07340F20C6142F823104FF0A042E3
:109A0C00019B5B6803F5E07340F20C6142F8231094
:109A1C00019B1B681846FFF763FF019B5B681846A8
:109A2C00FFF75EFF4FF0A042019B1B6803F5E0734C
:109A3C0040F20D6142F823104FF0A042019B5B688D
:109A4C0003F5E07340F20D6142F823100420FFF798
:109A5C0009FF002303931EE0019B5B681846FFF788
:109A6C0067FF0346002B03D0039B002B17D124E088
:109A7C00019B1B681846FFF747FF0420FFF7F2FE17
:109A8C00019B1B681846FFF72BFF0420FFF7EAFE2B
:109A9C00039B01330393039B082BDDDD00E000BF28
:109AAC00019B5B681846FFF72FFF0420FFF7DAFED7
:109ABC00019B5B681846FFF713FF05B05DF804FBCC
:109ACC0000B589B001900091009B0793019B1B7816
:109ADC008DF80C30019B1B798DF81030019B5B7954
:109AEC008DF81130019B9B68DBB28DF81230019B15
:109AFC00DB68DBB28DF81330019B1B690593019B6E
:109B0C005B690693074A079B52F823300649079A6C
:109B1C0051F8221003AA1046984700BF09B05DF80F
:109B2C0004FB00BF382400204024002000B587B07F
:109B3C000390029101920093039B1B7805931249A9
:109B4C00059B019A41F823201049059B009A41F886
:109B5C002320029B5B7B002B02D00298FFF741FF76
:109B6C0000230493039B181D019B002B01D0084A72
:109B7C0000E00022059B029902F0EEFB0490049B8E
:109B8C00184607B05DF804FB382400204024002060
:109B9C00CD9A020082B003468DF807309DF907304C
:109BAC00002B0CDB9DF8073003F01F0205499DF9D3
:109BBC0007305B09012000FA02F241F8232000BFB4
:109BCC0002B0704700E100E082B0034600918DF8CE
:109BDC0007309DF90730002B0ADB009BDAB20C49E9
:109BEC009DF907305201D2B20B4483F800230BE0ED
:109BFC00009BDAB207499DF8073003F00F03043BD2
:109C0C005201D2B20B441A7600BF02B0704700BFAB
:109C1C0000E100E000ED00E082B00190019B1B0B25
:109C2C005BB2184602B0704700B583B003460A46D3
:109C3C008DF8073013468DF806309DF80630012B51
:109C4C0003D99DF80630032B0BD99DF80630042B55
:109C5C0003D99DF80630072B03D908496B2004F073
:109C6C008FF89DF806209DF9073011461846FFF72E
:109C7C00ABFF00BF03B05DF804FB00BF88230300FB
:109C8C0000B583B003468DF807309DF907301846B0
:109C9C00FFF780FF00BF03B05DF804FB82B0034602
:109CAC008DF807300F4A9DF90730002B00DA1F336F
:109CBC005B115BB252F823209DF90730594203F037
:109CCC001F0301F01F0158BF4B425BB222FA03F392
:109CDC0003F00103002B14BF01230023DBB2184651
:109CEC0002B0704700E100E082B001904FF080427A
:109CFC00019BC2F8083300BF02B0704782B0034624
:109D0C008DF807309DF8073003F1804301221A606B
:109D1C0000BF02B0704784B00346ADF80630BDF802
:109D2C00063003F1804300221A60BDF8063003F1BF
:109D3C0080431B680393039B00BF04B0704782B041
:109D4C000346ADF80630BDF8063003F180431B68BE
:109D5C00002B14BF01230023DBB2184602B070475E
:109D6C0082B001904FF08042019BC2F8183500BFC1
:109D7C0002B070474FF08043D3F818341B0C03F03B
:109D8C000103002B14BF01230023DBB218467047DC
:109D9C0000B583B006238DF807304FF08040FFF7F5
:109DAC003BFF03461846FFF779FF034683F0010398
:109DBC00DBB2002B13D04FF08040FFF72DFF034692
:109DCC001A469DF8073019461046FFF72DFF4FF045
:109DDC008040FFF721FF03461846FFF751FF00BFF5
:109DEC0003B05DF804FB000000B585B00190019B49
:109DFC00002B03D10D49A42003F0C2FF00230393D1
:109E0C000B4B1B79002B02D08523039308E0084AE7
:109E1C00019B1360064B01221A71054B00225A71EB
:109E2C00039B184605B05DF804FB00BFB823030084
:109E3C004824002008B5074B1B79002B03D1064999
:109E4C00BD2003F09DFFFFF7A3FF0120FFF788FF64
:109E5C0000BF08BD48240020B823030008B50D4BF3
:109E6C001B79002B03D10C49F72003F089FF02204A
:109E7C00FFF73AFF4FF48270FFF74DFF0C20FFF70E
:109E8C003DFF00BFFFF776FF0346002BFAD100BF62
:109E9C0000BF08BD48240020B823030008B54FF4C8
:109EAC008070FFF74CFF0346002B14D04FF48070EA
:109EBC00FFF731FF0120FFF717FF114B5B7983F0A0
:109ECC000103DBB2002B06D00D4B01225A710C4B57
:109EDC001B68002098474FF48270FFF730FF034651
:109EEC00002B0AD04FF48270FFF715FF0220FFF70A
:109EFC00FBFE034B1B680120984700BF08BD00BF49
:109F0C004824002082B003468DF807309DF90730B5
:109F1C00002B0CDB9DF8073003F01F0205499DF95F
:109F2C0007305B09012000FA02F241F8232000BF40
:109F3C0002B0704700E100E082B0034600918DF85A
:109F4C0007309DF90730002B0ADB009BDAB20C4975
:109F5C009DF907305201D2B20B4483F800230BE079
:109F6C00009BDAB207499DF8073003F00F03043B5E
:109F7C005201D2B20B441A7600BF02B0704700BF38
:109F8C0000E100E000ED00E082B00190019B1B0BB2
:109F9C005BB2184602B0704700B583B003460A4660
:109FAC008DF8073013468DF806309DF80630012BDE
:109FBC0003D99DF80630032B0BD99DF80630042BE2
:109FCC0003D99DF80630072B03D908496B2003F001
:109FDC00D7FE9DF806209DF9073011461846FFF76D
:109FEC00ABFF00BF03B05DF804FB00BF042403000B
:109FFC0000B583B003468DF807309DF9073018463D
:10A00C00FFF780FF00BF03B05DF804FB00B583B021
:10A01C000346ADF80630BDF80630184600F026F8B9
:10A02C0003461B68012B0CBF01230023DBB218462F
:10A03C0003B05DF804FB00B585B00346ADF80630FF
:10A04C00BDF80630184600F011F803461A460023F6
:10A05C001360BDF80630184600F008F803461B687C
:10A06C000393039B00BF05B05DF804FB82B003466D
:10A07C00ADF80630BDF8063003F1804303F5C0435C
:10A08C00184602B07047000082B00190034A019B51
:10A09C00C2F8043300BF02B0704700BF006000403C
:10A0AC0082B00190034BD3F80423019B1340184654
:10A0BC0002B070470060004082B00190084A019BDA
:10A0CC0003F5A27352F82330054943F00102019BBA
:10A0DC0003F5A27341F8232000BF02B0704700BF04
:10A0EC000060004084B00390029113468DF8073055
:10A0FC00144A039B03F5A27352F82330114923F43D
:10A10C004F3323F44073039A02F5A27241F82230C4
:10A11C000C4A039B03F5A27352F82320029B1B02EB
:10A12C0003F47C519DF807301B0403F440330B43BC
:10A13C0004491A43039B03F5A27341F8232000BF83
:10A14C0004B070470060004082B00190054A019B4A
:10A15C0003F5A27352F823301B0A03F03F03184691
:10A16C0002B070470060004082B00190064A019B2B
:10A17C0003F5A27352F823301B0C03F00303DBB27C
:10A18C00184602B0704700BF0060004000B583B0B5
:10A19C000190019B1B68184600F02AF90346002B1E
:10A1AC0004D10B494FF4F67003F0EAFD019B1B68D8
:10A1BC001F2B02D84FF0A04306E0019B1B6803F055
:10A1CC001F02019B1A60034B184603B05DF804FB99
:10A1DC00342403000003005000B585B001900846FC
:10A1EC0011461A4603468DF803300B468DF80230A3
:10A1FC0013468DF8013001AB1846FFF7C7FF0390EB
:10A20C009DF803209DF802305B001A439DF8013045
:10A21C009B001A439DF818301B0242EA03019DF87B
:10A22C001C301B04019A1943039B02F5E07243F89E
:10A23C00221000BF05B05DF804FB00B585B003909B
:10A24C000B468DF80B309DF80B300022019200224A
:10A25C000092002200210398FFF7BEFF00BF05B05B
:10A26C005DF804FB00B585B0019001AB1846FFF713
:10A27C008DFF0390019A039B02F5E07253F8223094
:10A28C0023F002030293019A039B02F5E0720299F8
:10A29C0043F8221000BF05B05DF804FB00B585B093
:10A2AC0001900B468DF8033001AB1846FFF76EFF9B
:10A2BC000390019A039B02F5E07253F82230019A45
:10A2CC0023F44031039B02F5E07243F82210019A0B
:10A2DC00039B02F5E07253F822309DF80320120420
:10A2EC001146019A1943039B02F5E07243F82210C0
:10A2FC0000BF05B05DF804FB00B585B0019001AB63
:10A30C001846FFF743FF0390039800F020F802462D
:10A31C00019B22FA03F303F00103184605B05DF824
:10A32C0004FB00B585B0019001AB1846FFF72EFF7A
:10A33C000390019A039B02F5E07253F822301B0C38
:10A34C0003F00303DBB2184605B05DF804FB82B0E2
:10A35C000190019BD3F81035184602B070470000ED
:10A36C0088B0039002910192164A05AB92E8030063
:10A37C0083E80300039B079319E0079B9B002033A2
:10A38C006B4453F80C3CD3F82025019B1A60079BB7
:10A39C009B0020336B4453F80C3C019A1268C3F8B1
:10A3AC002025019B04330193079B01330793039AE8
:10A3BC00029B1344079A9A42DFD300BF00BF08B038
:10A3CC00704700BF6424030000B585B0019001AB59
:10A3DC001846FFF7DBFE0390019B012202FA03F300
:10A3EC001A46039BC3F8202500BF05B05DF804FB9B
:10A3FC0084B00190019B5B09029300230393029BA1
:10A40C00002B03D0029B012B04D007E04FF0FF334D
:10A41C00039303E04FF6FF73039300BF019B03F01C
:10A42C001F030193039A019B22FA03F303F0010328
:10A43C00002B14BF01230023DBB2184604B0704775
:10A44C0084B001900091009B0393019BDB08029365
:10A45C00019B03F0070301930122019B02FA03F312
:10A46C000399029A0A4412781340184604B07047B4
:10A47C0084B001900091009B0393019BDB08029335
:10A48C00019B03F007030193039A029B13441B786F
:10A49C005AB20121019B01FA03F35BB2134359B287
:10A4AC00039A029B1344CAB21A7000BF04B07047DF
:10A4BC0082B001900C4A019B1344303393F9003065
:10A4CC00002B09DB084A019B1344303393F900300D
:10A4DC00072B01DC012300E0002303F00103DBB2B6
:10A4EC00184602B0704700BF5024002082B0019083
:10A4FC00064A019B1344303393F90030072BCCBF31
:10A50C0001230023DBB2184602B070475024002010
:10A51C0082B00190064A019B1344303393F900300A
:10A52C00DB43DBB2DB09DBB2184602B0704700BF7D
:10A53C005024002084B00390029101928DF80330D6
:10A54C00029B59B20E4A039B134430330A461A70CD
:10A55C000B49029B019A41F823209DF8033083F0AC
:10A56C000103DBB2002B08D0029B083B039A51B2CB
:10A57C00034A13440A4683F8602000BF04B07047B6
:10A58C005024002082B00190044A019B13443033C4
:10A59C00FF221A7000BF02B0704700BF5024002089
:10A5AC0000B583B0019004490198FFF761FF00BF2B
:10A5BC0003B05DF804FB00BFB424002082B001900E
:10A5CC00044A019B1344303393F90030184602B00F
:10A5DC00704700BF5024002082B00190034A019BB9
:10A5EC0052F82330184602B0704700BF50240020A8
:10A5FC0084B00190074A019B1344603393F90030F7
:10A60C008DF80F309DF80F3023F0C003184604B0BE
:10A61C00704700BF5024002084B00190074A019B72
:10A62C001344603393F900308DF80F309DF80F30E0
:10A63C009B09DBB2184604B0704700BF50240020C1
:10A64C0000B589B00390029113468DF80730FF23B3
:10A65C008DF81F309DF80730002B01D0002300E04F
:10A66C00082305939DF80730002B01D0082300E048
:10A67C000C230493059B069314E00F4A069B52F897
:10A68C002330B3F1FF3F0AD19DF80730029A0699A7
:10A69C000398FFF74FFF069B8DF81F3006E0069BD3
:10A6AC0001330693069A049B9A42E6D39DF91F3018
:10A6BC00184609B05DF804FB5024002082B0034614
:10A6CC008DF807309DF80730094A4FF0FF3142F8FA
:10A6DC0023109DF80730072B07D99DF80730083B4E
:10A6EC00034A1344FF2283F8602000BF02B0704776
:10A6FC005024002000B583B02D4B93F86A30002B0A
:10A70C0003D008230093009B4EE000238DF8073004
:10A71C0011E09DF807301846FFF76AFE0346002B40
:10A72C0004D09DF807301846FFF72CFF9DF8073032
:10A73C0001338DF807309DF807302F2BE9D9002312
:10A74C008DF8073009E09DF807301846FFF7B6FF83
:10A75C009DF8073001338DF807309DF807300B2B2F
:10A76C00F1D906220021134807F000FD1248FFF72B
:10A77C000BFC034606211846FFF70EFC0E48FFF7AC
:10A78C0003FC03461846FFF733FC4FF4BE70FFF78B
:10A79C0052FC4FF00040FFF777FC054B012283F889
:10A7AC006A2000230093009B184603B05DF804FB5D
:10A7BC0050240020B42400200060004000B587B075
:10A7CC000390029101920398FFF712FE0346002BAF
:10A7DC0004D136494FF40C7003F0D2FA00230593E0
:10A7EC000398FFF795FE0346002B02D00823059330
:10A7FC0057E0029B9B78C3F34003DBB21A460199E6
:10A80C000398FFF71DFF03468DF813309DF91330A5
:10A81C00B3F1FF3F43D0029B9B78C3F38003DBB2C1
:10A82C0083F00103DBB2002B13D0029B9B7803F067
:10A83C000103DBB2002B03D00398FFF713FD05E0F7
:10A84C00029B5B7819460398FFF7F7FC0398FFF718
:10A85C00A7FE029B9B7803F00203DBB2002B08D00F
:10A86C009DF91300029B1B781A460399FFF73AFCDB
:10A87C0017E09DF91330083B0D4A134493F960100F
:10A88C00029B1B789B015AB29DF91330083B0A437B
:10A89C0051B2074A13440A4683F8602001E00423AE
:10A8AC000593059B184607B05DF804FB6C24030068
:10A8BC005024002000B589B001900B468DF8033070
:10A8CC000198FFF795FD0346002B04D13A494FF44C
:10A8DC00187003F055FA0198FFF71AFE0346002B87
:10A8EC0004D1354940F2612003F04AFA0198FFF790
:10A8FC00FDFD0346002B2AD00198FFF75FFE0346AF
:10A90C00083B1846FFF788FE03468DF80F309DF87C
:10A91C000F30032B0BD10198FFF7EEFC0346002BF5
:10A92C0001D0032300E002238DF81F3008E09DF8CE
:10A93C000F30012B01D1022300E003238DF81F30CF
:10A94C009DF81F3019460198FFF7A8FC30E00198DC
:10A95C00FFF7AEFD0346002B2AD00198FFF72EFE21
:10A96C0003460693069B9BB240339BB29B00ADF80B
:10A97C001630069B1846FFF79FFBBDF8163018469D
:10A98C00FFF759FB9DF80330002B11D00198FFF70E
:10A99C0015FE03461846FFF71FFE0490049B002B80
:10A9AC0006D00122069B02FA03F31846FFF76CFB54
:10A9BC0000BF09B05DF804FB6C24030000B585B042
:10A9CC000190019A02210020FFF7CAFC0023039397
:10A9DC000BE0039B9B00019A13441B68002B01D0D6
:10A9EC00012306E0039B01330393039B012BF0D956
:10A9FC000023184605B05DF804FB000000B587B0D5
:10AA0C000190002305935BE0344A059B13446033AB
:10AA1C0093F90030B3F1FF3F4ED00598FFF7E8FDF6
:10AA2C00049001990498FFF70BFD0346002B44D0CA
:10AA3C000598FFF7F1FD03468DF80F300498FFF7EA
:10AA4C0070FC03468DF80E309DF80E30022B01D1B0
:10AA5C00032300E002238DF80D309DF80D301946CC
:10AA6C000498FFF71BFC0498FFF7AEFC0498FFF763
:10AA7C00A5FD03461846FFF7AFFD0290029B002B85
:10AA8C001BD09DF80F30032B0FD09DF80E30022BEE
:10AA9C0003D19DF80F30012B07D09DF80E30032BFE
:10AAAC000BD19DF80F30022B07D19DF80F20029B84
:10AABC0011460498984700E000BF059B01330593AD
:10AACC00059B032BA0D90198FFF778FF0346002BB9
:10AADC0097D100BF00BF07B05DF804FB50240020E5
:10AAEC0000B58BB00023099301AB00221A605A60A9
:10AAFC004FF48073ADF81E300123069300230893A6
:10AB0C0021E0BDF81E301846FFF780FA0346002BF3
:10AB1C000ED00698FFF7C4FA0346002B08D0BDF8F8
:10AB2C001E301846FFF787FA099A069B13430993C0
:10AB3C00069B5B000693BDF81E300433ADF81E3047
:10AB4C00089B01330893089B072BDAD94FF4BE708E
:10AB5C00FFF75CFA0346002B0DD04FF4BE70FFF7E5
:10AB6C006AFA099B43F00043099301AB1A46022190
:10AB7C000020FFF7F5FB099BDBB2002B29D001234A
:10AB8C0006930023089321E0069A099B1340002B9F
:10AB9C0016D00898FFF7D8FA05900898FFF7E4FA52
:10ABAC0003468DF813300898FFF716FD0390039BAE
:10ABBC00002B05D09DF81320039B11460598984750
:10ABCC00069B5B000693089B01330893089B072B9D
:10ABDC00DAD9099B002B03DA01AB1846FFF70EFFFD
:10ABEC0000BF0BB05DF804FB08B5064B1B68002BCF
:10ABFC0003D10549512003F0C3F8024B1B68984759
:10AC0C0000BF08BDBC240020B824030082B0019012
:10AC1C00019B044A934201D1034B00E000231846E8
:10AC2C0002B0704700200040BC24002000B587B063
:10AC3C0001900091019B002B03D11C49772003F05C
:10AC4C009FF80198FFF7E2FF0490049B002B25D09E
:10AC5C0000238DF8173000238DF80B300DF10B030A
:10AC6C00184602F071FC049B1B79002B03D00123C6
:10AC7C008DF8173005E0049B009A1A60049B0122A2
:10AC8C001A719DF80B30184602F074FC9DF81730C1
:10AC9C00002B03D011230393039B02E000230393A7
:10ACAC00039B184607B05DF804FB00BFB8240300F3
:10ACBC0082B003468DF807309DF90730002B0CDB72
:10ACCC009DF8073003F01F0205499DF907305B0919
:10ACDC00012000FA02F241F8232000BF02B07047B5
:10ACEC0000E100E082B0034600918DF807309DF939
:10ACFC000730002B0ADB009BDAB20C499DF90730B8
:10AD0C005201D2B20B4483F800230BE0009BDAB261
:10AD1C0007499DF8073003F00F03043B5201D2B2F0
:10AD2C000B441A7600BF02B0704700BF00E100E090
:10AD3C0000ED00E082B00190019B03F06043B3F1A1
:10AD4C00005F0CBF01230023DBB2184602B0704732
:10AD5C0082B00190019B03F00303002B0CBF012375
:10AD6C000023DBB2184602B07047000000B583B078
:10AD7C0003460A468DF8073013468DF806309DF8C9
:10AD8C000630012B03D99DF80630032B0BD99DF807
:10AD9C000630042B03D99DF80630072B03D908493C
:10ADAC006B2002F0EDFF9DF806209DF9073011464F
:10ADBC001846FFF797FF00BF03B05DF804FB00BF18
:10ADCC000825030000B583B003468DF807309DF9C4
:10ADDC0007301846FFF76CFF00BF03B05DF804FBAB
:10ADEC0082B001900B468DF803309DF80330019A28
:10ADFC00134401221A6000BF02B0704784B0019066
:10AE0C000B46ADF80230BDF80230019A1344002213
:10AE1C001A60BDF80230019A13441B680393039B1C
:10AE2C0000BF04B0704782B001900B46ADF8023001
:10AE3C00BDF80230019A13441B68002B14BF012388
:10AE4C000023DBB2184602B0704782B0019000912B
:10AE5C00019B009AC3F8042300BF02B0704782B074
:10AE6C0001900091019B009AC3F8082300BF02B027
:10AE7C00704782B00190019B0122C3F8002500BFEE
:10AE8C0002B0704782B00190019B0022C3F80025EC
:10AE9C0000BF02B0704784B00390029101920093FE
:10AEAC00039B029AC3F86425039B019AC3F8682597
:10AEBC00039B009AC3F86025039B049AC3F8702582
:10AECC00039B059AC3F86C2500BF04B0704782B091
:10AEDC000190084611461A4603468DF803300B467E
:10AEEC008DF8023013468DF801309DF80330002B9D
:10AEFC0021D19DF80830012B03D19DF81430012B82
:10AF0C0017D09DF80830022B15D19DF81430002B6A
:10AF1C000FD09DF81430022B0BD09DF81430042B5D
:10AF2C0007D09DF81430062B03D09DF81430082B55
:10AF3C0001D100232EE09DF80320019BC3F80425CA
:10AF4C009DF80220019BC3F824259DF80120019B4C
:10AF5C00C3F820259DF80820019BC3F81C259DF8FB
:10AF6C000C20019BC3F828259DF81420019BC3F8E5
:10AF7C001825049B002B04D1019B0022C3F810253B
:10AF8C0007E0019B049AC3F81425019B0122C3F826
:10AF9C0010250123184602B0704700B585B0039008
:10AFAC00019200930B46ADF80A30BDF80A20039BC2
:10AFBC00C3F850250199039800F01CF8019B002B55
:10AFCC0014BF01230023DBB21A46039BC3F80825E8
:10AFDC000099039800F018F8009B002B14BF012374
:10AFEC000023DBB21A46039BC3F80C2500BF05B047
:10AFFC005DF804FB82B001900091009A019BC3F8AC
:10B00C00382500BF02B0704782B001900091009AC1
:10B01C00019BC3F8402500BF02B0704700B583B058
:10B02C000190019B1B68184600F075F80346002B35
:10B03C0004D10B494FF4F67002F0A2FE019B1B6881
:10B04C001F2B02D84FF0A04306E0019B1B6803F0B6
:10B05C001F02019B1A60034B184603B05DF804FBFA
:10B06C00382503000003005000B585B00190084658
:10B07C0011461A4603468DF803300B468DF8023004
:10B08C0013468DF8013001AB1846FFF7C7FF03904C
:10B09C009DF803209DF802305B001A439DF80130A7
:10B0AC009B001A439DF818301B0242EA03019DF8DD
:10B0BC001C301B04019A1943039B02F5E07243F800
:10B0CC00221000BF05B05DF804FB00B585B00390FD
:10B0DC0000230193002300930023012201210398F4
:10B0EC00FFF7C2FF00BF05B05DF804FB00B585B0EB
:10B0FC0003900B468DF80B309DF80B30002201921B
:10B10C0000220092002200210398FFF7ADFF00BF40
:10B11C0005B05DF804FB84B00190019B5B090293C0
:10B12C0000230393029B002B03D0029B012B04D022
:10B13C0007E04FF0FF33039303E04FF6FF730393E5
:10B14C0000BF019B03F01F030193039A019B22FA9A
:10B15C0003F303F00103002B14BF01230023DBB224
:10B16C00184604B07047000000B589B00390039BEB
:10B17C009B79002B0AD1039B1B781846FFF7A5FF80
:10B18C00039B5B781846FFF7A0FF0BE0039B1B7833
:10B19C0000211846FFF7AAFF039B5B780021184695
:10B1AC00FFF7A4FF039B9B78FF2B06D0039B9B7898
:10B1BC0007930798FFF789FF02E04FF0FF330793DF
:10B1CC00039BDB78FF2B06D0039BDB78069306985A
:10B1DC00FFF77BFF02E04FF0FF330693039B1B79D5
:10B1EC00FF2B07D0039B1B79059300210598FFF7D4
:10B1FC007DFF02E04FF0FF330593039B1B7819464C
:10B20C00039B5B781A46059B0193069B0093079B57
:10B21C000348FFF740FE00BF09B05DF804FB00BF18
:10B22C000050024070B588B005900491059B002B2E
:10B23C0003D12549962002F0A3FD049B002B03D1DA
:10B24C002149972002F09CFD204B1B79002B03D049
:10B25C0008230793079B34E0059B9C79059BDD79BC
:10B26C00059B1E7A059B5B7A059A927A0599C968AB
:10B27C000598007C039002910192009333462A4674
:10B28C0021461348FFF723FE034683F00103DBB28C
:10B29C00002B03D007230793079B12E00598FFF7B9
:10B2AC0063FF0A4A049B1360059B5B7919462520B2
:10B2BC00FFF75CFD2520FFF785FD044B01221A7179
:10B2CC000023184608B070BD68250300C424002074
:10B2DC000050024000B585B001900B46ADF802302D
:10B2EC0013468DF80130019B002B03D17049D920F6
:10B2FC0002F046FD019B1B68002B07D1019B5B688C
:10B30C00002B03D16A49DA2002F03AFD019B1B683D
:10B31C00002B13D0019B1B681846FFF70BFD03464F
:10B32C00002B07D0019B1B681846FFF711FD034645
:10B33C00002B03D15E49DC2002F022FD019B5B68EF
:10B34C00002B13D0019B5B681846FFF7F3FC0346F8
:10B35C00002B07D0019B5B681846FFF7F9FC0346EE
:10B36C00002B03D15249DF2002F00AFDBDF8023058
:10B37C00002B03D14E49E22002F002FD4D4B1B790C
:10B38C00012B03D008230393039B8DE0019B1B68C7
:10B39C00002B0AD0019B1B681846FFF7CBFC034619
:10B3AC0083F00103DBB2002B0ED1019B5B68002BF9
:10B3BC000ED0019B5B681846FFF7BCFC034683F07C
:10B3CC000103DBB2002B03D010230393039B6BE030
:10B3DC00019B1B68002B14BF01230023D9B2354AF3
:10B3EC00537961F300035371019B5B68002B14BF0D
:10B3FC0001230023D9B22F4A537961F341035371CE
:10B40C002C4A53796FF3820353712A4A53796FF3A1
:10B41C00C3035371274A53796FF304135371254AAD
:10B42C00BDF80230D380234B019A083392E8030015
:10B43C0083E803001F4B00221A611E4B00225A6145
:10B44C001C4BD9881B4B9A681A4BDB681A48FFF7C0
:10B45C00A4FD1948FFF70DFD164B02221A714FF48B
:10B46C0082711548FFF7CAFC4FF48A711248FFF736
:10B47C00C5FC4FF484711048FFF7C0FC0D4B5B7991
:10B48C005B0003F002020B4B5B791B0103F0200302
:10B49C00134343F0040319460748FFF7D6FC002179
:10B4AC000548FFF79DFC0023184605B05DF804FB2A
:10B4BC0068250300C42400200050024000B585B06C
:10B4CC000190584B1B79022B04D0574940F22310A2
:10B4DC0002F056FC019B002B04D153494FF492709F
:10B4EC0002F04EFC019B1B68002B14D0019B1B68C7
:10B4FC001846FFF71FFC0346002B07D0019B1B6867
:10B50C001846FFF725FC0346002B04D1464940F2B0
:10B51C00251002F035FC019B5B68002B14D0019BBD
:10B52C005B681846FFF706FC0346002B07D0019B0F
:10B53C005B681846FFF70CFC0346002B04D13A4914
:10B54C004FF4947002F01CFC364B5B79C3F3001380
:10B55C00DBB283F00103DBB2002B03D0082303938F
:10B56C00039B5AE0019B1B68002B0AD0019B1B68B4
:10B57C001846FFF7DFFB034683F00103DBB2002B19
:10B58C000ED1019B5B68002B0ED0019B5B681846AB
:10B59C00FFF7D0FB034683F00103DBB2002B03D093
:10B5AC0010230393039B38E01E4B5B7903F00203DB
:10B5BC00DBB2002B0ED0019B5B68002B04D11A4927
:10B5CC004FF4A37002F0DCFB019B5B681946174833
:10B5DC00FFF71AFD134B5B7903F00103DBB2002B71
:10B5EC000ED0019B1B68002B04D10F4940F24B106D
:10B5FC0002F0C6FB019B1B6819460C48FFF7FAFCCE
:10B60C00084B019A083392E8030083E80300054ACB
:10B61C0053796FF3041353710023184605B05DF88A
:10B62C0004FB00BFC4240020682503000050024026
:10B63C0008B50F4B1B79002B04D10E494FF4AC709D
:10B64C0002F09EFB0A4A53796FF3041353712221C3
:10B65C000948FFF704FC04210748FFF7C1FB074B1F
:10B66C0001221A60064B01221A6000BF08BD00BF00
:10B67C00C4240020682503000050024038500240CA
:10B68C003C50024000B583B04FF48A717648FFF706
:10B69C00CAFB0346002B1CD04FF48A717248FFF78B
:10B6AC00ADFB724A537943F0080353716F4B5B79CE
:10B6BC0003F00203DBB2002B0BD06C4B5B7903F075
:10B6CC001003DBB2002B04D0684A537943F02003FB
:10B6DC0053714FF482716448FFF7A5FB0346002BAE
:10B6EC001CD04FF482716048FFF788FB5F4A537996
:10B6FC0043F0040353715D4B5B7903F00103DBB240
:10B70C00002B0BD0594B5B7903F01003DBB2002BF1
:10B71C0004D0564A537943F0200353714FF484718B
:10B72C005148FFF780FB0346002B19D04FF484716E
:10B73C004D48FFF763FB04214B48FFF790FB4A4849
:10B74C00FFF7A0FB494B1B68002149489847474B22
:10B75C001B68002147489847444B01221A717EE030
:10B76C00424B5B7903F00203DBB2002B14D03F4B4E
:10B77C005B7903F00103DBB2002B0DD03B4B5B7903
:10B78C0003F00803DBB2002B06D0384B5B7903F0D7
:10B79C000403DBB2002B21D1344B5B79C3F30003E0
:10B7AC00DBB283F00103DBB2002B06D02F4B5B79AD
:10B7BC0003F00803DBB2002B10D12C4B5B79C3F3E5
:10B7CC004003DBB283F00103DBB2002B47D0274BE5
:10B7DC005B7903F00403DBB2002B40D0234A53798E
:10B7EC006FF3C3035371214A53796FF3820353717F
:10B7FC001E4B5B7903F02003DBB2002B0FD01B4AEE
:10B80C0053796FF345135371184A537943F010036E
:10B81C005371164B1B680121002098471FE0134AF7
:10B82C006B46103292E8030083E803000F4B0F4A7B
:10B83C001033083292E8030083E803000B4B00221C
:10B84C009A600A4B0022DA60084A537943F01003DD
:10B85C005371064B1B686A4601211046984700BF7E
:10B86C0003B05DF804FB00BF00500240C42400206C
:10B87C00D4240020CC24002082B003468DF807305D
:10B88C009DF90730002B0CDB9DF8073003F01F02ED
:10B89C0005499DF907305B09012000FA02F241F8D5
:10B8AC00232000BF02B0704700E100E082B00346E5
:10B8BC0000918DF807309DF90730002B0ADB009BB7
:10B8CC00DAB20C499DF907305201D2B20B4483F81D
:10B8DC0000230BE0009BDAB207499DF8073003F018
:10B8EC000F03043B5201D2B20B441A7600BF02B0D4
:10B8FC00704700BF00E100E000ED00E082B0019075
:10B90C00019B1B0B5BB2184602B0704700B583B0AD
:10B91C0003460A468DF8073013468DF806309DF81D
:10B92C000630012B03D99DF80630032B0BD99DF85B
:10B93C000630042B03D99DF80630072B03D9084990
:10B94C006B2002F01DFA9DF806209DF90730114678
:10B95C001846FFF7ABFF00BF03B05DF804FB00BF58
:10B96C00B425030000B583B003468DF807309DF96C
:10B97C0007301846FFF780FF00BF03B05DF804FBEB
:10B98C0082B001900B468DF803309DF80330019A7C
:10B99C00134401221A6000BF02B0704784B00190BA
:10B9AC000B46ADF80230BDF80230019A1344002268
:10B9BC001A60BDF80230019A13441B680393039B71
:10B9CC0000BF04B0704782B001900B46ADF8023056
:10B9DC00BDF80230019A13441B68002B14BF0123DD
:10B9EC000023DBB2184602B0704782B00190009180
:10B9FC00019BD3F80022009B1A43019BC3F8002241
:10BA0C0000BF02B0704782B001900091019BD3F847
:10BA1C000022009BDB431A40019BC3F8002200BFAD
:10BA2C0002B0704782B001900091019B009AC3F85C
:10BA3C00042300BF02B0704782B001900091019BBB
:10BA4C00009AC3F8082300BF02B0704782B001907F
:10BA5C000091019BD3F80423009B1340002B14BFCF
:10BA6C0001230023DBB2184602B0704782B001906C
:10BA7C000B468DF80330019BD3F8043523F00302F9
:10BA8C009DF8033003F003031A43019BC3F804250C
:10BA9C0000BF02B0704782B001900B468DF80330A6
:10BAAC00019BD3F8083523F003029DF8033003F013
:10BABC0003031A43019BC3F8082500BF02B070476B
:10BACC0082B001900B468DF80330019BD3F81035F2
:10BADC0023F00F029DF8033003F00F031A43019B70
:10BAEC00C3F8102500BF02B0704784B003900B461A
:10BAFC0001928DF80B309DF80B20039B02F5A87278
:10BB0C00019943F8221000BF04B0704782B0019035
:10BB1C00019B9B0003F5A0739BB2184602B07047C3
:10BB2C0082B001904FF48032019B02FA03F3184665
:10BB3C0002B0704710B588B0039002910192039B3C
:10BB4C001B791A4613465B0013449B00744A13443A
:10BB5C000693039B1B68734A934203D17249482096
:10BB6C0002F00EF9029B002B03D16F494A2002F020
:10BB7C0007F9019B002B03D16B494B2002F000F914
:10BB8C00069B1B7A002B03D008230593059BC4E06E
:10BB9C00039B1B68634A93420FD1029B9B78012B3A
:10BBAC0064D0029B9B78002B60D0029B9B78022B6D
:10BBBC005CD0029B9B78032B58D0039B1B685B4A81
:10BBCC0093420FD1029B9B78012B4FD0029B9B7809
:10BBDC00002B4BD0029B9B78022B47D0029B9B786F
:10BBEC00032B43D0039B1B68514A93420FD1029BFA
:10BBFC009B78012B3AD0029B9B78002B36D0029B72
:10BC0C009B78022B32D0029B9B78032B2ED0039B6C
:10BC1C001B68484A93420FD1029B9B78012B25D07D
:10BC2C00029B9B78002B21D0029B9B78022B1DD072
:10BC3C00029B9B78032B19D0039B1B683E4A9342B3
:10BC4C000FD1029B9B78012B10D0029B9B78002B71
:10BC5C000CD0029B9B78022B08D0029B9B78032B69
:10BC6C0004D031495F2002F08BF800E000BF069B46
:10BC7C00019A1A60029B5A68069B5A6000238DF841
:10BC8C001F3010E0039B1C689DF81F301846FFF70F
:10BC9C003DFF034619462046FFF780FE9DF81F30F6
:10BCAC0001338DF81F30039B5B799DF81F209A425E
:10BCBC00E8D3039B1B681846FFF720FE03461A4681
:10BCCC00029BDB7819461046FFF720FE039B1B688E
:10BCDC001846FFF713FE03461846FFF743FE039B77
:10BCEC001A68029B5B7819461046FFF7BFFE039B50
:10BCFC001A68029B9B7819461046FFF7CCFE039BF3
:10BD0C001A68029B1B7819461046FFF7D9FE069B52
:10BD1C0001221A7200230593059B184608B010BD2A
:10BD2C00DC24002000800040E4250300009000404B
:10BD3C0000A0004000A0014000B0014000B583B05D
:10BD4C000190019B1B791946114A0B465B000B4471
:10BD5C009B00134408331B78012B03D00D498F2013
:10BD6C0002F00EF8019B1B6800211846FFF708FE35
:10BD7C00019B1B791946064A0B465B000B449B0042
:10BD8C001344083302221A7000BF03B05DF804FBA1
:10BD9C00DC240020E425030000B583B00190019B56
:10BDAC001B791946114A0B465B000B449B0013444C
:10BDBC0008331B78002B03D10D49972001F0E0FFCD
:10BDCC00019B1B6810211846FFF7DAFD019B1B79BC
:10BDDC001946064A0B465B000B449B001344083380
:10BDEC0001221A7000BF03B05DF804FBDC240020B4
:10BDFC00E425030010B586B0039001921A460B4659
:10BE0C008DF80B3013468DF80A309DF80B30184620
:10BE1C00FFF786FE05909DF80A30002B12D0039B8D
:10BE2C001C689DF80B301846FFF770FE0346194648
:10BE3C002046FFF7B3FD039B1B6805991846FFF7D7
:10BE4C00F1FD05E0039B1B6805991846FFF7F4FD0F
:10BE5C00039B1B689DF80B10019A1846FFF745FED3
:10BE6C0000BF06B010BD00B585B0039001921A4614
:10BE7C000B468DF80B301346ADF80830039B186851
:10BE8C009DF80B304FF480729A409DF80B300121D5
:10BE9C0001FA03F313431946FFF7B5FD039B1B6827
:10BEAC00BDF8082011461846FFF79FFD9DF8183085
:10BEBC009DF80B10019A0398FFF79CFF00BF05B08B
:10BECC005DF804FB00B587B00390029113468DF822
:10BEDC00073000238DF8173030E09DF817301846E6
:10BEEC00FFF714FE0346ADF814309DF817301846D2
:10BEFC00FFF716FE0490BDF8143019460398FFF7AF
:10BF0C0062FD0346002B14D004990398FFF79EFDA5
:10BF1C000346002B0DD0BDF8143019460398FFF7DB
:10BF2C003DFD029B1B68029A5168BDF81420104617
:10BF3C0098479DF8173001338DF817309DF817206E
:10BF4C009DF807309A42C8D300BF00BF07B05DF818
:10BF5C0004FB000008B5042202490348FFF7B2FFB6
:10BF6C0000BF08BDDC2400200080004008B504227E
:10BF7C0002490348FFF7A6FF00BF08BDE8240020D4
:10BF8C000090004082B003468DF807309DF90730D1
:10BF9C00002B0CDB9DF8073003F01F0205499DF9BF
:10BFAC0007305B09012000FA02F241F8232000BFA0
:10BFBC0002B0704700E100E082B0034600918DF8BA
:10BFCC0007309DF90730002B0ADB009BDAB20C49D5
:10BFDC009DF907305201D2B20B4483F800230BE0D9
:10BFEC00009BDAB207499DF8073003F00F03043BBE
:10BFFC005201D2B20B441A7600BF02B0704700BF98
:10C00C0000E100E000ED00E082B00190019B1B0B11
:10C01C005BB2184602B0704700B583B003460A46BF
:10C02C008DF8073013468DF806309DF80630012B3D
:10C03C0003D99DF80630032B0BD99DF80630042B41
:10C04C0003D99DF80630072B03D908496B2001F062
:10C05C0097FE9DF806209DF9073011461846FFF70C
:10C06C00ABFF00BF03B05DF804FB00BF302603003C
:10C07C0000B583B003468DF807309DF9073018469C
:10C08C00FFF780FF00BF03B05DF804FB82B00190A6
:10C09C000B468DF803309DF80330019A13440122AE
:10C0AC001A6000BF02B0704784B001900B46ADF827
:10C0BC000230BDF80230019A134400221A60BDF818
:10C0CC000230019A13441B680393039B00BF04B016
:10C0DC00704782B001900B46ADF80230BDF80230CB
:10C0EC00019A13441B68002B14BF01230023DBB2FD
:10C0FC00184602B0704782B001900091019B009AE3
:10C10C00C3F8042300BF02B0704782B001900091C5
:10C11C00019B009AC3F8082300BF02B0704782B09D
:10C12C000190019B0522C3F8002500BF02B07047A7
:10C13C0082B00190019B0022C3F8002500BF02B021
:10C14C00704784B0039002910192039B029AC3F84A
:10C15C000825039B019AC3F80C2500BF04B0704757
:10C16C0082B001900091019B009AC3F8242500BF76
:10C17C0002B0704784B00190019BD3F8C434039390
:10C18C00019B039AC3F8C424039B184604B0704760
:10C19C0082B001900B468DF803309DF80320019B73
:10C1AC00C3F8882500BF02B0704782B00190019B94
:10C1BC00D3F81835DBB2184602B0704782B0019044
:10C1CC000B468DF803309DF80320019BC3F81C250A
:10C1DC0000BF02B0704782B001900091019B009AA1
:10C1EC00C3F8002200BF02B07047000000B583B056
:10C1FC000190019B1B68184600F04FF80346002B7A
:10C20C0004D10B494FF4F67001F0BAFD019B1B6889
:10C21C001F2B02D84FF0A04306E0019B1B6803F0D4
:10C22C001F02019B1A60034B184603B05DF804FB18
:10C23C00602603000003005000B585B0019008464D
:10C24C0011461A4603468DF803300B468DF8023022
:10C25C0013468DF8013001AB1846FFF7C7FF03906A
:10C26C009DF803209DF802305B001A439DF80130C5
:10C27C009B001A439DF818301B0242EA03019DF8FB
:10C28C001C301B04019A1943039B02F5E07243F81E
:10C29C00221000BF05B05DF804FB84B00190019B37
:10C2AC005B09029300230393029B002B03D0029B98
:10C2BC00012B04D007E04FF0FF33039303E04FF65C
:10C2CC00FF73039300BF019B03F01F030193039AB9
:10C2DC00019B22FA03F303F00103002B14BF01238B
:10C2EC000023DBB2184604B0704784B001900323DE
:10C2FC000393019B03F00103002B02D04FF4024384
:10C30C000393019B03F00203002B02D048F201239C
:10C31C000393019B03F00403002B02D048F2022389
:10C32C000393039B184604B0704700B583B001908B
:10C33C000091009B5A6B009B9B6A9A4207D0019814
:10C34C00FFF7F6FE0198FFF7EAFE002300E0012359
:10C35C00184603B05DF804FB00B58BB00590049152
:10C36C0003920293049B002B03D14D49AA2001F0A8
:10C37C0007FD049B1A68049B5B689A4203D14849E9
:10C38C00AB2001F0FDFC059B1B791A4613461B01E3
:10C39C009B1A9B00434A13440993099B93F82E3034
:10C3AC00002B03D008230793079B74E0059B1A68A6
:10C3BC00059B1B7919463C4B53F821301946104606
:10C3CC00FEF734FC0346002B03D011230793079B85
:10C3DC0061E0099B039A1A60099B029A5A60099BB7
:10C3EC0000229A60099B002283F82D20099B0022D1
:10C3FC0083F83120099B002283F83020049B5A7B60
:10C40C00099B83F83820049B1868002301930623AA
:10C41C000093032300220021FFF70EFF049B5868B2
:10C42C000023019306230093032300220021FFF72E
:10C43C0003FF059B1B680893049B1968049B5B68AE
:10C44C001A460898FFF77DFE049B9B6819460898CE
:10C45C00FFF786FE099B1B68002B15D0059B1B68FC
:10C46C001846FFF7D1FD03461A46049B1B7B194661
:10C47C001046FFF7D1FD059B1B681846FFF7C4FD5E
:10C48C0003461846FFF7F4FD099B012283F82E2082
:10C49C0000230793079B18460BB05DF804FB00BF05
:10C4AC0090260300F4240020DC26030000B585B0A0
:10C4BC000190019B1B791A4613461B019B1A9B008A
:10C4CC000D4A13440393039B93F82E30012B04D095
:10C4DC000A494FF4857001F053FC019B1B680293D1
:10C4EC000298FFF71CFE039B022283F82E2000BF4C
:10C4FC0005B05DF804FB00BFF42400209026030077
:10C50C0000B583B001900091009B5A6B009B9B6A15
:10C51C009A420AD2009B5A6A009B5B6B13441B78AD
:10C52C0019460198FFF74AFE1EE0009B93F82C3049
:10C53C00002B05D01C210198FFF7A8FD002314E067
:10C54C00009B1B6A03F04003002B09D01C210198AF
:10C55C00FFF79CFD009B012283F82D20002304E0B3
:10C56C0014210198FFF792FD0123184603B05DF8E2
:10C57C0004FB10B582B001900091009B5A6B009B9C
:10C58C009B6A9A4244D2009B5A6A009B5B6BD418FC
:10C59C000198FFF70AFE03462370009B5B6B5A1C45
:10C5AC00009B5A63009B5A6B009B9B6A013B9A420F
:10C5BC000AD1009B1B6A03F04003002B04D102211B
:10C5CC000198FFF708FE1FE0009B5A6B009B9B6ACB
:10C5DC009A4207D1009B1B6A03F04003002B01D148
:10C5EC00012316E0009B5A6B009B9B6A9A420BD16D
:10C5FC00009B1B6A03F04003002B05D0009B02221A
:10C60C0083F82D20002304E020210198FFF73EFD44
:10C61C000123184602B010BD00B585B00190009101
:10C62C0000238DF80F304FF482710198FFF751FD04
:10C63C000346002B07D04FF482710198FFF734FDAD
:10C64C0001238DF80F30009B93F82F30002B0FD067
:10C65C004FF492710198FFF727FD4FF48E710198FA
:10C66C00FFF722FD4FF484710198FFF71DFD78E070
:10C67C004FF492710198FFF72CFD0346002B0DD05F
:10C68C004FF492710198FFF70FFD14210198FFF7F9
:10C69C00FDFC009B012283F82F2062E04FF48E7189
:10C6AC000198FFF716FD0346002B2BD04FF48E712B
:10C6BC000198FFF7F9FC009B5B6B5A1C009B5A63BB
:10C6CC004FF492710198FFF704FD0346002B0DD037
:10C6DC004FF492710198FFF7E7FC14210198FFF7D2
:10C6EC00D5FC009B012283F82F203AE00099019899
:10C6FC00FFF706FF034683F00103DBB2002B30D0BB
:10C70C00002354E04FF484710198FFF7E2FC0346D8
:10C71C00002B26D04FF484710198FFF7C5FC4FF421
:10C72C0092710198FFF7D5FC0346002B0DD04FF406
:10C73C0092710198FFF7B8FC14210198FFF7A6FC41
:10C74C00009B012283F82F200BE000990198FFF742
:10C75C0010FF034683F00103DBB2002B01D0002352
:10C76C0025E09DF80F30002B20D0009B002283F891
:10C77C002D20009B93F82F3083F00103DBB2002BAC
:10C78C0012D000990198FFF7D0FD0346002B14BF7F
:10C79C0001230023DBB283F00103DBB203F00103BE
:10C7AC00DAB2009B83F82F20002300E00123184607
:10C7BC0005B05DF804FB000000B587B00190009156
:10C7CC0000230593384B03934FF482710198FFF7C4
:10C7DC006BFC4FF492710198FFF766FC4FF48E716D
:10C7EC000198FFF761FC4FF484710198FFF75CFC32
:10C7FC0000210198FFF7EFFC009B00225A63009B7D
:10C80C00002283F82F2020210198FFF73FFC009B8A
:10C81C0093F82D30012B03D008210198FFF736FC3B
:10C82C0000990198FFF76CFE009B1B68002B0DD044
:10C83C00009B40F286229A60009B9B6819460198E7
:10C84C00FFF759FC2AE0039B013B0393039B002B4E
:10C85C0006DD00990198FFF7DFFE0346002BF2D1AD
:10C86C00009B93F82F30002B0DD00198FFF782FC22
:10C87C000490049B002B04D00498FFF736FD059020
:10C88C0001E003230593039B002B07DC0198FFF7C2
:10C89C004FFC0198FFF743FC03230593059B1846B7
:10C8AC0007B05DF804FB00BFA086010000B587B09F
:10C8BC0001900091002305933D4B03934FF482713B
:10C8CC000198FFF7F1FB4FF492710198FFF7ECFB25
:10C8DC004FF48E710198FFF7E7FB4FF484710198C8
:10C8EC00FFF7E2FB009B00225A63009B002283F8B7
:10C8FC002F20009B9B6A012B0AD1009B1B6A03F023
:10C90C004003002B04D102210198FFF764FC03E0E3
:10C91C0001210198FFF75FFC20210198FFF7B6FB7E
:10C92C00009B93F82D30022B03D000210198FFF7C8
:10C93C00ADFB009B1B68002B0DD0009B40F28622A8
:10C94C009A60009B9B6819460198FFF7D4FB2AE07C
:10C95C00039B013B0393039B002B06DD009901987D
:10C96C00FFF75AFE0346002BF2D1009B93F82F30B1
:10C97C00002B0DD00198FFF7FDFB0490049B002BBE
:10C98C0004D00498FFF7B1FC059001E00323059354
:10C99C00039B002B07DC0198FFF7CAFB0198FFF7FC
:10C9AC00BEFB03230593059B184607B05DF804FBFB
:10C9BC00A086010030B587B00390029101920093DC
:10C9CC0000230593029B93F82D30012B05D1019B7D
:10C9DC001B78012B01D108236DE0029B93F82D30BD
:10C9EC00022B05D1019B1B78012B01D0082362E09F
:10C9FC0032490398FFF789FB029B93F83030DBB286
:10CA0C00002B09D0029B9B6819460398FFF773FB18
:10CA1C0011230593059B4EE0009B03F00403002BB0
:10CA2C000CBF01230023DAB2029B83F83020029B57
:10CA3C00009A1A62029B019A03F10C0415460FCD61
:10CA4C000FC42B682360019B5A68029B9A62019B5E
:10CA5C00DA68029B5A62019B5B7819460398FFF7D0
:10CA6C0097FB019B1B78012B17D0019B1B78002B8C
:10CA7C0004D1009B03F02003002B01D0012300E024
:10CA8C00002303F00103DAB2029B83F82C200299F5
:10CA9C000398FFF791FE059004E002990398FFF7C5
:10CAAC0005FF0590029B1B68002B03D1029B002203
:10CABC0083F83020059B184607B030BD8642040031
:10CACC0084B00190019B1B791A4613461B019B1ADB
