:100000000000042071030000590300005B0300009E
:100010005D0300005F0300006103000000000000BA
:10002000000000000000000000000000630300006A
:100030006503000000000000670300000F49000096
:100040006B0300006B030000011C0000C1320000C4
:100050006B0300006B0300006B0300006B030000E8
:10006000112300006B0300006B0300006B03000012
:100070006B0300006B0300006B0300006B030000C8
:100080006B0300006B0300006B0300006B030000B8
:100090006B0300006B0300006B0300006B030000A8
:1000A0006B0300006B0300006B0300006B03000098
:1000B0006B0300006B030000000000000000000064
:1000C0006B0300006B0300006B0300006B03000078
:1000D0006B0300006B0300006B0300006B03000068
:1000E0006B0300006B0300006B03000000000000C6
:1000F000000000006B030000000000006B03000024
:1001000000000000000000000000000000000000EF
:1001100000000000000000000000000000000000DF
:1001200000000000000000000000000000000000CF
:1001300000000000000000000000000000000000BF
:1001400000000000000000000000000000000000AF
:10015000000000000000000000000000000000009F
:10016000000000000000000000000000000000008F
:10017000000000000000000000000000000000007F
:10018000000000000000000000000000000000006F
:10019000000000000000000000000000000000005F
:1001A000000000000000000000000000000000004F
:1001B000000000000000000000000000000000003F
:1001C000000000000000000000000000000000002F
:1001D000000000000000000000000000000000001F
:1001E000000000000000000000000000000000000F
:1001F00000000000000000000000000000000000FF
:10020000344935480A1A02D0072291438D463349B2
:1002100033480A1A06D00722914381F30988022243
:1002200082F314882F483049304A00F041F83048B2
:100230003049314A00F03CF830483149314A00F049
:1002400037F831483149324A00F032F83148324902
:10025000324A00F02DF832483249334A00F028F88B
:1002600032483349334A00F023F8334833490022F7
:1002700000F029F832483349002200F024F83248CF
:100280003249091A04F072FB314A90471F4820494D
:10029000884205D00268043003B4904703BCF7E7F6
:1002A00000208646EC46002000212A4A9047FEE7BF
:1002B000884207D0521A05D0037801300B70013103
:1002C000013AF9D17047884202D002700130FAE752
:1002D000704700000000042000E00320000004201C
:1002E000000004205C5500000000002018000020E1
:1002F000CC030000CC030000804900005C550000E6
:100300000000002000000020C4490000C449000093
:10031000C4490000C4490000C4490000C4490000A9
:10032000C4490000C44900005C5500007455000039
:1003300018000020180000201800002034090020B8
:100340003409002034090020340900203429002019
:100350009903000049440000FEE7FEE7FEE7FEE7E0
:10036000FEE7FEE7FEE7FEE7FEE7FEE700F002B885
:10037000FFF7FCBF0F484FF00701884385460E4842
:1003800080470E48016841F470010160BFF34F8F50
:10039000BFF36F8FFFF734BF09480A490A4A884202
:1003A00007D0521A05D0037801300B700131013AA1
:1003B000F9D17047000004208D36000088ED00E080
:0C03C000C44900000000002000000020E4
:1003CC0000B583B001900091019B1B681B680099DC
:1003DC000198984700BF03B05DF804FB00B583B0EB
:1003EC000190019B1B685B680198984700BF03B0A4
:1003FC005DF804FB00B583B00190019B1B689B6802
:10040C000198984700BF03B05DF804FB82B00190DF
:10041C00019BDB6801225A7100BF02B0704782B0A9
:10042C000190019BDB685B79184602B070470000B5
:10043C00024A034BD31ADB0818467047B049000038
:10044C008049000084B00190009100238DF80F309A
:10045C00019B1B7803F00403DBB2002B24D0019B1F
:10046C001B78C3F30103DBB2012B02D0022B0CD09F
:10047C0017E0009B1B68019A1288C2F38312D2B258
:10048C0013449A1C009B1A600BE0009B1B68019A9A
:10049C005288C2F3891292B213449A1C009B1A60C0
:1004AC0000BF01238DF80F309DF80F30184604B0B3
:1004BC007047000000B58BB00023ADF826303E48E5
:1004CC0000F092FF3D4800F08FFF3D4B9B6804937A
:1004DC003C4B1B680693049A069B134002339B000B
:1004EC00374A13440433089304AB19460898FFF7B2
:1004FC00A9FF0346002B09D0049A069B1340023334
:10050C009B002F4A134404330893EDE700BF0023EC
:10051C00079311E0049B5A1C0492069A1340079A05
:10052C00920001A90A44264902339B000B445B68E4
:10053C001360079B01330793079B012BEAD99DF8A6
:10054C000430C3F30103DBB2012B10D0022B1CD1FE
:10055C00BDF80A30ADF82630BDF80630C3F3891368
:10056C009BB203339A08049B1344049313E0BDF825
:10057C000A30ADF82630BDF80430C3F38313DBB278
:10058C001A46049B1344049305E00F494FF4C270C0
:10059C0000F09DFE00BF094800F032FF0590059B5E
:1005AC00002B02D0049B064A9360BDF826301846F7
:1005BC000BB05DF804FB00BF00050020FC0400201C
:1005CC00E800002000000020C849000000B585B0FC
:1005DC000021074800F091FE0390039B0293029BBD
:1005EC0083F310030193019B184605B05DF804FBDF
:1005FC000405002000B589B003900291019200938C
:10060C00039B1B0C0793FFF7E1FF0690FFF710FF0E
:10061C000246079B934204D3214940F2A91000F0F3
:10062C0056FE069B1904009B5A1C0A9B1340079A02
:10063C000A431C4902339B000B445A60009A0A9BE4
:10064C00134002339B00174A134404330593039B56
:10065C0003F00703D9B2059A137861F3C50313703D
:10066C00019B03F00F03D9B2059A138861F3891328
:10067C001380029BC3F31501059A136861F39F2342
:10068C001360059A1378012161F301031370059A25
:10069C0013786FF38203137000BF09B05DF804FB8D
:1006AC00C8490000E800002000BF704700B58BB0BF
:1006BC000390029113468DF80730039B0233089385
:1006CC0001238DF81F30002000F0BAFD3E4B5A6814
:1006DC00029B1A603D4B1A683B4B99683A4B5B681E
:1006EC00CB1A13440133099314E00121384800F06C
:1006FC004BFEFFF7DFFE05900599354800F044FEF0
:10070C00324B1A68304B99682F4B5B68CB1A1344E9
:10071C0001330993089A099B9A42E6D89DF81F3039
:10072C00002B48D0002304939DF80730002B17D0E2
:10073C009DF81030012262F301038DF810309DF802
:10074C00103043F004038DF81030039B03F00F03BB
:10075C00DAB2BDF8103062F38913ADF8103016E040
:10076C009DF81030022262F301038DF810309DF8D1
:10077C00103043F004038DF81030039BC3F30903CE
:10078C009AB2BDF8123062F38F13ADF812300E4BE3
:10079C005A680E4B1B68134002339B000A4A1344E1
:1007AC0004330693049A069B1A60074B5A68089BFD
:1007BC001344054A5360002000F056FD9DF81F308D
:1007CC0018460BB05DF804FBE80000200000002088
:1007DC000405002000B58BB00590049103920293A0
:1007EC00204B1B68079306AB012219460298FFF7B2
:1007FC005DFF0346002B24D0069B02330993002394
:10080C00089311E0089B9B00039A1A44099B591CFE
:10081C00099107990B401268134902339B000B4452
:10082C005A60089B01330893089A029B9A42E9D3B9
:10083C00069A079B00931346029A04990598FFF7B2
:10084C00D9FE094B1B78002B05D000BF00F06AF8CD
:10085C000346002BFAD1FFF727FF00BF0BB05DF862
:10086C0004FB00BF00000020E800002000B583B0AE
:10087C00019000910023002200990198FFF7AAFF34
:10088C0000BF03B05DF804FB00B587B00390029184
:10089C000192019B059305AA012302990398FFF786
:1008AC0099FF00BF07B05DF804FB00B587B003905B
:1008BC00029101920093019B0493009B059304AA5F
:1008CC00022302990398FFF785FF00BF07B05DF87C
:1008DC0004FB00B58BB00390029101920093019B35
:1008EC000593009B06930C9B07930D9B08930E9B03
:1008FC00099305AA052302990398FFF76BFF00BF24
:10090C000BB05DF804FB0000054B9A68044B5B6868
:10091C009A420CBF01230023DBB21846704700BF7C
:10092C00E800002000B599B0FFF7EEFF0346002B5E
:10093C0001D00023B9E19B4B0022C3F81824BFF36C
:10094C004F8F00BF974B9B680493974B1B6810937A
:10095C00049A109B134002339B00924A13440433B5
:10096C001193002317930023169300230F9304ABCA
:10097C0019461198FFF766FD0346002B19D0894BD9
:10098C00D3F81834002B14D1864B5A68049B9A4226
:10099C0005D8844B5B68834A9360002385E1049AF5
:1009AC00109B134002339B007E4A13440433119373
:1009BC00DDE70023159311E0049B5A1C0492109A56
:1009CC001340159A920001A90A44764902339B0000
:1009DC000B445B681360159B01331593159B012B1E
:1009EC00EAD99DF8043003F00303DBB2022B40F08C
:1009FC009C80BDF80630C3F389139BB20D93BDF8F0
:100A0C000630C3F389139BB2502B28BF50239BB2E3
:100A1C000C930C9BC3F309039AB2BDF8063062F336
:100A2C008F13ADF806300C9B08330B939DF80430F4
:100A3C00C3F3C203DBB20F930B995C4800F090FD3B
:100A4C001790179B002B00F0D380179800F019FE1D
:100A5C0001A9169B0822179800F0CEFE169B0833AE
:100A6C001693049BDA43109B134001339B000A93AB
:100A7C000C9A0A9B9A4242D90A9B002B08D0049AE2
:100A8C00109B134002339B00464A1344043300E08E
:100A9C00474B08930A9B002B02D00A9BDBB201E068
:100AAC000C9BDBB28DF81F300A9B002B01D0404B06
:100ABC0000E0002306930A9B002B06D00C9BDAB2B5
:100ACC000A9BDBB2D31ADBB200E000238DF817309F
:100ADC009DF81F20169B0899179800F08DFE9DF825
:100AEC001F30169A13441693069B002B16D09DF8B4
:100AFC001720169B0699179800F07EFE0EE0049ABC
:100B0C00109B134002339B00264A13440433099371
:100B1C00169B0C9A0999179800F06EFE0D9B0333E7
:100B2C009A08049B1344049362E09DF8043003F08C
:100B3C000303DBB2012B5BD1BDF80430C3F3831389
:100B4C00DBB2062B28BF0623DAB2BDF8043062F301
:100B5C008913ADF80430BDF80430C3F38313DBB252
:100B6C0002330E939DF80430C3F3C203DBB20F9330
:100B7C000E9B9B0019460D4800F0F2FC1790179B3A
:100B8C00002B35D0179800F07CFD01A9169B08228C
:100B9C00179800F031FE169B08331693002315931B
:100BAC001DE000BFE800002000000020B04900005C
:100BBC00F4000020049B5A1C0492109A1340023338
:100BCC009B003C4A1344191D169B0422179800F0F5
:100BDC0013FE169B04331693159B01331593BDF826
:100BEC000430C3F38313DBB21A46159B9342E1D353
:100BFC00179B002B39D02F4BD3F8103414932D4B5B
:100C0C00D3F81834002B1BD0179800F049FD46E0A0
:100C1C0000238DF84F301498FFF701FC0346002B8E
:100C2C0002D001238DF84F309DF84F30002B03D0AC
:100C3C0017991498FFF7C4FB149BDB681B6814937B
:100C4C00149B002BE4D1179800F02AFD002000F033
:100C5C00F7FA184BD3F81834002B02D1049B154A21
:100C6C009360002000F000FB19E0124BD3F8103415
:100C7C00129306E01298FFF7BDFB129BDB681B6812
:100C8C001293129B002BF5D10B4A0C4BD31ADB0899
:100C9C001B0443F002030A491846FFF7E7FDFFF770
:100CAC0033FE034683F00103DBB2184619B05DF83E
:100CBC0004FB00BFE8000020A849000080490000A8
:100CCC00204A000000B583B00C4BD3F810340193CC
:100CDC000A4B01221A7009E00198FFF797FB019863
:100CEC00FFF77CFB019BDB681B680193019B002BCE
:100CFC00F2D100BF00BF03B05DF804FBE800002098
:100D0C0000B583B00190019B1B68184600F0E5F814
:100D1C000346002B04D10B494FF4F67000F0D7FAC0
:100D2C00019B1B681F2B02D84FF0A04306E0019BD0
:100D3C001B6803F01F02019B1A60034B184603B09B
:100D4C005DF804FB344A00000003005000B585B088
:100D5C000190084611461A4603468DF803300B469F
:100D6C008DF8023013468DF8013001AB1846FFF7B1
:100D7C00C7FF03909DF803209DF802305B001A43D7
:100D8C009DF801309B001A439DF818301B0242EA73
:100D9C0003019DF81C301B04019A1943039B02F5B7
:100DAC00E07243F8221000BF05B05DF804FB00B5FB
:100DBC0085B00390002301930023009300230122AC
:100DCC0001210398FFF7C2FF00BF05B05DF804FBDB
:100DDC0000B585B003900B468DF80B309DF80B30A9
:100DEC000022019200220092002200210398FFF7BA
:100DFC00ADFF00BF05B05DF804FB00B585B00190F8
:100E0C0001AB1846FFF77CFF0390019B012202FA0D
:100E1C0003F31946039800F04CF800BF05B05DF8D9
:100E2C0004FB00B585B0019001AB1846FFF768FFD5
:100E3C000390019B012202FA03F31946039800F078
:100E4C0042F800BF05B05DF804FB00B585B0019019
:100E5C0001AB1846FFF754FF0390039BD3F80435FE
:100E6C000293029BDA43019B012101FA03F31A401E
:100E7C00039BC3F80825019B01229A40029B1A4050
:100E8C00039BC3F80C2500BF05B05DF804FB00B54F
:100E9C0083B001900091009B002B03D10198FFF7C8
:100EAC00C0FF02E00198FFF7A8FF00BF03B05DF898
:100EBC0004FB82B001900091019B009AC3F80825B5
:100ECC0000BF02B0704782B001900091019B009A64
:100EDC00C3F80C2500BF02B0704784B00190019B91
:100EEC005B09029300230393029B002B03D0029B0C
:100EFC00012B04D007E04FF0FF33039303E04FF6D0
:100F0C00FF73039300BF019B03F01F030193039A2C
:100F1C00019B22FA03F303F00103002B14BF0123FE
:100F2C000023DBB2184604B07047000000B583B054
:100F3C000190019B032B03D90749472000F0C7F907
:100F4C00064A019B13441B7801211846FFF79FFFAB
:100F5C0000BF03B05DF804FB644A0000A44A000023
:100F6C0000B583B00023019305E00198FFF7DEFF85
:100F7C00019B01330193019B032BF6D900BF00BFEA
:100F8C0003B05DF804FB000000B583B00190019B39
:100F9C00032B03D907495F2000F099F9064A019BFE
:100FAC0013441B781846FFF750FF00BF03B05DF8E1
:100FBC0004FB00BF644A0000A44A000000B583B0E3
:100FCC000023019309E0094A019B13441B7818463E
:100FDC00FFF7EDFE019B01330193019B032BF2D92B
:100FEC00FFF7BEFF00BF03B05DF804FBA44A00008E
:100FFC0000B583B0002301930AE0094A019B134416
:10100C001B7803211846FFF7E3FE019B0133019384
:10101C00019B032BF1D900BF00BF03B05DF804FBAB
:10102C00A84A000000B583B00190019B03F00103B6
:10103C00002B01D0FFF7C2FF019B03F00203002B32
:10104C0001D0FFF7D5FF00BF03B05DF804FB000033
:10105C0086B003900291019201238DF817309DF810
:10106C001730204A039B13601E4A029B53601D4A93
:10107C00019B9360039B44F20102934212D0039BA9
:10108C0044F20202934220D1019B164AD360154BC5
:10109C00DB681B68134A9361124BDB685B68114A6F
:1010AC00D36112E0019B0F4A13610E4B1B699B68C5
:1010BC000C4A53610B4B1B691B680A4A9361094B21
:1010CC001B695B68074AD36100BF72B600BF00BFE3
:1010DC009DF81730DBB2002BFAD162B600BF00BF0F
:1010EC0006B070470805002000B583B0029000914F
:1010FC00019244F2010071466A4600F003F803B015
:10110C0000BD00BF30B58BB007900691059272B64A
:10111C0000BFFFF7D7FD00BFFFF704FC0346002B11
:10112C00FAD1079B44F20102934216D0079B44F27A
:10113C00020293423ED1059B09932C4A2C4BD31AA5
:10114C00DB081B0443F00100099B5B681A46099BF2
:10115C001B682849FFF7A9FB39E0059B0893234A34
:10116C00234BD31ADB081B0443F00104089B9D6836
:10117C00089B9B68184600F05DFB03461846089BCD
:10118C005B681946089B1B68069A029201930091B2
:10119C0003462A4618492046FFF79BFB134A144B7B
:1011AC00D31ADB081B0443F0010314491846FFF75C
:1011BC005DFB0CE00D4A0E4BD31ADB081B0443F00D
:1011CC000103069A0E491846FFF75EFB00BF0D4B54
:1011DC001B6803F00103002B00D000BE059A069992
:1011EC000798FFF735FF00BF0BB030BDA8490000D2
:1011FC0080490000AC4A0000C84A0000F04A0000D8
:10120C00044B0000F0ED00E072B600BF034B1B680E
:10121C000133024A136000BF704700BF280500204D
:10122C00064B1B68013B054A1360044B1B68002BE3
:10123C0001D162B600BF00BF704700BF2805002077
:10124C0000B583B0019000F025F80346012B03D0C4
:10125C000449432000F03BF8FFF7D6FF00BF03B072
:10126C005DF804FB1C4B000000B583B003468DF801
:10127C00073000F00FF80346012B03D0044951202E
:10128C0000F025F8FFF7CCFF00BF03B05DF804FBBE
:10129C001C4B000084B0EFF305830193019BC3F357
:1012AC0008030393039B002B0DD1EFF314830093DE
:1012BC00009B0293029B03F00103002B0CBF012344
:1012CC000023DBB200E00123184604B0704700B5E0
:1012DC0085B003460091ADF80630BDF80630029398
:1012EC00009B039302AB1A46002144F20200FFF765
:1012FC0009FF00BF05B05DF804FB10B487B0019086
:10130C000091019B009A53E8004F104643E80001FE
:10131C0091F0000FF7D1059404900391059B1846AA
:10132C0007B05DF8044B704710B487B00190009182
:10133C00019B009A53E8004F44EA020043E8000185
:10134C0091F0000FF6D1059404900391049B18467C
:10135C0007B05DF8044B704710B487B00190009152
:10136C00019B009A53E8004F04EA020043E8000195
:10137C0091F0000FF6D1059404900391059B18464B
:10138C0007B05DF8044B704710B487B00190009122
:10139C00019B009A53E8004F04EB020043E8000164
:1013AC0091F0000FF6D1059404900391049B18461C
:1013BC0007B05DF8044B704710B487B001900091F2
:1013CC00019B009A53E8004FA4EB020043E8000194
:1013DC0091F0000FF6D1059404900391049B1846EC
:1013EC0007B05DF8044B704700B583B00190012144
:1013FC000198FFF799FF0346184603B05DF804FB0C
:10140C0000B583B0019000210198FFF7A5FF0346BA
:10141C00184603B05DF804FB00B583B001900B4691
:10142C008DF80330019B002B03D10849E820FFF70E
:10143C004EFF019BDA689DF803300199098A01FB84
:10144C0003F31344184603B05DF804FB704B000023
:10145C0000B583B001900091019B002B03D108498A
:10146C00F520FFF734FF009B019AD2689B1A019A72
:10147C00128AB3FBF2F3DBB2184603B05DF804FB3F
:10148C00704B000000B585B00190019B002B04D17E
:10149C001C494FF49270FFF71AFF002303930020AE
:1014AC00FFF7CEFE019B1B681A68019B5B689A4292
:1014BC001FD9019B1B681A68013A1A601B681B78BC
:1014CC0019460198FFF7A8FF0390019B9A68019BAE
:1014DC001B681B68D31A8DF80B30019B1B681B799A
:1014EC009DF80B209A4204D9019B1B689DF80B2098
:1014FC001A710020FFF7B8FE039B184605B05DF883
:10150C0004FB00BF704B000010B584B0019000913B
:10151C00019B002B04D1114940F24710FFF7D7FE75
:10152C00009B002B04D10D494FF4A470FFF7CFFEA4
:10153C00009B03930020FFF783FE019B1B681C6834
:10154C00621C1A6003990198FFF782FF034623700F
:10155C000020FFF789FE00BF04B010BD704B0000E7
:10156C0000B58BB001900091019B1B8A043B079343
:10157C00009A079B1344DA1C079BB2FBF3F38DF81C
:10158C001B300198FFF77EFF0590059B002B01D1C6
:10159C00002338E0059B00221A71059B01225A7129
:1015AC00079B9AB2059BDA80059B09939DF81B302B
:1015BC00013B0493099B019A1A60002308931DE0D8
:1015CC000198FFF75FFF0390039B002B0ED0059B48
:1015DC005B790133DAB2059B5A71099B039A1A6045
:1015EC00039B019A1A60039B099304E0059800F091
:1015FC000EF8002307E0089B01330893089A049B1C
:10160C009A42DDD3059B18460BB05DF804FB00B580
:10161C008BB00190019B0793079B5B798DF81B3076
:10162C00019B08939DF81B30013B05930023099304
:10163C0005E0089B1B680893099B01330993099AE1
:10164C00059B9A42F5D3089B1B680493019B089356
:10165C00002309930BE0089B1B68039308990498DB
:10166C00FFF752FF039B0893099B013309939DF8E5
:10167C001B30099A9A42EED300BF00BF0BB05DF845
:10168C0004FB00B585B00190019B0393039B0433CD
:10169C0001211846FFF778FE00BF05B05DF804FB8A
:1016AC0000B587B00190019B0593059B0433012184
:1016BC001846FFF781FE0346039303AB0493049B88
:1016CC001B78002B02D10198FFF7A1FF00BF07B0D8
:1016DC005DF804FB00B591B0039002910192009368
:1016EC00039B002B03D14349B620FFF7F0FD039B6E
:1016FC000993039B0F93099BDB881A46099B5B7923
:10170C0002FB03F3043B0893009A089B9A4203D311
:10171C003849C420FFF7DBFD099BDB880793009B4E
:10172C001A1D079BB2FBF3F30E93009B0433079A2D
:10173C00B3FBF2F2079901FB02F29B1A0D93019B8A
:10174C001A68009B1344089A9A4203D2089A009B89
:10175C00D31A01E0019B1B680C93019B0C9A1A6035
:10176C0005E00F9B1B680F930E9B013B0E930E9B8A
:10177C00002BF6D100230B93079A0D9BD31A0A93D7
:10178C000A9A0C9B934228BF13460A932AE0029AAA
:10179C000B9B134406930F9A0D9B13440433059330
:1017AC009DF84830002B05D00A9A0599069803F04D
:1017BC00B1F804E00A9A0699059803F0ABF80023F7
:1017CC000D930F9B1B680F930C9A0A9BD31A0C93C7
:1017DC000B9A0A9B13440B93079A0C9B934228BFBA
:1017EC0013460A930C9B002BD1D100BF00BF11B044
:1017FC005DF804FBC04B000000B589B00590049166
:10180C0003920293039B079307AA00230093029B66
:10181C0004990598FFF75EFF079B039A9A4203D041
:10182C000349F620FFF753FD00BF09B05DF804FB38
:10183C00C04B000000B585B00190019800F00EF887
:10184C000390039B002B01D0039B00E0024B184636
:10185C0005B05DF804FB00BF104C000086B0019091
:10186C00164B0593164B04931FE0049A059BD31A51
:10187C00DB10DA0F13445B10DB00059A134403935F
:10188C00039B1B680293029A019B9A4202D9039B09
:10189C0004930AE0029A019B9A4203D2039B0833F9
:1018AC00059302E0039B5B6804E0059A049B9A4253
:1018BC00DBD30023184606B0704700BFE44F00008E
:1018CC00FC50000000B585B00190019B002B0AD0A4
:1018DC00074B43F001030393019B9B010293039B72
:1018EC000298984700E000BF05B05DF804FB00BF0C
:1018FC003051000000B583B00190019B1B68184665
:10190C0000F077F80346002B04D10B494FF4F67026
:10191C00FFF7DDFC019B1B681F2B02D84FF0A04387
:10192C0006E0019B1B6803F01F02019B1A60034B2E
:10193C00184603B05DF804FBFC5000000003005097
:10194C0000B585B0019001AB1846FFF7D3FF0390AB
:10195C00019B012202FA03F31946039800F035F8B3
:10196C0000BF05B05DF804FB00B585B0019001AB7C
:10197C001846FFF7BFFF0390019B012202FA03F305
:10198C001946039800F02BF800BF05B05DF804FB76
:10199C0000B585B0019001AB1846FFF7ABFF039083
:1019AC00039800F00AF80246019B22FA03F303F0B5
:1019BC000103184605B05DF804FB82B00190019B51
:1019CC00D3F81035184602B0704782B001900091E0
:1019DC00019B009AC3F8082500BF02B0704782B083
:1019EC0001900091019B009AC3F80C2500BF02B036
:1019FC00704784B00190019B5B0902930023039311
:101A0C00029B002B03D0029B012B04D007E04FF06C
:101A1C00FF33039303E04FF6FF73039300BF019B67
:101A2C0003F01F030193039A019B22FA03F303F0C3
:101A3C000103002B14BF01230023DBB2184604B0B2
:101A4C00704700B585B001904FF0A042019B1B6818
:101A5C0003F5E07340F20C6142F823104FF0A04202
:101A6C00019B5B6803F5E07340F20C6142F82310B4
:101A7C00019B1B681846FFF763FF019B5B681846C8
:101A8C00FFF75EFF4FF0A042019B1B6803F5E0736C
:101A9C0040F20D6142F823104FF0A042019B5B68AD
:101AAC0003F5E07340F20D6142F823100420FFF7B8
:101ABC0009FF002303931EE0019B5B681846FFF7A8
:101ACC0067FF0346002B03D0039B002B17D124E0A8
:101ADC00019B1B681846FFF747FF0420FFF7F2FE37
:101AEC00019B1B681846FFF72BFF0420FFF7EAFE4B
:101AFC00039B01330393039B082BDDDD00E000BF48
:101B0C00019B5B681846FFF72FFF0420FFF7DAFEF6
:101B1C00019B5B681846FFF713FF05B05DF804FBEB
:101B2C0000B589B001900091009B0793019B1B7835
:101B3C008DF80C30019B1B798DF81030019B5B7973
:101B4C008DF81130019B9B68DBB28DF81230019B34
:101B5C00DB68DBB28DF81330019B1B690593019B8D
:101B6C005B690693074A079B52F823300649079A8C
:101B7C0051F8221003AA1046984700BF09B05DF82F
:101B8C0004FB00BF2C0500203405002000B587B0F5
:101B9C000390029101920093039B1B7805931249C9
:101BAC00059B019A41F823201049059B009A41F8A6
:101BBC002320029B5B7B002B02D00298FFF741FF96
:101BCC0000230493039B181D019B002B01D0084A92
:101BDC0000E00022059B029900F062FE0490049B39
:101BEC00184607B05DF804FB2C05002034050020D6
:101BFC002D1B000008B5064B1B68002B03D10549B3
:101C0C005120FFF764FB024B1B68984700BF08BDCF
:101C1C003C0500203C51000082B00190019B044A1D
:101C2C00934201D1034B00E00023184602B07047E9
:101C3C00002000403C05002000B587B001900091C9
:101C4C00019B002B03D118497720FFF740FB01982B
:101C5C00FFF7E2FF0590059B002B1ED000238DF8AB
:101C6C0013300020FFF7ECFA059B1B79002B03D0F7
:101C7C0001238DF8133005E0059B009A1A60059B33
:101C8C0001221A710020FFF7EFFA9DF81330002B98
:101C9C0003D011230393039B02E000230393039BC4
:101CAC00184607B05DF804FB3C51000082B00346B7
:101CBC008DF807309DF90730002B0CDB9DF80730B1
:101CCC0003F01F0205499DF907305B09012000FA5A
:101CDC0002F241F8232000BF02B0704700E100E09F
:101CEC0082B0034600918DF807309DF90730002B28
:101CFC000ADB009BDAB20C499DF907305201D2B2D3
:101D0C000B4483F800230BE0009BDAB207499DF8E3
:101D1C00073003F00F03043B5201D2B20B441A7686
:101D2C0000BF02B0704700BF00E100E000ED00E032
:101D3C0082B00190019B1B0B5BB2184602B070473E
:101D4C0000B583B003460A468DF8073013468DF86C
:101D5C0006309DF80630072B03D908496B20FFF796
:101D6C00B6FA9DF806209DF9073011461846FFF784
:101D7C00B7FF00BF03B05DF804FB00BF8C5100003F
:101D8C0000B583B003468DF807309DF9073018462F
:101D9C00FFF78CFF00BF03B05DF804FB82B001902D
:101DAC000B468DF803309DF80330019A1344012241
:101DBC001A6000BF02B0704784B001900B46ADF8BA
:101DCC000230BDF80230019A134400221A60BDF8AB
:101DDC000230019A13441B680393039B00BF04B0A9
:101DEC00704782B001900B46ADF80230BDF802305E
:101DFC00019A13441B68002B14BF01230023DBB290
:101E0C00184602B0704782B001900091019BD3F844
:101E1C000022009B1A43019BC3F8002200BF02B0B2
:101E2C00704782B001900091019BD3F80022009B77
:101E3C00DB431A40019BC3F8002200BF02B070477D
:101E4C0082B001900091019B009AC3F8042300BF5B
:101E5C0002B0704782B001900091019B009AC3F8C8
:101E6C00082300BF02B0704782B001900091019B23
:101E7C00D3F80423009B1340002B14BF0123002331
:101E8C00DBB2184602B0704782B001900B468DF859
:101E9C000330019BD3F8043523F003029DF8033083
:101EAC0003F003031A43019BC3F8042500BF02B0DF
:101EBC00704782B001900B468DF80330019BD3F82C
:101ECC00083523F003029DF8033003F003031A4393
:101EDC00019BC3F8082500BF02B0704782B0019087
:101EEC000B468DF80330019BD3F8103523F00F020D
:101EFC009DF8033003F00F031A43019BC3F8102520
:101F0C0000BF02B0704784B003900B4601928DF86D
:101F1C000B309DF80B20039B02F5A872019943F836
:101F2C00221000BF04B0704782B00190019B9B004F
:101F3C0003F5A0739BB2184602B0704782B00190B3
:101F4C004FF48032019B02FA03F3184602B070473B
:101F5C0010B588B0039002910192039B1B791A462D
:101F6C0013465B0013449B00704A13440793029B77
:101F7C00002B03D16E494A20FFF7A9F9019B002BD6
:101F8C0003D16B494B20FFF7A2F9079B1B7A002B5F
:101F9C0003D008230593059BC4E0039B1B68654A8B
:101FAC0093420FD1029B9B78012B64D0029B9B78B0
:101FBC00002B60D0029B9B78022B5CD0029B9B7801
:101FCC00032B58D0039B1B685B4A93420FD1029B97
:101FDC009B78012B4FD0029B9B78002B4BD0029B04
:101FEC009B78022B47D0029B9B78032B43D0039BFF
:101FFC001B68524A93420FD1029B9B78012B3AD01B
:10200C00029B9B78002B36D0029B9B78022B32D004
:10201C00029B9B78032B2ED0039B1B68484A934250
:10202C000FD1029B9B78012B25D0029B9B78002B18
:10203C0021D0029B9B78022B1DD0029B9B78032BFB
:10204C0019D0039B1B683F4A93420FD1029B9B788C
:10205C00012B10D0029B9B78002B0CD0029B9B7801
:10206C00022B08D0029B9B78032B04D030495F20B5
:10207C00FFF72DF900E000BF079B019A1A60029B45
:10208C005A68079B5A6000238DF81B3010E0039BA5
:10209C001C689DF81B301846FFF746FF034619468F
:1020AC002046FFF789FE9DF81B3001338DF81B305D
:1020BC00039B5B799DF81B209A42E8D3039B1B681A
:1020CC001846FFF735FE03461A46029BDB78194685
:1020DC001046FFF735FE039B1B681846FFF728FEDA
:1020EC0003461846FFF74CFE039B1A68029B5B786D
:1020FC0019461046FFF7C8FE039B1A68029B9B7893
:10210C0019461046FFF7D5FE039B1A68029B1B78F5
:10211C0019461046FFF7E2FE079B01221A720023B4
:10212C000593059B184608B010BD00BF4405002060
:10213C00C4510000008000400090004000A000400E
:10214C0000A0014000B0014000B583B00190019B9C
:10215C001B791946114A0B465B000B449B00134438
:10216C0008331B78012B03D00D498F20FFF7AFF8F4
:10217C00019B1B6800211846FFF710FE019B1B7981
:10218C001946064A0B465B000B449B00134408336C
:10219C0002221A7000BF03B05DF804FB4405002056
:1021AC00C451000010B586B0039001921A460B463C
:1021BC008DF80B3013468DF80A309DF80B3018460D
:1021CC00FFF7BCFE05909DF80A30002B12D0039B44
:1021DC001C689DF80B301846FFF7A6FE03461946FF
:1021EC002046FFF7E9FD039B1B6805991846FFF78E
:1021FC0027FE05E0039B1B6805991846FFF72AFE8E
:10220C00039B1B689DF80B10019A1846FFF77BFE89
:10221C0000BF06B010BD00B585B0039001921A4600
:10222C000B468DF80B301346ADF80830039B18683D
:10223C009DF80B304FF480729A409DF80B300121C1
:10224C0001FA03F313431946FFF7EBFD039B1B68DD
:10225C00BDF8082011461846FFF7D5FD9DF818303B
:10226C009DF80B10019A0398FFF79CFF00BF05B077
:10227C005DF804FB00B587B00390029113468DF80E
:10228C00073000238DF8173030E09DF817301846D2
:10229C00FFF74AFE0346ADF814309DF81730184688
:1022AC00FFF74CFE0490BDF8143019460398FFF765
:1022BC0098FD0346002B14D004990398FFF7D4FD26
:1022CC000346002B0DD0BDF8143019460398FFF7C8
:1022DC0073FD029B1B68029A5168BDF814201046CE
:1022EC0098479DF8173001338DF817309DF817205B
:1022FC009DF807309A42C8D300BF00BF07B05DF805
:10230C0004FB000008B5042202490348FFF7B2FFA2
:10231C0000BF08BD440500200080004082B0034689
:10232C008DF807309DF90730002B0CDB9DF807303A
:10233C0003F01F0205499DF907305B09012000FAE3
:10234C0002F241F8232000BF02B0704700E100E028
:10235C0082B003468DF807309DF90730002B0DDB5A
:10236C009DF8073003F01F0206499DF907305B0901
:10237C00012000FA02F2603341F8232000BF02B0C2
:10238C00704700BF00E100E082B0034600918DF879
:10239C0007309DF90730002B0ADB009BDAB20C49A1
:1023AC009DF907305201D2B20B4483F800230BE0A5
:1023BC00009BDAB207499DF8073003F00F03043B8A
:1023CC005201D2B20B441A7600BF02B0704700BF64
:1023DC0000E100E000ED00E082B00190019B03F011
:1023EC006043B3F1005F0CBF01230023DBB218463E
:1023FC0002B0704782B00190019B1B0B5BB2184678
:10240C0002B0704700B583B003460A468DF807301A
:10241C0013468DF806309DF80630072B03D9084972
:10242C006B20FEF754FF9DF806209DF907301146EE
:10243C001846FFF7A9FF00BF03B05DF804FB00BF0F
:10244C001052000000B583B003468DF807309DF99B
:10245C0007301846FFF762FF00BF03B05DF804FBBE
:10246C0000B583B003468DF807309DF90730184648
:10247C00FFF76EFF00BF03B05DF804FB82B0019064
:10248C000B468DF803309DF80330019A134401225A
:10249C001A6000BF02B0704784B001900B46ADF8D3
:1024AC000230BDF80230019A134400221A60BDF8C4
:1024BC000230019A13441B680393039B00BF04B0C2
:1024CC00704782B001900B46ADF80230BDF8023077
:1024DC00019A13441B68002B14BF01230023DBB2A9
:1024EC00184602B0704782B001900091019B009A8F
:1024FC00C3F8042300BF02B0704782B00190009172
:10250C00019B009AC3F8082300BF02B0704782B049
:10251C000190019B0622C3F8002500BF02B0704752
:10252C0082B00190019B0022C3F8002500BF02B0CD
:10253C00704784B0039002910192039B029AC3F8F6
:10254C000825039B019AC3F80C2500BF04B0704703
:10255C0082B001900091019B009AC3F8242500BF22
:10256C0002B0704784B00190019BD3F8C43403933C
:10257C00019B039AC3F8C424039B184604B070470C
:10258C0082B001900B468DF803309DF80320019B1F
:10259C00C3F8882500BF02B0704784B00390029145
:1025AC000192029A039BC3F84425039B019AC3F83A
:1025BC00482500BF04B0704784B00390029101928B
:1025CC00029A039BC3F83425039B019AC3F8382560
:1025DC0000BF04B0704782B001900091019B009A3B
:1025EC00C3F8002200BF02B0704782B00190019B7B
:1025FC00D3F84C35184602B0704782B00190019B5D
:10260C00D3F80032184602B0704782B00190019B9B
:10261C00D3F83C35184602B0704782B00190019B4C
:10262C000122C3F8502500BF02B0704782B0019060
:10263C00019B0022C3F8502500BF02B0704782B046
:10264C000190019B0122C3F8402500BF02B07047E6
:10265C0082B00190019B0022C3F8402500BF02B05C
:10266C007047000000B583B00190019B1B681846B1
:10267C0000F04FF80346002B04D10B494FF4F670D1
:10268C00FEF725FE019B1B681F2B02D84FF0A043C1
:10269C0006E0019B1B6803F01F02019B1A60034BB1
:1026AC00184603B05DF804FB4052000000030050D4
:1026BC0000B585B00190084611461A4603468DF8C0
:1026CC0003300B468DF8023013468DF8013001AB08
:1026DC001846FFF7C7FF03909DF803209DF80230C2
:1026EC005B001A439DF801309B001A439DF818308B
:1026FC001B0242EA03019DF81C301B04019A19438A
:10270C00039B02F5E07243F8221000BF05B05DF8A0
:10271C0004FB84B00190019B5B090293002303939B
:10272C00029B002B03D0029B012B04D007E04FF03F
:10273C00FF33039303E04FF6FF73039300BF019B3A
:10274C0003F01F030193039A019B22FA03F303F096
:10275C000103002B14BF01230023DBB2184604B085
:10276C00704784B0019003230393019B03F0010392
:10277C00002B02D04FF402430393019B03F002039E
:10278C00002B02D048F201230393019B03F00403B6
:10279C00002B02D048F202230393039B184604B08B
:1027AC007047000000B585B00190009101238DF8B1
:1027BC000F30009B1B7B032B56D801A252F823F041
:1027CC00452800005D2800001D280000DD270000C2
:1027DC00009B9B6803F48023002B07D00198FFF724
:1027EC0004FF0246009B1B699A420DD1009B9B681B
:1027FC0003F48023002B39D10198FFF7F6FE024633
:10280C00009B5B699A4231D000238DF80F302DE08C
:10281C000198FFF7EAFE0246009B1B699A4207D11A
:10282C000198FFF7F2FE0246009B5B699A421FD0AB
:10283C0000238DF80F301BE00198FFF7D6FE0246FF
:10284C00009B1B699A4215D000238DF80F3011E0C4
:10285C000198FFF7DAFE0246009B1B699A420BD0E7
:10286C0000238DF80F3007E000BF06E000BF04E046
:10287C0000BF02E000BF00E000BF9DF80F3083F006
:10288C000103DBB2002B05D00198FFF749FE01983C
:10289C00FFF73DFE9DF80F30184605B05DF804FBC0
:1028AC0000B58BB00590049103920293049B002B0E
:1028BC0003D14A49E720FEF70AFD049B1A68049BE2
:1028CC005B689A4203D14549E820FEF700FD059B61
:1028DC001B791A46342302FB03F3414A1344089331
:1028EC00089B93F82D30002B03D008230793079BEC
:1028FC0070E0059B1A68059B1B791946394B53F8F8
:10290C00213019461046FFF797F90346002B03D0E8
:10291C0011230793079B5DE0089B039A1A60089BA1
:10292C00029A5A60089B00229A60089B002283F846
:10293C003020089B002283F82F20049B5A7B089B95
:10294C0083F83220049B186800230193062300931C
:10295C00032300220021FFF7ABFE049B58680023E1
:10296C00019306230093032300220021FFF7A0FE0E
:10297C00059B1B680993049B1968049B5B681A46AA
:10298C000998FFF7D6FD049B9B6819460998FFF739
:10299C00DFFD089B1B68002B15D0059B1B68184698
:1029AC00FFF728FD03461A46049B1B7B194610466D
:1029BC00FFF728FD059B1B681846FFF71BFD034618
:1029CC001846FFF73FFD089B012283F82D200023BA
:1029DC000793079B18460BB05DF804FB7852000078
:1029EC0050050020C452000000B585B00190019B39
:1029FC001B791A46342302FB03F30D4A1344039349
:102A0C00039B93F82D30012B04D00A4940F24F1050
:102A1C00FEF75DFC019B1B681846FFF778FD039BD6
:102A2C00022283F82D2000BF05B05DF804FB00BF27
:102A3C00500500207852000084B00190019B1B7956
:102A4C001A46342302FB03F3044A13440393039BF7
:102A5C0093F82F30DBB2184604B0704750050020B5
:102A6C0000B583B001900091009B03F00103002B93
:102A7C0003D00198FFF7D1FD02E00198FFF7D6FDD6
:102A8C00009B03F00203002B03D00198FFF7D7FD46
:102A9C0002E00198FFF7DCFD00BF03B05DF804FB1A
:102AAC0030B589B0039002910192009300230793F3
:102ABC0008238DF81B30039B002283F82E20019BEA
:102ACC00DB681846FFF788FC034683F00103DBB292
:102ADC00002B03D010230793079BFDE19D4902981F
:102AEC00FFF70BFD039B93F82F30DBB2002B09D0C3
:102AFC00039B9B6819460298FFF7F5FC112307937B
:102B0C00079BE9E1009B03F00403002B06D1009B1B
:102B1C0003F01003002B01D1012300E0002303F08C
:102B2C000103DAB2039B83F82F20039B019A03F174
:102B3C000C0415460FCD0FC42B682360009B1B099A
:102B4C0003F00103002B14BF01230023DAB2039B13
:102B5C0083F83020039B009A1A62019B5B7819461C
:102B6C000298FFF70DFD4FF482710298FFF794FC69
:102B7C004FF492710298FFF78FFC4FF4B0710298EA
:102B8C00FFF78AFC4FF4A4710298FFF785FC0099BB
:102B9C000298FFF765FF019B1B78032B00F2DE8088
:102BAC0001A252F823F000BFE72C00002F2D0000EB
:102BBC008F2C0000C52B0000009B03F01003002B92
:102BCC0004D065494FF4D970FEF781FB009B03F0EC
:102BDC000803002B04D0604940F2B310FEF777FBDA
:102BEC00009B03F00403002B04D05B494FF4DA7014
:102BFC00FEF76DFB019B1B691846FFF7EDFB0346C7
:102C0C0083F00103DBB2002B03D010230793079B47
:102C1C0062E14FF480710298FFF7DDFC019BD968EB
:102C2C00019B5B681A460298FFF7B7FC4FF4A8713A
:102C3C000298FFF731FC20210298FFF71FFC0821B6
:102C4C000298FFF71BFC00BF4FF4A8710298FFF726
:102C5C0038FC034683F00103DBB2002BF4D14FF4B4
:102C6C00A8710298FFF718FC019B1969019B9B68DE
:102C7C001A460298FFF791FC039B4FF480229A604E
:102C8C006FE0019BD968019B5B681A460298FFF7BD
:102C9C0084FC019B1B691846FFF79EFB034683F0DF
:102CAC000103DBB2002B03D010230793079B13E126
:102CBC00019B1969019B9B681A460298FFF77CFCE3
:102CCC004FF484510298FFF786FC039B02229A6012
:102CDC0020210298FFF7D2FB43E0019BD968019BAE
:102CEC005B681A460298FFF758FC009B03F0200320
:102CFC00002B09D04FF480710298FFF76CFC039BFA
:102D0C004FF480229A6007E04FF400710298FFF7AD
:102D1C0062FC039B02229A6020210298FFF7AEFB13
:102D2C001FE0019BD968019B5B681A460298FFF76C
:102D3C0043FC4FF480510298FFF74DFC039B022299
:102D4C009A6000238DF81B3020210298FFF796FB28
:102D5C0007E000BF02029C01785200000723079392
:102D6C0000BF009B03F00803002B09D1019B1B78CB
:102D7C00032B05D09DF81B3019460298FFF77EFBFC
:102D8C00039B1B68002B1FD0009B03F00403002B3C
:102D9C0002D0039B00229A60009B03F04003002B9F
:102DAC0005D1039B9B6843F00202039B9A60039B33
:102DBC009B6843F40072039B9A60039B9B681946C3
:102DCC000298FFF790FB86E000238DF81A304FF441
:102DDC00A4710298FFF775FB0346002B02D0012368
:102DEC008DF81A304FF482710298FFF76AFB034694
:102DFC00002B07D04FF482710298FFF74DFB012393
:102E0C008DF81A304FF492710298FFF75AFB034673
:102E1C00002B38D04FF492710298FFF73DFB4FF422
:102E2C00B0710298FFF74DFB03468DF819300298EC
:102E3C00FFF7E3FB05909DF8193083F00103DBB23B
:102E4C00002B04D1059B03F40073002B0AD1202125
:102E5C000298FFF713FB14210298FFF70FFB0023D6
:102E6C008DF81A309DF81930002B0CD0059B03F40B
:102E7C008073002B07D04FF4A4710298FFF70CFB62
:102E8C0000238DF81A309DF81A3083F00103DBB261
:102E9C00002B9CD10298FFF765FB0490039B00224A
:102EAC0083F82F20049B002B04D00498FFF759FCC7
:102EBC00079010E0009B03F04003002B0BD103990B
:102ECC000298FFF76FFC034683F00103DBB2002B83
:102EDC0001D003230793079B184609B030BD00BFF0
:102EEC0000B587B0039002910192039B1B79002BD4
:102EFC0009D1029B5B68B3F5803F04D2029B9B68AF
:102F0C00B3F5803F04D31B4940F26A20FEF7DFF98A
:102F1C0000230593039B1B791A46342302FB03F30E
:102F2C00154A13440493049B1B68002B08D1029B85
:102F3C001B78022B04D10F4940F27220FEF7C7F91F
:102F4C00049B1B68002B08D1029B1B78032B04D11C
:102F5C00084940F27320FEF7BAF9039B1968019BEC
:102F6C00029A0498FFF79CFD0590059B184607B044
:102F7C005DF804FB785200005005002000B58BB0C2
:102F8C000390019200930B468DF80B3000238DF8C3
:102F9C0014309DF80B308DF81530009B06930023F0
:102FAC000793019B0893002309939DF83030002B65
:102FBC0001D0202200E0002205AB19460398FFF750
:102FCC008FFF034618460BB05DF804FB00B58BB0C1
:102FDC000390019200930B468DF80B3001238DF872
:102FEC0014309DF80B308DF81530009B06930023A0
:102FFC000793019B08930023099305AB0022194604
:10300C000398FFF76DFF034618460BB05DF804FB01
:10301C0030B58BB001900091009B1B68002B04D144
:10302C00A24940F2C120FEF752F94FF49271019877
:10303C00FFF747FA0346002B3ED04FF492710198EC
:10304C00FFF72AFA4FF482710198FFF73AFA034618
:10305C0083F00103DBB2002B2ED0009B9B6819463A
:10306C000198FFF74AFA009B02229A60009B9B682A
:10307C0019460198FFF737FA4FF4B0710198FFF732
:10308C0020FA034683F00103DBB2002B07D1019831
:10309C00FFF7B3FA034603F40073002B07D120218A
:1030AC000198FFF7EBF914210198FFF7E7F9009B62
:1030BC00012283F82E20F6E04FF482710198FFF77D
:1030CC0000FA0346002B5DD04FF482710198FFF794
:1030DC00E3F9009B1B6A03F04003002B1AD1009B01
:1030EC0093F82E3083F00103DBB2002B12D0009941
:1030FC000198FFF757FB0346002B14BF0123002355
:10310C00DBB283F00103DBB203F00103DAB2009B04
:10311C0083F82E20009B1B6A03F00403002B79D14B
:10312C00009B04AC03F10C050FCD0FC42B6823607E
:10313C004FF4B0710198FFF7AFF94FF4AE710198ED
:10314C00FFF7AAF9009B93F8303083F00103DBB250
:10315C00002B04D1009B93F82E30002B5AD0002169
:10316C000198FFF738FA009B00229A6050490198A9
:10317C00FFF7C3F90198FFF73DF903461846FFF72F
:10318C006FF947E04FF4A4710198FFF785F9009BA4
:10319C001B7B002B22D1009B04AC03F10C050FCD43
:1031AC000FC42B682360009B93F8303083F001032D
:1031BC00DBB2002B2ED000210198FFF70CFA009BFC
:1031CC0000229A603A490198FFF797F90198FFF7A6
:1031DC0011F903461846FFF743F91BE04FF4007151
:1031EC000198FFF7F8F9009B40F202229A603049EF
:1031FC000198FFF782F9009B9B6819460198FFF72D
:10320C0072F908210198FFF739F920210198FFF78D
:10321C0035F948E00198FFF7A5F90990099B03F0EF
:10322C000203002B03D001238DF80C301DE0099B09
:10323C0003F00403002B03D002238DF80C3014E0B0
:10324C00099B03F00103002B03D003238DF80C30F2
:10325C000BE0009B93F82E30002B03D004238DF849
:10326C000C3002E000238DF80C30009B93F83030CA
:10327C0083F00103DBB2002B03D0009B002283F808
:10328C002F20009B1B6A03F00403002B04D0009B2F
:10329C0093F82E30002B06D0009B1B68009A5168C7
:1032AC0003AA104698470BB030BD00BF78520000FF
:1032BC0002029C0108B503490348FFF7A9FE00BFB1
:1032CC0008BD00BF5005002000300040BFF34F8FF9
:1032DC0000BF064BDB6803F4E0620449044B134364
:1032EC00CB60BFF34F8F00BF00BFFDE700ED00E0E8
:1032FC000400FA0582B0164B1B680193154B1B6832
:10330C000093019B082B1FD1009B052B1AD801A2FF
:10331C0052F823F0393300003D33000041330000F4
:10332C0045330000493300004D33000001230CE00D
:10333C0001230AE0012308E0012306E0012304E055
:10334C00012302E0012300E00023184602B070477D
:10335C00300100103401001082B0164B1B68019331
:10336C00154B1B680093019B082B1FD1009B052B51
:10337C001AD801A252F823F09D330000A1330000AB
:10338C00A5330000A9330000AD330000B1330000B9
:10339C0001230CE001230AE0012308E0012306E0ED
:1033AC00012304E0012302E0012300E0002318467E
:1033BC0002B07047300100103401001082B0164B7F
:1033CC001B680193154B1B680093019B082B1FD1A5
:1033DC00009B052B1AD801A252F823F001340000EF
:1033EC0005340000093400000D34000011340000D5
:1033FC001534000001230CE000230AE0002308E050
:10340C00002306E0002304E0002302E0002300E098
:10341C000023184602B07047300100103401001030
:10342C0082B0164B1B680193154B1B680093019BD4
:10343C00082B1FD1009B052B1AD801A252F823F0A0
:10344C0065340000693400006D34000071340000F4
:10345C00753400007934000001230CE000230AE0ED
:10346C00002308E0002306E0002304E0002302E030
:10347C00002300E00023184602B070473001001012
:10348C003401001082B0164B1B680193154B1B685E
:10349C000093019B082B1FD1009B052B1AD801A26E
:1034AC0052F823F0C9340000CD340000D1340000B0
:1034BC00D5340000D9340000DD34000001230CE0C9
:1034CC0000230AE0002308E0002306E0002304E0C8
:1034DC00002302E0002300E00023184602B07047EE
:1034EC00300100103401001082B0164B1B680193A0
:1034FC00154B1B680093019B082B1FD1009B052BC0
:10350C001AD801A252F823F02D35000031350000F5
:10351C0035350000393500003D35000041350000DF
:10352C0001230CE000230AE0002308E0002306E05E
:10353C00002304E0002302E0002300E000231846EF
:10354C0002B07047300100103401001082B0164BED
:10355C001B680193154B1B680093019B082B1FD113
:10356C00009B052B1AD801A252F823F091350000CC
:10357C0095350000993500009D350000A1350000FF
:10358C00A535000001230CE001230AE0012308E02B
:10359C00012306E0012304E0012302E0012300E003
:1035AC000023184602B0704730010010340100109F
:1035BC0082B0164B1B680193154B1B680093019B43
:1035CC00082B1FD1009B052B1AD801A252F823F00F
:1035DC00F5350000F9350000FD350000013600001E
:1035EC00053600000936000000230CE000230AE039
:1035FC00002308E0002306E0012304E0012302E09D
:10360C00012300E00023184602B07047300100107F
:10361C003401001008B5FFF7CBFF0346002B07D091
:10362C004FF010234FF08042D3F80832C2F85835CF
:10363C0000BF08BD00BF044BD3F80034002BFAD0F8
:10364C0000BF00BF704700BF00E0014000B583B071
:10365C000190054A019BC2F80435FFF7EBFF00BF50
:10366C0003B05DF804FB00BF00E00140024B034ACD
:10367C001A6000BF704700BF040000200090D00308
:10368C0008B5FFF737FE0346002B0ED04FF08043F2
:10369C000022C3F80C214FF080430022C3F8102104
:1036AC004FF080430022C3F83825FFF755FE034640
:1036BC00002B76D04FF08053734AD3F80434C2F801
:1036CC0020354FF08053704AD3F80834C2F82435B3
:1036DC004FF080536C4AD3F80C34C2F828354FF0B5
:1036EC008053694AD3F81034C2F82C354FF080530C
:1036FC00654AD3F81434C2F830354FF08053624A1F
:10370C00D3F81834C2F834354FF080535E4AD3F8EE
:10371C001C34C2F840354FF080535B4AD3F8203448
:10372C00C2F844354FF08053574AD3F82434C2F8CA
:10373C0048354FF08053544AD3F82834C2F84C35EE
:10374C004FF08053504AD3F82C34C2F850354FF018
:10375C0080534D4AD3F83034C2F854354FF080536F
:10376C00494AD3F83434C2F860354FF08053464A96
:10377C00D3F83834C2F864354FF08053424AD3F84A
:10378C003C34C2F868354FF080533F4AD3F840348C
:10379C00C2F86C354FF080533B4AD3F84434C2F82E
:1037AC007035FFF70BFE0346002B02D0374B384A1F
:1037BC001A60FFF735FE0346002B03D0354BFB2276
:1037CC00C3F81825FFF75EFE0346002B0AD0324BD8
:1037DC001B6823F00F02314B1B6803F00F032E49BB
:1037EC0013430B60FFF780FE0346002B03D02C4BDA
:1037FC004FF400721A60FFF7A9FE0346002B0DD0A0
:10380C004FF08043D3F8003403F00103002B05D0B4
:10381C004FF080436FF00102C3F80024214BD3F822
:10382C008830204A43F47003C2F88830BFF34F8FBE
:10383C0000BFBFF36F8F00BFFFF7ECFE4FF01023FC
:10384C00D3F80032002B05DB4FF01023D3F80432F1
:10385C00002B15DA0120FFF7F9FE4FF0102312228E
:10386C00C3F80022FFF7E6FE4FF010231222C3F834
:10387C000422FFF7DFFE0020FFF7E8FEFFF726FD2E
:10388C00FFF7F4FE00BF08BD00C000408C5600409E
:10389C004881030000F00040E40E00405802001084
:1038AC004096024000ED00E082B001900091019B37
:1038BC00002B0ED0019BDB68002B0AD0009B002B49
:1038CC0007D0019BDB68D968019BDB68009A0A442E
:1038DC00DA6000BF02B0704782B001900B468DF8E1
:1038EC000330019B002B08D0019BDB68002B04D01C
:1038FC00019BDB689DF803205A7000BF02B0704733
:10390C0082B001900091009B502B04D9019BDB6885
:10391C00009A5A6003E0019BDB6850225A6000BF9A
:10392C0002B0704700B589B00190019B002B00F0EC
:10393C002081019BDB68002B00F01B81019B1B6825
:10394C00002B00F01681019B5B68002B00F01181AD
:10395C00019BDB681B78032B00F2148101A252F847
:10396C0023F000BF81390000BB390000013A000090
:10397C006D3A0000019BDB681B7A002B0ED0019B7B
:10398C00DB68DB68182B40F2F680019BDB680022B9
:10399C001A72019BDB6801221A70ECE0019BDB6858
:1039AC000022DA60019BDB6801221A72E3E0019BC2
:1039BC00DB681B7A002B0ED0019BDB68DB68182BB5
:1039CC0040F2DB80019BDB6800221A72019BDB68F2
:1039DC0002221A70D1E0019B1B6801226B4938202E
:1039EC009847019BDB680022DA60019BDB680122AF
:1039FC001A72C2E0019BDB681B7A002B21D0019B61
:103A0C00DB68DB68182B40F2BA80019BDB68002274
:103A1C001A72019BDB685B78012B0DD1019B1B6833
:103A2C0003225B4938209847019BDB680022DA604F
:103A3C00019BDB6801221A72019BDB6803221A705E
:103A4C009DE0019B1B680322524938209847019B3B
:103A5C00DB680022DA60019BDB6801221A728EE0BF
:103A6C00019BDB681B7A002B67D0019BDB68DB6852
:103A7C004F2B40F28680002303930023ADF81030C7
:103A8C00019B5B6803A90622382098479DF80C30EF
:103A9C005BB2002B4CDB4FF0000307934FF000039D
:103AAC0006939DF80F301B0403F470229DF8103020
:103ABC001B0213439DF8112013430593059B07EE3E
:103ACC00903AF8EE677A9FED347A27EE877ADFED3D
:103ADC00336AC7EE267A9FED327A77EEC77ACDED50
:103AEC00077A9DF80D301A039DF80E301B01134315
:103AFC009DF80F201209D2B213430593059B07EED4
:103B0C00903AF8EE677A9FED277A27EE877ADFED09
:103B1C00236AC7EE267ACDED067A019B9B68002BB3
:103B2C0006D0019B9B68DDED060A9DED070A9847C0
:103B3C00019BDB6800221A7223E0019BDB685B7837
:103B4C00012B1ED1019BDB68DA68019BDB685B688B
:103B5C009A4216D3019B1B6803220D4938209847C3
:103B6C00019BDB680022DA60019BDB6801221A7280
:103B7C0007E000BF06E000BF04E000BF02E000BFAA
:103B8C0000E000BF00BF09B05DF804FB100000208E
:103B9C000C00002008000020000048430000804971
:103BAC00000048420000C842034BDB681B0A03F0CC
:103BBC0007031846704700BF00ED00E082B00346D3
:103BCC0000918DF807309DF90730002B0ADB009B24
:103BDC00DAB20C499DF907305201D2B20B4483F88A
:103BEC0000230BE0009BDAB207499DF8073003F085
:103BFC000F03043B5201D2B20B441A7600BF02B041
:103C0C00704700BF00E100E000ED00E088B00390D9
:103C1C0002910192039B03F007030793079BC3F1E7
:103C2C000703032B28BF03230693079B0333062BA1
:103C3C0002D9079B043B00E0002305930122069B5D
:103C4C0002FA03F35A1E029B1A40059B9A4001216B
:103C5C00059B01FA03F3591E019B0B4013431846B5
:103C6C0008B0704700B583B00190019B013BB3F1E4
:103C7C00807F01D301230FE0094A019B013B536074
:103C8C0007214FF0FF30FFF799FF054B00229A6098
:103C9C00034B07221A600023184603B05DF804FB9F
:103CAC0010E000E000B587B00346029101928DF858
:103CBC000F3000230593FFF777FF0590019A0299C7
:103CCC000598FFF7A3FF02469DF90F3011461846E1
:103CDC00FFF774FF00BF07B05DF804FB00B583B0BD
:103CEC0001900198FFF7BEFF0346184603B05DF83C
:103CFC0004FB000000B583B001900F4B1B680F4A0A
:103D0C00A2FB03239B091846FFF7E8FF0346002B91
:103D1C0001D000230BE0019B072B07D8002201994F
:103D2C004FF0FF30FFF7BEFF012300E000231846E1
:103D3C0003B05DF804FB00BF04000020D34D6210FB
:103D4C00034B1B680133024A136000BF704700BF6E
:103D5C008405002082B003468DF807309DF80720BB
:103D6C0041491346DB0013449B000B4420330022D3
:103D7C001A609DF807203C491346DB0013449B0056
:103D8C000B441C3300221A609DF807203649134659
:103D9C00DB0013449B000B44183300221A609DF87F
:103DAC00072031491346DB0013449B000B441433AA
:103DBC0000221A609DF807202B491346DB001344A0
:103DCC009B000B44103300221A609DF807202649F3
:103DDC001346DB0013449B000B440C3300221A6087
:103DEC009DF8072020491346DB0013449B000B442D
:103DFC00093300221A709DF807201B491346DB007B
:103E0C0013449B000B44083300221A709DF80720C2
:103E1C0015491346DB0013449B000B44043300226A
:103E2C001A609DF8072010491346DB0013449B00D1
:103E3C000B441B78052B0AD19DF807200A49134621
:103E4C00DB0013449B000B4406221A7009E09DF81A
:103E5C00072005491346DB0013449B000B4400224A
:103E6C001A7000BF02B070478C05002000B583B0FB
:103E7C0003468DF807309DF8072049491346DB00AF
:103E8C0013449B000B441C331B68002B15D09DF86E
:103E9C00072043491346DB0013449B000B441C339F
:103EAC0019689DF807203E481346DB0013449B001D
:103EBC00034420331B68184688479DF8072038496F
:103ECC001346DB0013449B000B4409331B78002B77
:103EDC001ED19DF807109DF8072031480B46DB00DA
:103EEC000B449B000344143319682D481346DB0024
:103EFC0013449B000344183319609DF8072028498C
:103F0C001346DB0013449B000B4402221A7042E060
:103F1C009DF8072022491346DB0013449B000B44F9
:103F2C000C331B68012B31D99DF807109DF8072025
:103F3C001B480B46DB000B449B00034414331968ED
:103F4C0017481346DB0013449B00034418331960D5
:103F5C009DF8072012491346DB0013449B000B44C9
:103F6C0002221A709DF807200D491346DB001344FA
:103F7C009B000B440C331B68591E09481346DB008D
:103F8C0013449B0003440C33196004E09DF8073084
:103F9C001846FFF7DFFE00BF03B05DF804FB00BF5F
:103FAC008C050020084B1B680133074A1360064B35
:103FBC001B68002B04D1044B1B680133024A1360AD
:103FCC00014B1B68184670478805002000B583B06C
:103FDC00FFF7E8FF019000238DF8033036E0002353
:103FEC008DF8023000238DF802302BE09DF8022072
:103FFC001C491346DB0013449B000B441B78002B1D
:10400C0018D09DF8022017491346DB0013449B007F
:10401C000B4404331A68144B1B689A4206D1FFF701
:10402C00C1FF019000238DF803300FE001238DF8C0
:10403C00033002E001238DF803309DF80230013388
:10404C008DF802309DF80230182BCFD99DF8033033
:10405C0083F00103DBB2002BC1D1019B184603B0E6
:10406C005DF804FB8C0500208805002000BF70471C
:10407C0000BF704710B586B00390029101928DF885
:10408C00033000238DF8173000238DF8173097E09C
:10409C009DF817204F491346DB0013449B000B443B
:1040AC001B78002B40F087809DF817204949134658
:1040BC00DB0013449B000B4401221A709DF817205F
:1040CC0044491346DB0013449B000B442033099AEC
:1040DC001A609DF817203F491346DB0013449B00E0
:1040EC000B441C33089A1A609DF817203949134663
:1040FC00DB0013449B000B441833019A1A609DF8A3
:10410C00172034491346DB0013449B000B44143333
:10411C00019A1A609DF817202E491346DB001344B0
:10412C009B000B441033029A1A609DF81720294902
:10413C001346DB0013449B000B440C33039A1A60A8
:10414C009DF81720039BD8B222491346DB00134479
:10415C009B000B44093302461A709DF817201D4929
:10416C001346DB0013449B000B4408339DF80320DB
:10417C001A709DF81740FFF729FF02461549234690
:10418C00DB0023449B000B4404331A609DF817207A
:10419C0010491346DB0013449B000B4402221A7097
:1041AC009DF817200B491346DB0013449B000B446E
:1041BC0004331B680AE09DF8173001338DF8173073
:1041CC009DF81730182B7FF663AF0023184606B006
:1041DC0010BD00BF8C05002000B587B00590049180
:1041EC00029313468DF80F309DF80F20089B019316
:1041FC00029B00931346049A00210598FFF73AFF9F
:10420C000346184607B05DF804FB000000B585B006
:10421C000190FFF72BFF00238DF80F3000238DF852
:10422C000F30A2E09DF80F2055491346DB001344D4
:10423C009B000B441B78022B0BD09DF80F20504990
:10424C001346DB0013449B000B441B78052B40F0FA
:10425C0087809DF80F204A491346DB0013449B00CE
:10426C000B4410331B68019A9A4216D29DF80F200A
:10427C0043491346DB0013449B000B44103319686D
:10428C009DF80F20019BC91A3D481346DB001344CF
:10429C009B0003441033196062E09DF80F203849ED
:1042AC001346DB0013449B000B4410331B68002B9C
:1042BC000BD09DF80F2032491346DB0013449B00B2
:1042CC000B44103300221A604AE09DF80F202C4951
:1042DC001346DB0013449B000B4418331B68019AF4
:1042EC009A4216D29DF80F2025491346DB00134441
:1042FC009B000B44183319689DF80F20019BC91AB9
:10430C001F481346DB0013449B0003441833196009
:10431C0026E09DF80F201A491346DB0013449B003E
:10432C000B44183300221A609DF80F2014491346D1
:10433C00DB0013449B000B4408331B78002B05D186
:10434C009DF80F301846FFF791FD09E09DF80F20FE
:10435C000B491346DB0013449B000B4404221A70D8
:10436C009DF80F3001338DF80F309DF80F30182B5E
:10437C007FF658AFFFF77CFE00BF05B05DF804FB7D
:10438C008C05002000B585B003468DF807309DF8EC
:10439C000730002B2FD000238DF80F3000238DF821
:1043AC000F3024E09DF80F2015491346DB00134411
:1043BC009B000B441B78042B13D19DF80F20104944
:1043CC001346DB0013449B000B4408331B789DF809
:1043DC0007209A4206D19DF80F301846FFF746FD8C
:1043EC0000E000BF9DF80F3001338DF80F309DF8C1
:1043FC000F30182BD6D900BF05B05DF804FB00BFF9
:10440C008C05002000B583B001900B4B1B7818462F
:10441C00FCF7BAFD084B1B780133DAB2064B1A7065
:10442C00054B1B78042B02D1034B00221A7000BFE2
:10443C0003B05DF804FB00BF1009002000B583B089
:10444C000120FFF757FC00F045FA00F04FFA01206D
:10445C00FCF7E8FD00F00CFA00230093054BFF225B
:10446C007D210020FFF7B8FE00F022FA00F043FA9D
:10447C00FAE700BF1144000000B583B00190019B26
:10448C0004331846FEF7B0FA00BF03B05DF804FB26
:10449C0000B589B0059003921A460B468DF813307F
:1044AC0013468DF8123000230793059B181D9DF8B9
:1044BC0012209DF813109DF8283000931346039A90
:1044CC00FEF75CFD0790079B184609B05DF804FBEE
:1044DC0000B587B0039001921A460B468DF80B304D
:1044EC0013468DF80A3000230593039B181D9DF885
:1044FC000A309DF80B10019AFEF768FD0590059B9C
:10450C00184607B05DF804FB00B585B00190002398
:10451C008DF80F30019B04331846FEF78DFA0346D5
:10452C008DF80F309DF80F30184605B05DF804FB80
:10453C0082B001900091019B1B78002B03D1044B9E
:10454C0001221A7000E000BF00BF02B0704700BF2C
:10455C001109002000B583B000230A4A0A490B4810
:10456C00FDF714FB0190019B0093009B002B04D0E2
:10457C00074A35210098FCF7B7FD00BF03B05DF882
:10458C0004FB00BF3D4500004054000030540000C7
:10459C005054000008B50248FFF76EFF00BF08BD7D
:1045AC003054000000B587B0034602918DF80F30EF
:1045BC0013468DF80E30124B00221A709DF80E30F7
:1045CC009DF80F1000220092029A0E48FFF760FF30
:1045DC000590059B0493049B002B04D00A4A4C21A4
:1045EC000498FCF781FD00BF0648FFF78DFF0346DA
:1045FC00002BF9D100BF184607B05DF804FB00BFD3
:10460C0011090020305400005054000000B585B052
:10461C00034600918DF8073013468DF80630114B88
:10462C0000221A709DF806309DF80710009A0E486B
:10463C00FFF74EFF0390039B0293029B002B04D0C9
:10464C000A4A58210298FCF74FFD00BF0648FFF7B5
:10465C005BFF0346002BF9D100BF184605B05DF88F
:10466C0004FB00BF1109002030540000505400001E
:10467C0082B00190019BD3F81035DBB2184602B022
:10468C00704700002DE9F04F87B001908DF80310B2
:10469C009DF803100591019900200E4607463046FF
:1046AC0039464FF0000A4FF0000B4FEA411B4BEA22
:1046BC00D06B4FEA401A50465946821B61EB0703F8
:1046CC004FF000004FF00001990041EA9271900008
:1046DC0002460B4612EB060843EB07094FF00002AB
:1046EC004FF000034FEAC91343EA58634FEAC8126C
:1046FC009046994642464B460599C1F12006A1F1D8
:10470C00200022FA01F403FA06F6344323FA00F0EF
:10471C00044323FA01F5CDE90245DDE90223012B1F
:10472C0004D305494FF43170FCF7D1FD029B1846B8
:10473C0007B0BDE8F08F00BFAC54000000B583B0EB
:10474C0001900091019B1B681846FFF791FF0346EF
:10475C0019460098FFF796FF0346184603B05DF81C
:10476C0004FB000000B583B003460091ADF80630A1
:10477C00BDF80630B3F5A07F0AD1094B1B68002B9E
:10478C0008D0074B1B68074A12681046984701E08F
:10479C0000BF00E000BF00BF03B05DF804FB00BF2A
:1047AC00140900201400002000B58BB003900023E6
:1047BC00099300230893039B002B02D0164A039BFA
:1047CC001360164A05AB92E8030083E8030005ABBF
:1047DC00134A19461348FDF7BBFB0890089B079337
:1047EC00079B002B04D0104A3B210798FCF77CFC5C
:1047FC00094B1B6819460B48FFF7A0FF09900123D2
:10480C0000930123099A00210648FDF704FD00BF1F
:10481C000BB05DF804FB00BF140000203C550000F9
:10482C007147000044550000DC54000082B0019038
:10483C00024A019B136000BF02B0704714090020AC
:10484C0008B50248FDF780FC00BF08BD44550000C8
:10485C0082B08DED010ACDED000A044A019B136074
:10486C00024A009B536000BF02B070471809002039
:10487C0008B5FFF76FFEFFF78DFE01210448FFF727
:10488C002BF84FF4FA710248FFF73AF800BF08BD55
:10489C004C55000000B583B0019001990348FFF717
:1048AC0003F800BF03B05DF804FB00BF4C550000DB
:1048BC0008B50248FFF736F800BF08BD4C5500009C
:1048CC0000B583B001900198FFF7A0FC00BF03B0C6
:1048DC005DF804FB08B50120FFF766FF0248FFF7FF
:1048EC00A5FF00BF08BD00BFCD48000008B5FFF70D
:1048FC00A7FF00BF08BD08B5FF20FFF743FD00BFB1
:10490C0008BD08B5FFF71CFA0120FFF7C3FF00BF75
:10491C0008BD0000844640EA010313F0030F16D1D2
:10492C008446202A0AD32DE9F007B1E8F807A0E85D
:10493C00F807203A202AF8D2BDE8F007042A06D35B
:10494C0051F8043B40F8043B043A042AF8D22AB14B
:10495C0011F8013B00F8013B013AF9D16046704770
:10496C00072904D90023024AC0E9003110607047BE
:04497C0030090020DE
:104980003851000000000000BC5100000000000091
:1049900070520000000000002853000000000000DA
:1049A000DC53000000000000C449000000000303C5
:1049B000E00000201800002020000020200000203F
:0449C00018000000DB
:1049C40061707000453A5C446576656C6F706D6526
:1049D4006E745C44726F69645C4E6F726469635C8C
:1049E40053444B5C6E5246355C636F6D706F6E65FD
:1049F4006E74735C6C69627261726965735C6C6F0E
:104A0400675C7372635C6E72665F6C6F675F66721D
:104A14006F6E74656E642E63000000004261636B08
:104A2400656E647320666C757368656400000000CD
:104A34002E2E2F2E2E2F2E2E2F53444B2F6E5246BA
:104A4400352F6D6F64756C65732F6E7266782F6881
:104A5400616C2F6E72665F6770696F2E680000006C
:104A6400453A5C446576656C6F706D656E745C4444
:104A7400726F69645C4E6F726469635C53444B5C2F
:104A84006E5246355C636F6D706F6E656E74735CE9
:104A9400626F617264735C626F617264732E63002F
:104AA4000D0E0F100B0C1819415353455254494F16
:104AB4004E204641494C45442061742025733A25D3
:104AC400750000004552524F52202575205B257316
:104AD4005D2061742025733A25750D0A50432061C9
:104AE400743A20307825303878000000456E642010
:104AF4006F66206572726F72207265706F727400D7
:104B0400554E4B4E4F574E204641554C54206174E0
:104B14002030782530385800453A5C446576656C19
:104B24006F706D656E745C44726F69645C4E6F7215
:104B34006469635C53444B5C6E5246355C636F6DD1
:104B4400706F6E656E74735C6C69627261726965B4
:104B5400735C7574696C5C6170705F7574696C5FAB
:104B6400706C6174666F726D2E630000453A5C442C
:104B74006576656C6F706D656E745C44726F6964A4
:104B84005C4E6F726469635C53444B5C6E52463591
:104B94005C636F6D706F6E656E74735C6C6962726A
:104BA40061726965735C62616C6C6F635C6E726682
:104BB4005F62616C6C6F632E63000000453A5C4475
:104BC4006576656C6F706D656E745C44726F696454
:104BD4005C4E6F726469635C53444B5C6E52463541
:104BE4005C636F6D706F6E656E74735C6C6962721A
:104BF40061726965735C6D656D6F626A5C6E726625
:104C04005F6D656D6F626A2E63000000556E6B6E9A
:104C14006F776E206572726F7220636F6465000037
:104C24004E52465F53554343455353004E52465FDD
:104C34004552524F525F5356435F48414E444C4590
:104C4400525F4D495353494E470000004E52465F50
:104C54004552524F525F534F46544445564943457B
:104C64005F4E4F545F454E41424C454400000000A6
:104C74004E52465F4552524F525F494E5445524E32
:104C8400414C00004E52465F4552524F525F4E4FC8
:104C94005F4D454D000000004E52465F4552524F55
:104CA400525F4E4F545F464F554E44004E52465F3E
:104CB4004552524F525F4E4F545F535550504F52CE
:104CC400544544004E52465F4552524F525F494E3E
:104CD40056414C49445F504152414D004E52465F4B
:104CE4004552524F525F494E56414C49445F5354CA
:104CF400415445004E52465F4552524F525F494E11
:104D040056414C49445F4C454E475448000000000E
:104D14004E52465F4552524F525F494E56414C499E
:104D2400445F464C414753004E52465F4552524FF2
:104D3400525F494E56414C49445F4441544100003E
:104D44004E52465F4552524F525F444154415F5365
:104D5400495A45004E52465F4552524F525F54499C
:104D64004D454F55540000004E52465F4552524F38
:104D7400525F4E554C4C00004E52465F4552524FC6
:104D8400525F464F5242494444454E004E52465F9C
:104D94004552524F525F494E56414C49445F41443B
:104DA400445200004E52465F4552524F525F4255A4
:104DB400535900004E52465F4552524F525F4D4F79
:104DC40044554C455F4E4F545F494E495449414CFC
:104DD400495A4544000000004E52465F4552524F26
:104DE400525F4D555445585F494E49545F464149B9
:104DF4004C4544004E52465F4552524F525F4D550A
:104E04005445585F4C4F434B5F4641494C45440021
:104E14004E52465F4552524F525F4D555445585F6E
:104E2400554E4C4F434B5F4641494C4544000000AE
:104E34004E52465F4552524F525F4D555445585F4E
:104E4400434F4E445F494E49545F4641494C4544A3
:104E5400000000004E52465F4552524F525F4D4F84
:104E640044554C455F414C52454144595F494E4974
:104E74005449414C495A4544000000004E52465F93
:104E84004552524F525F53544F524147455F465526
:104E94004C4C00004E52465F4552524F525F4150B7
:104EA400495F4E4F545F494D504C454D454E544516
:104EB400440000004E52465F4552524F525F4645F1
:104EC40041545552455F4E4F545F454E41424C4507
:104ED400440000004E52465F4552524F525F494FC4
:104EE4005F50454E44494E47000000004E52465F15
:104EF4004552524F525F4452565F5457495F455290
:104F0400525F4F56455252554E0000004E52465F76
:104F14004552524F525F4452565F5457495F45526F
:104F2400525F414E41434B004E52465F4552524FF1
:104F3400525F4452565F5457495F4552525F444E44
:104F440041434B004E52465F4552524F525F424CD2
:104F5400455F495053505F52585F504B545F545211
:104F6400554E4341544544004E52465F4552524FBC
:104F7400525F424C455F495053505F4348414E4E47
:104F8400454C5F414C52454144595F45584953543F
:104F9400530000004E52465F4552524F525F424CFE
:104FA400455F495053505F4C494E4B5F444953430E
:104FB4004F4E4E4543544544000000004E52465F58
:104FC4004552524F525F424C455F495053505F50D7
:104FD4004545525F52454A4543544544000000004C
:104FE40000000000244C000001000000304C0000D0
:104FF40002000000504C000003000000744C00004C
:1050040004000000884C0000050000009C4C0000D7
:1050140006000000B04C000007000000C84C00006F
:1050240008000000E04C000009000000F84C0000FB
:105034000A000000144D00000B0000002C4D00007D
:105044000C000000444D00000D000000584D00000D
:105054000E0000006C4D00000F0000007C4D0000AD
:1050640010000000904D000011000000A84D000049
:1050740080000000B84D000081000000DC4D0000FD
:1050840082000000F84D000083000000144E000070
:1050940084000000344E000085000000584E0000DB
:1050A40086000000804E000090000000984E000032
:1050B40091000000B84E000092000000D84E00009D
:1050C40000820000F04E000001820000104F00003A
:1050D400028200002C4F000000840000484F0000B2
:1050E400018400006C4F000002840000984F00000F
:1050F40003840000C04F00002E2E2F2E2E2F2E2EA4
:105104002F53444B2F6E5246352F6D6F64756C656B
:10511400732F6E7266782F68616C2F6E72665F678C
:1051240070696F2E68000000000000000338FDD88D
:105134007047000050525300453A5C446576656CF4
:105144006F706D656E745C44726F69645C4E6F72EF
:105154006469635C53444B5C6E5246355C6D6F64AA
:10516400756C65735C6E7266785C64726976657280
:10517400735C7372635C7072735C6E7266785F707A
:1051840072732E63000000002E2E2F2E2E2F2E2E33
:105194002F53444B2F6E5246352F696E74656772D8
:1051A4006174696F6E2F6E7266782F6E7266785FA7
:1051B400676C75652E68000054494D455200000027
:1051C400453A5C446576656C6F706D656E745C44DD
:1051D400726F69645C4E6F726469635C53444B5CC8
:1051E4006E5246355C6D6F64756C65735C6E726689
:1051F400785C647269766572735C7372635C6E72F8
:1052040066785F74696D65722E6300002E2E2F2EF2
:105214002E2F2E2E2F53444B2F6E5246352F696E50
:10522400746567726174696F6E2F6E7266782F6E23
:105234007266785F676C75652E6800002E2E2F2EBF
:105244002E2F2E2E2F53444B2F6E5246352F6D6F1B
:1052540064756C65732F6E7266782F68616C2F6E3F
:1052640072665F6770696F2E680000005457494D7D
:1052740000000000453A5C446576656C6F706D65AE
:105284006E745C44726F69645C4E6F726469635CD3
:1052940053444B5C6E5246355C6D6F64756C65733C
:1052A4005C6E7266785C647269766572735C737244
:1052B400635C6E7266785F7477696D2E63000000BC
:1052C400C13200002E2E2F2E2E2F2E2E2F53444B64
:1052D4002F6E5246352F696E746567726174696FFB
:1052E4006E2F6E7266782F6E7266785F676C756566
:1052F4002E6800002E2E2F2E2E2F2E2E2F53444B91
:105304002F6E5246352F6D6F64756C65732F6E72F8
:1053140066782F68616C2F6E72665F6770696F2E96
:10532400680000005541525400000000453A5C44B6
:105334006576656C6F706D656E745C44726F6964DC
:105344005C4E6F726469635C53444B5C6E524635C9
:105354005C6D6F64756C65735C6E7266785C6472A8
:1053640069766572735C7372635C6E7266785F757E
:105374006172742E630000002E2E2F2E2E2F2E2EDF
:105384002F53444B2F6E5246352F696E74656772E6
:105394006174696F6E2F6E7266782F6E7266785FB5
:1053A400676C75652E6800002E2E2F2E2E2F2E2E44
:1053B4002F53444B2F6E5246352F6D6F64756C65B9
:1053C400732F6E7266782F68616C2F6E72665F67DA
:1053D40070696F2E6800000055415254450000006A
:1053E400453A5C446576656C6F706D656E745C44BB
:1053F400726F69645C4E6F726469635C53444B5CA6
:105404006E5246355C6D6F64756C65735C6E726666
:10541400785C647269766572735C7372635C6E72D5
:1054240066785F75617274652E6300000000000089
:105434000030004000000000010000001B000000DC
:105444001A0000000000980102000000453A5C4484
:105454006576656C6F706D656E745C44726F6964BB
:105464005C4E6F726469635C50726F6A65637473D7
:105474005C6E5246355C546573745461736B5C5353
:105484006F75726365735C4170706C696361746994
:105494006F6E5C496E74657266616365735C6966A0
:1054A4005F747769302E63002E2E2F2E2E2F2E2E12
:1054B4002F53444B2F6E5246352F6D6F64756C65B8
:1054C400732F6E7266782F68616C2F6E72665F74CC
:1054D400696D65722E680000453A5C446576656CBA
:1054E4006F706D656E745C44726F69645C4E6F724C
:1054F4006469635C50726F6A656374735C6E524670
:10550400355C546573745461736B5C536F7572636B
:1055140065735C4170706C69636174696F6E5C493A
:105524006E74657266616365735C69665F687774DF
:10553400696D6572302E63000000030600000000F0
:105544000080004000040000B1450000194600003E
:085554005D4800002009002061
:10555C00FF0000000090D003E1080000AC33000015
:08556C00BA000000010000007C
:040000030000037185
:00000001FF
