:100000000000042071030000590300005B0300009E
:100010005D0300005F0300006103000000000000BA
:10002000000000000000000000000000630300006A
:100030006503000000000000670300002BAE000015
:10004000C92900006B03000015370000AD710000E6
:100050006B0300006B0300000D3600006B03000013
:10006000C9630000E16300006B0300006B03000044
:100070006B0300006B0300006B0300006B030000C8
:100080006B030000E17900006B0300006B030000CC
:100090006B0300006B030000457200006B0300005F
:1000A0006B0300006B0300006B0300006B03000098
:1000B0006B0300006B030000000000000000000064
:1000C0006B0300006B0300006B0300006B03000078
:1000D0006B030000555B00006B0300006B03000026
:1000E0006B0300006B0300006B03000000000000C6
:1000F000000000006B030000000000006B03000024
:1001000000000000000000000000000000000000EF
:1001100000000000000000000000000000000000DF
:1001200000000000000000000000000000000000CF
:1001300000000000000000000000000000000000BF
:1001400000000000000000000000000000000000AF
:10015000000000000000000000000000000000009F
:10016000000000000000000000000000000000008F
:10017000000000000000000000000000000000007F
:10018000000000000000000000000000000000006F
:10019000000000000000000000000000000000005F
:1001A000000000000000000000000000000000004F
:1001B000000000000000000000000000000000003F
:1001C000000000000000000000000000000000002F
:1001D000000000000000000000000000000000001F
:1001E000000000000000000000000000000000000F
:1001F00000000000000000000000000000000000FF
:10020000344935480A1A02D0072291438D463349B2
:1002100033480A1A06D00722914381F30988022243
:1002200082F314882F483049304A00F041F83048B2
:100230003049314A00F03CF830483149314A00F049
:1002400037F831483149324A00F032F83148324902
:10025000324A00F02DF832483249334A00F028F88B
:1002600032483349334A00F023F8334833490022F7
:1002700000F029F832483349002200F024F83248CF
:100280003249091A0AF0D2FE314A90471F482049E4
:10029000884205D00268043003B4904703BCF7E7F6
:1002A00000208646EC46002000212A4A9047FEE7BF
:1002B000884207D0521A05D0037801300B70013103
:1002C000013AF9D17047884202D002700130FAE752
:1002D000704700000000042000E00320000004201C
:1002E0000000042030860D00000000208400002063
:1002F000CC030000CC03000040B0000030860D00AD
:10030000000000200000002024B1000024B1000003
:1003100024B1000024B1000024B1000024B1000089
:1003200024B1000024B1000030860D00B4860D0019
:10033000840000208400002084000020602C002025
:10034000602C0020602C0020602C0020604C0020DD
:100350009903000065A10000FEE7FEE7FEE7FEE767
:10036000FEE7FEE7FEE7FEE7FEE7FEE700F002B885
:10037000FFF7FCBF0F484FF00701884385460E4842
:1003800080470E48016841F470010160BFF34F8F50
:10039000BFF36F8FFFF734BF09480A490A4A884202
:1003A00007D0521A05D0037801300B700131013AA1
:1003B000F9D1704700000420E98D000088ED00E0CD
:0C03C00024B1000000000020000000201C
:1003CC0000B5A1B00590049103920293049808F033
:1003DC008EF9039B1593029B16930023179300230E
:1003EC008DF8603000231993229B1A9300231F93DE
:1003FC000FA91F9B0822049808F052FA08231F9398
:10040C00119B1293BDF84030ADF84C30BDF8423022
:10041C00ADF84E3000238DF851309DF83C3003F090
:10042C000303DBB2012B26D10F9BC3F395231C9343
:10043C009DF83C30C3F3C203DBB28DF85030BDF8ED
:10044C003C30C3F38313DBB21B931B9B9A0009A9AB
:10045C001F9B049808F024FA1B9B9B001F9A1344C3
:10046C001F9312AA09A915AB009313461B9A1C984B
:10047C0000F002FF2FE09DF83C3003F00303DBB2E9
:10048C00022B28D1BDF83E30C3F389139BB21E93C7
:10049C009DF83C30C3F3C203DBB28DF850301E9B89
:1004AC00082B28BF08231D9307A91F9B1D9A04988E
:1004BC0008F0F6F91F9A1D9B13441F931E9A1D9B5F
:1004CC00D31A1E9315AB12AA07A81D9900F076FF3C
:1004DC001E9B002BE3D1049808F018F900BF21B043
:1004EC005DF804FB00B583B00190019B1B781A46A4
:1004FC000C4B9B5C002B05D0019B0433184604F07D
:10050C00FBFB0BE0019B1B781A46064B9B5C002BFC
:10051C0004D1019B0C33184603F06AFD00BF03B0F5
:10052C005DF804FB9006002000B587B003900291A3
:10053C0013468DF8073000230593039B1B781A464E
:10054C00114B9B5C002B09D0039B04339DF80720B7
:10055C000299184604F032FC05900FE0039B1B78BF
:10056C001A46094B9B5C002B08D1039B0C339DF85E
:10057C0007200299184603F0B3FD0590059B184619
:10058C0007B05DF804FB00BF9006002082B001901C
:10059C000091034B01221A7000BF02B0704700BFDC
:1005AC00C400002030B58DB003468DF807301A4BCF
:1005BC0002AC1D460FCD0FC495E80F0084E80F0068
:1005CC00062302934FF0FF3303934FF0FF33049352
:1005DC004FF0FF3305934FF0EB7308939DF8073002
:1005EC00002B01D00D4A00E0002202AB19460C484A
:1005FC0001F05AFE0B900B9B0A930A9B002B04D024
:10060C00084A43210A9806F021FF074A9DF8073053
:10061C00137000BF0DB030BD80B100009905000013
:10062C000000002024B10000C500002000B589B0F6
:10063C00039002910192019B8DF81F30124B002206
:10064C001A709DF81F301A4602991048FFF76CFF7C
:10065C000690069B0593059B002B04D00C4A532156
:10066C00059806F0F3FE00BF0A4B1B78002B07D051
:10067C00054B1B78DBB283F00103DBB2002BF3D10B
:10068C0000BF09B05DF804FBC4000020000000208E
:10069C0024B10000C500002000B585B00390029184
:1006AC00054B00934023054A02990398FFF788FEF7
:1006BC0000BF05B05DF804FB390600008400002083
:1006CC0082B0019000BF02B07047000000B583B04B
:1006DC0001900548FFF706FF0020FFF763FF00BFFE
:1006EC0003B05DF804FB00BF0000002000B583B030
:1006FC0001900091019B1B681B6800990198984719
:10070C0000BF03B05DF804FB00B583B00190019B02
:10071C001B685B680198984700BF03B05DF804FB49
:10072C0000B583B00190019B1B689B6801989847AA
:10073C0000BF03B05DF804FB82B00190019BDB6845
:10074C0001225A7100BF02B0704782B00190019B28
:10075C00DB685B79184602B070470000024A034B15
:10076C00D31ADB081846704714B1000084B000009F
:10077C0000B587B001900B468DF803309DF803301F
:10078C00002B1FD0FFF7EAFF04900023059313E022
:10079C00059B9B000E4A13440393039B1B881A462C
:1007AC00019B1B689A4204D1019B059A1A60002395
:1007BC0009E0059B01330593059A049B9A42E7D304
:1007CC00052300E00023184607B05DF804FB00BFCA
:1007DC000000002000B585B001900B468DF8033069
:1007EC009DF8032001AB11461846FFF7C1FF0346E5
:1007FC00002B07D1019BDB00054A13440393039B99
:10080C001B6800E00023184605B05DF804FB00BF30
:10081C0084B0000084B001900B468DF80330019B2E
:10082C00DB00174A134402939DF80330013B032B62
:10083C001CD801A252F823F0550800005D080000F6
:10084C00650800006F08000002238DF80F3011E0DE
:10085C0004238DF80F300DE0029B1B798DF80F30BF
:10086C0008E0029B5B798DF80F3003E000238DF8D4
:10087C000F3000BF9DF80F30184604B0704700BF12
:10088C0084B0000084B00190009100238DF80F30EB
:10089C00019B1B7803F00403DBB2002B24D0019BDB
:1008AC001B78C3F30103DBB2012B02D0022B0CD05B
:1008BC0017E0009B1B68019A1288C2F38312D2B214
:1008CC0013449A1C009B1A600BE0009B1B68019A56
:1008DC005288C2F3891292B213449A1C009B1A607C
:1008EC0000BF01238DF80F309DF80F30184604B06F
:1008FC007047000000B58BB00023ADF826303E48A1
:10090C0007F0CBF93D4807F0C8F93D4B9B680493C1
:10091C003C4B1B680693049A069B134002339B00C6
:10092C00374A13440433089304AB19460898FFF76D
:10093C00A9FF0346002B09D0049A069B13400233EF
:10094C009B002F4A134404330893EDE700BF0023A8
:10095C00079311E0049B5A1C0492069A1340079AC1
:10096C00920001A90A44264902339B000B445B68A0
:10097C001360079B01330793079B012BEAD99DF862
:10098C000430C3F30103DBB2012B10D0022B1CD1BA
:10099C00BDF80A30ADF82630BDF80630C3F3891324
:1009AC009BB203339A08049B1344049313E0BDF8E1
:1009BC000A30ADF82630BDF80430C3F38313DBB234
:1009CC001A46049B1344049305E00F494FF4C2707C
:1009DC0007F00EF800BF094807F06BF90590059B6E
:1009EC00002B02D0049B064A9360BDF826301846B3
:1009FC000BB05DF804FB00BFB0050020AC05002077
:100A0C00980100201C00002024B2000000B585B025
:100A1C000021074807F0B2F80390039B0293029B56
:100A2C0083F310030193019B184605B05DF804FB9A
:100A3C00B405002000B589B0039002910192009397
:100A4C00039B1B0C0793FFF7E1FF0690FFF786FE55
:100A5C000246079B934204D3214940F2A91006F0A9
:100A6C00C7FF069B1904009B5A1C0A9B1340079A4C
:100A7C000A431C4902339B000B445A60009A0A9BA0
:100A8C00134002339B00174A134404330593039B12
:100A9C0003F00703D9B2059A137861F3C5031370F9
:100AAC00019B03F00F03D9B2059A138861F38913E4
:100ABC001380029BC3F31501059A136861F39F23FE
:100ACC001360059A1378012161F301031370059AE1
:100ADC0013786FF38203137000BF09B05DF804FB49
:100AEC0024B200009801002000BF704700B58DB003
:100AFC000390029113468DF80730039B02330A933F
:100B0C0001238DF8273000238DF81B300DF11B03CA
:100B1C00184606F0D3FE404B5A68029B1A603F4BB6
:100B2C001A683D4B99683C4B5B68CB1A13440133F4
:100B3C000B9314E001213A4807F07FF8FFF7DAFE37
:100B4C0007900799364807F078F8344B1A68324BFF
:100B5C009968314B5B68CB1A134401330B930A9A97
:100B6C000B9B9A42E6D89DF82730002B48D00023E7
:100B7C0005939DF80730002B17D09DF814300122F7
:100B8C0062F301038DF814309DF8143043F0040324
:100B9C008DF81430039B03F00F03DAB2BDF8143058
:100BAC0062F38913ADF8143016E09DF8143002226C
:100BBC0062F301038DF814309DF8143043F00403F4
:100BCC008DF81430039BC3F309039AB2BDF81630A9
:100BDC0062F38F13ADF816300F4B5A680F4B1B682E
:100BEC00134002339B000C4A134404330893059AB8
:100BFC00089B1A60084B5A680A9B1344064A5360B8
:100C0C009DF81B30184606F06FFE9DF827301846ED
:100C1C000DB05DF804FB00BF980100201C00002003
:100C2C00B405002000B58BB005900491039202939B
:100C3C00204B1B68079306AB012219460298FFF75D
:100C4C0055FF0346002B24D0069B02330993002347
:100C5C00089311E0089B9B00039A1A44099B591CAA
:100C6C00099107990B401268134902339B000B44FE
:100C7C005A60089B01330893089A029B9A42E9D365
:100C8C00069A079B00931346029A04990598FFF75E
:100C9C00D1FE094B1B78002B05D000BF00F06AF881
:100CAC000346002BFAD1FFF71FFF00BF0BB05DF816
:100CBC0004FB00BF1C0000209801002000B583B08D
:100CCC00019000910023002200990198FFF7AAFFE0
:100CDC0000BF03B05DF804FB00B587B00390029130
:100CEC000192019B059305AA012302990398FFF732
:100CFC0099FF00BF07B05DF804FB00B587B0039007
:100D0C00029101920093019B0493009B059304AA0A
:100D1C00022302990398FFF785FF00BF07B05DF827
:100D2C0004FB00B58BB00390029101920093019BE0
:100D3C000593009B06930C9B07930D9B08930E9BAE
:100D4C00099305AA052302990398FFF76BFF00BFCF
:100D5C000BB05DF804FB0000054B9A68044B5B6814
:100D6C009A420CBF01230023DBB21846704700BF28
:100D7C009801002000B599B0FFF7EEFF0346002B59
:100D8C0001D00023C0E19B4B0022C3F81824BFF311
:100D9C004F8F00BF974B9B680493974B1B68109326
:100DAC00049A109B134002339B00924A1344043361
:100DBC001193002317930023169300230F9304AB76
:100DCC0019461198FFF75EFD0346002B19D0894B8D
:100DDC00D3F81834002B14D1864B5A68049B9A42D2
:100DEC0005D8844B5B68834A936000238CE1049A9A
:100DFC00109B134002339B007E4A1344043311931F
:100E0C00DDE70023159311E0049B5A1C0492109A01
:100E1C001340159A920001A90A44764902339B00AB
:100E2C000B445B681360159B01331593159B012BC9
:100E3C00EAD99DF8043003F00303DBB2022B40F037
:100E4C009C80BDF80630C3F389139BB20D93BDF89B
:100E5C000630C3F389139BB2502B28BF50239BB28F
:100E6C000C930C9BC3F309039AB2BDF8063062F3E2
:100E7C008F13ADF806300C9B08330B939DF80430A0
:100E8C00C3F3C203DBB20F930B995C4807F09EFBD4
:100E9C001790179B002B00F0D380179807F027FCB6
:100EAC0001A9169B0822179807F0DCFC169B083347
:100EBC001693049BDA43109B134001339B000A9357
:100ECC000C9A0A9B9A4242D90A9B002B08D0049A8E
:100EDC00109B134002339B00464A1344043300E03A
:100EEC00474B08930A9B002B02D00A9BDBB201E014
:100EFC000C9BDBB28DF81F300A9B002B01D0404BB2
:100F0C0000E0002306930A9B002B06D00C9BDAB260
:100F1C000A9BDBB2D31ADBB200E000238DF817304A
:100F2C009DF81F20169B0899179807F09BFC9DF8BD
:100F3C001F30169A13441693069B002B16D09DF85F
:100F4C001720169B0699179807F08CFC0EE0049A54
:100F5C00109B134002339B00264A1344043309931D
:100F6C00169B0C9A0999179807F07CFC0D9B033380
:100F7C009A08049B1344049362E09DF8043003F038
:100F8C000303DBB2012B5BD1BDF80430C3F3831335
:100F9C00DBB2062B28BF0623DAB2BDF8043062F3AD
:100FAC008913ADF80430BDF80430C3F38313DBB2FE
:100FBC0002330E939DF80430C3F3C203DBB20F93DC
:100FCC000E9B9B0019460D4807F000FB1790179BD2
:100FDC00002B35D0179807F08AFB01A9169B082225
:100FEC00179807F03FFC169B0833169300231593B4
:100FFC001DE000BF980100201C00002070B0000014
:10100C00A4010020049B5A1C0492109A1340023332
:10101C009B003F4A1344191D169B0422179807F096
:10102C0021FC169B04331693159B01331593BDF8C5
:10103C000430C3F38313DBB21A46159B9342E1D3FE
:10104C00179B002B40D0324BD3F810341493304BF9
:10105C00D3F81834002B1BD0179807F057FB4DE032
:10106C0000238DF84F301498FFF76FFB0346002BCD
:10107C0002D001238DF84F309DF84F30002B03D058
:10108C0017991498FFF732FB149BDB681B681493B9
:10109C00149B002BE4D1179807F038FB00238DF834
:1010AC0003300DF10303184606F008FC184BD3F877
:1010BC001834002B02D1049B154A93609DF8033021
:1010CC00184606F011FC19E0114BD3F810341293AA
:1010DC0006E01298FFF724FB129BDB681B68129347
:1010EC00129B002BF5D10B4A0B4BD31ADB081B04BC
:1010FC0043F0020309491846FFF7E0FDFFF72CFE09
:10110C00034683F00103DBB2184619B05DF804FB0B
:10111C0098010020C4B0000084B000007CB2000034
:10112C0000B583B00C4BD3F8103401930A4B012259
:10113C001A7009E00198FFF7FFFA0198FFF7E4FA3B
:10114C00019BDB681B680193019B002BF2D100BF54
:10115C0000BF03B05DF804FB9801002082B0019041
:10116C00009100BF02B0704710B584B0039002919B
:10117C00039BDB88002B0AD0039BDB881A461F4B92
:10118C00009313461E4A1F49029806F073FE039BF8
:10119C001B7A052B2ED0039B5B7A002B12D0039B62
:1011AC009B881A46039B1B7A19461046FFF732FBA5
:1011BC0003461A46144B53F822301A461349029828
:1011CC0006F058FE039B1B6819460298FFF7C6FFF2
:1011DC00039B1B7A1A460E4B53F82240039B9B88A9
:1011EC0000211846FFF7F6FA0346224609490298F1
:1011FC0006F040FE00BF04B010BD00BFB0B200004E
:10120C00C0B20000F8B200003400002010B300009F
:10121C002000002014B3000000B585B003900291AB
:10122C0013468DF80730039B1B7A052B0FD0039BBD
:10123C005B7A002B06D00D4B1B681A460C490298A2
:10124C0006F018FE0B49029806F014FE07E09DF814
:10125C000730002B03D00749029806F00BFE0298CA
:10126C0006F0E6FD00BF05B05DF804FB340000207D
:10127C0010B3000020B3000030B58BB0079006917E
:10128C00059204930E9B1B7B8DF827300E9B00223E
:10129C001A730E990498FFF767FF059B062B7FD8EE
:1012AC0001A252F823F000BFD1120000DB120000A3
:1012BC00EB120000FF1200001D130000451300008C
:1012CC007513000007990E9806F0D4FD69E0069B93
:1012DC001B681A4607990E9806F0CCFD61E0069B38
:1012EC001A68069B04331B6807990E9806F0C2FD1A
:1012FC0057E0069B1A68069B04331968069B083353
:10130C001B6800930B4607990E9806F0B3FD48E056
:10131C00069B1968069B04331868069B08331B68E8
:10132C00069A0C3212680192009303460A460799FA
:10133C000E9806F09FFD34E0069B1868069B04335C
:10134C001C68069B08331B68069A0C3212680699B7
:10135C0010310968029101920093234602460799C5
:10136C000E9806F087FD1CE0069B1C68069B043358
:10137C001D68069B08331B68069A0C321268069986
:10138C00103109680698143000680390029101929C
:10139C0000932B46224607990E9806F06BFD00E051
:1013AC0000BF00220E990498FFF736FF0E9B9DF8A4
:1013BC0027201A7300BF0BB030BD00BF00B587B03B
:1013CC000390029101920093029B082B60D8009B22
:1013DC001B7B8DF81330009B00221A730099019827
:1013EC00FFF7C2FE0023059314E0059A029B9A4274
:1013FC0009D2039A059B13441B781A462649009878
:10140C0006F038FD03E02549009806F033FD059BF6
:10141C0001330593059B072BE7D92149009806F06A
:10142C0029FD0023059326E0059A029B9A421BD2C4
:10143C00039A059B13441B788DF812309DF81230DB
:10144C007E2B0AD89DF81230184609F01AFD034677
:10145C00002B02D09DF8123000E02E231A461149C1
:10146C00009806F007FD03E00F49009806F002FD16
:10147C00059B01330593059B072BD5D901220099B8
:10148C000198FFF7C9FE009B9DF813201A7300E02A
:10149C0000BF07B05DF804FB24B300002CB30000C0
:1014AC0030B3000034B3000038B3000000B583B093
:1014BC000190019B1B68184600F0E5F80346002BD1
:1014CC0004D10B494FF4F67006F092FA019B1B689D
:1014DC001F2B02D84FF0A04306E0019B1B6803F0C2
:1014EC001F02019B1A60034B184603B05DF804FB06
:1014FC003CB300000003005000B585B001900846D5
:10150C0011461A4603468DF803300B468DF802300F
:10151C0013468DF8013001AB1846FFF7C7FF039057
:10152C009DF803209DF802305B001A439DF80130B2
:10153C009B001A439DF818301B0242EA03019DF8E8
:10154C001C301B04019A1943039B02F5E07243F80B
:10155C00221000BF05B05DF804FB00B585B0039008
:10156C0000230193002300930023012201210398FF
:10157C00FFF7C2FF00BF05B05DF804FB00B585B0F6
:10158C0003900B468DF80B309DF80B300022019226
:10159C0000220092002200210398FFF7ADFF00BF4C
:1015AC0005B05DF804FB00B585B0019001AB1846A1
:1015BC00FFF77CFF0390019B012202FA03F319460B
:1015CC00039800F04CF800BF05B05DF804FB00B5C3
:1015DC0085B0019001AB1846FFF768FF0390019BA3
:1015EC00012202FA03F31946039800F042F800BFF7
:1015FC0005B05DF804FB00B585B0019001AB184651
:10160C00FFF754FF0390039BD3F804350293029B1E
:10161C00DA43019B012101FA03F31A40039BC3F83F
:10162C000825019B01229A40029B1A40039BC3F898
:10163C000C2500BF05B05DF804FB00B583B001902C
:10164C000091009B002B03D10198FFF7C0FF02E033
:10165C000198FFF7A8FF00BF03B05DF804FB82B050
:10166C0001900091019B009AC3F8082500BF02B0BD
:10167C00704782B001900091019B009AC3F80C2531
:10168C0000BF02B0704784B00190019B5B090293CC
:10169C0000230393029B002B03D0029B012B04D04D
:1016AC0007E04FF0FF33039303E04FF6FF73039310
:1016BC0000BF019B03F01F030193039A019B22FAC5
:1016CC0003F303F00103002B14BF01230023DBB24F
:1016DC00184604B07047000000B583B00190019B20
:1016EC00032B03D90749472006F082F9064A019BD0
:1016FC0013441B7801211846FFF79FFF00BF03B06E
:10170C005DF804FB6CB30000ACB3000000B583B013
:10171C000023019305E00198FFF7DEFF019B0133E5
:10172C000193019B032BF6D900BF00BF03B05DF8FA
:10173C0004FB000000B583B00190019B032B03D97F
:10174C0007495F2006F054F9064A019B13441B78A5
:10175C001846FFF750FF00BF03B05DF804FB00BF55
:10176C006CB30000ACB3000000B583B00023019350
:10177C0009E0094A019B13441B781846FFF7EDFE5C
:10178C00019B01330193019B032BF2D9FFF7BEFFA1
:10179C0000BF03B05DF804FBACB3000000B583B030
:1017AC00002301930AE0094A019B13441B7803218F
:1017BC001846FFF7E3FE019B01330193019B032BBA
:1017CC00F1D900BF00BF03B05DF804FBB0B300005B
:1017DC0000B583B00190019B03F00103002B01D0F5
:1017EC00FFF7C2FF019B03F00203002B01D0FFF7B0
:1017FC00D5FF00BF03B05DF804FB000084B00346C6
:10180C00ADF806300023039316E00F49039A1346F4
:10181C009B0013449B000B441B88BDF806209A4286
:10182C0007D1039A13469B0013449B00064A1344AA
:10183C0006E0039B01330393039B002BE5D00023AD
:10184C00184604B0704700BFB805002082B0019064
:10185C000B46ADF80230019BBDF802201A80019BAB
:10186C0000221A72019B054903F10A020B4603CBB5
:10187C001060516000BF02B0704700BFE805002047
:10188C0082B00190019B4FF6FF721A8000BF02B02C
:10189C00704788B00390029111461A460B46ADF87A
:1018AC0006301346ADF80430039B9B881A46BDF8EE
:1018BC00063013440793039B9B881946039B9B8814
:1018CC00BDF80620934228BF13469BB2CB1A069351
:1018DC00039BDB881A46BDF8043013440593039B25
:1018EC00DB881946039BDB88BDF80420934228BF94
:1018FC0013469BB2CB1A0493029B5A88039B1B88FA
:10190C009A4205D3029B5A88039B5B889A4201D961
:10191C0000231CE0029B9B881A46069B934205D829
:10192C00029B9B881A46079B934201D200230EE030
:10193C00029BDB881A46049B934205D8029BDB88EA
:10194C001A46059B934201D2002300E0012318465E
:10195C0008B0704700B583B00190064B9B69002B13
:10196C0003D0044B9B690198984700BF03B05DF806
:10197C0004FB00BFCC05002000B587B003460091E6
:10198C00ADF80630009B5B7A002B1AD1009B1B7ABA
:10199C00002B03D1164B5B68059302E0144B9B683C
:1019AC000593009B5B68BDF806200599184605F069
:1019BC0073FE0490049B002B16D00498FFF7CAFF0B
:1019CC0012E0009B00221A72094B5B69002B0BD0B2
:1019DC0001238DF80C30BDF80630ADF80E30044BF9
:1019EC005B6903AA1046984700BF07B05DF804FB7B
:1019FC00CC05002000B585B00190019BDB7B8DF8F8
:101A0C000F30019B9B88ADF80C309DF80F30012BEB
:101A1C002CD14FF6FF70FFF7F1FE0290029B002BCA
:101A2C0003D10420FFF796FF21E0BDF80C301946D6
:101A3C000298FFF70BFF029B03F10A00019B03F1D5
:101A4C0010014FF6FF7340F2F312FFF722FF03462B
:101A5C001A46029B5A72074BDB89002B07D1BDF843
:101A6C000C3002991846FFF787FF00E000BF05B065
:101A7C005DF804FBCC05002000B587B00190019BFC
:101A8C009B88ADF81630BDF816301846FFF7B6FE39
:101A9C000490049B002B0ED0049B5B68184605F049
:101AAC0053FE0390039B002B02D00398FFF752FFC9
:101ABC000498FFF7E5FE00BF07B05DF804FB0000DB
:101ACC0000B587B00190019B06330593059B1A88DE
:101ADC00194BDB899A422BD1059B5B89022B27D1B1
:101AEC00019B9B88ADF81230BDF812301846FFF7F9
:101AFC0085FE0390039B002B1AD0059B0C331846D4
:101B0C0000F0FAF90346002B06D0BDF81230039909
:101B1C001846FFF731FF0BE0039B5B68184605F096
:101B2C0013FE0290029B002B02D00298FFF712FFCB
:101B3C0000BF07B05DF804FBCC05002000B585B0F4
:101B4C000190019B9B88ADF80E30BDF80E30184605
:101B5C00FFF754FE0290029B002B15D0029B03F161
:101B6C000A00019B03F108014FF6FF7340F2F312D8
:101B7C00FFF78FFE03461A46029B5A72BDF80E30D1
:101B8C0002991846FFF7F8FE00BF05B05DF804FB9C
:101B9C0000B583B001900091019B1B88502B12D093
:101BAC00502B18DC122B12D0122B14DC102B02D061
:101BBC00112B04D00FE00198FFF71CFF0CE00198EB
:101BCC00FFF75AFF08E00198FFF77AFF04E001984D
:101BDC00FFF7B4FF00E000BF00BF03B05DF804FBEB
:101BEC0030B58FB00190009100230293009B002B25
:101BFC001AD000230D9314E06B460D99184605F08E
:101C0C00A5FF0346002B09D0029B5A1C02920D9A89
:101C1C0092B25B0038336B4423F82C2C0D9B0133B0
:101C2C000D930D9B132BE7D9019B1D4602AC0FCCDA
:101C3C000FC50FCC0FC594E8070085E80700019885
:101C4C000FB030BD00B583B00346ADF80630BDF81B
:101C5C000630132B01D900230CE0BDF806301946D1
:101C6C00064805F042FFBDF806301946044805F059
:101C7C003CFF0123184603B05DF804FBF805002077
:101C8C00F405002000B585B00346ADF806300023FE
:101C9C0003930DE0039B9B00094A13440433BDF8E6
:101CAC0006201146184605F038FF039B01330393B9
:101CBC00039B1D2BEED900BF00BF05B05DF804FBE4
:101CCC00F005002000B583B00346ADF80630BDF832
:101CDC0006301946034805F020FF00BF03B05DF83D
:101CEC0004FB00BFF805002030B59BB0184B9B6877
:101CFC00DB431893164B5A6818AB1146184605F07F
:101D0C0084FF189A6B4611461846FFF769FF0DAC15
:101D1C006D460FCD0FC40FCD0FC495E8070084E8B6
:101D2C000700002319930BE0199B5B0068336B448D
:101D3C0033F8303C1846FFF7A5FF199B0133199374
:101D4C000D9B199A9A42EFD300BF00BF1BB030BD58
:101D5C00F005002000B583B001900B46ADF80230C1
:101D6C0013468DF801309DF80130002B06D0BDF8DC
:101D7C0002301946019805F0B8FE05E0BDF80230B6
:101D8C001946019805F0C9FE00BF03B05DF804FBCD
:101D9C0000B585B001900091019B9B88ADF80E3089
:101DAC00019B1B88103B0A2B00F2888001A252F881
:101DBC0023F000BFED1D0000291E0000C91E00000D
:101DCC00C91E0000C91E0000C91E0000C91E00006B
:101DDC00C91E0000C91E0000931E0000351E000025
:101DEC00FFF782FFBDF80E301846FFF72BFF0346B6
:101DFC0083F00103DBB2002B05D0324AF021042022
:101E0C0005F024FB57E0019BDB7B022B53D1BDF883
:101E1C000E3019462C4805F068FE4CE0BDF80E302B
:101E2C001846FFF74FFF49E0019B1B7AC3F30313DE
:101E3C00DBB28DF80D309DF80D30032B8CBF0123D8
:101E4C000023DAB2BDF80E3019462048FFF782FFA6
:101E5C009DF80D30022B8CBF01230023DAB2BDF8A4
:101E6C000E3019461A48FFF775FF9DF80D30012BFF
:101E7C008CBF01230023DAB2BDF80E301946154889
:101E8C00FFF768FF1AE0019B1B7A002B15D1019B11
:101E9C005B7AC3F3C003DBB2002B14BF0123002316
:101EAC008DF80C309DF80C20BDF80E301946074803
:101EBC00FFF750FF01E000BF00E000BF00BF05B01E
:101ECC005DF804FBB4B30000FC05002008060020FC
:101EDC00040600200006002082B00190019B1B78B4
:101EEC001AB2019B01331B781B021BB213431BB2AA
:101EFC009BB2184602B0704700B585B001900198AE
:101F0C00FFF7EAFF0346ADF80E30BDF80E3003F0D4
:101F1C000103002B14BF01230023DBB2184605B0CC
:101F2C005DF804FB82B003468DF807309DF907304D
:101F3C00002B13DB9DF8073003F01F0209499DF9B4
:101F4C0007305B09012000FA02F2203341F823200C
:101F5C00BFF34F8F00BFBFF36F8F00BF00BF02B046
:101F6C00704700BF00E100E0044BD3F80034002BB5
:101F7C0014BF01230023DBB2184670470000014058
:101F8C0008B505F02BF9034683F00103DBB2002BF7
:101F9C0003D109497B2005F02BFDFFF7E5FF034634
:101FAC0083F00103DBB2002B04D000F0E7FC034B01
:101FBC0000229A7000BF08BD60B500006C060020BE
:101FCC0000B583B000230193184B1B78002B02D073
:101FDC00852301931CE0154B00229A60134B0022C1
:101FEC005A60124B00221A61104B0022DA60104822
:101FFC0000F08AFC019005F0F1F8034683F0010330
:10200C00DBB2002B01D000F0A5FC084B01221A70AA
:10201C00FFF7AAFF0346002B02D0044B01229A7053
:10202C00019B184603B05DF804FB00BF6C06002052
:10203C001521000084B00190019B1B680393039B46
:10204C00002B03D0039B1A68019B1A60039B184654
:10205C0004B0704700B583B0164B1B78002B04D12D
:10206C00154940F2171005F0C3FC124BDB68002B2E
:10207C0004D111494FF48C7005F0BAFC00238DF893
:10208C0007300DF10703184605F018FC094BDB6807
:10209C00013B084AD360074BDB68002B01D1FFF7EB
:1020AC006FFF9DF80730184605F01EFC00BF03B00B
:1020BC005DF804FB6C06002060B5000000B585B02F
:1020CC0003468DF807309DF80730002B02D10C4BDE
:1020DC00039301E00B4B03930398FFF7ABFF0290C4
:1020EC00029B002B06D0029B5B689DF807201046D4
:1020FC009847F1E700BF00BF05B05DF804FB00BFD7
:10210C00740600207C06002000B583B003468DF8D1
:10211C0007309DF80730002B05D10A4B01225A706D
:10212C000020FFF7CBFF9DF80730012B05D1054BA5
:10213C0001229A700120FFF7C1FF00BF03B05DF8C8
:10214C0004FB00BF6C06002000B583B00190009129
:10215C00019B002B05D1054B01225A700020FFF783
:10216C00ADFF00BF03B05DF804FB00BF6C060020A0
:10217C0000B585B0034600918DF807309DF8073007
:10218C00032B29D0032B35DC002B02D0012B04D0E0
:10219C0030E00020FFF7C6FE2DE000238DF80F3055
:1021AC000DF10F03184605F089FB154B1B7883F0D6
:1021BC000103DBB2002B01D0FFF702FF104BDB68F1
:1021CC0001330F4AD3600E4B01229A709DF80F30E9
:1021DC00184605F089FB0EE0094B1B78002B04D147
:1021EC00084940F2522005F003FC00F0B3FBFFF766
:1021FC0031FF00E000BF00BF05B05DF804FB00BF7D
:10220C006C06002060B5000000B589B0019000910B
:10221C00009B0793019B1B788DF80C30019B5B682E
:10222C000493019B9B68DBB28DF81430019BDB6837
:10223C000693074A079B52F823300649079A51F830
:10224C00221003AA1046984700BF09B05DF804FBA2
:10225C00800600208806002000B589B0019000910E
:10226C00009B0793019B1B788DF80C30019B5B68DE
:10227C000493019B9B68DBB28DF81430019BDB68E7
:10228C000693074A079B52F823300649079A51F8E0
:10229C00221003AA1046984700BF09B05DF804FB52
:1022AC00800600208806002030B58FB00390029184
:1022BC000192039B1B780C932C490C9B019A41F8BF
:1022CC002320029B1A692A490C9B41F823200C9B62
:1022DC00012B07D1029B5B7F002B03D12549762074
:1022EC0005F086FB029B5B7F1946234A0C9B13442B
:1022FC000A461A70029B04AC1D460FCD0FC495E81C
:10230C000F0084E80F000C9B089300230D93039B94
:10231C001B781A46184B9B5C002B0DD0039B181D89
:10232C00019B002B01D0154A00E0002204AB19469A
:10233C0002F07CFC0D9014E0039B1B781A460E4BAC
:10234C009B5C002B0DD1039B03F10C00019B002B1C
:10235C0001D00B4A00E0002204AB194601F0DEFD6F
:10236C000D900D9B18460FB030BD00BF80060020AD
:10237C0088060020B0B50000900600201522000051
:10238C006522000000B585B00190019B002B0AD09E
:10239C00074B43F001030393019B9B010293039BA7
:1023AC000298984700E000BF05B05DF804FB00BF41
:1023BC0030B6000000B583B00190019B1B68184635
:1023CC0000F077F80346002B04D10B494FF4F6705C
:1023DC0005F00EFB019B1B681F2B02D84FF0A0438E
:1023EC0006E0019B1B6803F01F02019B1A60034B64
:1023FC00184603B05DF804FBFCB500000003005068
:10240C0000B585B0019001AB1846FFF7D3FF0390E0
:10241C00019B012202FA03F31946039800F035F8E8
:10242C0000BF05B05DF804FB00B585B0019001ABB1
:10243C001846FFF7BFFF0390019B012202FA03F33A
:10244C001946039800F02BF800BF05B05DF804FBAB
:10245C0000B585B0019001AB1846FFF7ABFF0390B8
:10246C00039800F00AF80246019B22FA03F303F0EA
:10247C000103184605B05DF804FB82B00190019B86
:10248C00D3F81035184602B0704782B00190009115
:10249C00019B009AC3F8082500BF02B0704782B0B8
:1024AC0001900091019B009AC3F80C2500BF02B06B
:1024BC00704784B00190019B5B0902930023039346
:1024CC00029B002B03D0029B012B04D007E04FF0A2
:1024DC00FF33039303E04FF6FF73039300BF019B9D
:1024EC0003F01F030193039A019B22FA03F303F0F9
:1024FC000103002B14BF01230023DBB2184604B0E8
:10250C00704700B585B001904FF0A042019B1B684D
:10251C0003F5E07340F20C6142F823104FF0A04237
:10252C00019B5B6803F5E07340F20C6142F82310E9
:10253C00019B1B681846FFF763FF019B5B681846FD
:10254C00FFF75EFF4FF0A042019B1B6803F5E073A1
:10255C0040F20D6142F823104FF0A042019B5B68E2
:10256C0003F5E07340F20D6142F823100420FFF7ED
:10257C0009FF002303931EE0019B5B681846FFF7DD
:10258C0067FF0346002B03D0039B002B17D124E0DD
:10259C00019B1B681846FFF747FF0420FFF7F2FE6C
:1025AC00019B1B681846FFF72BFF0420FFF7EAFE80
:1025BC00039B01330393039B082BDDDD00E000BF7D
:1025CC00019B5B681846FFF72FFF0420FFF7DAFE2C
:1025DC00019B5B681846FFF713FF05B05DF804FB21
:1025EC0000B589B001900091009B0793019B1B786B
:1025FC008DF80C30019B1B798DF81030019B5B79A9
:10260C008DF81130019B9B68DBB28DF81230019B69
:10261C00DB68DBB28DF81330019B1B690593019BC2
:10262C005B690693074A079B52F823300649079AC1
:10263C0051F8221003AA1046984700BF09B05DF864
:10264C0004FB00BF940600209C06002000B587B058
:10265C000390029101920093039B1B7805931249FE
:10266C00059B019A41F823201049059B009A41F8DB
:10267C002320029B5B7B002B02D00298FFF741FFCB
:10268C0000230493039B181D019B002B01D0084AC7
:10269C0000E00022059B029904F092F80490049B40
:1026AC00184607B05DF804FB940600209C06002039
:1026BC00ED25000082B003468DF807309DF90730F8
:1026CC00002B0CDB9DF8073003F01F0205499DF928
:1026DC0007305B09012000FA02F241F8232000BF09
:1026EC0002B0704700E100E082B0034600918DF823
:1026FC0007309DF90730002B0ADB009BDAB20C493E
:10270C009DF907305201D2B20B4483F800230BE041
:10271C00009BDAB207499DF8073003F00F03043B26
:10272C005201D2B20B441A7600BF02B0704700BF00
:10273C0000E100E000ED00E082B00190019B1B0B7A
:10274C005BB2184602B0704700B583B003460A4628
:10275C008DF8073013468DF806309DF80630012BA6
:10276C0003D99DF80630032B0BD99DF80630042BAA
:10277C0003D99DF80630072B03D908496B2005F0C7
:10278C0037F99DF806209DF9073011461846FFF7DA
:10279C00ABFF00BF03B05DF804FB00BF38B6000010
:1027AC0000B583B003468DF807309DF90730184605
:1027BC00FFF780FF00BF03B05DF804FB82B0034657
:1027CC008DF807300F4A9DF90730002B00DA1F33C4
:1027DC005B115BB252F823209DF90730594203F08C
:1027EC001F0301F01F0158BF4B425BB222FA03F3E7
:1027FC0003F00103002B14BF01230023DBB21846A6
:10280C0002B0704700E100E082B001904FF08042CE
:10281C00019BC2F8083300BF02B0704782B0034678
:10282C008DF807309DF8073003F1804301221A60C0
:10283C0000BF02B0704784B00346ADF80630BDF857
:10284C00063003F1804300221A60BDF8063003F114
:10285C0080431B680393039B00BF04B0704782B096
:10286C000346ADF80630BDF8063003F180431B6813
:10287C00002B14BF01230023DBB2184602B07047B3
:10288C0082B001904FF08042019BC2F8183500BF16
:10289C0002B070474FF08043D3F818341B0C03F090
:1028AC000103002B14BF01230023DBB21846704731
:1028BC0000B583B006238DF807304FF08040FFF74A
:1028CC003BFF03461846FFF779FF034683F00103ED
:1028DC00DBB2002B13D04FF08040FFF72DFF0346E7
:1028EC001A469DF8073019461046FFF72DFF4FF09A
:1028FC008040FFF721FF03461846FFF751FF00BF4A
:10290C0003B05DF804FB000000B585B00190019B9D
:10291C00002B03D10D49A42005F06AF80023039382
:10292C000B4B1B79002B02D08523039308E0084A3C
:10293C00019B1360064B01221A71054B00225A7140
:10294C00039B184605B05DF804FB00BF70B6000091
:10295C00A406002008B5074B1B79002B03D10649B0
:10296C00BD2005F045F8FFF7A3FF0120FFF788FF16
:10297C0000BF08BDA406002070B6000008B50D4BC2
:10298C001B79002B03D10C49F72005F031F80220FC
:10299C00FFF73AFF4FF48270FFF74DFF0C20FFF763
:1029AC003DFF00BFFFF776FF0346002BFAD100BFB7
:1029BC0000BF08BDA406002070B6000008B54FF497
:1029CC008070FFF74CFF0346002B14D04FF480703F
:1029DC00FFF731FF0120FFF717FF114B5B7983F0F5
:1029EC000103DBB2002B06D00D4B01225A710C4BAC
:1029FC001B68002098474FF48270FFF730FF0346A6
:102A0C00002B0AD04FF48270FFF715FF0220FFF75E
:102A1C00FBFE034B1B680120984700BF08BD00BF9D
:102A2C00A406002082B003468DF807309DF90730CC
:102A3C00002B0CDB9DF8073003F01F0205499DF9B4
:102A4C0007305B09012000FA02F241F8232000BF95
:102A5C0002B0704700E100E082B0034600918DF8AF
:102A6C0007309DF90730002B0ADB009BDAB20C49CA
:102A7C009DF907305201D2B20B4483F800230BE0CE
:102A8C00009BDAB207499DF8073003F00F03043BB3
:102A9C005201D2B20B441A7600BF02B0704700BF8D
:102AAC0000E100E000ED00E082B00190019B1B0B07
:102ABC005BB2184602B0704700B583B003460A46B5
:102ACC008DF8073013468DF806309DF80630012B33
:102ADC0003D99DF80630032B0BD99DF80630042B37
:102AEC0003D99DF80630072B03D908496B2004F055
:102AFC007FFF9DF806209DF9073011461846FFF719
:102B0C00ABFF00BF03B05DF804FB00BFBCB6000018
:102B1C0000B583B003468DF807309DF90730184691
:102B2C00FFF780FF00BF03B05DF804FB00B583B076
:102B3C000346ADF80630BDF80630184600F026F80E
:102B4C0003461B68012B0CBF01230023DBB2184684
:102B5C0003B05DF804FB00B585B00346ADF8063054
:102B6C00BDF80630184600F011F803461A4600234B
:102B7C001360BDF80630184600F008F803461B68D1
:102B8C000393039B00BF05B05DF804FB82B00346C2
:102B9C00ADF80630BDF8063003F1804303F5C043B1
:102BAC00184602B07047000082B00190034A019BA6
:102BBC00C2F8043300BF02B0704700BF0060004091
:102BCC0082B00190034BD3F80423019B13401846A9
:102BDC0002B070470060004082B00190084A019B2F
:102BEC0003F5A27352F82330054943F00102019B0F
:102BFC0003F5A27341F8232000BF02B0704700BF59
:102C0C000060004084B00390029113468DF80730A9
:102C1C00144A039B03F5A27352F82330114923F491
:102C2C004F3323F44073039A02F5A27241F8223019
:102C3C000C4A039B03F5A27352F82320029B1B0240
:102C4C0003F47C519DF807301B0403F440330B4311
:102C5C0004491A43039B03F5A27341F8232000BFD8
:102C6C0004B070470060004082B00190054A019B9F
:102C7C0003F5A27352F823301B0A03F03F031846E6
:102C8C0002B070470060004082B00190064A019B80
:102C9C0003F5A27352F823301B0C03F00303DBB2D1
:102CAC00184602B0704700BF0060004000B583B00A
:102CBC000190019B1B68184600F02AF90346002B73
:102CCC0004D10B494FF4F67004F092FE019B1B6883
:102CDC001F2B02D84FF0A04306E0019B1B6803F0AA
:102CEC001F02019B1A60034B184603B05DF804FBEE
:102CFC00ECB600000003005000B585B0019008460A
:102D0C0011461A4603468DF803300B468DF80230F7
:102D1C0013468DF8013001AB1846FFF7C7FF03903F
:102D2C009DF803209DF802305B001A439DF801309A
:102D3C009B001A439DF818301B0242EA03019DF8D0
:102D4C001C301B04019A1943039B02F5E07243F8F3
:102D5C00221000BF05B05DF804FB00B585B00390F0
:102D6C000B468DF80B309DF80B300022019200229F
:102D7C000092002200210398FFF7BEFF00BF05B0B0
:102D8C005DF804FB00B585B0019001AB1846FFF768
:102D9C008DFF0390019A039B02F5E07253F82230E9
:102DAC0023F002030293019A039B02F5E07202994D
:102DBC0043F8221000BF05B05DF804FB00B585B0E8
:102DCC0001900B468DF8033001AB1846FFF76EFFF0
:102DDC000390019A039B02F5E07253F82230019A9A
:102DEC0023F44031039B02F5E07243F82210019A60
:102DFC00039B02F5E07253F822309DF80320120475
:102E0C001146019A1943039B02F5E07243F8221014
:102E1C0000BF05B05DF804FB00B585B0019001ABB7
:102E2C001846FFF743FF0390039800F020F8024682
:102E3C00019B22FA03F303F00103184605B05DF879
:102E4C0004FB00B585B0019001AB1846FFF72EFFCF
:102E5C000390019A039B02F5E07253F822301B0C8D
:102E6C0003F00303DBB2184605B05DF804FB82B037
:102E7C000190019BD3F81035184602B07047000042
:102E8C0088B0039002910192164A05AB92E80300B8
:102E9C0083E80300039B079319E0079B9B002033F7
:102EAC006B4453F80C3CD3F82025019B1A60079B0C
:102EBC009B0020336B4453F80C3C019A1268C3F806
:102ECC002025019B04330193079B01330793039A3D
:102EDC00029B1344079A9A42DFD300BF00BF08B08D
:102EEC00704700BF1CB7000000B585B0019001AB66
:102EFC001846FFF7DBFE0390019B012202FA03F355
:102F0C001A46039BC3F8202500BF05B05DF804FBEF
:102F1C0084B00190019B5B09029300230393029BF5
:102F2C00002B03D0029B012B04D007E04FF0FF33A2
:102F3C00039303E04FF6FF73039300BF019B03F071
:102F4C001F030193039A019B22FA03F303F001037D
:102F5C00002B14BF01230023DBB2184604B07047CA
:102F6C0084B001900091009B0393019BDB080293BA
:102F7C00019B03F0070301930122019B02FA03F367
:102F8C000399029A0A4412781340184604B0704709
:102F9C0084B001900091009B0393019BDB0802938A
:102FAC00019B03F007030193039A029B13441B78C4
:102FBC005AB20121019B01FA03F35BB2134359B2DC
:102FCC00039A029B1344CAB21A7000BF04B0704734
:102FDC0082B001900C4A019B1344303393F90030BA
:102FEC00002B09DB084A019B1344303393F9003062
:102FFC00072B01DC012300E0002303F00103DBB20B
:10300C00184602B0704700BFAC06002082B0019099
:10301C00064A019B1344303393F90030072BCCBF85
:10302C0001230023DBB2184602B07047AC06002027
:10303C0082B00190064A019B1344303393F900305F
:10304C00DB43DBB2DB09DBB2184602B0704700BFD2
:10305C00AC06002084B00390029101928DF80330ED
:10306C00029B59B20E4A039B134430330A461A7022
:10307C000B49029B019A41F823209DF8033083F001
:10308C000103DBB2002B08D0029B083B039A51B220
:10309C00034A13440A4683F8602000BF04B070470B
:1030AC00AC06002082B00190044A019B13443033DB
:1030BC00FF221A7000BF02B0704700BFAC060020A0
:1030CC0000B583B0019004490198FFF761FF00BF80
:1030DC0003B05DF804FB00BF1007002082B0019024
:1030EC00044A019B1344303393F90030184602B064
:1030FC00704700BFAC06002082B00190034A019BD0
:10310C0052F82330184602B0704700BFAC060020BE
:10311C0084B00190074A019B1344603393F900304B
:10312C008DF80F309DF80F3023F0C003184604B013
:10313C00704700BFAC06002084B00190074A019B89
:10314C001344603393F900308DF80F309DF80F3035
:10315C009B09DBB2184604B0704700BFAC060020D8
:10316C0000B589B00390029113468DF80730FF2308
:10317C008DF81F309DF80730002B01D0002300E0A4
:10318C00082305939DF80730002B01D0082300E09D
:10319C000C230493059B069314E00F4A069B52F8EC
:1031AC002330B3F1FF3F0AD19DF80730029A0699FC
:1031BC000398FFF74FFF069B8DF81F3006E0069B28
:1031CC0001330693069A049B9A42E6D39DF91F306D
:1031DC00184609B05DF804FBAC06002082B003462B
:1031EC008DF807309DF80730094A4FF0FF3142F84F
:1031FC0023109DF80730072B07D99DF80730083BA3
:10320C00034A1344FF2283F8602000BF02B07047CA
:10321C00AC06002000B583B02D4B93F86A30002B20
:10322C0003D008230093009B4EE000238DF8073059
:10323C0011E09DF807301846FFF76AFE0346002B95
:10324C0004D09DF807301846FFF72CFF9DF8073087
:10325C0001338DF807309DF807302F2BE9D9002367
:10326C008DF8073009E09DF807301846FFF7B6FFD8
:10327C009DF8073001338DF807309DF807300B2B84
:10328C00F1D906220021134807F098FE1248FFF7E7
:10329C000BFC034606211846FFF70EFC0E48FFF701
:1032AC0003FC03461846FFF733FC4FF4BE70FFF7E0
:1032BC0052FC4FF00040FFF777FC054B012283F8DE
:1032CC006A2000230093009B184603B05DF804FBB2
:1032DC00AC060020100700200060004000B587B04D
:1032EC000390029101920398FFF712FE0346002B04
:1032FC0004D136494FF40C7004F07AFB002305938B
:10330C000398FFF795FE0346002B02D00823059384
:10331C0057E0029B9B78C3F34003DBB21A4601993A
:10332C000398FFF71DFF03468DF813309DF91330FA
:10333C00B3F1FF3F43D0029B9B78C3F38003DBB216
:10334C0083F00103DBB2002B13D0029B9B7803F0BC
:10335C000103DBB2002B03D00398FFF713FD05E04C
:10336C00029B5B7819460398FFF7F7FC0398FFF76D
:10337C00A7FE029B9B7803F00203DBB2002B08D064
:10338C009DF91300029B1B781A460399FFF73AFC30
:10339C0017E09DF91330083B0D4A134493F9601064
:1033AC00029B1B789B015AB29DF91330083B0A43D0
:1033BC0051B2074A13440A4683F8602001E0042303
:1033CC000593059B184607B05DF804FB2CB700006D
:1033DC00AC06002000B589B001900B468DF8033087
:1033EC000198FFF795FD0346002B04D13A494FF4A1
:1033FC00187004F0FDFA0198FFF71AFE0346002B33
:10340C0004D1354940F2612004F0F2FA0198FFF73B
:10341C00FDFD0346002B2AD00198FFF75FFE034603
:10342C00083B1846FFF788FE03468DF80F309DF8D1
:10343C000F30032B0BD10198FFF7EEFC0346002B4A
:10344C0001D0032300E002238DF81F3008E09DF823
:10345C000F30012B01D1022300E003238DF81F3024
:10346C009DF81F3019460198FFF7A8FC30E0019831
:10347C00FFF7AEFD0346002B2AD00198FFF72EFE76
:10348C0003460693069B9BB240339BB29B00ADF860
:10349C001630069B1846FFF79FFBBDF816301846F2
:1034AC00FFF759FB9DF80330002B11D00198FFF763
:1034BC0015FE03461846FFF71FFE0490049B002BD5
:1034CC0006D00122069B02FA03F31846FFF76CFBA9
:1034DC0000BF09B05DF804FB2CB7000000B585B047
:1034EC000190019A02210020FFF7CAFC00230393EC
:1034FC000BE0039B9B00019A13441B68002B01D02B
:10350C00012306E0039B01330393039B012BF0D9AA
:10351C000023184605B05DF804FB000000B587B029
:10352C000190002305935BE0344A059B1344603300
:10353C0093F90030B3F1FF3F4ED00598FFF7E8FD4B
:10354C00049001990498FFF70BFD0346002B44D01F
:10355C000598FFF7F1FD03468DF80F300498FFF73F
:10356C0070FC03468DF80E309DF80E30022B01D105
:10357C00032300E002238DF80D309DF80D30194621
:10358C000498FFF71BFC0498FFF7AEFC0498FFF7B8
:10359C00A5FD03461846FFF7AFFD0290029B002BDA
:1035AC001BD09DF80F30032B0FD09DF80E30022B43
:1035BC0003D19DF80F30012B07D09DF80E30032B53
:1035CC000BD19DF80F30022B07D19DF80F20029BD9
:1035DC0011460498984700E000BF059B0133059302
:1035EC00059B032BA0D90198FFF778FF0346002B0E
:1035FC0097D100BF00BF07B05DF804FBAC060020FC
:10360C0000B58BB00023089301AB00221A605A60FE
:10361C004FF48073ADF81A300123099300230793FC
:10362C0021E0BDF81A301846FFF780FA0346002B4C
:10363C000ED00998FFF7C4FA0346002B08D0BDF84A
:10364C001A301846FFF787FA089A099B1343089318
:10365C00099B5B000993BDF81A300433ADF81A309E
:10366C00079B01330793079B072BDAD94FF4BE70E6
:10367C00FFF75CFA0346002B0DD04FF4BE70FFF73A
:10368C006AFA089B43F00043089301AB1A460221E7
:10369C000020FFF7F5FB089BDBB2002B29D00123A0
:1036AC0009930023079321E0099A089B1340002BF0
:1036BC0016D00798FFF7D8FA05900798FFF7E4FAA9
:1036CC0003468DF813300798FFF716FD0390039B04
:1036DC00002B05D09DF81320039B114605989847A5
:1036EC00099B5B000993079B01330793079B072BEF
:1036FC00DAD9089B002B03DA01AB1846FFF70EFF53
:10370C0000BF0BB05DF804FB08B5064B1B68002B23
:10371C0003D10549512004F06BF9024B1B68984703
:10372C0000BF08BD180700207CB7000082B00190D4
:10373C00019B044A934201D1034B00E0002318463D
:10374C0002B07047002000401807002000B587B079
:10375C0001900091019B002B03D11C49772004F0B0
:10376C0047F90198FFF7E2FF0590059B002B25D048
:10377C0000238DF8133000238DF80B300DF10B0363
:10378C00184604F09BF8059B1B79002B03D00123F2
:10379C008DF8133005E0059B009A1A60059B0122F9
:1037AC001A719DF80B30184604F09EF89DF81330F2
:1037BC00002B03D011230393039B02E000230393FC
:1037CC00039B184607B05DF804FB00BF7CB70000F4
:1037DC0000B585B00190019B002B03D10A499B20B9
:1037EC0004F006F90198FFF7A1FF0390039B002B4F
:1037FC0005D0039B00221A60039B00221A7100BFA4
:10380C0005B05DF804FB00BF7CB7000082B0034636
:10381C008DF807309DF90730002B0CDB9DF8073035
:10382C0003F01F0205499DF907305B09012000FADE
:10383C0002F241F8232000BF02B0704700E100E023
:10384C0082B003468DF807309DF90730002B13DB4F
:10385C009DF8073003F01F0209499DF907305B09F9
:10386C00012000FA02F2203341F82320BFF34F8FDE
:10387C0000BFBFF36F8F00BF00BF02B0704700BF27
:10388C0000E100E082B0034600918DF807309DF90D
:10389C000730002B0ADB009BDAB20C499DF907308C
:1038AC005201D2B20B4483F800230BE0009BDAB236
:1038BC0007499DF8073003F00F03043B5201D2B2C5
:1038CC000B441A7600BF02B0704700BF00E100E065
:1038DC0000ED00E082B00190019B1B0B5BB218461F
:1038EC0002B0704700B583B003460A468DF8073026
:1038FC0013468DF806309DF80630012B03D99DF840
:10390C000630032B0BD99DF80630042B03D99DF8F8
:10391C000630072B03D908496B2004F069F89DF891
:10392C0006209DF9073011461846FFF7ABFF00BF84
:10393C0003B05DF804FB00BFCCB7000000B583B04A
:10394C0003468DF807309DF907301846FFF75EFFE8
:10395C0000BF03B05DF804FB00B583B003468DF8DF
:10396C0007309DF907301846FFF76AFF00BF03B018
:10397C005DF804FB84B001900B46ADF80230BDF845
:10398C000230019A134400221A60BDF80230019AE9
:10399C0013441B680393039B00BF04B0704782B0B1
:1039AC0001900B46ADF80230BDF80230019A134479
:1039BC001B68002B14BF01230023DBB2184602B096
:1039CC00704782B001900091019B009AC3F80423C8
:1039DC0000BF02B0704782B001900091019BD3F8F8
:1039EC000423009B1340002B14BF01230023DBB2E4
:1039FC00184602B0704782B001900091019B009A6A
:103A0C00C3F8082300BF02B0704784B00190019B3B
:103A1C00D3F880340393019B039AC3F88024039B4F
:103A2C00184604B0704782B00190019B0422C3F881
:103A3C00002500BF02B0704782B00190019B0022AC
:103A4C00C3F8002500BF02B0704784B00390029108
:103A5C000192039B019AC3F81425039B029AC3F8A5
:103A6C000C2500BF04B0704700B583B001904FF037
:103A7C00FF324FF0FF310198FFF7E7FF00BF03B0B3
:103A8C005DF804FB82B00190019BD3F80C3518460D
:103A9C0002B0704782B00190019BD3F814351846E0
:103AAC0002B0704782B00190019BD3F808351846DC
:103ABC0002B0704782B00190019BD3F810351846C4
:103ACC0002B0704784B0039002910192039B029A5A
:103ADC00C3F80825039B019AC3F8102500BF04B056
:103AEC00704700B583B001904FF0FF324FF0FF31BB
:103AFC000198FFF7E7FF00BF03B05DF804FB82B04D
:103B0C000190019BD3F81835DBB2184602B0704710
:103B1C0082B001900B468DF803309DF80320019B79
:103B2C00C3F81C2500BF02B0704782B001900B4651
:103B3C008DF803309DF80330019A134401221A606A
:103B4C0000BF02B0704782B001900B468DF8033075
:103B5C0013468DF802309DF803209DF80230134374
:103B6C00DBB21A46019BC3F86C2500BF02B070474C
:103B7C0082B001900091019B009AC3F8242500BFEC
:103B8C0002B0704700B583B00190019B1B681846CA
:103B9C0000F0A4F80346002B04D10B494FF4F67047
:103BAC0003F026FF019B1B681F2B02D84FF0A0438C
:103BBC0006E0019B1B6803F01F02019B1A60034B7C
:103BCC00184603B05DF804FBFCB70000000300507E
:103BDC0000B585B00190084611461A4603468DF88B
:103BEC0003300B468DF8023013468DF8013001ABD3
:103BFC001846FFF7C7FF03909DF803209DF802308D
:103C0C005B001A439DF801309B001A439DF8183055
:103C1C001B0242EA03019DF81C301B04019A194354
:103C2C00039B02F5E07243F8221000BF05B05DF86B
:103C3C0004FB00B585B0039000230193002300938F
:103C4C000023012201210398FFF7C2FF00BF05B03A
:103C5C005DF804FB00B585B003900B468DF80B3076
:103C6C009DF80B30002201920022009200220021CC
:103C7C000398FFF7ADFF00BF05B05DF804FB00B57E
:103C8C0085B00390002301930023009300230122AD
:103C9C0000210398FFF79CFF00BF05B05DF804FB03
:103CAC0000B585B0019001AB1846FFF76BFF039090
:103CBC00019B012202FA03F31946039800F004F861
:103CCC0000BF05B05DF804FB82B001900091019B30
:103CDC00009AC3F8082500BF02B0704784B0019069
:103CEC00019B5B09029300230393029B002B03D0DF
:103CFC00029B012B04D007E04FF0FF33039303E04A
:103D0C004FF6FF73039300BF019B03F01F03019356
:103D1C00039A019B22FA03F303F00103002B14BF57
:103D2C0001230023DBB2184604B0704700B583B002
:103D3C0001900091009B1B68B3F1FF3F09D0009BE1
:103D4C001B681846FFF7ACFF009B1B681846FFF773
:103D5C0070FF009B5B68B3F1FF3F05D0009B5B6875
:103D6C0000211846FFF776FF019B1A68009B9B69A0
:103D7C0019461046FFF7FCFE019B1868009B597D05
:103D8C00009B1B7D1A46FFF7DEFE019B1868009B0B
:103D9C001968009B5B681A46FFF757FE009B1B7D5A
:103DAC00012B22D1009B9B68B3F1FF3F05D0009BF8
:103DBC009B6800211846FFF74DFF009BDB68B3F1B1
:103DCC00FF3F09D0009BDB681846FFF769FF009B9B
:103DDC00DB681846FFF72DFF019B1868009BD9681C
:103DEC00009B9B681A46FFF76DFE00BF03B05DF8A1
:103DFC0004FB000000B583B001900B468DF8033036
:103E0C00019B1B684FF48E711846FFF7B3FD019BA5
:103E1C001B684FF4A2711846FFF7ACFD019B1B68A1
:103E2C000E491846FFF7CDFD019B1B681846FFF79E
:103E3C0051FD03461A469DF8033019461046FFF70C
:103E4C0051FD019B1B681846FFF744FD03461846BD
:103E5C00FFF774FD00BF03B05DF804FB80000200A7
:103E6C0000B583B00190019B1B6808491846FFF709
:103E7C00C2FD019B1B681846FFF72CFD0346184634
:103E8C00FFF76AFD00BF03B05DF804FB840202007B
:103E9C0000B587B00190019B1B681846FFF7F2FD37
:103EAC000590019B1B681846FFF7F4FD0490019BDD
:103EBC001B681846FFF7F6FD0390019B1B6818461C
:103ECC00FFF7F8FD0290019B1B681846FFF7CCFD2D
:103EDC00019B1B681846FFF704FE059BB3F1FF3FDF
:103EEC0002D00598FFF7CBFE049BB3F1FF3F02D045
:103EFC000498FFF7C4FE029BB3F1FF3F02D0029877
:103F0C00FFF7BDFE039BB3F1FF3F02D00398FFF711
:103F1C00B6FE00BF07B05DF804FB000000B587B02B
:103F2C00039002910192029B002B03D12D49AA20F0
:103F3C0003F05EFD039B1B791A462C2302FB03F353
:103F4C00294A1344049300230593049B93F82A30C5
:103F5C00002B03D008230593059B3EE0039B1A68B6
:103F6C00039B1B791946214B53F8213019461046F7
:103F7C00FFF7ECFB0346002B03D011230593059BA5
:103F8C002BE002990398FFF7D1FE049B019A5A602B
:103F9C00029B1A69049B1A60049B5B68002B05D07A
:103FAC00029B1B7F19460398FFF724FF039B1B689A
:103FBC001846FFF738FD049B00229A61049B0022EF
:103FCC00DA61049B002283F82920049B00225A61A9
:103FDC00049B012283F82A20059B184607B05DF844
:103FEC0004FB00BF34B800002007002080B800009C
:103FFC0000B585B00190019B1B791A462C2302FB5E
:10400C0003F3114A13440393019B1B681846FFF7F3
:10401C0013FD039B5B68002B02D00198FFF720FF78
:10402C000198FFF735FF019B1B681846FFF7D0FB83
:10403C00039B002283F82A20039B00225A6000BFB6
:10404C0005B05DF804FB00BF2007002000B585B06B
:10405C00019000914FF48E710198FFF78BFC009B3F
:10406C009A68009B1B6A13441B788DF80F30009BD9
:10407C001B6A5A1C009B1A629DF80F301946019856
:10408C00FFF746FD00BF05B05DF804FB00B585B039
:10409C0001900091009B5B69039316E0009B93F8E1
:1040AC002830DBB2002B01D0002314E04FF48E71CA
:1040BC000198FFF774FC034683F00103DBB2002B7D
:1040CC00ECD100990198FFF7C1FF009B1B6A039A82
:1040DC009A42EBD80123184605B05DF804FB0000AA
:1040EC0000B587B0039002910192039B1B791A468D
:1040FC002C2302FB03F33C4A13440493049B93F8D4
:10410C002A30012B04D039494FF48C7003F070FC29
:10411C00029B002B04D1354940F2191003F068FCC6
:10412C00019B002B04D131494FF48D7003F060FCDE
:10413C00039800F05DF80346002B03D01123059380
:10414C00059B4CE0049B019A5A61049B029A9A606D
:10415C00049B00221A62049B002283F8282000236F
:10416C000593039B1B684FF48E711846FFF702FCF6
:10417C00039B1B6808211846FFF7D7FC039B1B68A1
:10418C0004991846FFF762FF049B5B68002B25D14E
:10419C00039B1B6804991846FFF778FF034683F0CE
:1041AC000103DBB2002B02D00F23059313E000BFF9
:1041BC00039B1B684FF48E711846FFF7F0FB034608
:1041CC0083F00103DBB2002BF2D1039B1B680C21A3
:1041DC001846FFF7AAFC049B00225A61059B18465F
:1041EC0007B05DF804FB00BF2007002034B80000C6
:1041FC0082B00190019B1B791946074A2C2301FBC5
:10420C0003F3134414331B68002B14BF0123002346
:10421C00DBB2184602B070472007002010B582B000
:10422C0001900091009B9B69002B08D14FF4847185
:10423C000198FFF79FFB0198FFF761FC13E04FF427
:10424C0084710198FFF796FB009BDA68009B5B6A10
:10425C00D4180198FFF753FC03462370009B5B6A4C
:10426C005A1C009B5A6202B010BD00B589B0039075
:10427C000291019201238DF81030029B0693019B51
:10428C000593039B5B68039A116804AA1046984730
:10429C0000BF09B05DF804FB00B587B00190009138
:1042AC0000238DF80830009B0493019B9B680393BB
:1042BC00019B00225A61019B5B68019A116802AA5A
:1042CC001046984700BF07B05DF804FB00B58BB0F3
:1042DC00019000914FF400710198FFF77CFB0346AD
:1042EC00002B39D04FF492710198FFF758FB03461D
:1042FC00002B31D04FF492710198FFF73BFB4FF438
:10430C0001710198FFF777FB009B93F8293083F03C
:10431C000103DBB2002B03D004210198FFF705FC4D
:10432C0002238DF80C300198FFF76FFB03460693C0
:10433C00009B9B690593009BDB680493009B002208
:10434C009A61009B0022DA61009B5B68009A1168FD
:10435C0003AA1046984752E004210198FFF73BFB53
:10436C000346002B4BD04FF484710198FFF717FBD9
:10437C000346002B43D000990198FFF74FFF009B99
:10438C009A69009B5B6A9A4239D1009BDB69002BCE
:10439C0019D0009BDB680993009B5B6A0893009B18
:1043AC00DA69009B9A61009B1A69009BDA60009B9A
:1043BC000022DA61009B00225A62099A089900983F
:1043CC00FFF753FF1BE0009B93F8293083F00103A8
:1043DC00DBB2002B03D004210198FFF7A6FB4FF4AE
:1043EC0001710198FFF707FB009B00229A61009B6B
:1043FC00596A009BDB681A460098FFF736FF4FF4AA
:10440C008E710198FFF7CBFA0346002B24D0009B4A
:10441C005B690793009B1B6A079A9A420DD9009B14
:10442C0093F82830DBB283F00103DBB2002B04D00D
:10443C0000990198FFF70AFE0EE04FF48E71019877
:10444C00FFF798FA009B5B69002B05D0009B5B691A
:10445C0019460098FFF720FF4FF4A2710198FFF75F
:10446C009EFA0346002B1CD04FF4A2710198FFF763
:10447C0081FA009B93F82930002B03D0002101987E
:10448C00FFF753FB009B9B69002B0AD0009B00227B
:10449C009A61009B596A009BDB681A460098FFF7EB
:1044AC00E4FE00BF0BB05DF804FB000008B5034947
:1044BC000348FFF70BFF00BF08BD00BF200700201B
:1044CC000020004082B003468DF807309DF907307C
:1044DC00002B0CDB9DF8073003F01F0205499DF9FA
:1044EC0007305B09012000FA02F241F8232000BFDB
:1044FC0002B0704700E100E082B003468DF807304F
:10450C009DF90730002B13DB9DF8073003F01F02D9
:10451C0009499DF907305B09012000FA02F22033AA
:10452C0041F82320BFF34F8F00BFBFF36F8F00BF45
:10453C0000BF02B0704700BF00E100E082B003464C
:10454C0000918DF807309DF90730002B0ADB009B9A
:10455C00DAB20C499DF907305201D2B20B4483F800
:10456C0000230BE0009BDAB207499DF8073003F0FB
:10457C000F03043B5201D2B20B441A7600BF02B0B7
:10458C00704700BF00E100E000ED00E082B0019058
:10459C00019B03F06043B3F1005F0CBF01230023C8
:1045AC00DBB2184602B0704782B00190019B1B0B26
:1045BC005BB2184602B0704700B583B003460A469A
:1045CC008DF8073013468DF806309DF80630012B18
:1045DC0003D99DF80630032B0BD99DF80630042B1C
:1045EC0003D99DF80630072B03D908496B2003F03B
:1045FC00FFF99DF806209DF9073011461846FFF784
:10460C009DFF00BF03B05DF804FB00BF84B8000041
:10461C0000B583B003468DF807309DF90730184676
:10462C00FFF750FF00BF03B05DF804FB00B583B08B
:10463C0003468DF807309DF907301846FFF75CFFED
:10464C0000BF03B05DF804FB84B001900B46ADF8DD
:10465C000230BDF80230019A134400221A60BDF8F2
:10466C000230019A13441B680393039B00BF04B0F0
:10467C00704782B001900B46ADF80230BDF80230A5
:10468C00019A13441B68002B14BF01230023DBB2D7
:10469C00184602B0704782B001900091019BD3F88C
:1046AC000022009BDB431A40019BC3F8002200BF91
:1046BC0002B0704782B001900091019B009AC3F840
:1046CC00042300BF02B0704782B001900091019B9F
:1046DC00009AC3F8082300BF02B0704784B0019061
:1046EC00019BD3F880340393019B039AC3F8802475
:1046FC00039B184604B0704782B00190019B0822BE
:10470C00C3F8002500BF02B0704782B00190019B36
:10471C000022C3F8002500BF02B0704784B003909C
:10472C0002910192039B029AC3F80C25039B019AF8
:10473C00C3F8142500BF04B0704700B583B00190D6
:10474C004FF0FF324FF0FF310198FFF7E7FF00BF4A
:10475C0003B05DF804FB82B00190019BD3F80C35DB
:10476C00184602B0704782B00190019BD3F8143503
:10477C00184602B0704782B00190019BD3F80835FF
:10478C00184602B0704782B00190019BD3F81035E7
:10479C00184602B0704784B0039002910192039BBB
:1047AC00029AC3F80825039B019AC3F8102500BF91
:1047BC0004B0704700B583B001904FF0FF324FF05A
:1047CC00FF310198FFF7E7FF00BF03B05DF804FB72
:1047DC0082B001900B468DF803309DF80330019A9E
:1047EC00134401221A6000BF02B0704782B00190DE
:1047FC000B468DF8033013468DF802309DF80320DC
:10480C009DF802301343DBB21A46019BC3F86C25AA
:10481C0000BF02B0704782B001900091019B009ADA
:10482C00C3F8242500BF02B0704784B003900291F6
:10483C000192029A039BC3F84425039B019AC3F887
:10484C00482500BF04B0704782B00190019BD3F89B
:10485C004C35184602B0704782B00190019BD3F8DA
:10486C003C35184602B0704700B583B00190019BEF
:10487C001B68184600F0A4F80346002B04D10B4922
:10488C004FF4F67003F0B4F8019B1B681F2B02D891
:10489C004FF0A04306E0019B1B6803F01F02019B35
:1048AC001A60034B184603B05DF804FBB4B8000063
:1048BC000003005000B585B00190084611461A4619
:1048CC0003468DF803300B468DF8023013468DF8F5
:1048DC00013001AB1846FFF7C7FF03909DF803208A
:1048EC009DF802305B001A439DF801309B001A437F
:1048FC009DF818301B0242EA03019DF81C301B0482
:10490C00019A1943039B02F5E07243F8221000BF91
:10491C0005B05DF804FB00B585B00390002301934E
:10492C00002300930023012201210398FFF7C2FF0B
:10493C0000BF05B05DF804FB00B585B003900B46D5
:10494C008DF80B309DF80B30002201920022009262
:10495C00002200210398FFF7ADFF00BF05B05DF802
:10496C0004FB00B585B00390002301930023009352
:10497C000023012200210398FFF79CFF00BF05B024
:10498C005DF804FB00B585B0019001AB1846FFF74C
:10499C006BFF0390019B012202FA03F31946039863
:1049AC0000F004F800BF05B05DF804FB82B0019084
:1049BC000091019B009AC3F8082500BF02B0704714
:1049CC0084B00190019B5B09029300230393029B2B
:1049DC00002B03D0029B012B04D007E04FF0FF33D8
:1049EC00039303E04FF6FF73039300BF019B03F0A7
:1049FC001F030193039A019B22FA03F303F00103B3
:104A0C00002B14BF01230023DBB2184604B07047FF
:104A1C0000B583B001900091009B1B68B3F1FF3F80
:104A2C0009D0009B1B681846FFF7ACFF009B1B6866
:104A3C001846FFF770FF009B5B68B3F1FF3F05D092
:104A4C00009B5B6800211846FFF776FF019B1A68F4
:104A5C00009B9B6919461046FFF7DDFE019B186809
:104A6C00009B597D009B1B7D1A46FFF7BFFE019BE7
:104A7C001868009B1968009B5B681A46FFF74EFE8E
:104A8C00009B1B7D012B22D1009B9B68B3F1FF3F48
:104A9C0005D0009B9B6800211846FFF74DFF009B3B
:104AAC00DB68B3F1FF3F09D0009BDB681846FFF7CA
:104ABC0069FF009BDB681846FFF72DFF019B186808
:104ACC00009BD968009B9B681A46FFF764FE00BFE9
:104ADC0003B05DF804FB000000B583B001900B46F9
:104AEC008DF80330019B1B684FF488711846FFF753
:104AFC00ABFD019B1B684FF490711846FFF7A4FDAA
:104B0C00019B1B684FF492711846FFF79DFD019BAA
:104B1C001B684FF4A2711846FFF796FD019B1B68AA
:104B2C004FF4AC711846FFF78FFD019B1B680F49C2
:104B3C001846FFF7BFFD019B1B681846FFF734FDB5
:104B4C0003461A469DF8033019461046FFF734FD0C
:104B5C00019B1B681846FFF727FD03461846FFF715
:104B6C0057FD00BF03B05DF804FB00BF100342000B
:104B7C0000B583B00190019B1B6808491846FFF7EC
:104B8C00A3FD019B1B681846FFF70EFD0346184654
:104B9C00FFF74CFD00BF03B05DF804FB10034200AF
:104BAC0000B587B00190019B1B681846FFF7D3FD39
:104BBC000590019B1B681846FFF7D5FD0490019BDF
:104BCC001B681846FFF7D7FD0390019B1B6818461E
:104BDC00FFF7D9FD0290019B1B681846FFF7ADFD4E
:104BEC00019B1B681846FFF7E5FD059BB3F1FF3FE2
:104BFC0002D00598FFF7B5FE049BB3F1FF3F02D03E
:104C0C000498FFF7AEFE029BB3F1FF3F02D002986F
:104C1C00FFF7A7FE039BB3F1FF3F02D00398FFF70A
:104C2C00A0FE00BF07B05DF804FB000000B587B024
:104C3C00039002910192029B002B03D12B49CF20B0
:104C4C0002F0D6FE039B1B791A461346DB00134475
:104C5C009B00274A1344049300230593049B93F869
:104C6C002030002B03D008230593059B3AE0039BCF
:104C7C001A68039B1B7919461E4B53F821301946B1
:104C8C001046FEF763FD0346002B03D0112305935A
:104C9C00059B27E002990398FFF7BAFE049B019A43
:104CAC005A60029B1A69049B1A60049B5B68002B78
:104CBC0005D0029B1B7F19460398FFF70DFF039B42
:104CCC001B681846FFF718FD049B00229A61049B91
:104CDC000022DA61049B00225A61049B012283F8B2
:104CEC002020059B184607B05DF804FBECB80000CB
:104CFC004C07002038B9000000B585B00190019B2D
:104D0C001B791A461346DB0013449B002A4A1344B2
:104D1C000393019B1B680293039B5B68002B02D0DF
:104D2C000198FFF725FF20210298FFF7B4FC039BA5
:104D3C009B69002B08D04FF4A2710298FFF784FCFA
:104D4C0004210298FFF744FD4FF4AC710298FFF771
:104D5C007BFC0C210298FFF73BFD00BF4FF4AC71BC
:104D6C000298FFF786FC034683F00103DBB2002BAD
:104D7C00F4D1039B9B69002B0AD04FF4A2710298CB
:104D8C00FFF777FC034683F00103DBB2002BE5D180
:104D9C000298FFF7BAFC0198FFF702FF0298FEF7A2
:104DAC0017FD039B002283F82020039B00225A60EE
:104DBC0000BF05B05DF804FB4C07002000B589B0BE
:104DCC00039002910192039B1B791A461346DB0058
:104DDC0013449B00574A13440593059B93F82030CA
:104DEC00012B04D0544940F2531002F001FE029BF7
:104DFC00002B04D150494FF4AA7002F0F9FD019B2D
:104E0C00002B04D14C4940F2551002F0F1FD039BEC
:104E1C001B79002B03D1019BB3F5803F04D346498A
:104E2C004FF4AB7002F0E4FD0298FFF7AFFB0346C2
:104E3C0083F00103DBB2002B03D010230793079BF5
:104E4C0073E0039800F07AF80346002B03D011238B
:104E5C000793079B69E0059B019A5A61059B029A8F
:104E6C009A6000230793039B1B684FF490711846BC
:104E7C00FFF7EAFB039B1B684FF4AC711846FFF776
:104E8C00E3FB039B1868059B9968059B5B691A46B5
:104E9C00FFF7CBFC039B1B6808211846FFF798FC17
:104EAC00059B5B68002B3FD1039B1B684FF49071F3
:104EBC001846FFF7DEFB03468DF81B30039B1B687F
:104ECC004FF4AC711846FFF7D4FB03468DF81A303B
:104EDC009DF81B3083F00103DBB2002B06D09DF84C
:104EEC001A3083F00103DBB2002BDDD19DF81A30B0
:104EFC00002B02D00F23079313E0039B1B680C219C
:104F0C001846FFF765FC00BF039B1B684FF4AC71A0
:104F1C001846FFF7AEFB034683F00103DBB2002B10
:104F2C00F2D1059B00225A61079B184609B05DF827
:104F3C0004FB00BF4C070020ECB8000082B00190CD
:104F4C00019B1B791946084A0B46DB000B449B005E
:104F5C00134414331B68002B14BF01230023DBB252
:104F6C00184602B0704700BF4C07002000B589B04E
:104F7C0003900291019201238DF81030029B06934D
:104F8C00019B0593039B5B68039A116804AA104666
:104F9C00984700BF09B05DF804FB00B587B00190DD
:104FAC00009100238DF80830009B0493019B9B68B3
:104FBC000393019B00225A61019B5B68019A116863
:104FCC0002AA1046984700BF07B05DF804FB00B575
:104FDC0089B0019000914FF492710198FFF749FB51
:104FEC000346002B22D04FF492710198FFF72CFB53
:104FFC0002238DF808300198FFF770FB03460593E8
:10500C000198FFF729FC03460493009BDB6803938C
:10501C00009B00229A61009B0022DA61009B5B6876
:10502C00009A116802AA104698473BE04FF4887129
:10503C000198FFF71EFB0346002B33D04FF4887109
:10504C000198FFF701FB0198FFF706FC0790009B06
:10505C009B69079A9A4225D1009BDB69002B17D0DC
:10506C00009BDB68069320210198FFF714FB009B43
:10507C00DA69009B9A61009B1A69009BDA60009BBD
:10508C000022DA61069A07990098FFF76FFF09E092
:10509C00009B00229A61009BDB681A4607990098D6
:1050AC00FFF764FF4FF4A2710198FFF7E2FA034691
:1050BC00002B18D04FF4A2710198FFF7C5FA009B92
:1050CC009B69002B0FD0009B00229A61009B002251
:1050DC00DA610198FFF7C0FB0146009BDB681A46BA
:1050EC000098FFF743FF4FF490710198FFF7C1FA56
:1050FC000346002B14D04FF490710198FFF7A4FADB
:10510C000C210198FFF764FB009B5B69002B07D017
:10511C000198FFF799FB034619460098FFF73DFFEE
:10512C004FF4AC710198FFF7A4FA0346002B10D092
:10513C004FF4AC710198FFF787FA009B5B69002B69
:10514C0007D00198FFF780FB034619460098FFF73C
:10515C0024FF00BF09B05DF804FB000008B503494B
:10516C000348FFF734FF00BF08BD00BF4C07002009
:10517C000020004082B003468DF807309DF90730BF
:10518C00002B0CDB9DF8073003F01F0205499DF93D
:10519C0007305B09012000FA02F241F8232000BF1E
:1051AC0002B0704700E100E082B0034600918DF838
:1051BC0007309DF90730002B0ADB009BDAB20C4953
:1051CC009DF907305201D2B20B4483F800230BE057
:1051DC00009BDAB207499DF8073003F00F03043B3C
:1051EC005201D2B20B441A7600BF02B0704700BF16
:1051FC0000E100E000ED00E082B00190019B03F0C3
:10520C006043B3F1005F0CBF01230023DBB21846EF
:10521C0002B0704782B00190019B03F00303002B96
:10522C000CBF01230023DBB2184602B0704700000C
:10523C0000B583B003460A468DF8073013468DF847
:10524C0006309DF80630012B03D99DF80630032B50
:10525C000BD99DF80630042B03D99DF80630072B8B
:10526C0003D908496B2002F0C3FB9DF806209DF979
:10527C00073011461846FFF797FF00BF03B05DF8E3
:10528C0004FB00BF3CB9000000B583B003468DF8A9
:10529C0007309DF907301846FFF76CFF00BF03B0CD
:1052AC005DF804FB82B001900B468DF803309DF83D
:1052BC000330019A134401221A6000BF02B07047F8
:1052CC0084B001900B46ADF80230BDF80230019A63
:1052DC00134400221A60BDF80230019A13441B6873
:1052EC000393039B00BF04B0704782B001900B4640
:1052FC00ADF80230BDF80230019A13441B68002B44
:10530C0014BF01230023DBB2184602B0704782B0F1
:10531C0001900091019B009AC3F8042300BF02B0D6
:10532C00704782B001900091019B009AC3F808234A
:10533C0000BF02B0704782B00190019B0122C3F8FC
:10534C00002500BF02B0704782B00190019B002283
:10535C00C3F8002500BF02B0704784B003900291DF
:10536C0001920093039B029AC3F86425039B019A54
:10537C00C3F86825039B009AC3F86025039B049A25
:10538C00C3F87025039B059AC3F86C2500BF04B0C5
:10539C00704782B00190084611461A4603468DF8B4
:1053AC0003300B468DF8023013468DF801309DF812
:1053BC000330002B21D19DF80830012B03D19DF82F
:1053CC001430012B17D09DF80830022B15D19DF805
:1053DC001430002B0FD09DF81430022B0BD09DF8FD
:1053EC001430042B07D09DF81430062B03D09DF8F5
:1053FC001430082B01D100232EE09DF80320019BD3
:10540C00C3F804259DF80220019BC3F824259DF8C0
:10541C000120019BC3F820259DF80820019BC3F8AF
:10542C001C259DF80C20019BC3F828259DF8142001
:10543C00019BC3F81825049B002B04D1019B00226F
:10544C00C3F8102507E0019B049AC3F81425019BAF
:10545C000122C3F810250123184602B0704700B58D
:10546C0085B00390019200930B46ADF80A30BDF85D
:10547C000A20039BC3F850250199039800F01CF8EF
:10548C00019B002B14BF01230023DBB21A46039BA4
:10549C00C3F808250099039800F018F8009B002B1E
:1054AC0014BF01230023DBB21A46039BC3F80C255F
:1054BC0000BF05B05DF804FB82B001900091009A2A
:1054CC00019BC3F8382500BF02B0704782B0019031
:1054DC000091009A019BC3F8402500BF02B07047B1
:1054EC0000B583B00190019B1B68184600F075F85D
:1054FC000346002B04D10B494FF4F67002F078FAF6
:10550C00019B1B681F2B02D84FF0A04306E0019BA8
:10551C001B6803F01F02019B1A60034B184603B073
:10552C005DF804FB6CB900000003005000B585B0B9
:10553C000190084611461A4603468DF803300B4677
:10554C008DF8023013468DF8013001AB1846FFF789
:10555C00C7FF03909DF803209DF802305B001A43AF
:10556C009DF801309B001A439DF818301B0242EA4B
:10557C0003019DF81C301B04019A1943039B02F58F
:10558C00E07243F8221000BF05B05DF804FB00B5D3
:10559C0085B0039000230193002300930023012284
:1055AC0001210398FFF7C2FF00BF05B05DF804FBB3
:1055BC0000B585B003900B468DF80B309DF80B3081
:1055CC000022019200220092002200210398FFF792
:1055DC00ADFF00BF05B05DF804FB84B00190019BEA
:1055EC005B09029300230393029B002B03D0029BC5
:1055FC00012B04D007E04FF0FF33039303E04FF689
:10560C00FF73039300BF019B03F01F030193039AE5
:10561C00019B22FA03F303F00103002B14BF0123B7
:10562C000023DBB2184604B07047000000B589B007
:10563C000390039B9B79002B0AD1039B1B78184684
:10564C00FFF7A5FF039B5B781846FFF7A0FF0BE065
:10565C00039B1B7800211846FFF7AAFF039B5B787E
:10566C0000211846FFF7A4FF039B9B78FF2B06D065
:10567C00039B9B7807930798FFF789FF02E04FF095
:10568C00FF330793039BDB78FF2B06D0039BDB7860
:10569C0006930698FFF77BFF02E04FF0FF3306936B
:1056AC00039B1B79FF2B07D0039B1B7905930021D0
:1056BC000598FFF77DFF02E04FF0FF330593039B46
:1056CC001B781946039B5B781A46059B0193069B36
:1056DC000093079B0348FFF740FE00BF09B05DF83D
:1056EC0004FB00BF0050024070B588B005900491D7
:1056FC00059B002B03D12549962002F079F9049BD8
:10570C00002B03D12149972002F072F9204B1B7911
:10571C00002B03D008230793079B34E0059B9C794F
:10572C00059BDD79059B1E7A059B5B7A059A927A1F
:10573C000599C9680598007C039002910192009329
:10574C0033462A4621461348FFF723FE034683F0CF
:10575C000103DBB2002B03D007230793079B12E056
:10576C000598FFF763FF0A4A049B1360059B5B795E
:10577C0019462520FFF75CFD2520FFF785FD044B1E
:10578C0001221A710023184608B070BDA0B90000A0
:10579C00700700200050024000B585B001900B4608
:1057AC00ADF8023013468DF80130019B002B03D16C
:1057BC007049D92002F01CF9019B1B68002B07D102
:1057CC00019B5B68002B03D16A49DA2002F010F9C7
:1057DC00019B1B68002B13D0019B1B681846FFF71D
:1057EC000BFD0346002B07D0019B1B681846FFF7E7
:1057FC0011FD0346002B03D15E49DC2002F0F8F8C2
:10580C00019B5B68002B13D0019B5B681846FFF76C
:10581C00F3FC0346002B07D0019B5B681846FFF78F
:10582C00F9FC0346002B03D15249DF2002F0E0F8CB
:10583C00BDF80230002B03D14E49E22002F0D8F81B
:10584C004D4B1B79012B03D008230393039B8DE055
:10585C00019B1B68002B0AD0019B1B681846FFF7A5
:10586C00CBFC034683F00103DBB2002B0ED1019B72
:10587C005B68002B0ED0019B5B681846FFF7BCFCE5
:10588C00034683F00103DBB2002B03D010230393F8
:10589C00039B6BE0019B1B68002B14BF01230023AF
:1058AC00D9B2354A537961F300035371019B5B689C
:1058BC00002B14BF01230023D9B22F4A537961F373
:1058CC00410353712C4A53796FF3820353712A4A63
:1058DC0053796FF3C3035371274A53796FF304134E
:1058EC005371254ABDF80230D380234B019A0833FB
:1058FC0092E8030083E803001F4B00221A611E4B41
:10590C0000225A611C4BD9881B4B9A681A4BDB68D6
:10591C001A48FFF7A4FD1948FFF70DFD164B02229C
:10592C001A714FF482711548FFF7CAFC4FF48A7153
:10593C001248FFF7C5FC4FF484711048FFF7C0FC08
:10594C000D4B5B795B0003F002020B4B5B791B0187
:10595C0003F02003134343F0040319460748FFF7F1
:10596C00D6FC00210548FFF79DFC0023184605B026
:10597C005DF804FBA0B90000700700200050024045
:10598C0000B585B00190584B1B79022B04D05749B8
:10599C0040F2231002F02CF8019B002B04D1534948
:1059AC004FF4927002F024F8019B1B68002B14D06A
:1059BC00019B1B681846FFF71FFC0346002B07D002
:1059CC00019B1B681846FFF725FC0346002B04D1EE
:1059DC00464940F2251002F00BF8019B5B68002B46
:1059EC0014D0019B5B681846FFF706FC0346002B9E
:1059FC0007D0019B5B681846FFF70CFC0346002B95
:105A0C0004D13A494FF4947001F0F2FF364B5B79B4
:105A1C00C3F30013DBB283F00103DBB2002B03D022
:105A2C0008230393039B5AE0019B1B68002B0AD0AD
:105A3C00019B1B681846FFF7DFFB034683F001034D
:105A4C00DBB2002B0ED1019B5B68002B0ED0019BAF
:105A5C005B681846FFF7D0FB034683F00103DBB20B
:105A6C00002B03D010230393039B38E01E4B5B7970
:105A7C0003F00203DBB2002B0ED0019B5B68002B02
:105A8C0004D11A494FF4A37001F0B2FF019B5B687B
:105A9C0019461748FFF71AFD134B5B7903F0010306
:105AAC00DBB2002B0ED0019B1B68002B04D10F49DD
:105ABC0040F24B1001F09CFF019B1B6819460C48EF
:105ACC00FFF7FAFC084B019A083392E8030083E8CD
