:020000022000DC
:107000000000042071730200597302005B730200D8
:107010005D7302005F7302006173020000000000F4
:107020000000000000000000000000006373020088
:10703000657302000000000067730200F19802000F
:1070400015C902006B73020061D60200B1F702009D
:107050006B7302006B73020059D502006B73020060
:10706000CDE90200E5E902006B7302006B730200D8
:107070006B7302006B7302006B7302006B73020090
:107080006B7302003DB102006B7302006B73020070
:107090006B7302006B730200C9A402006B730200E1
:1070A0006B7302006B7302006B7302006B73020060
:1070B0006B7302006B730200000000000000000010
:1070C0006B7302006B7302006B7302006B73020040
:1070D0006B730200FDE002006B7302006B73020031
:1070E0006B7302006B7302006B7302000000000000
:1070F000000000006B730200000000006B730200D0
:10710000000000000000000000000000000000007F
:10711000000000000000000000000000000000006F
:10712000000000000000000000000000000000005F
:10713000000000000000000000000000000000004F
:10714000000000000000000000000000000000003F
:10715000000000000000000000000000000000002F
:10716000000000000000000000000000000000001F
:10717000000000000000000000000000000000000F
:1071800000000000000000000000000000000000FF
:1071900000000000000000000000000000000000EF
:1071A00000000000000000000000000000000000DF
:1071B00000000000000000000000000000000000CF
:1071C00000000000000000000000000000000000BF
:1071D00000000000000000000000000000000000AF
:1071E000000000000000000000000000000000009F
:1071F000000000000000000000000000000000008F
:10720000344935480A1A02D0072291438D46334942
:1072100033480A1A06D00722914381F309880222D3
:1072200082F314882F483049304A00F041F8304842
:107230003049314A00F03CF830483149314A00F0D9
:1072400037F831483149324A00F032F83148324992
:10725000324A00F02DF832483249334A00F028F81B
:1072600032483349334A00F023F833483349002287
:1072700000F029F832483349002200F024F832485F
:107280003249091A0AF0CCFE314A90471F4820497A
:10729000884205D00268043003B4904703BCF7E786
:1072A00000208646EC46002000212A4A9047FEE74F
:1072B000884207D0521A05D0037801300B70013193
:1072C000013AF9D17047884202D002700130FAE7E2
:1072D000704700000000042000E0032000000420AC
:1072E00000000420042D0D00002300205023002066
:1072F000CC730200CC73020034200300042D0D0077
:1073000000230020002300207C2003007C200300B9
:107310007C2003007C2003007C2003007C200300F1
:107320007C2003007C200300042D0D00542D0D0053
:10733000502300205023002050230020A04A00208A
:10734000A04A0020A04A0020A04A0020A06A0020F5
:1073500099730200B3870200FEE7FEE7FEE7FEE74F
:10736000FEE7FEE7FEE7FEE7FEE7FEE700F002B815
:10737000FFF7FCBF0F484FF00701884385460E48D2
:1073800080470E48016841F470010160BFF34F8FE0
:10739000BFF36F8FFFF734BF09480A490A4A884292
:1073A00007D0521A05D0037801300B700131013A31
:1073B000F9D1704700000420BD19030088ED00E0FA
:0C73C0007C20030000230020002300209C
:1073CC0082B003468DF807309DF8072036491346E6
:1073DC00DB0013449B000B44203300221A609DF801
:1073EC00072031491346DB0013449B000B441C332C
:1073FC0000221A609DF807202B491346DB0013442A
:10740C009B000B44183300221A609DF80720264974
:10741C001346DB0013449B000B44143300221A6008
:10742C009DF8072020491346DB0013449B000B44B6
:10743C00103300221A609DF807201B491346DB000D
:10744C0013449B000B440C3300221A609DF8072058
:10745C0015491346DB0013449B000B4409330022EF
:10746C001A709DF8072010491346DB0013449B004B
:10747C000B44083300221A709DF807200A49134662
:10748C00DB0013449B000B44043300221A609DF86C
:10749C00072005491346DB0013449B000B440022D4
:1074AC001A7000BF02B070475423002000B583B09F
:1074BC0003468DF807309DF8072049491346DB0039
:1074CC0013449B000B441C331B68002B15D09DF8F8
:1074DC00072043491346DB0013449B000B441C3329
:1074EC0019689DF807203E481346DB0013449B00A7
:1074FC00034420331B68184688479DF807203849F9
:10750C001346DB0013449B000B4409331B78002B00
:10751C001ED19DF807109DF8072031480B46DB0063
:10752C000B449B000344143319682D481346DB00AD
:10753C0013449B000344183319609DF80720284915
:10754C001346DB0013449B000B4401221A7042E0EB
:10755C009DF8072022491346DB0013449B000B4483
:10756C000C331B68012B31D99DF807109DF80720AF
:10757C001B480B46DB000B449B0003441433196877
:10758C0017481346DB0013449B000344183319605F
:10759C009DF8072012491346DB0013449B000B4453
:1075AC0001221A709DF807200D491346DB00134485
:1075BC009B000B440C331B68591E09481346DB0017
:1075CC0013449B0003440C33196004E09DF807300E
:1075DC001846FFF7F5FE00BF03B05DF804FB00BFD3
:1075EC0054230020084B1B680133074A1360064BD9
:1075FC001B68002B04D1044B1B680133024A136037
:10760C00014B1B68184670475023002000B583B00F
:10761C00FFF7E8FF019000238DF8033036E00023DC
:10762C008DF8023000238DF802302BE09DF80220FB
:10763C001C491346DB0013449B000B441B78002BA6
:10764C0018D09DF8022017491346DB0013449B0009
:10765C000B4404331A68144B1B689A4206D1FFF78B
:10766C00C1FF019000238DF803300FE001238DF84A
:10767C00033002E001238DF803309DF80230013312
:10768C008DF802309DF80230182BCFD99DF80330BD
:10769C0083F00103DBB2002BC1D1019B184603B070
:1076AC005DF804FB542300205023002000BF7047DA
:1076BC0000BF704710B586B0029101921A4603467E
:1076CC008DF80F3013468DF80E3000238DF81730DF
:1076DC0000238DF817308CE09DF81720494913468C
:1076EC00DB0013449B000B441B78002B7CD19DF8D2
:1076FC00172044491346DB0013449B000B442033F2
:10770C00099A1A609DF817203E491346DB00134472
:10771C009B000B441C33089A1A609DF817203949BA
:10772C001346DB0013449B000B441833019A1A6078
:10773C009DF8172033491346DB0013449B000B4480
:10774C001433019A1A609DF817202E491346DB005A
:10775C0013449B000B441033029A1A609DF81720B7
:10776C009DF80F1027481346DB0013449B0003447D
:10777C000C3319609DF8172022491346DB00134483
:10778C009B000B4409339DF80F201A709DF81720AD
:10779C001C491346DB0013449B000B4408339DF833
:1077AC000E201A709DF81740FFF730FF024615495E
:1077BC002346DB0023449B000B4404331A609DF8E2
:1077CC00172010491346DB0013449B000B44012285
:1077DC001A709DF817200B491346DB0013449B00CD
:1077EC000B4404331B680AE09DF8173001338DF805
:1077FC0017309DF81730182B7FF66EAF0023184604
:10780C0006B010BD5423002000B587B0049103933B
:10781C0003468DF8173013468DF816309DF8162058
:10782C009DF81700089B0193039B00931346049A41
:10783C000021FFF73FFF0346184607B05DF804FB35
:10784C0000B585B0019000238DF80F3000238DF822
:10785C000F3022E09DF80F2014491346DB0013442F
:10786C009B000B4404331B68019A9A4210D19DF87B
:10787C000F200E491346DB0013449B000B441B786E
:10788C00002B05D09DF80F301846FFF799FD09E045
:10789C009DF80F3001338DF80F309DF80F30182BF9
:1078AC00D8D900BF00BF05B05DF804FB54230020FD
:1078BC0000B585B00190FFF7F9FE00238DF80F306D
:1078CC0000238DF80F3099E09DF80F205149134695
:1078DC00DB0013449B000B441B78012B40F0888089
:1078EC009DF80F204B491346DB0013449B000B44BF
:1078FC0010331B68019A9A4216D29DF80F20454905
:10790C001346DB0013449B000B44103319689DF89D
:10791C000F20019BC91A3F481346DB0013449B0000
:10792C0003441033196064E09DF80F203949134665
:10793C00DB0013449B000B4410331B68002B0BD053
:10794C009DF80F2033491346DB0013449B000B4476
:10795C00103300221A604CE09DF80F202D4913467D
:10796C00DB0013449B000B4418331B68019A9A42AA
:10797C0016D29DF80F2027491346DB0013449B00B9
:10798C000B44183319689DF80F20019BC91A214824
:10799C001346DB0013449B0003441833196028E0A2
:1079AC009DF80F201B491346DB0013449B000B442E
:1079BC00183300221A609DF80F2016491346DB007D
:1079CC0013449B000B4408331B78002B05D19DF806
:1079DC000F301846FFF76AFD0BE09DF80F200D499C
:1079EC001346DB0013449B000B4403221A7000E087
:1079FC0000BF9DF80F3001338DF80F309DF80F301C
:107A0C00182B7FF661AFFFF753FE00BF05B05DF892
:107A1C0004FB00BF5423002000B585B003468DF84D
:107A2C0007309DF80730002B2FD000238DF80F3036
:107A3C0000238DF80F3024E09DF80F2015491346D4
:107A4C00DB0013449B000B441B78032B13D19DF8D4
:107A5C000F2010491346DB0013449B000B440833E2
:107A6C001B789DF807209A4206D19DF80F301846D6
:107A7C00FFF71CFD00E000BF9DF80F3001338DF8BF
:107A8C000F309DF80F30182BD6D900BF05B05DF81C
:107A9C0004FB00BF5423002000B585B001900B46B9
:107AAC008DF8033013468DF80230019B9B68002B38
:107ABC000ED09DF803308DF80C309DF802308DF807
:107ACC000D30019B9B68019A107803A902229847FC
:107ADC00019B1B69002B04D0019B1B694FF4FA70AE
:107AEC00984700BF05B05DF804FB00B585B0039066
:107AFC0001921A460B468DF80B3013468DF80A305E
:107B0C00039B9B68002B07D0039B9B68039A107800
:107B1C000DF10B0101229847039B1B69002B03D02D
:107B2C00039B1B6932209847039BDB68002B07D013
:107B3C00039BDB68039A10789DF80A2001999847FB
:107B4C00039B1B69002B03D0039B1B6932209847B6
:107B5C0000BF05B05DF804FB82B001900091019B61
:107B6C00002B0ED0019BDB69002B0AD0009B002B55
:107B7C0007D0019BDB69D968019BDB69009A0A4439
:107B8C00DA6000BF02B0704782B00190019B002BFD
:107B9C000AD0019BDB69002B06D0019BDB691B78AB
:107BAC00062B01D1012300E00023184602B07047D8
:107BBC0082B001900B468DF80330019B002B08D04E
:107BCC00019BDB69002B04D0019BDB699DF8032032
:107BDC005A7000BF02B0704700B585B00190019B90
:107BEC00002B21D0019BDB69002B1DD0019BDB6995
:107BFC005B78002B18D100238DF80F300DF10F029C
:107C0C00012308210198FFF770FF9DF90F3007EE53
:107C1C00903AF8EEE77AB6EE007A67EE877AB3EE32
:107C2C00077A77EE877A01E0DFED037AB0EE670A28
:107C3C0005B05DF804FB00BF0000000000B587B084
:107C4C000190019B002B40D0019BDB69002B3CD0A9
:107C5C00019BDB695B78002B37D100238DF80F304B
:107C6C000DF10F0201230C210198FFF73EFF9DF847
:107C7C000F3003F03003302B03D102238DF810307A
:107C8C0016E09DF80F3003F02003002B03D00123E6
:107C9C008DF810300CE09DF80F3003F01003002B22
:107CAC0003D000238DF8103002E003238DF8103040
:107CBC009DF80F3003F04003002B03D000238DF808
:107CCC00113002E001238DF81130BDF81030ADF801
:107CDC00143000239DF8142062F307039DF815203F
:107CEC0062F30F23184607B05DF804FB00B585B0AE
:107CFC0001900B468DF803304FF000030393019B6A
:107D0C00002B57D0019BDB69002B53D0019BDB6907
:107D1C005B78002B4ED1019B002B4BD0019BDB6978
:107D2C00002B47D00023ADF8083000238DF80B3022
:107D3C009DF80330022B0ED0022B10DC002B02D04E
:107D4C00012B04D00BE002238DF80B3007E0042349
:107D5C008DF80B3003E006238DF80B3000BF02AA20
:107D6C009DF80B1002230198FFF7BFFEBDF90830F8
:107D7C009B101BB2ADF80830BDF9083007EE903AF5
:107D8C00B8EEE77A019B5B780E4ADB0013440433B0
:107D9C00D3ED006A9FED0C6AC6EE867A67EE277A01
:107DAC00CDED037ADDED037A9FED087A67EE877AE5
:107DBC00CDED037A039B07EE903AB0EE670A05B05F
:107DCC005DF804FB7C2003000000004600007A44B0
:107DDC0000B585B00190019B002B48D0019BDB695D
:107DEC00002B44D0019BDB695B78002B3FD1002337
:107DFC008DF80F300DF10F0201230B210198FFF7C5
:107E0C0074FE9DF80F3003F00803002B17D09DF87B
:107E1C000F3003F00403002B01D0022328E09DF85F
:107E2C000F3003F00203002B01D0042320E09DF857
:107E3C000F3003F00103002B19D0062318E09DF836
:107E4C000F3003F00403002B01D0012310E09DF848
:107E5C000F3003F00203002B01D0032308E09DF840
:107E6C000F3003F00103002B01D0052300E00023A9
:107E7C00184605B05DF804FB00B585B00190019B78
:107E8C00002B47D0019BDB69002B43D0019BDB69A6
:107E9C005B78002B3ED100238DF80F300DF10F02D3
:107EAC0001230B210198FFF720FE9DF80F305BB2E8
:107EBC00002B17DA9DF80F3003F04003002B01D094
:107ECC00022328E09DF80F3003F02003002B01D093
:107EDC00042320E09DF80F3003F01003002B19D081
:107EEC00062318E09DF80F3003F04003002B01D05F
:107EFC00012310E09DF80F3003F02003002B01D07C
:107F0C00032308E09DF80F3003F01003002B01D081
:107F1C00052300E00023184605B05DF804FB0000C3
:107F2C0000B589B00190019B002B00F09C81019B56
:107F3C00DB69002B00F09781019BDB691B78062B1A
:107F4C0000F2A08101A252F823F000BF757F02005D
:107F5C00AF7F0200F37F020083800200DB8002000F
:107F6C002981020077810200019BDB691B7A002BBF
:107F7C000ED0019BDB69DB68042B40F27681019B00
:107F8C00DB6900221A72019BDB6901221A706CE119
:107F9C00019BDB690022DA60019BDB6901221A720A
:107FAC0063E1019BDB691B7A002B0ED0019BDB6923
:107FBC00DB68042B40F25B81019BDB6900221A72A7
:107FCC00019BDB6902221A7051E1B622142101983F
:107FDC00FFF762FD019BDB690022DA60019BDB6924
:107FEC0001221A7243E1019BDB691B7A002B0ED034
:107FFC00019BDB69DB68632B40F23B81019BDB69F6
:10800C0000221A72019BDB6903221A7031E1019B79
:10801C005B781A469D4B13F832301A460F210198A3
:10802C00FFF73AFD019B9B781A46994B13F83230B7
:10803C001A4610210198FFF72FFD019BDB781A4699
:10804C00944B9B5C5AB2019B1B791946924B5B5C1F
:10805C005B005BB213435BB2DBB21A461121019891
:10806C00FFF71AFD019BDB690022DA60019BDB69DB
:10807C0001221A72FDE0019BDB691B7A002B0ED0EA
:10808C00019BDB69DB68632B40F2F580019BDB69AC
:10809C0000221A72019BDB6904221A70EBE00622A3
:1080AC0034210198FFF7F8FC102217210198FFF7F3
:1080BC00F3FC01221A210198FFF7EEFC019BDB690E
:1080CC000022DA60019BDB6901221A72D3E0019B6A
:1080DC00DB691B7A002B0ED0019BDB69DB68632B01
:1080EC0040F2CB80019BDB6900221A72019BDB6999
:1080FC0005221A70C1E0F72216210198FFF7CCFC7B
:10810C00742219210198FFF7C7FC019BDB6900223F
:10811C00DA60019BDB6901221A72AEE0019BDB691C
:10812C001B7A002B0ED0019BDB69DB68632B40F2C2
:10813C00A680019BDB6900221A72019BDB69062277
:10814C001A709CE00A222B210198FFF7A5FC05224E
:10815C0020210198FFF7A0FC019BDB690022DA606B
:10816C00019BDB6901221A7289E0019BDB695B7858
:10817C00012B40F08680019BDB69DA68019BDB698F
:10818C005B689A427DD3019BDB690022DA60019B1C
:10819C005B69002B75D0019B1B7E03F00103DBB2E6
:1081AC00002B07D000210198FFF7A0FDF0EE407ADC
:1081BC00CDED037A019B1B7E03F00203DBB2002B97
:1081CC0007D001210198FFF791FDF0EE407ACDED3B
:1081DC00047A019B1B7E03F00403DBB2002B07D057
:1081EC0002210198FFF782FDF0EE407ACDED057A81
:1081FC00019B1B7E03F00803DBB2002B06D0019819
:10820C00FFF7EAFCF0EE407ACDED067A019B1B7E7F
:10821C0003F01003DBB2002B05D00198FFF70EFD25
:10822C000346ADF81C30019B1B7E03F02003DBB230
:10823C00002B05D00198FFF7CBFD03468DF81E30BF
:10824C00019B1B7E03F04003DBB2002B05D0019891
:10825C00FFF712FE03468DF81F30019B5B6903AAE2
:10826C00104698470DE000BF0CE000BF0AE000BFCD
:10827C0008E000BF06E000BF04E000BF02E000BF62
:10828C0000E000BF00BF09B05DF804FB7C200300D8
:10829C009C200300DC200300E0200300A8DF7047D3
:1082AC0000BF1846AEDF704700BF184662DF70474C
:1082BC0000BF184600B585B001900091009B0633B5
:1082CC000393039B1A88019B9B8A9A420FD1039BB1
:1082DC005B89012B0BD1019B1B6A002B07D0019BE7
:1082EC001B6A009A9088039A127B0199984700BFE9
:1082FC0005B05DF804FB00B58BB0019002AB2022F9
:10830C000021184609F054FE41F20123ADF8083063
:10831C00019B9B788DF80A30019B5B8AADF80C3081
:10832C0001238DF81C309DF8153043F002038DF8B5
:10833C0015309DF8153043F010038DF815300123DE
:10834C008DF8193001238DF81B30019B5B8AADF839
:10835C000E30019B0C330493019B1888019B1A1D52
:10836C0002AB194608F0A0FC034618460BB05DF8AA
:10837C0004FB00B58BB0019002AB20220021184603
:10838C0009F016FE41F20223ADF80830019B9B78F0
:10839C008DF80A30019BDB8BADF80C3001238DF886
:1083AC001C309DF8153043F002038DF815309DF804
:1083BC00153043F008038DF8153001238DF8193072
:1083CC0001238DF81A30019BDB8BADF80E30019B2D
:1083DC001C330493019B1888019B03F1140202AB1C
:1083EC00194608F061FC034618460BB05DF804FB17
:1083FC0010B58CB0019000230B93224B02AC0FCB29
:10840C0084E80F00019B9A1C02AB11461846FFF73B
:10841C004DFF0B900B9B0A930A9B002B01D00A9BE0
:10842C002CE0019B9B788DF81A304FF49053ADF8EB
:10843C001830019A06AB19460120FFF72FFF0B905D
:10844C000B9B0993099B002B01D0099B16E001980B
:10845C00FFF751FF0B900B9B0893089B002B01D04F
:10846C00089B0BE00198FFF784FF0B900B9B079385
:10847C00079B002B01D0079B00E00B9B18460CB010
:10848C0010BD00BFEC20030000B585B00190009139
:10849C00009B0393019B1B88502B04D101990398DB
:1084AC00FFF708FF00E000BF00BF05B05DF804FB5C
:1084BC0000B589B0029111461A460346ADF80E304C
:1084CC000B46ADF80C301346ADF80630029B0C335E
:1084DC00BDF80C201A80029B0E33BDF806201A80C2
:1084EC00029B1033BDF828201A8004AB1022002107
:1084FC00184609F05DFD01238DF81230029B9B8814
:10850C00ADF81030029B0C330793029B1233069389
:10851C0004AABDF80E3011461846FFF7C3FE0346F9
:10852C00184609B05DF804FB034BDB681B0A03F02B
:10853C0007031846704700BF00ED00E082B0034609
:10854C0000918DF807309DF90730002B0ADB009B5A
:10855C00DAB20C499DF907305201D2B20B4483F8C0
:10856C0000230BE0009BDAB207499DF8073003F0BB
:10857C000F03043B5201D2B20B441A7600BF02B077
:10858C00704700BF00E100E000ED00E088B0039010
:10859C0002910192039B03F007030793079BC3F11E
:1085AC000703032B28BF03230693079B0333062BD8
:1085BC0002D9079B043B00E0002305930122069B94
:1085CC0002FA03F35A1E029B1A40059B9A400121A2
:1085DC00059B01FA03F3591E019B0B4013431846EC
:1085EC0008B0704700B583B00190019B013BB3F11B
:1085FC00807F01D301230FE0094A019B013B5360AB
:10860C0007214FF0FF30FFF799FF054B00229A60CE
:10861C00034B07221A600023184603B05DF804FBD5
:10862C0010E000E000B587B00346029101928DF88E
:10863C000F3000230593FFF777FF0590019A0299FD
:10864C000598FFF7A3FF02469DF90F301146184617
:10865C00FFF774FF00BF07B05DF804FB00B583B0F3
:10866C0001900198FFF7BEFF0346184603B05DF872
:10867C0004FB000000B583B001900F4B1B680F4A40
:10868C00A2FB03239B091846FFF7E8FF0346002BC8
:10869C0001D000230BE0019B072B07D80022019986
:1086AC004FF0FF30FFF7BEFF012300E00023184618
:1086BC0003B05DF804FB00BF4C230020D34D6210C7
:1086CC00034B1B680133024A136000BF704700BFA5
:1086DC00D8260020014B1B6818467047D82600206E
:1086EC00034B1B68024A23F00203136000BF704760
:1086FC0010E000E000B585B00390029113468DF8B0
:10870C000730039B1B7883F00103DBB2002B0CD0EA
:10871C00FFF7E0FF0246039B5A60039B029A9A60A4
:10872C00039B01221A7001231FE0FFF7D3FF0246BF
:10873C00039B5B68D21A039B9B689A4214D99DF8E1
:10874C000730002B0BD0FFF7C5FF0246039B5A6086
:10875C00039B029A9A60039B01221A7002E0039B0E
:10876C0000221A70012300E00023184605B05DF8C2
:10877C0004FB00B583B00190019B1B78002B0DD03E
:10878C00FFF7A8FF0246019B5B68D21A019B9B680E
:10879C009A4201D9012302E0002300E0012318468C
:1087AC0003B05DF804FB08B50120FFF763FF01F08F
:1087BC00B1FB01F0BBFB01F021F901F099F900F0DC
:1087CC0009FA00F0CDFF00F0CBF800F0FFFE00F04E
:1087DC000BFB012000F012FA00F0F6FF00F0AAF9F2
:1087EC0000F052FF00F0FEFA01F0AAFB00F012FBC1
:1087FC00F2E7000000B585B0019000912B4B1B787F
:10880C00002B0BD0294B00221A7001F059FB284B7E
:10881C0002221A70022000F0BDFA43E0254B1A68C0
:10882C00254B1B689A420ED1224B00221A6001F094
:10883C0047FB224B00221A701D4B00221A7000209D
:10884C0000F0A8FA2EE00023ADF80E3022E0BDF8BF
:10885C000E309B00019A13440293164B1A68164B68
:10886C001B689A420ED2164B1A68124B1B685B009F
:10887C0013441A88029B5A800E4B1B6801330D4A15
:10888C00136002E0029B00225A80BDF80E300133C7
:10889C00ADF80E30BDF80E30009A9A42D7D80320AE
:1088AC0000F078FA00BF05B05DF804FB112700203A
:1088BC00102700200C270020082700200023002070
:1088CC000427002008B50122FA210D48FFF712FFFA
:1088DC000346002B11D00B4B1B78184600F084F884
:1088EC00084B1B780133DAB2064B1A70054B1B7818
:1088FC00022B02D9034B01221A7000BF08BD00BF26
:10890C00E02600200123002008B50122FA210548A9
:10891C00FFF7F0FE0346002B01D000F0DFF800BF9C
:10892C0008BD00BFEC26002008B50122FA210A4838
:10893C00FFF7E0FE0346002B0CD0084B1B78012BF5
:10894C0002D100F0A3F805E0044B1B78022B01D1F7
:10895C0000F0AEF800BF08BDF8260020102700205C
:10896C0008B50A4801F028FA0949012001F090F8ED
:10897C000849022001F08CF80749032001F088F81F
:10898C00064B00221A7000BF08BD00BF0188020010
:10899C00D18802001589020035890200DC260020EE
:1089AC00014B1B7818467047DC260020054B002233
:1089BC001A70054B00221A70044B00221A7000BF6B
:1089CC00704700BFE0260020EC260020F82600208F
:1089DC00014B1B781846704710270020014B1B7861
:1089EC00184670470023002000B583B003468DF86D
:1089FC0007301E4B1B78002B34D19DF80730022B0F
:108A0C0015D0022B2DDC002B02D0012B04D028E03A
:108A1C00174B00221A7025E0154B01221A70154BCA
:108A2C00154A1A60154B4FF411321A600AE0104BBC
:108A3C0002221A700F4B124A1A60104B4FF42F324D
:108A4C001A6000BF0F4B01221A700F4B00221A60E4
:108A5C00064B01221A70012000F09CF901F0F4F988
:108A6C0000E000BF03B05DF804FB00BF102700203E
:108A7C000023002004270020FC20030008270020EE
:108A8C00FCA80700DC2600200C270020054B1B78D7
:108A9C00012B05D1044B01221A70044B01221A70D0
:108AAC0000BF704710270020DC2600201127002073
:108ABC0008B5084B1B78022B0AD1074B01221A7000
:108ACC00044B01221A70012000F064F901F0BCF98A
:108ADC0000BF08BD10270020DC26002008B5124B73
:108AEC001B78012B0ED1114B01221A7001F0E8F901
:108AFC000F4B00221A700C4B00221A70002000F051
:108B0C0049F90FE0084B1B78022B0BD1074B0122C4
:108B1C001A70074B00221A70034B00221A700020A7
:108B2C0000F038F900BF08BD10270020DC2600201B
:108B3C000023002008B501F0C9F90D4B1B78012B5F
:108B4C0014D00C48FFF715FE0346002B0ED00A4834
:108B5C00FFF70FFE0346002B08D00848FFF709FE6D
:108B6C000346002B02D0064B00221A7000BF08BD32
:108B7C0010270020E0260020EC260020F8260020FC
:108B8C00DC26002000B583B00190002009F082F9AA
:108B9C0000BF03B05DF804FB00B583B00190012069
:108BAC0009F078F900BF03B05DF804FB00B583B0A1
:108BBC000190022009F040F9044B00221A60044B8A
:108BCC0000221A7000BF03B05DF804FB1C270020C4
:108BDC001227002008B5012009F0AAF9024B002247
:108BEC001A7000BF08BD00BF12270020014B1B7874
:108BFC00184670471227002000BF704700B585B09B
:108C0C0003468DF80F309DF80F30002B02D0012B4E
:108C1C0010D022E0134B1B68002B07D0114B1B68A4
:108C2C001846FEF70DFE0F4B00221A60002009F0CB
:108C3C00E9F812E00B4B1B68002B0DD1002009F05A
:108C4C00FBF800230093084BFF22C8210020FEF7FD
:108C5C00DBFD0346034A136000BF00BF05B05DF89F
:108C6C0004FB00BF14270020918B020000B585B0D7
:108C7C0003468DF80F309DF80F30022B29D0022BB4
:108C8C0038DC002B02D0012B10D033E01B4B1B68BF
:108C9C00002B07D0194B1B681846FEF7D1FD174B5C
:108CAC0000221A60012009F0C7F823E0134B1B685F
:108CBC00002B1ED1012009F0BFF800230093104BAC
:108CCC00FF2232210020FEF79FFD03460B4A136062
:108CDC000FE00A4B1B68002B07D0084B1B6818468B
:108CEC00FEF7AEFD054B00221A60012009F08AF850
:108CFC0000E000BF00BF05B05DF804FB18270020A2
:108D0C00A58B020000B585B003468DF80F309DF899
:108D1C000F30002B02D0012B13D030E01A4B1B6804
:108D2C00002B07D0184B1B681846FEF789FD164B15
:108D3C0000221A60022009F07FF8144B00221A70EE
:108D4C001DE0114B1B68002B07D00F4B1B681846FE
:108D5C00FEF776FD0C4B00221A60022009F052F847
:108D6C00002300930A4BFF2232210120FEF74CFD19
:108D7C000346054A1360054B01221A7000BF00BF61
:108D8C0005B05DF804FB00BF1C2700201227002053
:108D9C00B98B020000B583B003468DF807309DF8FF
:108DAC000730032B1AD801A252F823F0C98D020008
:108DBC00D18D0200D98D0200E18D0200032009F053
:108DCC003BF80BE0032009F01DF807E0032009F045
:108DDC0019F803E0032009F05DF800BF00BF03B0F1
:108DEC005DF804FB00BF704700B583B002F0A6FB32
:108DFC000190019B0093009B002B04D0044A252179
:108E0C00009801F0C3FC00BF03B05DF804FB00BF89
:108E1C00FC200D0008B500F0BBFC034683F00103F9
:108E2C00DBB2002B30D0FFF7BBFD034683F0010310
:108E3C00DBB2002B28D000F0DDFB034683F00103EE
:108E4C00DBB2002B20D0FFF7D1FE034683F00103E9
:108E5C00DBB2002B18D000F0A1FCFFF7A7FD00F04F
:108E6C00CFFBFFF7C9FE0020FFF7C8FEFFF738FC69
:108E7C0001F061F802F078FB0120FFF7FBFB01F039
:108E8C0055F80120FFF7BAFE00BF08BD72DF70472E
:108E9C0000BF184673DF704700BF184676DF704777
:108EAC0000BF18467ADF704700BF18467CDF70475A
:108EBC0000BF18467FDF704700BF18468FDF704732
:108ECC0000BF1846B1DF704700BF184600B583B02D
:108EDC000190044A6B21019801F058FC00BF03B0CB
:108EEC005DF804FB68210D0000B583B003460091CA
:108EFC00ADF8063013468DF805309DF80530032B80
:108F0C000ED0032B0FDC012B02D0022B04D00AE075
:108F1C000120FFF769FD07E00220FFF765FD03E084
:108F2C00FFF7DCFD00E000BF00BF03B05DF804FB01
:108F3C0000B58BB001900091019B1B88562B00F063
:108F4C00DF80562B00F302813B2B61DC102BC0F22F
:108F5C00FD80103B2B2B00F2F98001A252F823F07C
:108F6C002390020057900200599102006B9002006E
:108F7C005991020059910200599102005991020035
:108F8C005991020059910200599102005991020025
:108F9C005991020059910200599102005991020015
:108FAC0059910200919002005991020059910200CE
:108FBC00599102005991020031910200599102001D
:108FCC0059910200599102005991020059910200E5
:108FDC0059910200599102005991020059910200D5
:108FEC0059910200599102005991020059910200C5
:108FFC0059910200599102005991020059910200B5
:10900C00599102005991020059910200E990020015
:10901C00522B50D09AE00220FFF728FE019B9A8831
:10902C00544B1A80534B1B881946534808F0EEF9E1
:10903C000990099B0393039B002B00F089804F4AF6
:10904C009921039801F0A2FB82E00120FFF70EFEAC
:10905C00484B4FF6FF721A8000F094FA85E0454BAE
:10906C001888002300228521FFF724FF0990099B13
:10907C000493049B002B6DD0404AA521049801F069
:10908C0085FB67E000238DF8083000238DF809304C
:10909C00019B9B8802AA11461846FFF70FFF099007
:1090AC00099B0593059B002B56D0344AB02105989B
:1090BC0001F06CFB50E02F4B18880023002200219C
:1090CC00FFF700FF0990099B0793079B002B45D0E6
:1090DC002A4AB621079801F059FB3FE0019B9B8877
:1090EC0013211846FFF7DAFE0990099B0693069B9D
:1090FC00002B35D0214ABD21069801F047FB2FE00B
:10910C00019B9B8813211846FFF7C8FE0990099B09
:10911C000893089B002B25D0184AC421089801F00D
:10912C0035FB1FE00020FFF7A1FD124B1B884FF60B
:10913C00FF72934218D1124B00224FF48031184623
:10914C0002F0A0FE0F4B00221A700DE000BF0CE0E5
:10915C0000BF0AE000BF08E000BF06E000BF04E06B
:10916C0000BF02E000BF00E000BF00BF0BB05DF825
:10917C0004FB00BF282300205C27002068210D0081
:10918C00082300202027002000B585B00190019B0A
:10919C001B78002B10D10A4B1B883B211846FFF77C
:1091AC007DFE0390039B0293029B002B04D0054A87
:1091BC00EC21029801F0EAFA00BF05B05DF804FB5F
:1091CC002823002068210D0000B583B00190044ACB
:1091DC00F721019801F0DAFA00BF03B05DF804FB47
:1091EC0068210D0000B583B0019000F0CBF900BFF1
:1091FC0003B05DF804FB000000B583B002F0CAFDBB
:10920C000190019B0093009B002B05D0074A40F274
:10921C000911009801F0BAFA054A0021054802F03C
:10922C00F7FD00BF03B05DF804FB00BF68210D0023
:10923C00F191020064210D0000B587B001F0BCF87B
:10924C000590059B0493049B002B05D0164A4FF404
:10925C008C71049801F09AFA0023019301AB194622
:10926C00012001F061F90590059B0393039B002BF2
:10927C0005D00D4A4FF48F71039801F087FA01ABBA
:10928C00184601F0CBF90590059B0293029B002B2D
:10929C0005D0054A4FF49171029801F077FA00BF9E
:1092AC0007B05DF804FB00BF68210D0000B587B066
:1092BC009DF80030012262F303038DF800309DF815
:1092CC000030012262F307138DF800306B460F2239
:1092DC001C491846FFF7EAFD0590059B0493049B77
:1092EC00002B05D0184A40F23711049801F04EFAC1
:1092FC0001AB08220021184608F05AFE4FF4C8733F
:10930C00ADF804304FF44873ADF806300023ADF8D7
:10931C0008304FF4C873ADF80A3001AB1846FFF7AC
:10932C00C1FD0590059B0393039B002B05D0064ABA
:10933C004FF4A071039801F029FA00BF07B05DF853
:10934C0004FB00BFC8210D0068210D0000B583B0DF
:10935C000021094807F06DFF0190019B0093009BD1
:10936C00002B05D0054A40F24911009801F00EFA85
:10937C0000BF03B05DF804FB4827002068210D00F6
:10938C0000B585B0002300931B4B00936B46194628
:10939C001A4808F019F80390039B0293029B002BC8
:1093AC0005D0174A40F25711029801F0EFF9062246
:1093BC000021144808F0FCFD134B06225A82124B74
:1093CC0003221A77104B0122DA830F4B0F4A1A62D1
:1093DC000D48FFF70DF80390039B0193019B002BA5
:1093EC0005D0074A40F26511019801F0CFF900BF92
:1093FC0005B05DF804FB00BFD98E02005C2700208D
:10940C0068210D003027002024270020F58E020053
:10941C0000B5ABB04FF49053ADF81C30374B9B7884
:10942C008DF81E3017AB3C220021184608F0C0FD09
:10943C0002238DF85C3001238DF85E3006238DF805
:10944C005F3008AB3C220021184608F0B1FD012327
:10945C00ADF8303007AB0D93294B196817AB294A7F
:10946C00184606F025FE2990299B2893289B002B53
:10947C0005D0254A40F28311289801F087F9204B3A
:10948C00996808AB214A184606F012FE2990299BD0
:10949C002793279B002B05D01B4A4FF4C3712798A9
:1094AC0001F074F901AB18220021184608F080FD78
:1094BC0001238DF819306423ADF8103001238DF899
:1094CC0004300023029300238DF8183040230393BB
:1094DC0001AB1A460A490E48FFF7D8FC2990299B84
:1094EC002693269B002B05D0074A40F2951126980F
:1094FC0001F04CF900BF2BB05DF804FB24270020D1
:10950C002C2300203023002068210D00382300205C
:10951C002A23002000B58BB001AB1C220021184679
:10952C0008F046FD002301934FF4A02302934FF45F
:10953C00A033039303238DF810300023ADF81230C1
:10954C0000238DF814300C4B06930C4B079301AB96
:10955C00184606F0F3FF0990099B0893089B002B13
:10956C0005D0074A40F2AB11089801F00FF900BF83
:10957C000BB05DF804FB00BF95910200D591020081
:10958C0068210D0000B583B00D4B01221A700D4BF4
:10959C001B7801211846FFF77DFC0190019B00937D
:1095AC00009B002B05D0084A40F2B911009801F03D
:1095BC00EDF80120FFF75AFB00BF03B05DF804FB88
:1095CC00202700202A23002068210D0008B5FFF772
:1095DC0013FEFFF731FEFFF769FEFFF7B7FEFFF74B
:1095EC00CFFEFFF715FFFFF795FFFFF7CBFF00BF8F
:1095FC0008BD0000014B1B7818467047202700203F
:10960C0000BF704700B587B00346ADF80E300B466F
:10961C00ADF80C301346ADF80A30184B1888BDF86D
:10962C000C10BDF80E20BDF80A3000930B461449FF
:10963C00FEF73EFF0590059B002B1AD0059B43F2CD
:10964C000202934215D0059B082B12D0059B43F2C6
:10965C00014293420DD0059B132B0AD0059B04931A
:10966C00049B002B05D0074A40F2E111049801F04D
:10967C008DF800BF07B05DF804FB00BF2823002065
:10968C002427002068210D0008B5FFF7A1F9034637
:10969C00022B1FD0022B21DC002B02D0012B04D07B
:1096AC001CE00F4B03221A7718E0FFF797F90346DB
:1096BC00012B02D0022B04D007E0094B01221A77B0
:1096CC0007E0074B02221A7703E0054BFF221A77BB
:1096DC0000BF03E0024B03221A7700BF00BF08BD96
:1096EC002427002008B50122FA210748FFF702F8C9
:1096FC000346002B05D0054B01221A70044B0122A6
:10970C001A7000BF08BD00BFA8270020C427002086
:10971C00A727002082B00190019BD3ED007AFDEECB
:10972C00E77A17EE903A1AB20C4B1A80019BD3EDE4
:10973C00017AFDEEE77A17EE903A1AB2074B5A808F
:10974C00019BD3ED027AFDEEE77A17EE903A1AB24E
:10975C00024B9A8000BF02B0704700BFC8270020A0
:10976C0008B500F059FC00F077FC0649002000F029
:10977C008FF9054B01221A7000210448FEF718FAE4
:10978C0000BF08BDF1960200A7270020D8210D00CC
:10979C00014B1B7818467047A7270020024B00226C
:1097AC001A7000BF704700BFA827002000B583B017
:1097BC00019001990348FEF7CFF900BF03B05DF8A3
:1097CC0004FB00BFD8210D0000B587B0404B1B78BF
:1097DC00002B67D03F48FEF7D7F90346002B5DD02E
:1097EC0000213C48FEF782FAF0EE407ACDED017A8A
:1097FC0001213848FEF77AFAF0EE407ACDED027A84
:10980C0002213448FEF772FAF0EE407ACDED037A7D
:10981C003048FEF7E1F9F0EE407ACDED047A2D48B0
:10982C00FEF70CFA0346ADF814302A48FEF7D0FACE
:10983C0003468DF816302748FEF71EFB03468DF8BD
:10984C001730DDED017AFDEEE77A17EE903A1AB299
:10985C00214B1A80DDED027AFDEEE77A17EE903A95
:10986C001AB21D4B5A80DDED037AFDEEE77A17EE46
:10987C00903A1AB2184B9A800120FFF743FA164B14
:10988C00B3F900309BB2144AB2F9022091B2124AD9
:10989C00B2F9042092B21846FFF7B4FE0C4B00222A
:1098AC001A700EE00B48FEF76FF90346002B08D038
:1098BC000A48FEF75EFF0346002B02D0084B00223D
:1098CC001A700448FEF72CFB00BF07B05DF804FBD0
:1098DC00C4270020D8210D00C8270020A82700206D
:1098EC00A727002008B5FEF7EBFE0120FFF75EFF6F
:1098FC0000BF08BD00B585B00190019B002B0AD0BC
:10990C00074B43F001030393019B9B010293039BC1
:10991C000298984700E000BF05B05DF804FB00BF5B
:10992C0000220D0000B583B001900198FFF7E2FF13
:10993C0000BF03B05DF804FB00B583B001900B468B
:10994C008DF80330019B0B3B0E2B41D801A252F832
:10995C0023F000BF9D990200AD990200DD99020031
:10996C00DD990200DD990200DD990200DD9902000B
:10997C00DD990200DD990200DD990200DD990200FB
:10998C00DD990200DD990200BD990200CD9902001B
:10999C00164B1B68002B1DD0144B1B68984719E005
:1099AC00134B1B68002B17D0114B1B68984713E007
:1099BC00104B1B68002B11D00E4B1B6898470DE009
:1099CC000D4B1B68002B0BD00B4B1B68984707E00B
:1099DC0000BF06E000BF04E000BF02E000BF00E0F3
:1099EC0000BF00BF03B05DF804FB00BFD027002010
:1099FC00D4270020D8270020DC27002000B585B014
:109A0C0003F0AEFB0390039B0293029B002B04D04C
:109A1C001C4A4F21029800F0B9FE1B4A6B46126893
:109A2C00114619800233120C1A7003238DF8013081
:109A3C006B46164A19460B2003F0F6FB03906B4657
:109A4C00124A19460C2003F0EFFB03906B460F4AA9
:109A5C001946182003F0E8FB03906B460B4A194695
:109A6C00192003F0E1FB0390039B0193019B002B56
:109A7C0004D0044A5A21019800F088FE00BF05B0BA
:109A8C005DF804FB08220D0058220D0045990200D8
:109A9C0082B0034600918DF807309DF80730032BF8
:109AAC001AD801A252F823F0C59A0200CD9A0200EE
:109ABC00D59A0200DD9A0200094A009B13600CE063
:109ACC00084A009B136008E0074A009B136004E0FF
:109ADC00064A009B136000E000BF00BF02B0704755
:109AEC00D0270020D4270020D8270020DC270020F6
:109AFC0008B501210B2003F013FC01210C2003F00D
:109B0C000FFC0121182003F00BFC0121192003F09C
:109B1C0007FC00BF08BD82B00190019BD3F8103543
:109B2C00DBB2184602B070472DE9F04F87B00190B8
:109B3C008DF803109DF803100591019900200E4635
:109B4C000746304639464FF0000A4FF0000B4FEAFB
:109B5C00411B4BEAD06B4FEA401A50465946821BC8
:109B6C0061EB07034FF000004FF00001990041EA50
:109B7C009271900002460B4612EB060843EB070964
:109B8C004FF000024FF000034FEAC91343EA586349
:109B9C004FEAC8129046994642464B460599C1F188
:109BAC002006A1F1200022FA01F403FA06F6344350
:109BBC0023FA00F0044323FA01F5CDE90245DDE96F
:109BCC000223012B04D305494FF4317001F0BEFA86
:109BDC00029B184607B0BDE8F08F00BF5C220D0059
:109BEC0000B583B001900091019B1B681846FFF7EC
:109BFC0092FF034619460098FFF796FF0346184656
:109C0C0003B05DF804FB000000B583B0034600917F
:109C1C00ADF80630BDF80630B3F5A07F0AD1094B7C
:109C2C001B68002B08D0074B1B68074A12681046AC
:109C3C00984701E000BF00E000BF00BF03B05DF833
:109C4C0004FB00BFE02700203C23002000B58BB0B4
:109C5C0003900023099300230893039B002B02D04D
:109C6C001A4A039B136000238DF8143000238DF8DF
:109C7C00153000238DF8163006238DF8173000238D
:109C8C00069305AB124A1946124804F089FC089059
:109C9C00089B0793079B002B04D00F4A3B21079886
:109CAC0000F074FD094B1B6819460A48FFF798FF32
:109CBC000990012300930123099A0021054804F01F
:109CCC0008FE00BF0BB05DF804FB00BF3C23002076
:109CDC00159C0200E0220D008C220D0082B0019038
:109CEC00024A019B136000BF02B07047E0270020BE
:109CFC0008B5024804F058FD00BF08BDE0220D0075
:109D0C0008B5024804F07EFD00BF08BDE0220D003E
:109D1C0000B583B001900091019B002B01D1054B44
:109D2C0001930099019803F0B3FF0346184603B062
:109D3C005DF804FB48230D0000B585B0019000913F
:109D4C00009B03F00103002B27D0164B1B78002B34
:109D5C0012D0154804F0E8F80290029B002B04D0B6
:109D6C00124A3C21029800F011FD0E4B00221A7091
:109D7C000F4B104A1A6011E0019804F0D5F80390CB
:109D8C00039B002B04D0094A4321039800F0FEFCEE
:109D9C00019B5B68064A136000E000BF05B05DF8EC
:109DAC0004FB00BF40230020F0220D00F8220D0020
:109DBC00E4470020E437002000B589B00190019BF6
:109DCC00002B37D01F238DF808301E238DF8093057
:109DDC00FF238DF80A301D238DF80B30FF238DF8EF
:109DEC000C3005238DF80D3000238DF80E30002338
:109DFC008DF80F3000238DF8103001238DF81130C1
:109E0C0000238DF812304FF00053059306238DF884
:109E1C00183002AB09491846FFF77AFF0790079BE9
:109E2C00002B04D0064A6821079800F0AFFC054AC5
:109E3C00019B136000BF09B05DF804FB459D020057
:109E4C00F8220D00E847002000B583B0154B1B68C5
:109E5C00002B22D000230193124B1B68002B05D042
:109E6C00104B1B684FF480610F4898470F4B012231
:109E7C001A7000224FF480610D4803F061FF0190CD
:109E8C00019B0093009B002B04D00A4A822100986E
:109E9C0000F07CFC084B094A1A6000BF03B05DF867
:109EAC0004FB00BFE8470020E427002040230020EB
:109EBC00E8220D00F8220D00E4470020E4370020D2
:109ECC0008B504F0EBF800BF08BD000008B50A4B5C
:109EDC001B68002B0ED0094B1B68002B07D0074BBF
:109EEC001B68054A12684FF4806110469847024B74
:109EFC0000221A6000BF08BDE4470020E84700209C
:109F0C0000B583B001900198FDF7D2FC00BF03B0FF
:109F1C005DF804FB08B50120FFF798FE0248FFF737
:109F2C00DDFE00BF08BD00BF0D9F020008B5FFF7A6
:109F3C00DFFE00BF08BD08B5FFF7E2FE00BF08BD9D
:109F4C0008B5FF20FDF768FD00BF08BD00B583B064
:109F5C000190019B0433184604F0DEFF00BF03B0F0
:109F6C005DF804FB00B589B0059003921A460B46C8
:109F7C008DF8133013468DF8123000230793059B90
:109F8C00181D9DF812209DF813109DF82830009391
:109F9C001346039A05F01CFB0790079B184609B063
:109FAC005DF804FB00B587B0039001921A460B468E
:109FBC008DF80B3013468DF80A3000230593039B64
:109FCC00181D9DF80A309DF80B10019A05F028FB1E
:109FDC000590059B184607B05DF804FB00B585B0ED
:109FEC00019000238DF80F30019B0433184605F0C7
:109FFC009DFA03468DF80F309DF80F30184605B0CA
:10A00C005DF804FB82B001900091019B1B78002B42
:10A01C0000BF00BF02B0704700B583B000230A4AEE
:10A02C000A490B4802F0B8FA0190019B0093009B7F
:10A03C00002B04D0074A3521009800F0A7FB00BF85
:10A04C0003B05DF804FB00BF11A002006C230D00EF
:10A05C005C230D007C230D0008B50248FFF776FF4A
:10A06C0000BF08BD5C230D0000B587B0034602910C
:10A07C008DF80F3013468DF80E309DF80E309DF88C
:10A08C000F1000220092029A0C48FFF76BFF05900C
:10A09C00059B0493049B002B04D0094A4C21049883
:10A0AC0000F074FB00BF0548FFF798FF0346002B38
:10A0BC00F9D100BF184607B05DF804FB5C230D0016
:10A0CC007C230D0000B585B0034600918DF8073058
:10A0DC0013468DF806309DF806309DF80710009A4F
:10A0EC000C48FFF75FFF0390039B0293029B002B2E
:10A0FC0004D0094A5821029800F048FB00BF0548DB
:10A10C00FFF76CFF0346002BF9D100BF184605B0D2
:10A11C005DF804FB5C230D007C230D0082B003462C
:10A12C008DF807309DF90730002B0CDB9DF80730BC
:10A13C0003F01F0205499DF907305B09012000FA65
:10A14C0002F241F8232000BF02B0704700E100E0AA
:10A15C0082B003468DF807309DF90730002B09DBE0
:10A16C000B4A9DF90730134493F80033DBB25B09BB
:10A17C00DBB20AE0074A9DF8073003F00F03043BFB
:10A18C0013441B7EDBB25B09DBB2184602B070478E
:10A19C0000E100E000ED00E000B583B00190019B10
:10A1AC00002B03D10449C42000F0D0FF019B5B6855
:10A1BC00184603B05DF804FBCC230D0010DF70478C
:10A1CC0000BF184682B003468DF807309DF9073062
:10A1DC001F2B0CDC9DF907300F4A22FA03F303F016
:10A1EC000103002B14BF01230023DBB210E09DF907
:10A1FC0007303F2B0BDC9DF90730203B012202FA84
:10A20C0003F3002B14BF01230023DBB200E0012376
:10A21C00184602B0704700BFFC06FFBD82B001902B
:10A22C00019B072B07D8EC22019B42FA03F303F0A6
:10A23C000103002B01D1002300E00123184602B0DA
:10A24C007047000000B583B003468DF807309DF9C8
:10A25C0007301846FFF7B6FF0346002B02D142F237
:10A26C0001032EE09DF907301846FFF771FF0346F6
:10A27C001846FFF7D3FF0346002B02D142F202032C
:10A28C001FE0124B9B68002B15D09DF907305B0922
:10A29C000E4A52F823209DF8073003F01F030121CA
:10A2AC0001FA03F319469DF907305B090A43074984
:10A2BC0041F8232004E09DF907301846FFF72EFFE4
:10A2CC000023184603B05DF804FB00BF10480020C3
:10A2DC0000B587B003468DF8073002AB1449184619
:10A2EC0001F064F917E002AB1846FFF755FF059033
:10A2FC00059B1B680493059B59689DF80720049BDC
:10A30C00104698470346002B01D111230BE002ABFA
:10A31C00184601F075F902AB1846FFF73DFF0346EE
:10A32C00002BE0D10023184607B05DF804FB00BFFA
:10A33C0070240D0000B587B003468DF8073002ABD2
:10A34C001149184601F032F912E002AB1846FFF73A
:10A35C0023FF0590059B1B680493059B59689DF88A
:10A36C000720049B1046984702AB184601F048F9A9
:10A37C0002AB1846FFF710FF0346002BE5D100BFD8
:10A38C0000BF07B05DF804FB7C240D0000B583B062
:10A39C001620FFF757FF0190019B0093009B002BA9
:10A3AC0004D0044AA121009800F0F0F900BF03B0DA
:10A3BC005DF804FB20240D0000B585B0234B1B7801
:10A3CC00002B01D008233CE0214B01221A70002005
:10A3DC00FFF77EFF0346112B01D1002331E0002053
:10A3EC00FFF7A8FF1B4B1B68029300238DF8073067
:10A3FC000DF10703184600F08DFA02AB164918460A
:10A40C00FFF7DCFE0390039B002B0CBF0123002302
:10A41C00DAB20E4B1A709DF80730184600F090FA1D
:10A42C00039B002B01D0039B0BE0094B00221A70FD
:10A43C000A4B00221A70FFF7A9FF0120FFF77AFFE1
:10A44C000023184605B05DF804FB00BFEC47002064
:10A45C00EE4700206C240D00B5A70200ED4700204C
:10A46C00014B1B7818467047EC47002000B585B0AF
:10A47C006B461149184601F099F810E06B461846E6
:10A48C00FFF78AFE0390039B1B680293039B5A6899
:10A49C00029B104698476B46184601F0B1F86B4684
:10A4AC001846FFF779FE0346002BE7D100BF00BF2B
:10A4BC0005B05DF804FB00BF88240D0008B5FFF75C
:10A4CC00D5FF00BF08BD60DF704700BF184669DFCD
:10A4DC00704700BF184661DF704700BF1846000088
:10A4EC0000B583B00190019B002B03D10449C4201B
:10A4FC0000F02CFE019B5B68184603B05DF804FB72
:10A50C0094240D0082B00190019B002B01D10E23ED
:10A51C0004E0044B1A46019B1A600023184602B053
:10A52C00704700BF0023002000B587B003460091A0
:10A53C008DF807300098FFF7E5FF0590059B002B81
:10A54C0001D0059B65E002AB0C220021184607F0F8
:10A55C002FFD9DF807308DF8083001238DF80A3057
:10A56C000623ADF80C30009B1A6802AB194620206C
:10A57C00FFF7ADFF059002AB0C220021184607F047
:10A58C0017FD01238DF8093000238DF80A300023C4
:10A59C008DF80B30009B1A6802AB19464020FFF770
:10A5AC0096FF059002AB0C220021184607F000FD27
:10A5BC000A238DF80830009B1A6802AB194601205B
:10A5CC00FFF785FF059002AB0C220021184607F01F
:10A5DC00EFFC4FF4B0630293009B1A6802AB194670
:10A5EC00A120FFF774FF059002AB0C220021184646
:10A5FC0007F0DEFC9DF808306FF300038DF808308F
:10A60C00009B1A6802AB1946A020FFF760FF05906B
:10A61C000023184607B05DF804FB000000B585B0B8
:10A62C000190019B1B6803930198FFF74CFF02906C
:10A63C00019B1B68039A9A42029B002B02D1044B8C
:10A64C0001221A70029B184605B05DF804FB00BF8E
:10A65C00EF47002000B597B00190234B1B7883F097
:10A66C000103DBB2002B3AD13423ADF846300DF1A7
:10A67C00460202AB11461846FFF72DFF1590159BAD
:10A68C00002B03D0159B052B22D129E002AB149390
:10A69C000FAB1649184600F089FF11E00FAB1846B6
:10A6AC00FFF71EFF1390139B1B681293139B5A68A2
:10A6BC00129B1146149898470FAB184600F0A0FF58
:10A6CC000FAB1846FFF70CFF0346002BE6D1CBE788
:10A6DC00074A40F23B11159800F058F800E000BF13
:10A6EC0017B05DF804FB00BFEF47002038250D00C4
:10A6FC00E8240D0086B003900291019201238DF89D
:10A70C0017309DF81730204A039B13601E4A029B9A
:10A71C0053601D4A019B9360039B44F201029342D8
:10A72C0012D0039B44F20202934220D1019B164AA1
:10A73C00D360154BDB681B68134A9361124BDB68C3
:10A74C005B68114AD36112E0019B0F4A13610E4BF7
:10A75C001B699B680C4A53610B4B1B691B680A4AAB
:10A76C009361094B1B695B68074AD36100BF72B6E2
:10A77C0000BF00BF9DF81730DBB2002BFAD162B6D8
:10A78C0000BF00BF06B07047F047002000B583B093
:10A79C0002900091019244F2010071466A4600F069
:10A7AC0003F803B000BD00BF00B587B00390029161
:10A7BC00019272B600BF039B44F20202934217D07F
:10A7CC00039B44F20202934218D8039B44F2010209
:10A7DC00934210D0039B44F2010293420ED8039B88
:10A7EC00012B0DD0039B41F2010293420AD005E0EC
:10A7FC00019B059307E0019B049304E000BF02E07A
:10A80C0000BF00E000BF084B1B6803F00103002BE6
:10A81C0000D000BE019A02990398FFF76BFF00BFAE
:10A82C0007B05DF804FB00BFF0ED00E082B0EFF381
:10A83C0010830093009B019372B600BF019B1846D6
:10A84C0002B0704762B600BF00BF704700B585B05C
:10A85C000190FFF7EBFF0390164B9B68002B1BD16D
:10A86C00144B01229A60144BD3F88020134B1340E5
:10A87C00104A1360104B114AC3F880200E4BD3F8CA
:10A88C0084300C4A53600C4B4FF0FF32C3F88420D9
:10A89C00019B00221A7002E0019B01221A70039B9B
:10A8AC00002B01D1FFF7CEFF0023184605B05DF851
:10A8BC0004FB00BF1048002000E100E0FC06FFBDD7
:10A8CC0000B585B003468DF80730104B9B68002B04
:10A8DC0016D09DF80730002B12D1FFF7A7FF03907D
:10A8EC000B4A0A4B1B681360094A084B5B685360A0
:10A8FC00064B00229A60039B002B01D1FFF7A2FFAD
:10A90C000023184605B05DF804FB00BF104800207A
:10A91C0000E100E000B583B0019000F02BF8034695
:10A92C00012B03D00549432000F010FC0198FFF7E0
:10A93C008DFF00BF03B05DF804FB00BF44250D0084
:10A94C0000B583B003468DF8073000F013F80346CA
:10A95C00012B03D00649512000F0F8FB9DF807307D
:10A96C001846FFF7ADFF00BF03B05DF804FB00BF56
:10A97C0044250D0084B0EFF305830193019BC3F3D1
:10A98C0008030393039B002B0DD1EFF31483009367
:10A99C00009B0293029B03F00103002B0CBF0123CD
:10A9AC000023DBB200E00123184604B0704700001E
:10A9BC0082B003468DF807309DF90730002B0CDB75
:10A9CC009DF8073003F01F0205499DF907305B091C
:10A9DC00012000FA02F241F8232000BF02B07047B8
:10A9EC0000E100E082B003468DF807309DF9073096
:10A9FC00002B0DDB9DF8073003F01F0206499DF973
:10AA0C0007305B09012000FA02F2403341F82320A1
:10AA1C0000BF02B0704700BF00E100E082B0034607
:10AA2C0000918DF807309DF90730002B0ADB009B55
:10AA3C00DAB20C499DF907305201D2B20B4483F8BB
:10AA4C0000230BE0009BDAB207499DF8073003F0B6
:10AA5C000F03043B5201D2B20B441A7600BF02B072
:10AA6C00704700BF00E100E000ED00E000B583B0EE
:10AA7C0003460A468DF8073013468DF806309DF8CC
:10AA8C000630012B03D99DF80630032B0BD99DF80A
:10AA9C000630042B03D99DF80630072B03D908493F
:10AAAC006B2000F053FB9DF806209DF907301146F2
:10AABC001846FFF7B3FF00BF03B05DF804FB00BFFF
:10AACC0098250D0000B583B003468DF807309DF92D
:10AADC0007301846FFF76CFF00BF03B05DF804FBAE
:10AAEC0000B585B00190019B002B0AD0074B43F0B9
:10AAFC0001030393019B9B010293039B02989847CC
:10AB0C0000E000BF05B05DF804FB00BF50260D004F
:10AB1C0084B0039002910192039B029A02F5A872F1
:10AB2C00019943F8221000BF04B0704782B0019025
:10AB3C000091019B009A02F5A87253F82230184636
:10AB4C0002B0704782B001900091019B009AC3F84B
:10AB5C00042300BF02B0704782B001900091019BAA
:10AB6C00009AC3F8082300BF02B0704782B001906E
:10AB7C000B46ADF80230BDF80230019A13441B6845
:10AB8C00184602B0704784B001900B46ADF8023005
:10AB9C00BDF80230019A134400221A60BDF802304D
:10ABAC00019A13441B680393039B00BF04B07047C6
:10ABBC0082B00190019BD3F80435184602B070475F
:10ABCC0000B583B001900091009BB3F5805F04D376
:10ABDC0006494FF4BE7000F0B9FA019B009AC3F815
:10ABEC00082500BF03B05DF804FB00BFC8250D00AD
:10ABFC0082B001900B468DF803309DF80320019B29
:10AC0C0013441A460123136000BF02B0704782B090
:10AC1C0001900091019B009AC3F8442300BF02B03D
:10AC2C00704782B001900091019B009AC3F84823B1
:10AC3C0000BF02B07047000000B587B003900291CE
:10AC4C000192039B002B03D12849552000F07EFA7A
:10AC5C00029B002B03D12549562000F077FA019B6B
:10AC6C00002B03D12149572000F070FA039B5B792C
:10AC7C0019461F4A019B42F82130039B5B791D4A00
:10AC8C00DB0013441B79002B03D008230593059B91
:10AC9C0027E0039B1A68029B1B8819461046FFF796
:10ACAC008FFF039B93F90420029B9B781946104657
:10ACBC00FFF7DCFE039B93F904301846FFF702FF05
:10ACCC00039B5B790B4ADB00134401221A71039B33
:10ACDC005B791946074A039B42F8313000230593F0
:10ACEC00059B184607B05DF804FB00BFF8250D0066
:10ACFC001C4800202048002000B583B00190019B27
:10AD0C00002B03D10649872000F020FA019B1B6819
:10AD1C0000211846FFF76CFF00BF03B05DF804FB81
:10AD2C00F8250D0000B583B00190019B002B03D1D9
:10AD3C0006498D2000F00AFA019B1B680421184675
:10AD4C00FFF756FF00BF03B05DF804FBF8250D00BC
:10AD5C0000B587B00390029101928DF80330039BEC
:10AD6C00002B03D12149962000F0F0F94FF48032EA
:10AD7C00029B02FA03F30593029B50339BB29B0098
:10AD8C00ADF81230019B23F07F430193039B1B68AA
:10AD9C0005991846FFF7E0FE039B1B6805991846BA
:10ADAC00FFF73FFF039B1B68BDF8122011461846A6
:10ADBC00FFF7E9FE039B1B68019A02991846FFF7FF
:10ADCC00A7FE039B1B6805991846FFF720FF9DF80B
:10ADDC000330002B05D0039B1B6805991846FFF721
:10ADEC00B1FE00BF07B05DF804FB00BFF8250D00F5
:10ADFC0000B585B00390029113468DF80730039B84
:10AE0C00002B03D10B49A92000F0A0F9039B1B6870
:10AE1C0002991846FFF7FBFE9DF80730002B05D072
:10AE2C00039B1B6802991846FFF78CFE00BF05B008
:10AE3C005DF804FBF8250D0000B583B0019000917E
:10AE4C00019B002B03D10A49B32000F07FF9019B31
:10AE5C001B6800991846FFF7E4FE019B1B680099DC
:10AE6C001846FFF779FE00BF03B05DF804FB00BF86
:10AE7C00F8250D0000B583B001900B46ADF80230FB
:10AE8C00019B002B03D10F49BA2000F05FF9019B05
:10AE9C001B68BDF8022011461846FFF767FE0346F3
:10AEAC00002B09D0019B1B68BDF8022011461846E7
:10AEBC00FFF769FE012300E00023184603B05DF89C
:10AECC0004FB00BFF8250D0082B001900091019A9F
:10AEDC00009BD31A23F07F43184602B07047000042
:10AEEC0000B58BB00390029101920093039B002B51
:10AEFC0003D15749CD2000F029F94FF48032029B41
:10AF0C0002FA03F30993029B50339BB29B00ADF8FA
:10AF1C002230019B23F07F43019309990398FFF79B
:10AF2C008BFF039B1B681846FFF742FE0790039BA1
:10AF3C001B6802991846FFF7F9FD0690039B1B68E6
:10AF4C00079A02991846FFF7E3FD039B1B68BDF8AF
:10AF5C00222011461846FFF716FE07990698FFF7B0
:10AF6C00B3FF0346012B0AD11020FFF7B9FD039B59
:10AF7C001B68BDF8222011461846FFF704FE039B00
:10AF8C001B681846FFF714FE079007990198FFF706
:10AF9C009BFF0590039B1B6809991846FFF737FE2A
:10AFAC00059B012B15D1039B1868019B01331A4695
:10AFBC000299FFF7ADFD1020FFF792FD039B1B6874
:10AFCC001846FFF7F5FD0246079B934235D00D233B
:10AFDC0039E0039B1B68019A02991846FFF798FD0C
:10AFEC00039B1B681846FFF7E3FD0790019B013B91
:10AFFC0007991846FFF768FF0590009BC3F1FF13F4
:10B00C0003F57F43059A9A4201D90D231BE0059B5A
:10B01C00002B12D1039B1868019B01331A4602992D
:10B02C00FFF776FD039B1B681846FFF7C1FD024630
:10B03C00079B934201D00D2305E001220999039847
:10B04C00FFF7D6FE002318460BB05DF804FB00BFDB
:10B05C00F8250D0000B583B001900B468DF8033038
:10B06C009DF803301A4602210198FFF7C1FE00BF7C
:10B07C0003B05DF804FB00B583B001904FF482710E
:10B08C000198FFF7F7FE0346184603B05DF804FB82
:10B09C0000B583B0019000914FF48032009B02FA0E
:10B0AC0003F319460198FFF7C7FE00BF03B05DF824
:10B0BC0004FB00B585B001900091009B50339BB20E
:10B0CC009B00ADF80E30BDF80E3019460198FFF715
:10B0DC00D1FE0346184605B05DF804FB00B583B0FD
:10B0EC0001900091019B1B6800991846FFF71EFD0B
:10B0FC000346184603B05DF804FB00B583B001901D
:10B10C00019B1B681846FFF753FD0346184603B016
:10B11C005DF804FB00B583B00190019B93F90430FA
:10B12C001846FFF75FFC00BF03B05DF804FB00009E
:10B13C0008B5044B1B68044A12681046984700BFB8
:10B14C0008BD00BF1C4800202048002000B585B079
:10B15C0003460091ADF80630BDF806300293009B13
:10B16C00039302AB1A46002144F20200FFF71CFBCA
:10B17C0000BF05B05DF804FB86B001900091019B07
:10B18C0053E8011F8AB2D88902449889824228BFA9
:10B19C00121A1889824202BFBFF32F8F002307E0D7
:10B1AC00C2EA010243E801200028E9D14FF0010373
:10B1BC008DF80F30059002910492029A009B1A6050
:10B1CC009DF80F30DBB2184606B0704784B0019082
:10B1DC00019951E8013FC3EA034341E80132002AD7
:10B1EC00F7D10392029300BF04B0704786B0019070
:10B1FC000091019B53E8021F1FFAA1F2D8888242EA
:10B20C0002BFBFF32F8F00230DE0D8890244988929
:10B21C00824228BF121AC1EA024243E802200028E7
:10B22C00E8D14FF001038DF80F3005900291049294
:10B23C00029A009B1A609DF80F30DBB2184606B0DC
:10B24C00704784B00190019951E8023FC3EA23434F
:10B25C0041E80232002AF7D10392029300BF04B0F6
:10B26C00704784B00390029111461A460B46ADF814
:10B27C0006301346ADF80430029B002B01D10E238F
:10B28C001FE0BDF80630BDF80420B3FBF2F101FB62
:10B29C0002F29B1A9BB2002B01D0092311E0039BF5
:10B2AC00029A1A60039B00225A60039B00229A6048
:10B2BC00039BBDF806209A81039BBDF80420DA811C
:10B2CC000023184604B0704700B585B0019000917A
:10B2DC00009B19460198FFF74FFF0346002B07D040
:10B2EC00019B1B68009A128813440393039B00E094
:10B2FC000023184605B05DF804FB00B583B001903F
:10B30C000091009B1A88009B5B889A4204D101989B
:10B31C00FFF75CFF012300E00023184603B05DF843
:10B32C0004FB00B585B001900091009B1946019873
:10B33C00FFF75CFF0346002B07D0019B1B68009AAC
:10B34C00528813440393039B00E00023184605B076
:10B35C005DF804FB00B583B001900091009B1A8846
:10B36C00009B5B889A4204D10198FFF76AFF012386
:10B37C0000E00023184603B05DF804FB00B585B06F
:10B38C0001900091009B5B099B00019A1A44009B61
:10B39C0003F01F03012101FA03F31946104600F0D4
:10B3AC0036F8039000BF05B05DF804FB00B585B01E
:10B3BC0001900091009B5B099B00019A1A44009B31
:10B3CC0003F01F03012101FA03F3DB431946104676
:10B3DC0000F035F8039000BF05B05DF804FB82B0B7
:10B3EC0001900091009B5B099B00019A13441A6821
:10B3FC00009B03F01F0322FA03F303F00103002B5D
:10B40C0014BF01230023DBB2184602B0704710B4FE
:10B41C0087B001900091019B009A53E8004F44EAD9
:10B42C00020043E8000191F0000FF6D1059404905E
:10B43C000391049B184607B05DF8044B704710B499
:10B44C0087B001900091019B009A53E8004F04EAE9
:10B45C00020043E8000191F0000FF6D1059404902E
:10B46C000391049B184607B05DF8044B704700002D
:10B47C0082B003468DF807309DF90730002B0DDBA9
:10B48C009DF8073003F01F0206499DF907305B0950
:10B49C00012000FA02F2603341F8232000BF02B011
:10B4AC00704700BF00E100E000B583B00190019B44
:10B4BC00002B03D106497220FFF748FE019B0022A6
:10B4CC001A60BFF35F8F00BF00BF03B05DF804FBD1
:10B4DC00AC260D0041DF704700BF184600B585B0A3
:10B4EC0000238DF807300DF107031846FFF712FA09
:10B4FC00F1EE103A0393039B23F09F030293029BFC
:10B50C00E1EE103A00BFBFF35F8F00BF2620FFF7BC
:10B51C00AFFF9DF807301846FFF712FA039B03F0B4
:10B52C000703002B03D004497D20FFF70FFE00BF5B
:10B53C0005B05DF804FB00BFE4260D0008B5064B12
:10B54C0000221A700548FFF7AFFF0549054800F0C7
:10B55C002DF80023184608BD2C4800202848002050
:10B56C0038270D003048002000B583B0FFF7B6FF38
:10B57C00FEF776FF0346002B0ED0FFF7ABFF0190D2
:10B58C00019B002B0BD0019B022B08D006494FF4DA
:10B59C00B070FFF7DBFD02E020BF40BF20BF00BF53
:10B5AC0003B05DF804FB00BFE4260D0000B583B0CA
:10B5BC0001900091019B002B03D110495020FFF703
:10B5CC00C5FD009B002B03D10C495120FFF7BEFD9C
:10B5DC00019B009A1A60019B1B681A68019B5A60B8
:10B5EC00019B5A68019B1B685B689A4202D1019BC4
:10B5FC0000225A6000BF03B05DF804FB44270D0025
:10B60C0000B583B00190019B002B03D1144963203A
:10B61C00FFF79CFD019B1B68002B03D11049642094
:10B62C00FFF794FD019B5B68002B14D0019B5B68BA
:10B63C001A46019B1B689B6813441A46019B5A606F
:10B64C00019B5A68019B1B685B689A4204D1019B61
:10B65C0000225A6000E000BF03B05DF804FB00BF9D
:10B66C0044270D0000B585B001900091019B002B83
:10B67C0003D118493A20FFF769FD009B002B03D139
:10B68C0014493B20FFF762FD019B5B6803930FE0BD
:10B69C00019B9B68039A12680099104698470346D1
:10B6AC0083F00103DBB2002B07D1039B1B680393D0
:10B6BC00039B1B68002BEBD100E000BF039B1A68B7
:10B6CC00009B1A60039B009A1A6000BF05B05DF8DE
:10B6DC0004FB00BFAC270D0000B585B00190019BA9
:10B6EC00002B03D10C495120FFF730FD019B5B6807
:10B6FC001B680393019B5B681B68002B06D0019BA6
:10B70C005B681A68019B5B6812681A60039B184699
:10B71C0005B05DF804FB00BFAC270D0000B583B08D
:10B72C000190019B002B03D105495D20FFF70EFD15
:10B73C00019B5B681B68184603B05DF804FB00BFF7
:10B74C00AC270D0000B585B001900091019B002B3A
:10B75C0003D116496920FFF7F9FC009B002B03D19C
:10B76C0012496A20FFF7F2FC00238DF80F30019B81
:10B77C005B6802930FE0029B1B68009A9A4207D108
:10B78C00009B1A68029B1A6001238DF80F3006E0AB
:10B79C00029B1B680293029B1B68002BEBD19DF84C
:10B7AC000F30184605B05DF804FB00BFAC270D0048
:10B7BC002DE9F04383B01448FFF79FFC03460022A9
:10B7CC001C461546114BD3E9002314EB020845EB3C
:10B7DC000309CDE900890E4BD3E90023DDE9000113
:10B7EC00904271EB030307D2DDE9002312F180765E
:10B7FC0043F10007CDE90067DDE900231046194647
:10B80C0003B0BDE8F08300BF442300204048002073
:10B81C004848002088B001900091019B0793009B41
:10B82C000693079BD3E90223CDE90423069BD3E9B6
:10B83C000223CDE90223DDE90423DDE90201904274
:10B84C0071EB03032CBF01230023DBB2184608B0B5
:10B85C0070470000F0B585B00190019B5B69002B2F
:10B86C0003D14349A520FFF771FC00238DF80F305D
:10B87C00404B1B78002B75D0019B002B72D0FFF72F
:10B88C0097FF019BD3E90223904271EB030358D33A
:10B89C0000238DF80D300DF10D031846FFF73AF823
:10B8AC00019B1B69002B06D101994FF0FF324FF021
:10B8BC00FF33C1E902239DF80D301846FFF740F81D
:10B8CC00019B5B69019A92691046984700238DF899
:10B8DC000C3003AB1846FFF71DF8019B1B69002BBE
:10B8EC001AD0019BD3E90223B3F1FF3F08BFB2F199
:10B8FC00FF3F11D0019BD3E9022301990969002074
:10B90C000C460546161943EB0507019BC3E9026774
:10B91C0001238DF80E3002E000238DF80E309DF8D7
:10B92C000C301846FFF70CF89DF80E30002B19D090
:10B93C00019B19461048FFF795FE01238DF80F3037
:10B94C0010E0019BD3E90223B3F1FF3F08BFB2F132
:10B95C00FF3F07D0019B19460748FFF783FE0123E1
:10B96C008DF80F309DF80F30184605B0F0BD00BFB4
:10B97C000C280D003C48002000280D0030B58BB081
:10B98C00019000910D230993009B00221A70019BDA
:10B99C00D3E90223CDE90623FFF70AFFDDE90623ED
:10B9AC00141A63EB0105CDE90445DDE90423012AF2
:10B9BC0073F1000318DB049BB3F5350F05D300F0CE
:10B9CC000BFB0246144B134400E0069B03934FF40D
:10B9DC009603039A00211148FFF782FA0990099BFC
:10B9EC00002B05D1012314E000210C48FFF750FB7C
:10B9FC00099B0D2B07D10198FFF72CFF03461A4624
:10BA0C00009B1A7004E006494FF48670FFF79EFB0A
:10BA1C00002318460BB030BDFFFFB40044230020B8
:10BA2C000C280D0000B583B00448FFF755FE0190BB
:10BA3C00019B184603B05DF804FB00BF00280D0005
:10BA4C0000B583B00448FFF769FE0190019B1846CE
:10BA5C0003B05DF804FB00BF00280D0000B583B0F7
:10BA6C00FFF7E0FF0190019B002B06D001994FF0EE
:10BA7C00FF324FF0FF33C1E90223019B002BEFD1C2
:10BA8C0000BF00BF03B05DF804FB0000054BD3E919
:10BA9C00002312F1807043F10001024BC3E9000155
:10BAAC0000BF70474048002010B582B00190124B87
:10BABC001B68002B1DD00198FFF71FFB04460021CB
:10BACC000198FFF70BFB03461946204600F078FA65
:10BADC000346B3F5960F04D3084940F24110FFF723
:10BAEC0035FB054B1B681846FFF7B4FE024B0022D2
:10BAFC001A6000BF02B010BD384800200C280D00A1
:10BB0C0000B583B00190FFF753FE02460B46034984
:10BB1C00C1E9002300BF03B05DF804FB48480020D6
:10BB2C0000B587B00190FFF78BFF049000238DF8D0
:10BB3C001730049B002B58D0049BD3E90223B3F19C
:10BB4C00FF3F08BFB2F1FF3F02D1FFF76BFF54E09C
:10BB5C002E4B1B68002B03D101238DF817301DE0F1
:10BB6C00049BD3E90201294B1B68D3E902239042C1
:10BB7C0071EB030312D201238DF81730234B1B6892
:10BB8C00D3E90223B3F1FF3F08BFB2F1FF3F05D069
:10BB9C001E4B1B6819461E48FFF764FD9DF81730B5
:10BBAC00002B2BD0FFF73EFF04900DF10F0319462D
:10BBBC000498FFF7E3FE0346002B12D0134B1B68CF
:10BBCC00002B02D10198FFF797F8104A049B1360E1
:10BBDC009DF80F3083F00103DBB2002BA3D000BF24
:10BBEC000FE00A4B00221A609DE7084B1B68002BE4
:10BBFC0006D10198FFF796F802E094E700BF00E049
:10BC0C0000BF00BF07B05DF804FB00BF3848002040
:10BC1C0000280D0000B587B001902B4A03AB1946E4
:10BC2C001046FFF77EFB059045E0059B1B78022B29
:10BC3C002BD0022B2FDC002B02D0012B11D02AE0B1
:10BC4C00059B5B68D3E90223B3F1FF3F08BFB2F158
:10BC5C00FF3F22D0059B5B6819461C48FFF702FD8D
:10BC6C001BE0059B5A681A4B1B689A4203D1184B70
:10BC7C0000221A6012E0059B5B6819461348FFF717
:10BC8C0061FD03468DF8133008E0FFF7E7FE114B1A
:10BC9C0001221A7002E000BF00E000BF0A4A03ABA9
:10BCAC0019461046FFF756FB074A03AB19461046D8
:10BCBC00FFF737FB0590059B002BB6D100BF00BFEB
:10BCCC0007B05DF804FB00BFA848002000280D0059
:10BCDC00384800203C48002000B583B00190019802
:10BCEC00FFF7C9F90346002B01D0FFF7CFFE002167
:10BCFC000198FFF7DEF90346002B02D00198FFF7FD
:10BD0C00D3FE01210198FFF7D4F90346002B02D092
:10BD1C000198FFF7F5FE0198FFF77CFF0198FFF7FC
:10BD2C00FFFE00BF03B05DF804FB000008B502483D
:10BD3C00FFF7F0F900BF08BD4423002000B585B023
:10BD4C00034600918DF80730114A02AB1946104694
:10BD5C00FFF7BAFA0390039B002B13D0039B9DF8BB
:10BD6C0007201A70039B009A5A60094A02AB1946C5
:10BD7C001046FFF7C2FA0346002B01D0FFF7D6FF9F
:10BD8C00002300E00423184605B05DF804FB00BF57
:10BD9C00A848002000B583B0164B1B6800931648CA
:10BDAC00082358221549FFF75CFA0190019B002BE0
:10BDBC0001D0019B19E06B46114A19461148FEF758
:10BDCC003BFF0190019B002B01D0019B0DE0012159
:10BDDC000C48FFF73FF901230B4A01210948FEF7F4
:10BDEC00B7FF0A4B01221A70019B184603B05DF88D
:10BDFC0004FB00BF5C280D00A84800205048002020
:10BE0C00E5BC020044230020FFFF7F003C480020DB
:10BE1C0000B587B003900B4601928DF80B30039B55
:10BE2C00002B04D1164940F25A20FFF78FF9019BE1
:10BE3C00002B04D1124940F25B20FFF787F9019BDC
:10BE4C00002B01D1072317E0039B1B680593059971
:10BE5C004FF0FF324FF0FF33C1E90223059B019AEB
:10BE6C005A619DF80B30012B0CBF01230023DBB270
:10BE7C001A46059B1A610023184607B05DF804FBAF
:10BE8C000C280D00F0B589B0039002910192039B30
:10BE9C00002B04D1264940F26B20FFF757F9039B86
:10BEAC00069300238DF817300DF117031846FEF793
:10BEBC0031FD069BD3E90223B3F1FF3F08BFB2F17A
:10BECC00FF3F11D1FFF774FC02460B46029900208C
:10BEDC000C460546161943EB0507069BC3E902679A
:10BEEC0001238DF81F3002E000238DF81F309DF8E0
:10BEFC0017301846FEF724FD9DF81F3083F0010320
:10BF0C00DBB2002B01D000230EE0069B019A9A6154
:10BF1C00069B1B69002B02D0069B029A1A6106999C
:10BF2C000020FFF70BFF0346184609B0F0BD00BF19
:10BF3C000C280D0000B587B00190019B002B04D19B
:10BF4C001E4940F29320FFF701F9019B0493002353
:10BF5C008DF80F300DF10F031846FEF7DBFC049B38
:10BF6C00D3E90223B3F1FF3F08BFB2F1FF3F03D186
:10BF7C0000238DF8173009E004994FF0FF324FF091
:10BF8C00FF33C1E9022301238DF817309DF80F30E0
:10BF9C001846FEF7D5FC9DF8173083F00103DBB291
:10BFAC00002B01D0002304E004990120FFF7C6FE0A
:10BFBC000346184607B05DF804FB00BF0C280D00C3
:10BFCC0082B001900091019A009BD31A23F07F4319
:10BFDC00184602B07047000008B50348FFF78DF80B
:10BFEC000346184608BD00BF4423002082B0034618
:10BFFC008DF807309DF90730002B13DB9DF80730C7
:10C00C0003F01F0209499DF907305B09012000FA72
:10C01C0002F2203341F82320BFF34F8F00BFBFF350
:10C02C006F8F00BF00BF02B0704700BF00E100E09F
:10C03C00044BD3F80034002B14BF01230023DBB2D4
:10C04C00184670470000014008B5FEF709FA034690
:10C05C0083F00103DBB2002B03D109497B20FFF7EE
:10C06C0075F8FFF7E5FF034683F00103DBB2002B05
:10C07C0004D000F029FC034B00229A7000BF08BDCD
:10C08C0060280D00BC48002000B583B0002301934C
:10C09C00184B1B78002B02D0852301931CE0154B09
:10C0AC0000229A60134B00225A60124B00221A6134
:10C0BC00104B0022DA60104800F0CCFB0190FEF728
:10C0CC00CFF9034683F00103DBB2002B01D000F063
:10C0DC00E7FB084B01221A70FFF7AAFF0346002B5F
:10C0EC0002D0044B01229A70019B184603B05DF8F4
:10C0FC0004FB00BFBC480020DDC1020084B00190ED
:10C10C00019B1B680393039B002B03D0039B1A68B2
:10C11C00019B1A60039B184604B0704700B583B0AE
:10C12C00164B1B78002B04D1154940F21710FFF762
:10C13C000DF8124BDB68002B04D111494FF48C70B5
:10C14C00FFF704F800238DF807300DF107031846AC
:10C15C00FEF7E0FB094BDB68013B084AD360074B59
:10C16C00DB68002B01D1FFF76FFF9DF807301846F5
:10C17C00FEF7E6FB00BF03B05DF804FBBC480020F3
:10C18C0060280D0000B585B003468DF807309DF88A
:10C19C000730002B02D10C4B039301E00B4B0393A4
:10C1AC000398FFF7ABFF0290029B002B06D0029B7B
:10C1BC005B689DF8072010469847F1E700BF00BF69
:10C1CC0005B05DF804FB00BFC4480020CC4800203B
:10C1DC0000B583B003468DF807309DF80730002B6F
:10C1EC0005D10A4B01225A700020FFF7CBFF9DF8B6
:10C1FC000730012B05D1054B01229A700120FFF766
:10C20C00C1FF00BF03B05DF804FB00BFBC480020B9
:10C21C0000B583B001900091019B002B05D1054B1B
:10C22C0001225A700020FFF7ADFF00BF03B05DF88C
:10C23C0004FB00BFBC48002000B585B0034600914C
:10C24C008DF807309DF80730032B29D0032B35DCF4
:10C25C00002B02D0012B04D030E00020FFF7C6FEEB
:10C26C002DE000238DF80F300DF10F031846FEF76B
:10C27C0051FB154B1B7883F00103DBB2002B01D073
:10C28C00FFF702FF104BDB6801330F4AD3600E4BF4
:10C29C0001229A709DF80F301846FEF751FB0EE004
:10C2AC00094B1B78002B04D1084940F25220FEF7B1
:10C2BC004DFF00F0F5FAFFF731FF00E000BF00BFC3
:10C2CC0005B05DF804FB00BFBC48002060280D00E1
:10C2DC0000B585B00190019B002B0AD0074B43F0B1
:10C2EC0001030393019B9B010293039B02989847C4
:10C2FC0000E000BF05B05DF804FB00BFE0280D00B6
:10C30C0000B583B00190019B1B68184600F077F8CC
:10C31C000346002B04D10B494FF4F670FEF716FFC1
:10C32C00019B1B681F2B02D84FF0A04306E0019B1A
:10C33C001B6803F01F02019B1A60034B184603B0E5
:10C34C005DF804FBB0280D000003005000B585B06B
:10C35C00019001AB1846FFF7D3FF0390019B01221C
:10C36C0002FA03F31946039800F035F800BF05B044
:10C37C005DF804FB00B585B0019001AB1846FFF7E2
:10C38C00BFFF0390019B012202FA03F319460398A5
:10C39C0000F02BF800BF05B05DF804FB00B585B0CC
:10C3AC00019001AB1846FFF7ABFF0390039800F028
:10C3BC000AF80246019B22FA03F303F00103184624
:10C3CC0005B05DF804FB82B00190019BD3F81035E9
:10C3DC00184602B0704782B001900091019B009A00
:10C3EC00C3F8082500BF02B0704782B001900091DD
:10C3FC00019B009AC3F80C2500BF02B0704784B0B3
:10C40C000190019B5B09029300230393029B002B79
:10C41C0003D0029B012B04D007E04FF0FF330393B2
:10C42C0003E04FF6FF73039300BF019B03F01F0360
:10C43C000193039A019B22FA03F303F00103002BEF
:10C44C0014BF01230023DBB2184604B0704700B5BB
:10C45C0085B001904FF0A042019B1B6803F5E0737F
:10C46C0040F20C6142F823104FF0A042019B5B6834
:10C47C0003F5E07340F20C6142F82310019B1B683A
:10C48C001846FFF763FF019B5B681846FFF75EFFDA
:10C49C004FF0A042019B1B6803F5E07340F20D6165
:10C4AC0042F823104FF0A042019B5B6803F5E07348
:10C4BC0040F20D6142F823100420FFF709FF00231E
:10C4CC0003931EE0019B5B681846FFF767FF03466A
:10C4DC00002B03D0039B002B17D124E0019B1B687E
:10C4EC001846FFF747FF0420FFF7F2FE019B1B687D
:10C4FC001846FFF72BFF0420FFF7EAFE039B0133DE
:10C50C000393039B082BDDDD00E000BF019B5B6800
:10C51C001846FFF72FFF0420FFF7DAFE019B5B683C
:10C52C001846FFF713FF05B05DF804FB00B589B0A2
:10C53C0001900091009B0793019B1B788DF80C30A8
:10C54C00019B1B798DF81030019B5B798DF81130B4
:10C55C00019B9B68DBB28DF81230019BDB68DBB270
:10C56C008DF81330019B1B690593019B5B69069346
:10C57C00074A079B52F823300649079A51F82210B4
:10C58C0003AA1046984700BF09B05DF804FB00BF32
:10C59C00D0480020D848002000B587B00390029105
:10C5AC0001920093039B1B7805931249059B019AFA
:10C5BC0041F823201049059B009A41F82320029B47
:10C5CC005B7B002B02D00298FFF741FF0023049302
:10C5DC00039B181D019B002B01D0084A00E0002290
:10C5EC00059B029902F0EEFB0490049B184607B0E1
:10C5FC005DF804FBD0480020D848002039C5020063
:10C60C0082B003468DF807309DF90730002B0CDB08
:10C61C009DF8073003F01F0205499DF907305B09AF
:10C62C00012000FA02F241F8232000BF02B070474B
:10C63C0000E100E082B0034600918DF807309DF9CF
:10C64C000730002B0ADB009BDAB20C499DF907304E
:10C65C005201D2B20B4483F800230BE0009BDAB2F8
:10C66C0007499DF8073003F00F03043B5201D2B287
:10C67C000B441A7600BF02B0704700BF00E100E027
:10C68C0000ED00E082B00190019B1B0B5BB21846E1
:10C69C0002B0704700B583B003460A468DF80730E8
:10C6AC0013468DF806309DF80630012B03D99DF802
:10C6BC000630032B0BD99DF80630042B03D99DF8BB
:10C6CC000630072B03D908496B20FEF73FFD9DF878
:10C6DC0006209DF9073011461846FFF7ABFF00BF47
:10C6EC0003B05DF804FB00BFE8280D0000B583B073
:10C6FC0003468DF807309DF907301846FFF780FF89
:10C70C0000BF03B05DF804FB82B003468DF8073020
:10C71C000F4A9DF90730002B00DA1F335B115BB217
:10C72C0052F823209DF90730594203F01F0301F002
:10C73C001F0158BF4B425BB222FA03F303F0010313
:10C74C00002B14BF01230023DBB2184602B0704744
:10C75C0000E100E082B001904FF08042019BC2F8F2
:10C76C00083300BF02B0704782B003468DF8073023
:10C77C009DF8073003F1804301221A6000BF02B01C
:10C78C00704784B00346ADF80630BDF8063003F1AF
:10C79C00804300221A60BDF8063003F180431B6809
:10C7AC000393039B00BF04B0704782B00346ADF8FF
:10C7BC000630BDF8063003F180431B68002B14BF14
:10C7CC0001230023DBB2184602B0704782B00190FF
:10C7DC004FF08042019BC2F8183500BF02B0704781
:10C7EC004FF08043D3F818341B0C03F00103002BDB
:10C7FC0014BF01230023DBB21846704700B583B089
:10C80C0006238DF807304FF08040FFF73BFF0346BF
:10C81C001846FFF779FF034683F00103DBB2002BC8
:10C82C0013D04FF08040FFF72DFF03461A469DF8BA
:10C83C00073019461046FFF72DFF4FF08040FFF7E9
:10C84C0021FF03461846FFF751FF00BF03B05DF808
:10C85C0004FB000000B585B00190019B002B03D1B7
:10C86C000D49A420FEF772FC002303930B4B1B799C
:10C87C00002B02D08523039308E0084A019B136028
:10C88C00064B01221A71054B00225A71039B184664
:10C89C0005B05DF804FB00BF18290D00E04800202E
:10C8AC0008B5074B1B79002B03D10649BD20FEF7B9
:10C8BC004DFCFFF7A3FF0120FFF788FF00BF08BD69
:10C8CC00E048002018290D0008B50D4B1B79002BF2
:10C8DC0003D10C49F720FEF739FC0220FFF73AFF91
:10C8EC004FF48270FFF74DFF0C20FFF73DFF00BFA8
:10C8FC00FFF776FF0346002BFAD100BF00BF08BD3F
:10C90C00E048002018290D0008B54FF48070FFF79F
:10C91C004CFF0346002B14D04FF48070FFF731FF0F
:10C92C000120FFF717FF114B5B7983F00103DBB29A
:10C93C00002B06D00D4B01225A710C4B1B680020AA
:10C94C0098474FF48270FFF730FF0346002B0AD054
:10C95C004FF48270FFF715FF0220FFF7FBFE034B2D
:10C96C001B680120984700BF08BD00BFE0480020AD
:10C97C0082B003468DF807309DF90730002B0CDB95
:10C98C009DF8073003F01F0205499DF907305B093C
:10C99C00012000FA02F241F8232000BF02B07047D8
:10C9AC0000E100E082B0034600918DF807309DF95C
:10C9BC000730002B0ADB009BDAB20C499DF90730DB
:10C9CC005201D2B20B4483F800230BE0009BDAB285
:10C9DC0007499DF8073003F00F03043B5201D2B214
:10C9EC000B441A7600BF02B0704700BF00E100E0B4
:10C9FC0000ED00E082B00190019B1B0B5BB218466E
:10CA0C0002B0704700B583B003460A468DF8073074
:10CA1C0013468DF806309DF80630012B03D99DF88E
:10CA2C000630032B0BD99DF80630042B03D99DF847
:10CA3C000630072B03D908496B20FEF787FB9DF8BE
:10CA4C0006209DF9073011461846FFF7ABFF00BFD3
:10CA5C0003B05DF804FB00BF64290D0000B583B082
:10CA6C0003468DF807309DF907301846FFF780FF15
:10CA7C0000BF03B05DF804FB00B583B00346ADF80E
:10CA8C000630BDF80630184600F026F803461B6841
:10CA9C00012B0CBF01230023DBB2184603B05DF859
:10CAAC0004FB00B585B00346ADF80630BDF8063082
:10CABC00184600F011F803461A4600231360BDF81F
:10CACC000630184600F008F803461B680393039BD6
